:100000000C9467030C94682B0C94432B0C94AE2C2B
:100010000C94042D0C941B2D0C948F030C948F03C3
:100020000C948F030C948F030C948F030C948F0308
:100030000C948F030C948F030C945B2D0C948F0302
:100040000C94EC2A0C948F030C94BA2A0C94942AE6
:100050000C948F030C94C12E0C948F030C948F037B
:100060000C948F2B0C948F030300C8001027F4010D
:100070001027C80010270B005802F4012C01F401CE
:100080005802F4012C01F4015802F4012C01F4018E
:100090005802F4012C01F4015802F4012C01F4017E
:1000A0005802F40105002C01F4016400F4012C0154
:1000B000F4016400F4012C01F4010100F401C80012
:1000C00001000100102705000100E8030000E8031B
:1000D0000100E8030000E8030100E8030500010057
:1000E000640000006400010064000000640001007E
:1000F00064000100010064003C5A81DBDB815A3C52
:100100000000FE8383FE0000000307FFFF070300DB
:10011000080C0EFFFF0E0C08000000002400270052
:100120002A00010204081020408001020408102067
:1001300001020408102000000000250028002B0008
:10014000040404040404040402020202020203037D
:1001500003030303EF03038002CF0300C130ED0468
:1001600064031281E803850078CB05392C00340242
:10017000F70120EA020000C00123C10110C5023EC0
:1001800028C701863601483701003A0155B10200FF
:1001900018B603088227F20100260101E00F0F3193
:1001A0002B0C0E084EF1370710030E0900E10F006B
:1001B0000E1403110731C148080F0C31360F11809E
:1001C00029800000000000003E5B4F5B3E3E6B4F0D
:1001D0006B3E1C3E7C3E1C183C7E3C181C577D57D9
:1001E0001C1C5E7F5E1C00183C1800FFE7C3E7FF85
:1001F0000018241800FFE7DBE7FF30483A060E2618
:1002000029792926407F050507407F05253F5A3C6F
:10021000E73C5A7F3E1C1C08081C1C3E7F14227FB2
:1002200022145F5F005F5F06097F017F006689958A
:100230006A606060606094A2FFA29408047E040873
:1002400010207E201008082A1C08081C2A08081EF6
:10025000101010100C1E0C1E0C30383E3830060EDC
:100260003E0E06000000000000005F0000000700D6
:100270000700147F147F14242A7F2A122313086492
:100280006236495620500008070300001C22410036
:100290000041221C002A1C7F1C2A08083E08080076
:1002A0008070300008080808080000606000201016
:1002B0000804023E5149453E00427F4000724949D0
:1002C00049462141494D331814127F1027454545B1
:1002D000393C4A49493141211109073649494936D2
:1002E000464949291E000014000000403400000067
:1002F0000814224114141414140041221408020199
:100300005909063E415D594E7C1211127C7F4949C4
:1003100049363E414141227F4141413E7F49494961
:10032000417F090909013E414151737F0808087F57
:1003300000417F41002040413F017F081422417F5E
:10034000404040407F021C027F7F0408107F3E41F6
:1003500041413E7F090909063E4151215E7F09194D
:100360002946264949493203017F01033F40404065
:100370003F1F2040201F3F4038403F631408146354
:1003800003047804036159494D43007F4141410210
:1003900004081020004141417F0402010204404052
:1003A000404040000307080020545478407F284410
:1003B00044383844444428384444287F38545454FA
:1003C0001800087E090218A4A49C787F0804047809
:1003D00000447D40002040403D007F102844000044
:1003E000417F40007C047804787C08040478384419
:1003F000444438FC1824241818242418FC7C0804CD
:100400000408485454542404043F44243C404020ED
:100410007C1C2040201C3C4030403C442810284498
:100420004C9090907C4464544C4400083641000049
:1004300000770000004136080002010204023C2659
:1004400023263C1EA1A161123A4040207A38545420
:1004500055592155557941225454784221555478A3
:100460004020545579400C1E527212395555555939
:10047000395454545939555454580000457C41005E
:1004800002457D420001457C407D1211127DF0281D
:100490002528F07C545545002054547C547C0A098E
:1004A0007F4932494949323A4444443A324A4848F9
:1004B000303A4141217A3A42402078009DA0A07D07
:1004C0003D4242423D3D4040403D3C24FF242448C3
:1004D0007E4943662B2FFC2F2BFF0929F620C0886D
:1004E0007E090320545479410000447D413048483E
:1004F0004A32384040227A007A0A0A727D0D193158
:100500007D2629292F28262929292630484D4020B3
:10051000380808080808080808382F10C8ACBA2F8F
:10052000102834FA00007B000008142A1422221438
:100530002A14085500550055AA55AA55AAFF55FF7B
:1005400055FF000000FF00101010FF00141414FFEE
:10055000001010FF00FF1010F010F0141414FC0035
:100560001414F700FF0000FF00FF1414F404FC143F
:100570001417101F10101F101F1414141F00101038
:1005800010F0000000001F101010101F10101010AD
:10059000F010000000FF101010101010101010FFCD
:1005A00010000000FF140000FF00FF00001F1017E4
:1005B0000000FC04F414141710171414F404F400CD
:1005C00000FF00F714141414141414F700F7141493
:1005D00014171410101F101F141414F4141010F01A
:1005E00010F000001F101F0000001F14000000FC8E
:1005F000140000F010F01010FF10FF141414FF147A
:100600001010101F00000000F010FFFFFFFFFFF0B0
:10061000F0F0F0F0FFFFFF0000000000FFFF0F0F01
:100620000F0F0F3844443844FC4A4A4A347E0202D1
:100630000606027E027E0263554941633844443C0B
:1006400004407E201E2006027E020299A5E7A5999D
:100650001C2A492A1C4C7201724C304A4D4D3030D4
:1006600048784830BC625A463D3E494949007E01BF
:1006700001017E2A2A2A2A2A44445F444440514ADE
:10068000444040444A51400000FF0103E080FF0025
:100690000008086B6B083612362436060F090F0661
:1006A000000018180000001010003040FF01010089
:1006B0001F01011E00191D1712003C3C3C3C0000AC
:1006C0000000007E3C3C187EFFE7C300E72E1124AB
:1006D0001FBECFEFD8E0DEBFCDBF12E0A0E0B1E09B
:1006E000E6E0F8E602C005900D92A239B107D9F70D
:1006F00024E0A2E9B2E001C01D92AA37B207E1F7F7
:1007000013E0C7E6D3E004C02197FE010E94D13276
:10071000C636D107C9F70E94202F0C9401340C94DF
:100720000000982F2091C80381E0213208F043C0D7
:100730008091A4038111FCCF8091C70332E03093F4
:10074000A4039093A3039FEF9093A2031092A1039D
:100750002093A003A7EAB3E0E0E8F3E090E02913D8
:1007600031C010927F0390917F03880F892B809373
:100770007F0380917E03813049F510927E03809142
:100780007F038093BB008091BC0083FDF8CF85EC94
:100790008093BC008091A4038230E1F38091A20396
:1007A0008F3FB1F08091A2038032A1F08091A2032B
:1007B000803391F084E01092A6031092C803109247
:1007C000A50308953D9131939F5FC9CF85EEE0CF9A
:1007D00080E0F1CF82E0EFCF83E0EDCF2F923F9228
:1007E0004F925F926F927F928F929F92AF92BF9241
:1007F000CF92DF92EF92FF920F931F93CF93DF93ED
:1008000000D000D000D0CDB7DEB79E838D837B01B2
:100810003A01DC01ED91FC910284F385E02D09950C
:100820009701220F331F2F5F3F4F42E350E04E19D5
:100830005F09AD81BE81ED91FC9111970088F1892E
:10084000E02D83016DE270E0CD01099581E090E03B
:100850001C012E183F08882799278E199F099C0193
:10086000220F331F3C832B83270181E090E09A8382
:100870008983D12CC12C37FC0AC091E0E91AF10818
:10088000AB81BC811296BC83AB832A0E3B1EBFEFAB
:10089000CB1ADB0A29813A812E5F3F4F3A832983A5
:1008A000220E331EEC14FD040CF47FC04701880CAB
:1008B000991C3FEF831A930AAD81BE81ED91FC91A3
:1008C00011970088F189E02D8301940142E3A42E61
:1008D000B12CAE18BF08A501B601635D7F4FCD01F5
:1008E0000995AD81BE81ED91FC9111970088F18948
:1008F000E02D9401A5016DE270E06C197D09CD0138
:100900000995E414F50459F1B201635D7F4FAD819F
:10091000BE81ED91FC910088F189E02D83018980F1
:100920009A80B2E08B1A9108940183E3A82EB12C2F
:10093000AC18BD08A5018D819E8109956DE270E01E
:1009400064197509AD81BE81ED91FC911197008804
:10095000F189E02D9401A501CD0109952701CE145F
:10096000DF040CF488CFAD81BE81ED91FC9111972D
:100970000688F789E02DCD0126960FB6F894DEBFE4
:100980000FBECDBFDF91CF911F910F91FF90EF90E0
:10099000DF90CF90BF90AF909F908F907F906F909F
:1009A0005F904F903F902F900994E414F50409F064
:1009B000ABCFD9CF2F923F924F925F926F927F929F
:1009C0008F929F92AF92BF92CF92DF92EF92FF925F
:1009D0000F931F93CF93DF93EC016B01E881F981B3
:1009E0000284F385E02D0995812C912C54013FE27E
:1009F000E32EF12C43E0442E512C612C712C5FE44A
:100A0000252E312CC501B401A30192010E94893227
:100A1000B901625B7F4F86E0881A9108A108B1088E
:100A20009101261B370BE881F9810288F389E02DBB
:100A30008601A701CE0109958FEFE81AF80A82E333
:100A4000E816F104F9F6812C912C540182E3E82E8A
:100A5000F12C93E0492E512C612C712C2FE4222E85
:100A6000312CC501B401A30192010E948932B90160
:100A7000685B7F4F86E0880E911CA11CB11C910120
:100A8000261B370BE881F9810288F389E02D860166
:100A9000A701CE0109958FEFE81AF80A86E3E81658
:100AA000F104F9F6E881F9810688F789E02DCE0195
:100AB000DF91CF911F910F91FF90EF90DF90CF903A
:100AC000BF90AF909F908F907F906F905F904F906E
:100AD0003F902F900994482FE62F282F30E0863042
:100AE00009F459C000F58330E1F1853009F44FC0B5
:100AF0004830E0F14E3010F1443108F063C02E5020
:100B0000310981E090E0A0E0B0E004C0880F991FB7
:100B1000AA1FBB1F2A95D2F728B1EE2309F44FC0B4
:100B2000822B88B908958A30C9F18B30D9F1893088
:100B3000F9F6809180008F778093800028503109EA
:100B400081E090E0A0E0B0E004C0880F991FAA1FE8
:100B5000BB1F2A95D2F7E1112EC025B180958223C3
:100B60002CC09091B0009F7D9093B00081E090E008
:100B7000A0E0B0E004C0880F991FAA1FBB1F4A95D0
:100B8000D2F72BB1EE23A1F0822B8BB9089594B547
:100B90009F7D94BDEBCF94B59F77FBCF8091800074
:100BA0008F7DCACF8091B0008F778093B000C6CF81
:100BB00080958223EACF25B1822B85B9089580954F
:100BC0008223AFCF089508950895CF92DF92EF92D8
:100BD000FF920F931F93613009F460C0623009F4F3
:100BE00099C08830B8F42AB141E050E060E070E08C
:100BF0006A017B0104C0CC0CDD1CEE1CFF1C8A9535
:100C0000D2F7C6018095922F98239AB99BB1892378
:100C10008BB93DC08E30B8F424B1082F0850110BA9
:100C200081E090E0A0E0B0E004C0880F991FAA1F07
:100C3000BB1F0A95D2F78095922F982394B995B14E
:100C4000892385B924C0843110F5E7B190E09C0177
:100C50002E50310941E050E060E070E06A017B0114
:100C600004C0CC0CDD1CEE1CFF1C2A95D2F78601BB
:100C700000950E2307B928B1089704C0440F551FEB
:100C8000661F771F8A95D2F74095422348B91F9176
:100C90000F91FF90EF90DF90CF900895883090F4FF
:100CA0002AB141E050E060E070E07A018B0104C0BD
:100CB000EE0CFF1C001F111F8A95D2F7C701822B73
:100CC0008AB9E5CF8E3090F424B1082F0850110B6B
:100CD00081E090E0A0E0B0E004C0880F991FAA1F57
:100CE000BB1F0A95D2F7822B84B9D1CF843178F615
:100CF00027B1682F6E50770B81E090E0A0E0B0E064
:100D000004C0880F991FAA1FBB1F6A95D2F7822BB8
:100D100087B9BDCF8830B0F43AB141E050E060E02F
:100D200070E06A017B0104C0CC0CDD1CEE1CFF1CD2
:100D30008A95D2F7C6012C2D209523232AB92BB1F1
:100D4000822B66CF8E30B0F434B1082F0850110BCF
:100D500081E090E0A0E0B0E004C0880F991FAA1FD6
:100D6000BB1F0A95D2F7282F2095232324B925B13C
:100D7000822B67CF843108F08ACF37B1682F6E504D
:100D8000770B81E090E0A0E0B0E004C0880F991FED
:100D9000AA1FBB1F6A95D2F7282F2095232327B9B6
:100DA00028B1822B88B973CFAF92BF92CF92DF92D6
:100DB000EF92FF920F931F93CF93DF936C017B0110
:100DC0008B01040F151FEB015E01AE18BF08C017A1
:100DD000D10759F06991D601ED91FC910190F08114
:100DE000E02DC6010995892B79F7C501DF91CF91D7
:100DF0001F910F91FF90EF90DF90CF90BF90AF9039
:100E00000895FC01538D448D252F30E0842F90E010
:100E1000821B930B541710F0CF96089501970895F5
:100E2000FC01918D828D981761F0A28DAE0FBF2FBE
:100E3000B11D5D968C91928D9F5F9F73928F90E014
:100E400008958FEF9FEF0895FC01918D828D981783
:100E500031F0828DE80FF11D858D90E008958FEFC0
:100E60009FEF0895FC01918D228D892F90E0805C89
:100E70009F4F821B91098F73992708958DEC93E002
:100E80000E94320721E0892B09F420E0822F089587
:100E900080E090E0892B29F00E943E0781110C949C
:100EA00000000895FC01A48DA80FB92FB11DA35A0D
:100EB000BF4F2C91848D90E001968F739927848F7A
:100EC000A689B7892C93A089B1898C91837080649D
:100ED0008C93938D848D981306C00288F389E02D3E
:100EE00080818F7D80830895EF92FF920F931F93EF
:100EF000CF93DF93EC0181E0888F9B8D8C8D9813CD
:100F00001AC0E889F989808185FF15C09FB7F894D8
:100F1000EE89FF896083E889F98980818370806424
:100F200080839FBF81E090E0DF91CF911F910F916F
:100F3000FF90EF900895F62E0B8D10E00F5F1F4F7E
:100F40000F731127E02E8C8D8E110CC00FB607FC8D
:100F5000FACFE889F989808185FFF5CFCE010E941B
:100F60005207F1CFEB8DEC0FFD2FF11DE35AFF4F30
:100F7000F0829FB7F8940B8FEA89FB8980818062A9
:100F8000CFCFCF93DF93EC01888D8823B9F0AA8966
:100F9000BB89E889F9898C9185FD03C0808186FD34
:100FA0000DC00FB607FCF7CF8C9185FFF2CF808183
:100FB00085FFEDCFCE010E945207E9CFDF91CF919F
:100FC00008953FB7F8948091580390915903A091E8
:100FD0005A03B0915B0326B5A89B05C02F3F19F0BB
:100FE0000196A11DB11D3FBFBA2FA92F982F8827A9
:100FF000BC01CD01620F711D811D911D43E0660F83
:10100000771F881F991F4A95D1F708958F929F9255
:10101000AF92BF92CF92DF92EF92FF926B017C0171
:101020000E94E1074B015C010E94E1076819790900
:101030008A099B09683E734081059105A8F381E008
:10104000C81AD108E108F10828EE820E23E0921EAA
:10105000A11CB11CC114D104E104F10429F7FF90D3
:10106000EF90DF90CF90BF90AF909F908F900895BA
:1010700085ED8093BC008091BC0084FDFCCF109274
:10108000A403089520913003260F3327331F213204
:101090003105ECF42091A403FC0190E080E02430C1
:1010A00069F082E00895A09130032191AC01405F86
:1010B0005C4FA40FB52FB11D2C930196861798F3A2
:1010C00080913003680F6093300380E0089581E0E1
:1010D00008950895E091630380916203E81730F466
:1010E000F0E0E051FD4F808190E008958FEF9FEF99
:1010F000089590916303809162032FEF3FEF98175B
:1011000048F4E92FF0E0E051FD4F208130E09F5F8F
:1011100090936303C90108958091620390916303E2
:10112000891B990B0895CF92DF92EF92FF920F9354
:101130001F93CF93DF937C01CB018A012091A503FC
:10114000222389F0EB016B01C40ED51ECC15DD0501
:1011500069F06991D701ED91FC910190F081E02D4A
:10116000C7010995F3CF642F0E944208C801DF919F
:10117000CF911F910F91FF90EF90DF90CF90089546
:10118000CF93DF931F92CDB7DEB769832091A5037C
:101190002223F9F02091C803203258F021E030E0FA
:1011A000FC013383228390E080E00F90DF91CF91A8
:1011B00008958091A603E82FF0E0E955FC4F99814E
:1011C00090838F5F8093A6038093C80381E090E0B3
:1011D000ECCF61E0CE0101960E944208F7CFFC01FE
:1011E000A5A1B6A18C9192A589238C93A5A1B6A1A6
:1011F0008C9191A5892B8C9308950F931F93CF9376
:10120000DF93EC018B018DA981110DC01EBD0DB4C2
:1012100007FEFDCF0EBD0DB407FEFDCFDF91CF91D0
:101220001F910F9108958130E9F480E1E9A1FAA1BD
:10123000908117FF14C02DA1922B9083EBA1FCA1EC
:1012400090812FA1922B9083EBA1FCA1908128A5E6
:1012500092239083000F111F815041F7DFCF2EA101
:101260009223EBCFEF8DF8A11083CE010E94EF08FF
:10127000EF8DF8A10083CE01DF91CF911F910F91E7
:101280000C94EF08FC0185A9811105C06EBD0DB459
:1012900007FEFDCF08958130E1F488E0A1A1B2A15D
:1012A0009C9167FF13C025A1922B9C93A3A1B4A18D
:1012B0009C9127A1922B9C93660FA3A1B4A19C9112
:1012C00020A592239C93815049F7089526A192234B
:1012D000ECCFA78DB0A16C93CF010C94EF08CF9306
:1012E000DF93EC01ED8DFE8D80819CA989238083A5
:1012F000CE010E944209ED8DFE8D80819BA9892B34
:101300008083DF91CF910895FC0185A9811104C0EC
:1013100091A182A19CBD8DBD08951F93CF93DF93B2
:10132000EC01162FE881F9810284F385E02D0995FF
:10133000112371F06DADCE010E946F09E881F98132
:101340000688F789E02DCE01DF91CF911F91099496
:101350006EADF1CFAF92BF92CF92DF92EF92FF923C
:101360000F931F93CF93DF93EC0177FD38C08885EF
:101370009985681779079CF557FD31C08A859B854B
:101380004817590764F569017A015B01E881F98121
:101390000284F385E02DCE010995E881F98102A44C
:1013A000F3A5E02D01E010E021E030E0A701B50158
:1013B000CE010995B601CE010E94FD08E881F981B0
:1013C0000688F789E02DCE01DF91CF911F910F9113
:1013D000FF90EF90DF90CF90BF90AF900994DF9196
:1013E000CF911F910F91FF90EF90DF90CF90BF9022
:1013F000AF9008958F929F92AF92BF92CF92DF925B
:10140000EF92FF920F931F93CF93DF93EC0149016B
:101410005701E881F98102A4F3A5E02D0995940113
:10142000D8010E94A8326B017C01C114D104E104EF
:10143000F10409F490C08DA9811115C081E0C81A8A
:10144000D108E108F1088FEFC816D806E806F806BB
:1014500009F481C0BEBC0DB407FEFDCFAEBC0DB417
:1014600007FEFDCFEBCF813009F045C081E0C81AFF
:10147000D108E108F1088FEFC816D806E806F8068B
:1014800009F469C09B2D88E0E9A1FAA1208197FFAA
:101490002CC03DA1232B2083EBA1FCA120813FA1E7
:1014A000232B2083EBA1FCA1208138A523232083BB
:1014B000990F815049F79A2D88E0E9A1FAA120817E
:1014C00097FF16C03DA1232B2083EBA1FCA1208117
:1014D0003FA1232B2083EBA1FCA1208138A523234E
:1014E0002083990F815049F7C1CF3EA12323D3CF49
:1014F0003EA12323E9CFBA1016C0CC0CDD1CEE1C94
:10150000FF1CEF8DF8A1B08281E0C81AD108E10874
:10151000F1088FEFC816D806E806F806E1F0CE010C
:101520000E94EF08F1CF81E0C81AD108E108F10864
:101530008FEFC816D806E806F80669F0EF8DF8A117
:10154000B082CE010E94EF08EF8DF8A1A082CE01FB
:101550000E94EF08E8CFDF91CF911F910F91FF908C
:10156000EF90DF90CF90BF90AF909F908F900895B5
:101570008F929F92AF92BF92CF92DF92EF92FF92A3
:101580000F931F93CF93DF935C014B016A01E90135
:1015900077FD52C0DC0118968D919C9168177907F0
:1015A0000CF04AC0209709F447C037FF07C0C901B3
:1015B0000196C80ED91ED195C195D109F501828534
:1015C0009385C816D906C4F5A6014C0F5D1F9A0174
:1015D0002150310937FD30C0D7FE03C0EA01D12CBC
:1015E000C12C281739071CF0EC01CC19DD09D501F5
:1015F000ED91FC910284F385E02DC50109957801F8
:101600008E0121E030E0A601B401C5010E94FA0973
:10161000D501ED91FC910688F789E02DC501DF9198
:10162000CF911F910F91FF90EF90DF90CF90BF90DF
:10163000AF909F908F900994DF91CF911F910F9160
:10164000FF90EF90DF90CF90BF90AF909F908F90E2
:1016500008958F929F92AF92BF92CF92DF92EF92B6
:10166000FF920F931F93CF93DF935C016B014A01AD
:10167000E90157FD52C0DC011A968D919C914817E3
:1016800059070CF04AC0209709F447C037FF07C03C
:10169000C9010196C80ED91ED195C195D109F50190
:1016A00080859185C816D906C4F5A6014C0F5D1F2B
:1016B0009A012150310937FD30C0D7FE03C0EA013D
:1016C000D12CC12C281739071CF0EC01CC19DD09ED
:1016D000D501ED91FC910284F385E02DC5010995BA
:1016E000780101E010E09E01A401B601C5010E944D
:1016F000FA09D501ED91FC910688F789E02DC50125
:10170000DF91CF911F910F91FF90EF90DF90CF90DD
:10171000BF90AF909F908F900994DF91CF911F91D0
:101720000F91FF90EF90DF90CF90BF90AF909F9080
:101730008F9008958F929F92AF92BF92CF92DF9237
:10174000EF92FF920F931F93CF93DF934C016B01A6
:101750005A01E901209709F46CC00115110509F43B
:1017600068C037FF07C0C9010196C80ED91ED195C0
:10177000C195D109F401A085B185CA16DB060CF02C
:1017800058C017FF07C0C8010196A80EB91E1195D1
:1017900001951109F40182859385A816B9060CF00C
:1017A00048C0F601EC0FFD1FAF014150510957FD34
:1017B00040C0B501600F711F9B012150310937FDF9
:1017C00038C0D7FE03C0EF01D12CC12CB7FE03C037
:1017D0008B01B12CA12C4A175B071CF0ED01CC1931
:1017E000DD09281739071CF08C010A191B09D401DF
:1017F000ED91FC910284F385E02DC40109959E01D1
:10180000A501B601C4010E94FA09D401ED91FC9131
:101810000688F789E02DC401DF91CF911F910F91C8
:10182000FF90EF90DF90CF90BF90AF909F908F9000
:101830000994DF91CF911F910F91FF90EF90DF906E
:10184000CF90BF90AF909F908F900895EF92FF92AE
:101850000F931F93CF93DF9377FD32C0DC0118966F
:10186000ED91FC916E177F075CF52115310541F173
:1018700037FF07C0F90131964E0F5F1F3195219553
:101880003109DC011A96ED91FC914E175F07C4F403
:10189000EA01C20FD31FDE011197B7FD11C057FF38
:1018A00003C09E0150E040E0AE17BF071CF09F014F
:1018B000241B350B7801890121E030E00E94FA09F0
:1018C000DF91CF911F910F91FF90EF900895EF92CC
:1018D000FF920F931F93CF93DF9357FD31C0DC012D
:1018E0001A96ED91FC914E175F0754F521153105BD
:1018F00039F137FF07C0F90131966E0F7F1F31951F
:1019000021953109DC011896ED91FC916E177F0746
:10191000BCF4EB01C20FD31FDE011197B7FD10C05D
:1019200077FF03C09E0170E060E0AE17BF071CF0B8
:101930009F01261B370B780101E010E00E94FA0995
:10194000DF91CF911F910F91FF90EF9008958F92AB
:101950009F92AF92BF92CF92DF92EF92FF920F933E
:101960001F93CF93DF9347012115310509F44BC035
:101970000115110509F447C037FF07C0F901319679
:101980006E0F7F1F319521953109DC011896AD90BE
:10199000BC906A157B05BCF517FF07C0F8013196AE
:1019A0004E0F5F1F119501951109DC011A96ED91FB
:1019B000FC914E175F073CF56B01C20ED31EE6018A
:1019C0002197D7FD20C07A01E00EF11ED7011197B3
:1019D000B7FD19C077FF03C0960170E060E057FFC4
:1019E00003C0870150E040E0CA15DB051CF09501FB
:1019F000261B370BAE17BF071CF08F01041B150BFE
:101A000074010E94FA09DF91CF911F910F91FF900D
:101A1000EF90DF90CF90BF90AF909F908F90089500
:101A2000EF92FF920F931F93CF93DF93EC0177FD1B
:101A300022C08885998568177907ECF457FD1BC08B
:101A40008A859B8548175907B4F47901E881F981A3
:101A500002A4F3A5E02D01E010E021E030E0CE018A
:101A60000995B701CE01DF91CF911F910F91FF90A2
:101A7000EF900C94FD08DF91CF911F910F91FF9093
:101A8000EF900895CF93DF93EC010E9484098FA912
:101A900087FD06C0EB8DFC8D80819AA98923808308
:101AA000DF91CF9108950895AF92BF92CF92DF92C8
:101AB000EF92FF920F931F93CF93DF93EC01E62EEB
:101AC0008A01A22E0E9484098FA987FD06C0EB8D92
:101AD000FC8D80819AA989238083ED8DFE8D808184
:101AE0009CA9892380836E2DCE010E944209ED8D31
:101AF000FE8D80819BA9892B8083D12CC12CB12C98
:101B0000CA14DB04E4F48DA97801823079F488A941
:101B1000882361F0F801619171917F01CE010E94EB
:101B2000FD08FFEFCF1ADF0A8701EACFFFEFEF1AB8
:101B3000FF0AF8016491CE010E944209F2CF8FA9F9
:101B400087FD06C0EB8DFC8D808199A9892B808350
:101B5000DF91CF911F910F91FF90EF90DF90CF9089
:101B6000BF90AF900895FC0187A987FD06C0A38DA3
:101B7000B48D9C9181A9892B8C9308950895FC01C3
:101B80006370668B8481958126813781613039F05D
:101B9000633029F0918780873387228708953187C2
:101BA00020879387828708952F923F924F925F926A
:101BB0006F927F928F929F92AF92BF92CF92DF925D
:101BC000EF92FF920F931F93CF93DF93CDB7DEB7C2
:101BD0006A970FB6F894DEBF0FBECDBF9A8F898F7C
:101BE0007A8369834A01D22E18870F833701BC2C70
:101BF000DC0159962D913C915A972115310509F038
:101C000015C118968D919C911997681779070CF05A
:101C1000D7C11A968D919C91481759070CF0D0C1E5
:101C20004C2C512CB6E0CB9E600D711D11247C878D
:101C30006B87161617060CF0C3C1EA2DF0E0FA8781
:101C4000E98793E0EE0FFF1F9A95E1F7F88BEF8796
:101C5000CF01840F951F181619060CF0B1C1A98D7C
:101C6000BA8D58968C91811104C0BFEABD1508F455
:101C7000D394A98DBA8DED91FC9111970284F385CF
:101C8000E02DCD010995B5E0DB9EC0011124E9816D
:101C9000FA81FC83EB83312C212C9C012D533E4F88
:101CA000388F2F8B4A2D50E05E8B4D8BEF89F88D4E
:101CB000E20DF31D44919E828D82D12CC12C69814D
:101CC0007A81620D731D7A8B698B842F90E09C8BD7
:101CD0008B8BE98DFA8DA081B18140FF82C0F1E04C
:101CE000BF126FC0AF126DC01C96ED91FC912F8199
:101CF0003885A4014C0D5D1D69897A89898D9A8D7D
:101D00000995EB89FC89F595E7954E2F5FEFC51A8C
:101D1000D50A6D817E818D899E89680F791F7E83AA
:101D20006D8398E0C916D10481F6AFEF2A1A3A0AFA
:101D3000EB81FC81E40DF51DFC83EB83F5E02F16B0
:101D4000310409F0B3CF2F81388526153705B9F056
:101D5000A98DBA8DED91FC91B1E0BB1257C0AB12C9
:101D600055C069817A816B5F7F4F0088F189E02DD2
:101D7000830128E030E0A401898D9A8D0995A98D11
:101D8000BA8DED91FC9111970688F789E02DCD0170
:101D90006A960FB6F894DEBF0FBECDBFDF91CF912C
:101DA0001F910F91FF90EF90DF90CF90BF90AF9079
:101DB0009F908F907F906F905F904F903F902F906B
:101DC00009941E96ED91FC91EF80F88409851A859F
:101DD00092014D815E816B817C81898D9A8D0995FF
:101DE00090CF2F8138852615370509F48ACF31E049
:101DF000B31207C0A31205C01C96ED91FC9193018C
:101E000078CF1E96ED91FC917301E0CF6B857C85B8
:101E1000641975090684F785E02D73010F8518890B
:101E20009201A401898D9A8D0995A9CFF901349663
:101E30009491329745915491D91AB7E0DB9E400DA9
:101E4000511D1124F901259134913C8B2B8BFA0102
:101E500025903490FA013296749031963491398BF2
:101E6000329664903196449041E04C1518F04A1532
:101E700008F07FC0662D062C000C770B7C836B83EB
:101E8000842D042C000C990B9E838D83A98DBA8D13
:101E9000ED91FC9111970284F385E02DCD01099518
:101EA000512CD12CC12CEA2DF0E0FA87E9872B2D9B
:101EB00030E03C872B87A401440D511D47FC5A9507
:101EC000588F4F8B69817A81660D711D67FC7A95F9
:101ED0007E876D877989C71608F051CF2C2D30E0A9
:101EE0004D815E81420F531FA985BA854A9FC0016B
:101EF0004B9F900D5A9F900D1124FC01E80DF91D88
:101F0000F88BEF87852D612C4F89588D420F531F19
:101F10005E8B4D8B671408F050C044244394480EE8
:101F2000877041F4C1010196EB89FC89E20DF31D34
:101F3000D4901C01D7FE19C0A98DBA8DED91FC91EA
:101F4000662D70E0B1E0BB1219C0AB1217C02D8531
:101F50003E85620F731F0484F585E02D2F8138853F
:101F60004D895E89898D9A8D0995DD0C6394842D48
:101F7000D1CF1E821D821C821B8288CF4B815C8147
:101F8000640F751FAB85BC856A9FC0016B9F900D68
:101F90007A9F900D112469817A81680F791F0684D8
:101FA000F785E02DEF80F88409851A859D014F851E
:101FB0005889898D9A8D0995D8CF570CC3948ACFAB
:101FC0006A960FB6F894DEBF0FBECDBFDF91CF91FA
:101FD0001F910F91FF90EF90DF90CF90BF90AF9047
:101FE0009F908F907F906F905F904F903F902F9039
:101FF00008958F929F92AF92CF92EF92FF920F939C
:102000001F93CF93DF93EC01262F898D9A8D009734
:1020100009F051C06A30D1F41D861C868D8948E0D4
:10202000849F900111248E859F85820F931F9F8727
:102030008E8781E090E0DF91CF911F910F91FF900B
:10204000EF90CF90AF909F908F9008956D3089F36F
:10205000CC88AD888F898823C1F08C859D8536E03A
:10206000C39E800D911D1124488559854817590735
:1020700064F44E855F851D861C8638E0A39EC001F2
:102080001124840F951F9F878E87EA88FB88088913
:1020900019894E855F856C857D85CE010E94D40DA2
:1020A0002C898C859D8546E0249F800D911D1124EF
:1020B0009D878C87BECF6A3069F41D861C86FC0123
:1020C0003896E4912D898E859F85E29F800D911D24
:1020D0001124ADCF6D3009F4ACCFFC0134963491AE
:1020E000631708F4A6CF3296E491E61708F4A1CF5F
:1020F000FC01329685909490462F431B342F47E085
:10210000349F800C911C1124F40132963491319645
:10211000E4913323A9F1EE2399F1CC88F4013596AB
:10212000E491AD884F89442301F10E2E000CFF0B82
:10213000E30FF11DCE9EA001CF9E500D11246C85A2
:102140007D85460F571F68857985641775076CF480
:102150004E855F851D861C86FC013896E491AE9EF7
:10216000400D511D11245F874E87EA88FB8808893E
:1021700019894E855F856C857D85CE010E94D40DC1
:10218000F4013496E4912C898C859D85E29F800D25
:10219000911D11248DCF3F924F925F926F927F924B
:1021A0008F929F92AF92BF92CF92DF92EF92FF9267
:1021B0000F931F93CF93DF9300D000D000D0CDB703
:1021C000DEB79E838D832B015A013901DC01ED912D
:1021D000FC910284F385E02D0995C80107969C01C6
:1021E00093E0359527959A95E1F73A832983C501C0
:1021F0008E0D9F1D9C838B83912C812C312CAB8168
:10220000BC81AA16BB0699F1F12CE12CE016F1066F
:1022100031F1C70187709927330C892B59F4F701E5
:1022200083E0F595E7958A95E1F7E80DF91DE60D50
:10223000F71D349037FE0FC0AD81BE81ED91FC914A
:1022400011970484F585E02D9601A501B2016E0D6C
:102250007F1DCD010995BFEFEB1AFB0AD7CF2FEFFA
:10226000A21AB20A89819A81880E991EC8CFAD81BF
:10227000BE81ED91FC9111970688F789E02DCD0183
:1022800026960FB6F894DEBF0FBECDBFDF91CF917B
:102290001F910F91FF90EF90DF90CF90BF90AF9084
:1022A0009F908F907F906F905F904F903F90099498
:1022B0006F927F928F929F92AF92BF92CF92DF9256
:1022C000EF92FF920F931F93CF93DF93EC016B017B
:1022D0005A0139014801E881F9810284F385E02D32
:1022E0000995E881F9810288F389E02D870193013E
:1022F000A501B601CE010995A501480D591D415012
:102300005109E881F9810288F389E02D9301B60132
:10231000CE010995E881F9810088F189E02D9401C9
:10232000A501B601CE010995C60CD71CB6016150B6
:102330007109E881F9810088F189E02D9401A501F6
:10234000CE010995E881F9810688F789E02DCE0153
:10235000DF91CF911F910F91FF90EF90DF90CF9081
:10236000BF90AF909F908F907F906F9009946F92E5
:102370007F928F929F92AF92BF92CF92DF92EF9215
:10238000FF920F931F93CF93DF935C01EB016A01E0
:10239000490138018701DC01ED91FC916217730757
:1023A00019F5641675062CF0962D872D3A01C92E65
:1023B000D82E9601261937092F5F3F4F048CF58DD3
:1023C000E02DA301BE01C5010995DF91CF911F91B9
:1023D0000F91FF90EF90DF90CF90BF90AF909F90C4
:1023E0008F907F906F9008954615570591F42617AA
:1023F000370724F0892D4B01C22FD82F9E012819B1
:1024000039092F5F3F4F068CF78DE02DA601B401EF
:10241000DACF0284F385E02D0995D501ED91FC9189
:102420000488F589E02D83019401A601BE01C50150
:102430000995D501ED91FC910688F789E02DC5013C
:10244000DF91CF911F910F91FF90EF90DF90CF9090
:10245000BF90AF909F908F907F906F900994EF9274
:10246000FF920F931F93DC011A960D911C911B97FD
:1024700018962D913C911997ED91FC9100A0F1A136
:10248000E02D7B0150E040E070E060E009951F9195
:102490000F91FF90EF9008954F925F926F927F920D
:1024A0008F929F92AF92BF92CF92DF92EF92FF9264
:1024B0000F931F93CF93DF936C012B015A013901C6
:1024C0004801DC01ED91FC910284F385E02D099532
:1024D000E201640C751CD601ED91FC91C615D7057F
:1024E0005CF40088F189E02D87019401A501BE010B
:1024F000C60109952196EFCF0688F789E02DC60120
:10250000DF91CF911F910F91FF90EF90DF90CF90CF
:10251000BF90AF909F908F907F906F905F904F9003
:1025200009948F929F92AF92BF92CF92DF92EF92D7
:10253000FF920F931F93CF93DF93EC015B014A014E
:102540006901E881F9810284F385E02D09959501FF
:102550002C0D3D1D21503109E881F9810488F58950
:10256000E02D78018401A401B501CE010995E8812F
:10257000F9810688F789E02DCE01DF91CF911F9177
:102580000F91FF90EF90DF90CF90BF90AF909F9012
:102590008F9009948F929F92AF92BF92CF92DF92C9
:1025A000EF92FF920F931F93CF93DF93EC015B01A8
:1025B0004A0169017801E881F9810284F385E02DFF
:1025C0000995C80CD91C860101501109E881F981CF
:1025D0000488F589E02D9501A401B501CE01099586
:1025E000E881F9810688F789E02DCE01DF91CF914E
:1025F0001F910F91FF90EF90DF90CF90BF90AF9021
:102600009F908F900994EF92FF920F931F93DC019C
:10261000ED91FC9100A0F1A1E02D09951F910F9182
:10262000FF90EF9008950F931F93DC01ED91FC91C3
:10263000068CF78DE02D09951F910F9108950F934A
:102640001F93DC01ED91FC91048CF58DE02D099533
:102650001F910F910895DC01ED91FC910084F185AB
:10266000E02D09942F923F924F925F926F927F924A
:102670008F929F92AF92BF92CF92DF92EF92FF9292
:102680000F931F93CF93DF9300D000D000D0CDB72E
:10269000DEB73C016A013E832D83FC82EB82580148
:1026A000A41AB50AB7FE03C0B194A194B1088D80F5
:1026B0009E80861A970A97FE03C091948194910890
:1026C0008A149B045CF0902F812F0D811E819D83C5
:1026D0008E839C2D8D2D6B01692F782F0C151D0578
:1026E0005CF09D818E817E836D83692F782F902F82
:1026F000812F8601C92ED82E1601201A310A2B01EE
:102700002D813E81421A530A57FE03C051944194D1
:102710005108710137FE03C03FEFE31AF30AF59445
:10272000E7948D819E81861797075CF5A1E0B0E064
:10273000BA83A983C016D1064CF1D301ED91FC9167
:102740000484F585E02D2B813C81A8016D817E817B
:102750008A149B041CF04D815E81B801C301099568
:10276000E418F508F7FE0AC02D813E8189819A811F
:10277000280F391F3E832D83E20CF31C0F5F1F4F80
:10278000D9CF2FEF3FEF3A832983D4CF26960FB6C8
:10279000F894DEBF0FBECDBFDF91CF911F910F9197
:1027A000FF90EF90DF90CF90BF90AF909F908F9071
:1027B0007F906F905F904F903F902F900895AF92D1
:1027C000BF92CF92DF92EF92FF920F931F93CF931E
:1027D000DF93EC015B016A01215031097901E60EBA
:1027E000F71E01501109040F151F80910C019091E3
:1027F0000D018617970739F480910A0190910B011A
:102800008E159F05A1F06AE2CE010E946F09B50105
:10281000CE010E94FD08B701CE010E94FD08B092D2
:102820000D01A0920C01F0920B01E0920A0180913F
:102830000801909109018C159D0539F480910601DC
:102840009091070180179107A1F06BE2CE010E94E1
:102850006F09B601CE010E94FD08B801CE010E94A9
:10286000FD08D0920901C09208011093070100935E
:1028700006016CE2CE01DF91CF911F910F91FF9085
:10288000EF90DF90CF90BF90AF900C946F096111E3
:1028900006C060E220E050E040E00C94540D61E29C
:1028A000F9CF0F931F93CF93DF931F92CDB7DEB76E
:1028B0008C016370DC0156966C935697623009F474
:1028C00068C0633009F46AC0613009F456C088E416
:1028D000898380EF90E019969C938E93189780E4FB
:1028E00091E01B969C938E931A97C8010E948409CD
:1028F000D801D7968C91D79787FD09C05B96ED914B
:10290000FC915C978081D2969C9189238083D80129
:102910005D96ED91FC915E978081D4969C91892380
:10292000808366E3C8010E944209D8015D96ED915B
:10293000FC915E978081D3969C91D397892B80835D
:10294000D5968C91823061F16981C8010E9442095B
:10295000D801D7968C91D79787FD09C05B96ED91EA
:10296000FC915C978081D1969C91892B80830F90FC
:10297000DF91CF911F910F91089588E2898380E4C0
:1029800091E0F8019187808780EF90E093878287BC
:10299000ACCF88E8898380EF90E09DCF88EEEECFC2
:1029A000F80180A9882381F269817A81C8010E9497
:1029B000FD08CECF089590E080E00895E0EBF0E0D0
:1029C00080818F7D80831092B10060E083E00C9461
:1029D0006B05CF93DF93C82FD62F81E0809305013D
:1029E000109204010E94DE142C2F30E050E040E0F1
:1029F00060EA7FE080E090E00E948932A3EBB0E0E3
:102A00002C93E4EBF0E080818C918D9FC001112428
:102A100064E670E00E9453326083808185E0809399
:102A200005018AEF80930401DF91CF910895CF9340
:102A3000DF93DC0116968C911697882399F08D917F
:102A40009C91119713969C938E93129781E090E03E
:102A500015969C938E93149714968D919C9115972F
:102A6000892BD1F713961C921E921297862F90E015
:102A700081509048880F991F840F951FEC01E881C1
:102A8000F9818591949111969C938E9315961C9241
:102A90001E92149716966C9381E0DF91CF91089562
:102AA000CF93C82F811109C060E085E00E946B05BB
:102AB00084B58F7D84BDCF910895843640F084B570
:102AC0008F7D84BD61E085E0CF910C946B0560E063
:102AD00085E00E946B0584B58F7D84BD87B58C9F92
:102AE000C001112464E670E00E94533268BD88B5CD
:102AF000882309F398B587B5981720F784B58062C5
:102B0000D9CF80917403882379F0809172039091DA
:102B10007303892B49F0809172039091730301979D
:102B2000909373038093720380916D03882379F0EF
:102B300080916B0390916C03892B49F080916B031A
:102B400090916C03019790936C0380936B030895AD
:102B50008091690390916A03019690936A03809330
:102B600069032091690330916A0380916703909112
:102B700068038217930738F460E086E00E946B05D3
:102B800010926D030895A0916D0380916903909157
:102B90006A03A150BB0BAA0FBB1FAD59BE4F880FD4
:102BA000991F880F991FED91FC91E80FF91F8591EE
:102BB000949190936C0380936B03A0916D03E091CB
:102BC0006903F0916A03A150BB0BAA0FBB1FAD595B
:102BD000BE4FEE0FFF1FEE0FFF1FCF010297ED91CB
:102BE000FC91E80FF91F8591949161E0892B09F41C
:102BF00060E086E00C946B0590916D03981750F49B
:102C0000682F43E651E087E693E00E941715811193
:102C10000C94A8150895E0E8F0E080818F7D808312
:102C200060E08AE00E946B05109281000895CF93C6
:102C3000DF938091700390917103019690937103DB
:102C400080937003209170033091710380916E0323
:102C500090916F038217930738F40E940B1610921D
:102C60007403DF91CF910895A09174038091700354
:102C700090917103A150BB0BAA0FBB1FA55ABE4F69
:102C8000880F991F880F991FED91FC91E80FF91F8C
:102C9000859194919093730380937203A091740330
:102CA000E0917003F0917103A150BB0BAA0FBB1F01
:102CB000A55ABE4FEE0FFF1FEE0FFF1FCF01029769
:102CC000ED91FC91E80FF91FC591D4910E940B166C
:102CD000209709F4C6CF9E0150E040E069E07DE313
:102CE00080E090E00E948932309389002093880030
:102CF0002091880030918900AEE1B0E00E94B032AE
:102D000024E630E040E050E00E94673230938B00D0
:102D100020938A008091800080628093800084E10B
:102D2000809381009ECF90917403981750F4682F80
:102D30004BE551E08EE693E00E94171581110C944B
:102D400017160895229A60E08AE00E946B05569A51
:102D500060E086E00E946B05559A60E085E00E9485
:102D60006B0583E0809380001092810010928900AF
:102D70001092880010928B0010928A000895809122
:102D8000A60291E089278093A6029091A502911155
:102D900007C0882329F082E38093A5020E94501582
:102DA0000895CF93C091A602CC2349F0823051F010
:102DB0008130D1F08430D1F0833031F1C0E08C2FFC
:102DC000CF9108958CEE9091A502482F55274195FB
:102DD0000CF4509594171506CCF41092A50280912E
:102DE000A5020E945015EBCF86EFEDCF84E19091C4
:102DF000A502492F480F5527551F4536510534F078
:102E000084E68093A502EBCF8AE0F1CF890FF9CF5A
:102E1000319907C081E02091CB033091CC03232B63
:102E200009F480E008952FB7F894609175037091CC
:102E3000760380917703909178032FBF08958F9246
:102E40009F92AF92BF92CF92DF92EF92FF920F9339
:102E50004B015C0169017A010023C1F060917503A7
:102E6000709176038091770390917803C80CD91CF8
:102E7000EA1CFB1CC814D904EA04FB0450F46815CE
:102E800079058A059B05B0F0E0E009C00E941317A0
:102E9000EDCFE1E06C157D058E059F05A8F38E2F23
:102EA0000F91FF90EF90DF90CF90BF90AF909F90E9
:102EB0008F900895A7019601285D3E4F4F4F5F4FB9
:102EC000E1E0621773078407950748F7DDCF8F921B
:102ED0009F92AF92BF92CF92DF92EF92FF926B01DF
:102EE0007C010E9413174B015C01C80CD91CEA1C21
:102EF000FB1CC814D904EA04FB0468F40E941317ED
:102F0000681579058A059B05C8F789E2C80E81E036
:102F1000D81EE11CF11C0E9413176C157D058E054F
:102F20009F05C8F3FF90EF90DF90CF90BF90AF90D8
:102F30009F908F9008956FB7F8945091150140912C
:102F40001401309113012091CA039091C9036FBFFE
:102F5000823089F038F4813059F0852F90E0805329
:102F6000984F0895833049F08430B9F7892F01C014
:102F7000842F90E00895832FFCCF822FFACFCF9338
:102F8000DF93CDB7DEB72C970FB6F894DEBF0FBE38
:102F9000CDBF8CE0EFE1F1E0DE01119601900D92E2
:102FA0008A95E1F780911401823011F52091150185
:102FB00030E02053384FC90183709927892B39F4A9
:102FC000C90164E670E00E943F32892BC1F4C90157
:102FD00060E971E00E943F32892B89F08CE12C96E8
:102FE0000FB6F894DEBF0FBECDBFDF91CF9108952D
:102FF000E0911401EC0FFD2FF11D8081F0CF8DE1E8
:10300000EECF8F929F92AF92BF92DF92EF92FF929C
:103010000F931F93CF93DF937C018EE880937A0008
:1030200010E4D0E0C0E0DD24DA940E9413174B01D5
:103030005C01D092940280917A00806480937A003F
:10304000809194028F3F69F400E02AE030E040E094
:1030500050E0C501B4010E941F17882389F380E066
:1030600014C080919402C80FD11D1150F1F6109236
:103070007A0085E0D695C7958A95E1F7F701D18367
:10308000C083138281E0CD2B51F3DF91CF911F914B
:103090000F91FF90EF90DF90BF90AF909F908F9037
:1030A0000895CF93DF9300D000D0CDB7DEB719825B
:1030B0001A821B821C82CE0101960E94011888236D
:1030C00001F129813A81243A81E03807C0F427339D
:1030D00081E03807B0F044E6429FC001439F900D65
:1030E0001124885199476EE670E00E943F32862F86
:1030F0000F900F900F900F90DF91CF91089584E67D
:10310000F7CF80E0F5CF4F925F926F927F928F92D0
:103110009F92AF92BF92CF92DF92EF92FF92CF93A6
:10312000CFB7F894C0907503D0907603E090770302
:10313000F09078038091EB029091EC02A091ED0267
:10314000B091EE02892B8A2B8B2BC9F02091EB02D8
:103150003091EC024091ED025091EE02CFBFCA01D6
:10316000B901CF91FF90EF90DF90CF90BF90AF90DB
:103170009F908F907F906F905F904F90089590E018
:1031800080E020E030E0A901F0E0E0E0DC01AA0FFF
:10319000BB1FAA0FBB1FA554BD4F8D909D90AD9036
:1031A000BC90280D391D4A1D5B1DDC01A155BD4F8A
:1031B0006C91E60FF11D283231054105510580F46F
:1031C000833031F4220F331F441F551FEE0FFF1FB2
:1031D00001968C309105D1F620E030E0A901BECFF8
:1031E000A0E5B6E40E94C6322B013C019F01A8EE87
:1031F000B3E00E94B0324B015C01C701B60128EE7A
:1032000033E040E050E00E946732A5019401260FB0
:10321000371F481F591FC301B2010E946732209314
:10322000EB023093EC024093ED025093EE0296CF06
:10323000CF92DF92EF92FF920F93CF9391E0909312
:10324000A50395E79093C7031092A6031092C803B5
:10325000682F8AE694E00E94C00880E00E949103F3
:103260008091A4038111FCCF81E08093A40310928C
:10327000A3039FEF9093A2031092A1031092A003C7
:1032800080937F0380917F038A6E80937F03809178
:103290007E038130F1F510927E0380917F0380934D
:1032A000BB008091BC0083FDF8CF85EC8093BC000F
:1032B0008091A4038130E1F38091A10381112BC09F
:1032C0008091A103A0E8B3E0E0EFF2E0C0E0C81312
:1032D00024C010926303C09362030E9413176B0112
:1032E0007C01C1111EC000E022E330E040E050E06C
:1032F000C701B6010E941F178823A9F381E00E942D
:1033000091038C2FCF910F91FF90EF90DF90CF9092
:10331000089585EECBCF81E0D5CF9D919193CF5F7E
:10332000D6CF8AE694E00E947908C82FE7CFCF93E2
:10333000DF93EB010E940D328883CE01DF91CF91A4
:103340000895CF93DF931F92CDB7DEB7BE016F5FB5
:103350007F4F82E090E00E949719898181508E31E1
:1033600010F08DE0898389810F90DF91CF910895CE
:10337000CF93DF931F92CDB7DEB7BE016F5F7F4F54
:1033800081E090E00E94971989818253853610F080
:1033900084E6898389810F90DF91CF910895CF933F
:1033A00090917D032FEF280F223008F086C09111F5
:1033B00018C020910E012F3FC1F1823081F483E0CB
:1033C000281B8CE32C3308F484C020930E010E9448
:1033D000A119682F80910E010E94E91423C081E099
:1033E000EFCF9130A1F420910E012F3FF1F0823008
:1033F00009F493E081E0291708F482C0291B209387
:103400000E01C0910E010E94B8196C2FE5CF9230C9
:1034100061F420910E012F3F41F08091B1008111A4
:103420000E94DE141092A90241C02AEF290F233016
:1034300078F420910E012F3F89F1823039F48AE02F
:10344000281750F581E080930E01ECCF81E0F8CF92
:10345000933091F420910E012F3F19F19091AA021F
:10346000933041F4823031F4921760F7291B209396
:103470000E01D8CF91E0F8CF943081F420910E0165
:103480002F3F79F0823031F485E0821728F01092D6
:103490000E01C8CF81E0F9CF281BE9CF992309F4A9
:1034A00099C09150953029F090937D0381E0CF91A0
:1034B000089584E080937D03F9CF911111C020918C
:1034C0000E012F3F39F1843039F483E0820F8338C5
:1034D00028F480930E017BCF81E0F8CF82E8F9CF0A
:1034E000913089F420910E012F3FA1F0843009F42E
:1034F00093E0920F8EE19F3118F490930E0181CFEB
:1035000080930E017ECF923029F420910E012F3F3F
:1035100009F083CF2AEF290F233080F420910E0188
:103520002F3F09F44FC0843039F48AE0820F813F85
:1035300008F489CF80EF87CF81E0F8CF933019F579
:10354000C0910E01CF3F09F43FC09091AA02933081
:1035500069F4843059F483E0C80FC0930E019230AF
:1035600039F4CD3008F45ECF8CE06DCF81E0F4CF3C
:10357000933009F057CF0E94BF178C1708F052CF35
:103580000E94BF1760CF9430E9F420910E012F3FC5
:10359000D9F0843069F485E0820F80930E01909118
:1035A000AA02943039F4873108F43CCF87E14BCF3D
:1035B00081E0F2CF953009F035CF8B3308F432CF6C
:1035C0008BE341CF983031F09F5F953009F06CCF9D
:1035D00086E070CF80E06BCFCF93DF931F92CDB7A3
:1035E000DEB761E171E08FE090E00E94971962E13F
:1035F00071E080E190E00E94971980911101815063
:103600008E3F18F084E68093110180911201815061
:103610008E3F18F081E0809312011982BE016F5F26
:103620007F4F81E190E00E949719898181508E3F00
:1036300010F084EB898389818093A8020F90DF9139
:10364000CF910895CF93DF9300D000D0CDB7DEB7F0
:1036500086E190E00E940D32898387E190E00E942C
:103660000D328A8388E190E00E940D328B8389E1DC
:1036700090E00E940D328C8389819A81AB81BC815C
:10368000AC01BD0141505109610971094E3F5F4FC5
:103690006F4F7F4F50F5282F2F732093C903AC0134
:1036A000BD0126E076956795579547952A95D1F700
:1036B0004F714093CA03AC01BD013BE0769567951D
:1036C000579547953A95D1F74F71409313012A2F9B
:1036D0002F702093140144E1B695A795979587958F
:1036E0004A95D1F78C5E8093150183E084BD8BE011
:1036F00085BD8CE787BD80916E00826080936E00EF
:103700000F900F900F900F90DF91CF9108950E942E
:10371000FC33FB0101900020E9F73197AF01461B14
:10372000570BDC01ED91FC910280F381E02D0994AF
:103730008F929F92AF92BF92EF92FF920F931F933F
:10374000CF93DF93CDB7DEB7A1970FB6F894DEBF66
:103750000FBECDBF7C01FA01CB0119A2223008F4C3
:103760002AE08E010F5D1F4F822E912CB12CA12CCF
:10377000BF01A50194010E946732F901CA016A30B4
:103780000CF5605DD8016E938D01232B242B252B26
:1037900079F790E080E0109721F0BD01C7010E9409
:1037A000891BA1960FB6F894DEBF0FBECDBFDF9187
:1037B000CF911F910F91FF90EF90BF90AF909F908E
:1037C0008F900895695CDECF462F50E070E060E096
:1037D0002AE00C94981BAB0170E060E02AE00C94A6
:1037E000981BAB01770F660B770B2AE00C94981BA4
:1037F0000F931F93CF93DF93EC010E94891B8C01E1
:1038000067EB71E0CE010E94891B800F911FDF9151
:10381000CF911F910F9108956115710511F00C94CE
:10382000891B90E080E008952F923F924F925F9223
:103830006F927F928F929F92AF92BF92CF92DF92C0
:10384000EF92FF920F931F93CF93DF9300D01F92BD
:10385000CDB7DEB72091CB033091CC033B832A83D5
:10386000232B09F4AAC1582E8FB7F894A090150104
:10387000B12C30E3A31A38EFB30A80901401909072
:1038800013016090CA037090C9038FBF0E94831810
:103890006B017C012091120130E0A8EEB3E00E94A0
:1038A000B032C616D706E806F90608F007C18091BF
:1038B000110190E0B0E0A0E044244394C816D9067A
:1038C000EA06FB0608F4412C0E94511890E065E0DE
:1038D00070E00E945332262E6983C501A3E08A9EC0
:1038E000800D911D1124B5E09B9E800D911D11242A
:1038F000EBE07E9E800D911D1124F7E06F9E800D00
:10390000911D112420910F0130911001821793070E
:1039100009F474C09093100180930F01AA81BB81B8
:103920001D961C921E921C971F961C921E921E970B
:10393000ED91FC91119700A0F1A1E02DF12CE12C6B
:1039400007E010E020E630E050E040E070E060E0AA
:10395000CD0109958FEF9FEFEA81FB81938B828BDD
:10396000918B808B81E0848B858BF9E0F61530F0AC
:1039700070E060E08A819B810E94F11B662D8A8144
:103980009B810E94E41B29E06AEB71E0271510F48B
:1039900063E072E08A819B810E940C1C672D8A8102
:1039A0009B810E94E41B6EE072E08A819B810E94F1
:1039B0000C1CB5018A819B810E94EB1B39E06DEBE9
:1039C00071E0381510F460EC71E08A819B810E94EF
:1039D0000C1C682D8A819B810E94E41B89E06DEBA1
:1039E00071E0891510F460EC71E08A819B810E947E
:1039F0000C1C692D8A819B810E94E41B8091180117
:103A0000851509F448C05092180143E8A42E41E0FE
:103A1000B42E54E1852E912C312C66246A94762C98
:103A20008FEF9FEF351002C080EE97E0D501119621
:103A3000EC901197F12C0C9110E012962D913C9185
:103A40006C0149E750E0B4018A819B810E94CB1050
:103A5000B3E03B16B1F0C4014096EA81FB81958743
:103A6000848789E790E097878687738A628A718A5C
:103A7000608A21E0248B258B62EC71E0CF010E94EB
:103A80000C1C339434E0A30EB11C8EE1880E911C03
:103A900094E03912C5CF80911701A981A81709F4C4
:103AA0006BC020921701AE3060F4A12C38EFB32E1A
:103AB000A63080F0AA24AA94BA2C0CC072E0472E3B
:103AC00003CFB98120EEA22E27E0B22EB33111F43C
:103AD000E4E1E983F9818F2E912CAA81BB81ED91DC
:103AE000FC91119700A0F1A1E02D750108E010E014
:103AF000940150E040E06AE870E0CD010995B98199
:103B0000B33138F584E190E03C0168187908EAE8BF
:103B10008E0E911CAA81BB81ED91FC91119700A0A2
:103B2000F1A1E02DF12CE12C930150E040E0B40133
:103B3000CD010995AA81BB81ED91FC91119706A059
:103B4000F7A1E02D7501930150E040E0B401CD01F3
:103B50000995AA81BB81ED91FC91119700A0F1A17B
:103B6000E02D750104E010E022E030E042E050E09A
:103B70006EE970E0CD010995809116018415E9F098
:103B80004092160180EE97E0442039F0B1E080E0E9
:103B900098EF4B1202C080EE9FEF6C0188E0E82E98
:103BA000F12C08E010E023EC36E050E040E063E761
:103BB00070E08A819B810E94CB100F900F900F9034
:103BC000DF91CF911F910F91FF90EF90DF90CF90F9
:103BD000BF90AF909F908F907F906F905F904F902D
:103BE0003F902F900895AF92BF92CF92DF92EF92C5
:103BF000FF920F931F93CF93DF93EC01B62EA42E69
:103C0000690188E0689FA00111244E5E5F4F80E546
:103C100090E09D878C875F874E87E881F98100A0BF
:103C2000F1A1E02DF12CE12C08E010E020E530E0DE
:103C300060E570E0CE01099580917D03B8122CC03B
:103C400080910E018F3F41F180EE9FEF9B8B8A8B1D
:103C5000998B888B64EC71E0CE010E940C1C609102
:103C60000E01CE010E94E41B6EE072E0CE010E94C4
:103C70000C1CB601CE010E940C1C66EC71E0CE015A
:103C8000DF91CF911F910F91FF90EF90DF90CF9038
:103C9000BF90AF900C940C1C8FEF9FEF9B8B8A8B87
:103CA000998B888B6A2DCE010E94E41B6EE072E036
:103CB000CE010E940C1CB601E2CFBF92CF92DF92E0
:103CC000EF92FF920F931F93CF93DF93C091CB039B
:103CD000D091CC03209709F4A4C1B82E1D861C8670
:103CE00082E190E09F878E878FEF9FEF9B8B8A8B7F
:103CF000998B888B81E08C8B8D8BBB2091F1B812D6
:103D00009BC188E080937D036BEC71E0CE010E9443
:103D1000F81B67ED71E0CE010E94F81B63EE71E0C5
:103D2000CE010E94F81B6AEE71E0CE010E94F81BE2
:103D300063EF71E0CE010E94F81B6CEF71E0CE01E1
:103D40000E94F81B65E072E0CE010E94F81B60E162
:103D500072E0CE010E94F81B6BE172E0CE010E947E
:103D6000F81B4091A70280917D03481368C1B110F0
:103D700066C18091A902811151C10E94B81929E23E
:103D800032E0482F60E0CE010E94F31D0E94A1198D
:103D90002DE232E0482F61E0CE010E94F31DB09089
:103DA000B10080E590E09D878C8782E290E09F875C
:103DB0008E87E881F98100A0F1A1E02DF12CE12CA2
:103DC00008E010E020E530E042E250E060E570E01D
:103DD000CE01099580917D03823009F05FC1809109
:103DE0000E018F3F09F45AC180EE9FEF9B8B8A8BA7
:103DF000998B888B64EC71E0CE010E940C1C6DE401
:103E000072E0BB2011F068EC71E0CE010E940C1C46
:103E100066EC71E0CE010E940C1C2FE232E0409172
:103E2000110166E0CE010E94F31D22E332E04091D1
:103E3000120167E0CE010E94F31D4091A80225E324
:103E400032E068E0CE010E94F31D80E590E09D879E
:103E50008C878AE290E09F878E87E881F98100A0B5
:103E6000F1A1E02DF12CE12C08E010E020E530E09C
:103E70004AE250E060E570E0CE01099580917D0353
:103E8000833009F04CC180910E018F3F09F447C186
:103E90008091AA02813009F00FC180EE9FEF9B8BC9
:103EA0008A8B998B888B64EC71E0CE010E940C1C8C
:103EB00060910E01CE010E94E41B66EC71E0CE0120
:103EC0000E940C1C0FEF1FEF1B8B0A8B198B088BAA
:103ED00060EC71E0CE010E940C1C8091AA0282303D
:103EE00009F0F8C080EE9FEF9B8B8A8B998B888BB3
:103EF00064EC71E0CE010E940C1C60910E01CE01B9
:103F00000E94E41B66EC71E0CE010E940C1C0FEFD6
:103F10001FEF1B8B0A8B198B088B60EC71E0CE01B5
:103F20000E940C1C8091AA02833009F0E7C080EE49
:103F30009FEF9B8B8A8B998B888B64EC71E0CE0111
:103F40000E940C1C60910E01CE010E94E41B66ECE5
:103F500071E0CE010E940C1C80E590E09D878C876B
:103F600082E390E09F878E87E881F98100A0F1A12C
:103F7000E02DF12CE12C08E010E020E530E042E3F8
:103F800050E060E570E0CE01099580917D038430BA
:103F900009F018C180910E018F3F09F413C180917F
:103FA000AA02843009F0E7C080EE9FEF9B8B8A8BDA
:103FB000998B888B64EC71E0CE010E940C1C60919F
:103FC0000E01CE010E94E41B66EC71E0CE010E945E
:103FD0000C1C0FEF1FEF1B8B0A8B198B088B63E0F8
:103FE00072E0CE010E940C1C8091AA02853009F07B
:103FF000D8C080EE9FEF9B8B8A8B998B888B64EC6B
:1040000071E0CE010E940C1C60910E01CE010E9455
:10401000E41B66EC71E0CE010E940C1C81E08093F1
:10402000A90280E0DF91CF911F910F91FF90EF9057
:10403000DF90CF90BF90089510927D0365CE88E009
:10404000489FA00111244E5E5F4FD12CC12C88E007
:10405000E82EF12C08E010E020E131E063E070E0B0
:10406000CE010E94CB1040917D0388E0489FA001C3
:1040700011244E5E5F4F90EEC92EDD24DA9420E1CC
:1040800031E063E070E0CE010E94CB1080917D03AF
:104090008093A702BB2009F46CCE6FCE8FEF9FEF09
:1040A0009B8B8A8B998B888B6DE472E0BB2009F423
:1040B000B1CE68EC71E0AECE8FEF9FEF9B8B8A8B19
:1040C000998B888B80E00E949B17BC01CE010E94D7
:1040D000EB1BF8CE1B8B0A8B198B088B81E00E949F
:1040E0009B17182F8A3028F46EEB71E0CE010E94E6
:1040F0000C1C612FCE010E94E41B09CF1B8B0A8B85
:10410000198B088B82E00E949B17182F6EEB71E0D1
:104110008A3068F1612FCE010E94E41B1DCF8FEF22
:104120009FEF9B8B8A8B998B888B80E00E949B17DB
:10413000BC01CE010E94EB1B81E00E949B17182F4F
:104140006DEB71E08A3010F060EC71E0CE010E94FE
:104150000C1C612FCE010E94E41B82E00E949B1781
:10416000182F6DEB71E08A3010F060EC71E0CE0139
:104170000E940C1CCFCF8FEF9FEF9B8B8A8B998B6C
:10418000888B83E00E949B17182F8A3028F46EEBEF
:1041900071E0CE010E940C1C612FCE010E94E41B35
:1041A00018CF1B8B0A8B198B088B84E00E949B17FE
:1041B000182F6EEB71E08A3020F1612FCE010E9442
:1041C000E41B2CCF8FEF9FEF9B8B8A8B998B888B77
:1041D00083E00E949B17182F8A3028F46EEB71E061
:1041E000CE010E940C1C612FCE010E94E41B84E0D2
:1041F0000E949B17182F6AEB71E08A3010F063E081
:1042000072E0CE010E940C1CD8CF8F929F92AF9289
:10421000BF92CF92DF92EF92FF92CF93DF93EC01A8
:1042200083E08C8B8D8B483E83E0580761057105D8
:10423000D8F42AE0CE010E94981B82E08C8B8D8BF3
:104240008E859F8508969F878E8769E372E0CE01F1
:10425000DF91CF91FF90EF90DF90CF90BF90AF9024
:104260009F908F900C940C1C403482E458078FE090
:104270006807710578F5CB01BA0128EE33E040E01C
:1042800050E00E94673249016B017C012AE0BA01CB
:10429000A401CE010E94981B6FE372E0CE010E9440
:1042A0000C1CC701B60124E630E040E050E00E945B
:1042B0006732BA01A9012AE0CE010E94981B8E85BF
:1042C0009F8508969F878E8782E08C8B8D8B61E41B
:1042D00072E0BDCFCB01BA0120E432E44FE050E000
:1042E0000E94673249016B017C012AE0BA01A401F6
:1042F000CE010E94981B6FE372E0CE010E940C1C5D
:10430000C701B60120EA36E841E050E00E9467327A
:10431000BA01A9012AE0CE010E94981B8E859F85D3
:1043200008969F878E8782E08C8B8D8B67E472E086
:104330008ECF4F925F926F927F928F929F92AF92A9
:10434000BF92CF92DF92EF92FF921F93CF93DF93B2
:10435000C091CB03D091CC03209709F47BC0882374
:1043600059F08FEF9FEFDC018093000190930101E2
:10437000A0930201B09303010E9483186B017C019A
:104380004090000150900101609002017090030183
:104390004C145D046E047F0409F44BC0209112019B
:1043A00030E0A8EEB3E00E94B03212E0C616D706A5
:1043B000E806F90660F48091110190E0B0E0A0E019
:1043C00011E0C816D906EA06FB0608F410E08AE0F8
:1043D000882E912C9D868C8694E1A92EB12CBF86C7
:1043E000AE861B8A1A8A198A188AB301A201CE01E5
:1043F0000E9405219D868C86BF86AE8680EE97E062
:10440000112331F080E098EF113011F480EE9FEF2E
:104410009B8B8A8B998B888BB701A601CE010E945A
:104420000521C0920001D0920101E0920201F092B8
:10443000030181E0DF91CF911F91FF90EF90DF901A
:10444000CF90BF90AF909F908F907F906F905F9034
:104450004F900895EFCFCF92DF92EF92FF920E949C
:1044600013176B017C018091950290919602A091A7
:104470009702B09198028C159D05AE05BF05A8F571
:1044800080916603882349F01092660381E00E94C0
:104490009921809166030E94141C80EDC8168AE859
:1044A000D8068FEFE806F80688F08FEF9FEFDC0163
:1044B0008093950290939602A0939702B0939802EE
:1044C00081E0FF90EF90DF90CF90089580E3C80ED9
:1044D00085E7D81EE11CF11CC0929502D09296028D
:1044E000E0929702F0929802EBCF80E0EACFDF9261
:1044F000EF92FF920F931F93CF93DF93C091CB0363
:10450000D091CC03209709F46BC1D82E882309F4ED
:1045100050C0E881F98106A0F7A1E02DEE24EA94CD
:10452000FE2C04E110E022E330E048E250E064E1D8
:1045300070E0CE010995E881F98104A0F5A1E02D94
:1045400002E210E020E530E047E250E066E470E08F
:10455000CE010995E881F98104A0F5A1E02D01E4DF
:1045600010E020E530E04CE350E066E470E0CE017E
:104570000995E881F98104A0F5A1E02D20E530E05E
:1045800043E250E060E570E0CE01099548E156EC69
:1045900064E070E0CE010E94EE0350E040E062E093
:1045A00070E0CE010E94EE0368E176ECCE010E943D
:1045B000DA048091A5029091A402981309C0209179
:1045C000A3029091A602291303C0DD2009F4D3C0F1
:1045D000811138C068E176ECCE010E94DA0448E12E
:1045E00056EC64E070E0CE010E94EE0350E040E043
:1045F00062E070E0CE010E94EE03E881F98100A044
:10460000F1A1E02DF12CE12C0AE010E026E630E0EB
:1046100040E550E06DE170E0CE0109958091A60281
:10462000882309F471C0E881F98106A0F7A1E02D83
:10463000EE24EA94FE2C26E630E040E550E06DE101
:1046400070E060C060EE7FEFCE010E94DA044FEFB1
:104650005FEF64E070E0CE010E94EE0340EE57E0B1
:1046600062E070E0CE010E94EE039091A60280917C
:10467000A302992309F489C0811126C0E881F98138
:1046800006A0F7A1E02DEE24EA94FE2C0AE010E04B
:1046900026E630E040E550E06DE170E0CE0109959E
:1046A0002091A40230E0E881F98100A0F1A1E02D81
:1046B00040EEE42EFF24FA9408E010E041E550E0DB
:1046C0006EE170E0CE0109953091A4022091A5021F
:1046D000E881F98100A0F1A1E02D832F90E0622F05
:1046E00070E0321708F049C09B01281B390BBC0150
:1046F000625E7F4F80EEE82EFF24FA9408E010E01F
:1047000041E550E0CE01099584E690E09D878C87D5
:104710008BE290E09F878E8782E08C8B8D8B1B8A4B
:104720001A8A198A188A6091A40261113BC06CE44C
:1047300072E0CE010E940C1C84E690E09D878C877D
:104740008BE290E09F878E878FEF9FEF9B8B8A8B0A
:10475000998B888B6091A502611133C06CE472E083
:10476000CE010E940C1C8091A5028093A40280912E
:10477000A6028093A30281E034C09C01261B370B64
:10478000625E7F4FF12CE12CB9CF882309F4BCCFB6
:10479000E881F98100A0F1A1E02DF12CE12C0AE0E3
:1047A00010E049CFCE010E94E41B8091A402843620
:1047B00028F46EE072E0CE010E940C1C6DE272E003
:1047C000B8CFCE010E94E41B8091A502843628F464
:1047D0006EE072E0CE010E940C1C6DE272E0C0CF70
:1047E00080E0DF91CF911F910F91FF90EF90DF90CC
:1047F00008958F929F92AF92BF92CF92DF92EF92E5
:10480000FF920F931F93CF93DF9300D000D0CDB7CB
:10481000DEB7E090CB03F090CC03E114F10409F48F
:1048200027C2182F19821A821B821C8219994EC026
:1048300060919B0270919C0280919D0290919E02DA
:10484000611571058105910519F100E028E833E152
:1048500040E050E00E941F1781111AC0CE0101965E
:104860000E94011881116FC011116DC081E00F907D
:104870000F900F900F90DF91CF911F910F91FF90AC
:10488000EF90DF90CF90BF90AF909F908F90089562
:104890000E94131760939B0270939C0280939D0269
:1048A00090939E02429A64E670E080E090E00E945D
:1048B0006717429805E01999D1CF6AE070E080E06F
:1048C00090E00E9467170150B1F7C8CF809179033B
:1048D00090917A03A0917B03B0917C03892B8A2B62
:1048E0008B2B69F08091790390917A03A0917B03DF
:1048F000B0917C030197A105B10509F0AFCF85E622
:104900000E941819282F30E0322F22274901330F37
:10491000AA08BB0884E60E941819A5019401280F73
:10492000311D411D511D2F3F8FEF380741055105A6
:1049300031F0211531054105510509F04FC1CE0176
:1049400001960E94011881E0F701848B858B112369
:1049500009F490C18FEF9FEF938B828B918B808BAB
:1049600044E1A42EB12CB586A4868EE190E0978711
:10497000868761E572E0C7010E940C1CF701B586CD
:10498000A48686E290E0978786876DE572E0C7018E
:104990000E940C1CF701B586A4868EE290E09787F2
:1049A000868769E672E0C7010E940C1CF701138A32
:1049B000128A118A108A34E6A32EB12CB586A486F9
:1049C0008EE190E09787868780919F029091A00268
:1049D000B5010E943F32C7010E94EB1B80919F02EC
:1049E0009091A002B5010E943F3265E772E00A97FC
:1049F00010F06FE372E0C7010E940C1C80919F02CF
:104A00009091A00264E670E00E943F32BC01C701B1
:104A10000E94EB1B68E772E0C7010E940C1C0E9419
:104A20005118873408F01EC18F3108F41EC18FEF72
:104A30009FEFF701938B828B918B808B24E6A22EC4
:104A4000B12CB586A4868EE190E097878687898110
:104A50009A81B5010E943F32C7010E94EB1B8981F8
:104A60009A81B5010E943F3265E772E00A9710F023
:104A70006FE372E0C7010E940C1C89819A8164E691
:104A800070E00E943F32BC01C7010E94EB1B68E747
:104A900072E0C7010E940C1C89819A819093A00248
:104AA00080939F02112309F4EFC0F701138A128A41
:104AB000118A108A84E6882E912C9586848696E247
:104AC000A92EB12CB786A6868091A1020AE0602F9C
:104AD0000E943332682F70E0C7010E94F11B6FE320
:104AE00072E0C7010E940C1C8091A102602F0E94FD
:104AF0003332692F70E0C7010E94F11B6AE772E050
:104B0000C7010E940C1C8FEF9FEFF701938B828BE4
:104B1000918B808B95868486B786A6868B81602F45
:104B20000E943332682F70E0C7010E94F11B6FE3CF
:104B300072E0C7010E940C1C8B81602F0E943332EF
:104B4000692F70E0C7010E94F11B6AE772E0C7019C
:104B50000E940C1C8B818093A102111106C09C81C4
:104B60008091A202981709F481CEF701138A128A64
:104B7000118A108A84E690E0958784878EE290E01F
:104B8000978786878091A2026CE772E0811102C04C
:104B900064E872E0C7010E940C1C2C8180EE97E053
:104BA000211102C080EE9FEFF701938B828B918BD6
:104BB000808B84E690E0958784878EE290E09787EB
:104BC00086876CE772E0211102C064E872E0C701D9
:104BD0000E940C1C8C818093A20248CEA7EEB8E6FE
:104BE0000E94C63220E432E44FE050E00E94673277
:104BF0002C5F3E4F3A83298387E60E941819282F9D
:104C000030E0322F22274901330FAA08BB0886E67D
:104C10000E941819A5019401280F311D411D511D35
:104C20002115E0E83E074105510560F08FEF9FEF49
:104C3000A0E0B0E05C016D01A21AB30AC40AD50A73
:104C4000A60195016BE873EF81E090E00E942332AA
:104C500020E836E948E950E00E9467322B8381E082
:104C60008C8371CE80EE97E0E4CE80E098EFE1CEC9
:104C700080E0FDCD29813A8180919F029091A00230
:104C80002817390709F092CE9B818091A1029813D1
:104C90000CCF65CFCF92DF92EF92FF920F931F93CD
:104CA000CF93DF93EC016A017B01C114D104E104CD
:104CB000F10431F4C12C42E1D42E4AE7E42EF12C68
:104CC0008FA987FD07C061E00E94E50561E08FA91B
:104CD0000E946B0561E088AD0E94E50561E088AD4A
:104CE0000E946B058DA981119AC040E059E06DE3E7
:104CF00070E0C416D506E606F70640F4769567958B
:104D0000579547958F5F8630A1F787E0982F906A77
:104D1000969599A3809581708AA31BA21CA21DA2BF
:104D20001EA21FB7F8948091EF0281111EC0EAE421
:104D3000F1E08491ECE2F1E09491E82FF0E0EE0FE5
:104D4000FF1FE85EFE4FA591B491EC91E92321F499
:104D500061E08AE00E946B05229A8CB580618CBD6F
:104D60008CB580648CBD259A239A8091EF028F5F69
:104D70008093EF021FBF8EA987FD21C061E00E94D2
:104D8000E50561E08EA90E946B0564E670E080E0B5
:104D900090E00E94060860E08EA90E946B0564E620
:104DA00070E080E090E00E94060861E08EA90E9419
:104DB0006B0568EC70E080E090E00E9406088EA928
:104DC00087FF0DC020E050E040E061E0CE010E948E
:104DD000540D66E970E080E090E00E94060804E56A
:104DE00011E0C8010196F8016491662309F463C0DB
:104DF0000E5F1F4FFC01F490EF2CE894E7F82E2D86
:104E0000A801CE010E94540D0E0D111DF7FEE9CF31
:104E100066E970E080E090E00E940608E2CF00E4DE
:104E200011E0F12C8130B9F461E08AA50E94E5051A
:104E300060E08AA50E946B0561E08CA50E94E505F3
:104E400060E08CA50E946B058BA587FD94CF60E088
:104E50000E94E50590CFF8018491E82FF0E0EE0F75
:104E6000FF1FEA5CFE4F859194912F8D38A1281782
:104E7000390741F461E08F2D0E94E50560E08F2D38
:104E80000E946B05F3940F5F1F4FF4E1FF12E3CF15
:104E900061E08EA50E94E50561E08EA50E946B058C
:104EA0008FA587FD68CF61E00E94E50561E08FA5D1
:104EB0000E946B0560CF80EF90E09987888780E43F
:104EC00091E09B878A87DF91CF911F910F91FF908F
:104ED000EF90DF90CF900895FF920F931F93CF93A1
:104EE000DF93EC01F62E08811981C8010E940D3272
:104EF000F81621F06F2DC8010E941532CE01DF9106
:104F0000CF911F910F91FF9008950F931F93CF930F
:104F1000DF9300D0CDB7DEB78B019A838983FB0185
:104F20006081CE0101960E946C27C8010F900F90FE
:104F3000DF91CF911F910F910895EF92FF920F9300
:104F40001F93CF93DF9300D000D000D0CDB7DEB752
:104F50008451990B092E000CAA0BBB0B34E0880F6F
:104F6000991FAA1FBB1F3A95D1F7860F911DA11D4E
:104F7000B11D55E0880F991FAA1FBB1F5A95D1F785
:104F8000840F911DA11DB11D65E0880F991FAA1FF7
:104F9000BB1F6A95D1F7820F911DA11DB11D76E04F
:104FA000880F991FAA1FBB1F7A95D1F7800F911DFB
:104FB000A11DB11D89839A83AB83BC83CE01019669
:104FC0007C0106E110E01E830D83F70161917F01F2
:104FD000CE0105960E946C270F5F1F4F0A31110505
:104FE00091F726960FB6F894DEBF0FBECDBFDF91C6
:104FF000CF911F910F91FF90EF9008950F930FB7EE
:10500000F8948230E1F1A0F4813001F1605D6093A9
:1050100015010FBF0091C9032091CA0340911301EC
:1050200060911401809115010E949D270F910895B0
:10503000833099F1843051F76093C9038091C9039B
:105040008C3338F38BE38093C903E3CF609314016F
:10505000909114019D3020F08CE08093140104C0E5
:10506000909114019923C9F30E94BF1790911301E5
:10507000891778F60E94BF1780931301CACF6093F7
:1050800013010E94BF1790911301891798F3809123
:1050900013018111BECF81E0EFCF6093CA038091ED
:1050A000CA03883108F4B5CF87E18093CA03B1CF32
:1050B0001F93CF93DF9300D000D000D01F92CDB7C5
:1050C000DEB710917D0311111FC080910E018F3F3B
:1050D00089F40E94B81980930E011092A90281E010
:1050E00027960FB6F894DEBF0FBECDBFDF91CF91EC
:1050F0001F9108958F83BE01695F7F4F81E090E02B
:105100000E9485278FEFE7CF113071F480910E0157
:105110008F3F19F40E94A119DECF8E83BE016A5F12
:105120007F4F82E090E0ECCF123031F480910E019D
:105130008F3F41F781E0CFCF8AEF810F823088F532
:1051400080910E018F3F39F480911101163019F2D0
:1051500080911201C0CF1630A9F4909112018D8375
:105160009C83BE016B5F7F4F8FE090E00E9485279C
:10517000BE016C5F7F4F80E190E00E9485270E9416
:10518000EC1AC0CF909111019B838A83BE016D5FA1
:105190007F4F8FE090E00E948527BE016E5F7F4FBA
:1051A000EACF183071F480910E018F3F19F480918D
:1051B000A80291CF8983BE016F5F7F4F81E190E0AC
:1051C000DCCF133039F560910E016F3F39F481E087
:1051D0008093AA0280E00E949B177DCF8091AA0253
:1051E00070E0813041F480E00E94FE2782E08093ED
:1051F000AA0281E0F0CF823039F481E00E94FE27DC
:105200001093AA0282E0E7CF82E00E94FE2710926C
:10521000AA0278CF143009F060CF60910E016F3F81
:1052200021F41093AA0283E0D6CF70E08091AA0205
:10523000843041F483E00E94FE2785E08093AA0237
:1052400084E0C9CF84E0E1CFEF92FF920F931F93E8
:10525000CF93DF938091CB039091CC03892B09F0FE
:1052600077C0419864E670E080E090E00E946717A4
:1052700083E490E00E94D732EC011B821A8220EF77
:1052800030E03D832C8380E491E09F838E833987D7
:1052900028879B878A871E8A1D861C861F861E86F6
:1052A00081E08D8B8C8B2FEF3FEF3B8B2A8B398BE3
:1052B000288B8F8B188E1A8E198E1DAA8FEF8EABAE
:1052C0008FAB91E198AF1AAE19AE1CAE1BAE1DAEFE
:1052D0001EAEFE01FF9610821182128213822AE90D
:1052E00032E038A32F8FE1E5F1E0E491F0E0EE0F3A
:1052F000FF1FEA5CFE4F259134913E8F2D8FE3E333
:10530000F1E0E491EBAB3C8F2B8F19AA8AABE095CF
:10531000ECAB8FE291E099838883D093CC03C09368
:10532000CB0340E050E0BA01CE010E944A26E8815A
:10533000F98100A0F1A1E02DF12CE12C00E810E0B2
:1053400020EA30E050E040E070E060E0CE010995F6
:10535000DF91CF911F910F91FF90EF9008954F92A1
:105360005F926F927F928F929F92AF92BF92CF92F5
:10537000DF92EF92FF920F93CF93DF9300D000D094
:10538000CDB7DEB78091BB029091BC02A091BD0267
:10539000B091BE02892B8A2B8B2B29F480910401BA
:1053A0008B3F09F4ADC08091BB029091BC02A091EB
:1053B000BD02B091BE020196A11DB11D8093BB023A
:1053C0009093BC02A093BD02B093BE0280910401F1
:1053D0008A3F58F48091040191E0980F9093040162
:1053E000823318F08AEF8093040181E08093640394
:1053F0006091AB027091AC028091AD029091AE02CF
:1054000001E020ED37E040E050E00E941F178823C4
:1054100009F476C08091750390917603A09177038B
:10542000B09178038093AB029093AC02A093AD024D
:10543000B093AE028091AB029091AC02A091AD020C
:10544000B091AE0289839A83AB83BC838091AF0213
:10545000882309F455C02091BB023091BC024091D1
:10546000BD025091BE02E091AF026091120188EE40
:1054700093E0689F6001699FD00C1124F12CE12C0E
:10548000A0E5B6E40E94C6322B013C012E2F30E08D
:10549000A8EEB3E00E94B0324B015C0169817A81D1
:1054A0008B819C8128EE33E040E050E00E9467321F
:1054B000A5019401260F371F481F591FC301B201D0
:1054C0000E9467322C153D054E055F05C8F00E940D
:1054D0000817811115C00F900F900F900F90DF915A
:1054E000CF910F91FF90EF90DF90CF90BF90AF9052
:1054F0009F908F907F906F905F904F900C94242995
:105500000F900F900F900F90DF91CF910F91FF9020
:10551000EF90DF90CF90BF90AF909F908F907F9053
:105520006F905F904F9008951F920F920FB60F9259
:1055300011242F933F934F935F936F937F938F9398
:105540009F93AF93BF93EF93FF938DEC93E00E94F3
:105550005207FF91EF91BF91AF919F918F917F91F2
:105560006F915F914F913F912F910F900FBE0F90D0
:105570001F9018951F920F920FB60F9211242F9320
:105580008F939F93EF93FF93E091DD03F091DE0300
:105590008081E091E303F091E40382FD1BC09081E0
:1055A0008091E6038F5F8F732091E703821741F0AC
:1055B000E091E603F0E0E353FC4F958F8093E60320
:1055C000FF91EF919F918F912F910F900FBE0F90B0
:1055D0001F9018958081F4CF1F920F920FB60F92F3
:1055E00011248F939F93AF93BF9380915403909115
:1055F0005503A0915603B09157030296A11DB11D0A
:105600008093540390935503A0935603B09357038C
:105610008091530396E0980F9D37F0F490935303D5
:105620008091580390915903A0915A03B0915B0364
:105630000196A11DB11D8093580390935903A09327
:105640005A03B0935B03BF91AF919F918F910F90DD
:105650000FBE0F901F90189587578093530380912A
:10566000540390915503A0915603B09157030196AE
:10567000A11DB11D8093540390935503A09356032D
:10568000B0935703CDCF1F920F920FB60F921124F4
:105690002F933F934F935F936F937F938F939F933A
:1056A000AF93BF93EF93FF93F0E0E0E00995FF9194
:1056B000EF91BF91AF919F918F917F916F915F918A
:1056C0004F913F912F910F900FBE0F901F90189503
:1056D0001F920F920FB60F9211242F933F934F9367
:1056E0005F936F937F938F939F93AF93BF93EF934A
:1056F000FF93E0915C03F0915D030995FF91EF91B9
:10570000BF91AF919F918F917F916F915F914F91D9
:105710003F912F910F900FBE0F901F9018951F92E1
:105720000F920FB60F9211242F933F934F935F93D5
:105730006F937F938F939F93AF93BF93EF93FF9359
:105740008091B900887F803609F44AC0F0F588322C
:1057500009F4A7C018F5803109F49BC0B8F4882378
:1057600009F4F9C0883009F494C0FF91EF91BF911A
:10577000AF919F918F917F916F915F914F913F91E9
:105780002F910F900FBE0F901F901895883109F43C
:1057900088C0803251F78093A20314C0803409F48A
:1057A0009DC040F48033B9F38833F9F68093A203A7
:1057B00085ECB0C0803509F485C0883509F496C001
:1057C000883499F60E943808D0CF883909F48CC003
:1057D00038F5883729F050F4883611F0803729F6EB
:1057E00083E08093A4031092520357C0883809F4D1
:1057F0007BC0803919F0803809F0B7CF809152030F
:10580000803208F071C0E091520381E08E0F8093E6
:1058100052038091BB00F0E0EE5CFC4F80833DC002
:10582000803B39F0E0F4803A09F479C0883A09F015
:105830009CCF84E08093A403109231031092300334
:10584000E0916003F091610309958091300381112B
:105850000FC081E0809330031092100309C0803C98
:1058600009F4A6CF883C09F4A3CF883B09F07DCF8B
:10587000E091310381E08E0F80933103F0E0E05F2F
:10588000FC4F80818093BB00909131038091300365
:1058900029C080917F038093BB0085EC8093BC007E
:1058A00064CF9091A1038091A003981758F5E091DF
:1058B000A10381E08E0F8093A103F0E0E058FC4F3C
:1058C0008081E9CFE091A10381E08E0F8093A10355
:1058D0008091BB00F0E0E058FC4F80839091A103E1
:1058E0008091A0039817C8F285E8D8CFE091A10372
:1058F00081E08E0F8093A1038091BB00F0E0E0581F
:10590000FC4F80838091A30381115CCF81E0809361
:105910007E0384EA8093BC001092A40326CF85EC1A
:105920008093BC001092A40380915203803230F423
:10593000E0915203F0E0EE5CFC4F10826091520364
:1059400070E0E0915E03F0915F0382E393E00995DC
:10595000109252030ACF1092A20334CF1F920F92DB
:105960000FB60F9211242F933F934F935F936F9332
:105970007F938F939F93AF93BF93EF93FF93189968
:1059800005C080916503846080936503199B33C0D3
:105990008091790390917A03A0917B03B0917C036D
:1059A000892B8A2B8B2B81F4809175039091760340
:1059B000A0917703B09178038093790390937A0351
:1059C000A0937B03B0937C030E940817811102C04F
:1059D0000E942429FF91EF91BF91AF919F918F91E8
:1059E0007F916F915F914F913F912F910F900FBEDB
:1059F0000F901F9018951092790310927A031092CD
:105A00007B0310927C03E6CF1F920F920FB60F928A
:105A100011248F93309B09C080916503826080932D
:105A2000650380916503809365038F910F900FBE8E
:105A30000F901F9018951F920F920FB60F9211247E
:105A40002F933F934F935F936F937F938F939F9386
:105A5000AF93BF93EF93FF934C9B09C08091650375
:105A6000816080936503809165038093650389B1AC
:105A700090E0880F892F881F990B892B59F480910A
:105A800065038860809365030E940817811102C036
:105A90000E942429FF91EF91BF91AF919F918F9127
:105AA0007F916F915F914F913F912F910F900FBE1A
:105AB0000F901F9018951F920F920FB60F921124FE
:105AC0000F932F933F934F935F936F937F938F9396
:105AD0009F93AF93BF93EF93FF9380917503909142
