:020000040000FA
:100000000C9467030C94602E0C943B2E0C94A62F3A
:100010000C94FC2F0C9413300C948F030C948F03CE
:100020000C948F030C948F030C948F030C948F0308
:100030000C948F030C948F030C9453300C948F0307
:100040000C94E42D0C948F030C94B22D0C948C2DF5
:100050000C948F030C94BB310C948F030C948F037E
:100060000C94872E0C948F030300C8001027F40112
:100070001027C80010270B005802F4012C01F401CE
:100080005802F4012C01F4015802F4012C01F4018E
:100090005802F4012C01F4015802F4012C01F4017E
:1000A0005802F40105002C01F4016400F4012C0154
:1000B000F4016400F4012C01F4010100F401C80012
:1000C00001000100102705000100E8030000E8031B
:1000D0000100E8030000E8030100E8030500010057
:1000E000640000006400010064000000640001007E
:1000F00064000100010064003C5A81DBDB815A3C52
:100100000000FE8383FE0000000307FFFF070300DB
:10011000080C0EFFFF0E0C08000000002400270052
:100120002A00010204081020408001020408102067
:1001300001020408102000000000250028002B0008
:10014000040404040404040402020202020203037D
:1001500003030303EF03038002CF0300C130ED0468
:1001600064031281E803850078CB05392C00340242
:10017000F70120EA020000C00123C10110C5023EC0
:1001800028C701863601483701003A0155B10200FF
:1001900018B603088227F20100260101E00F0F3193
:1001A0002B0C0E084EF1370710030E0900E10F006B
:1001B0000E1403110731C148080F0C31360F11809E
:1001C00029800000000000003E5B4F5B3E3E6B4F0D
:1001D0006B3E1C3E7C3E1C183C7E3C181C577D57D9
:1001E0001C1C5E7F5E1C00183C1800FFE7C3E7FF85
:1001F0000018241800FFE7DBE7FF30483A060E2618
:1002000029792926407F050507407F05253F5A3C6F
:10021000E73C5A7F3E1C1C08081C1C3E7F14227FB2
:1002200022145F5F005F5F06097F017F006689958A
:100230006A606060606094A2FFA29408047E040873
:1002400010207E201008082A1C08081C2A08081EF6
:10025000101010100C1E0C1E0C30383E3830060EDC
:100260003E0E06000000000000005F0000000700D6
:100270000700147F147F14242A7F2A122313086492
:100280006236495620500008070300001C22410036
:100290000041221C002A1C7F1C2A08083E08080076
:1002A0008070300008080808080000606000201016
:1002B0000804023E5149453E00427F4000724949D0
:1002C00049462141494D331814127F1027454545B1
:1002D000393C4A49493141211109073649494936D2
:1002E000464949291E000014000000403400000067
:1002F0000814224114141414140041221408020199
:100300005909063E415D594E7C1211127C7F4949C4
:1003100049363E414141227F4141413E7F49494961
:10032000417F090909013E414151737F0808087F57
:1003300000417F41002040413F017F081422417F5E
:10034000404040407F021C027F7F0408107F3E41F6
:1003500041413E7F090909063E4151215E7F09194D
:100360002946264949493203017F01033F40404065
:100370003F1F2040201F3F4038403F631408146354
:1003800003047804036159494D43007F4141410210
:1003900004081020004141417F0402010204404052
:1003A000404040000307080020545478407F284410
:1003B00044383844444428384444287F38545454FA
:1003C0001800087E090218A4A49C787F0804047809
:1003D00000447D40002040403D007F102844000044
:1003E000417F40007C047804787C08040478384419
:1003F000444438FC1824241818242418FC7C0804CD
:100400000408485454542404043F44243C404020ED
:100410007C1C2040201C3C4030403C442810284498
:100420004C9090907C4464544C4400083641000049
:1004300000770000004136080002010204023C2659
:1004400023263C1EA1A161123A4040207A38545420
:1004500055592155557941225454784221555478A3
:100460004020545579400C1E527212395555555939
:10047000395454545939555454580000457C41005E
:1004800002457D420001457C407D1211127DF0281D
:100490002528F07C545545002054547C547C0A098E
:1004A0007F4932494949323A4444443A324A4848F9
:1004B000303A4141217A3A42402078009DA0A07D07
:1004C0003D4242423D3D4040403D3C24FF242448C3
:1004D0007E4943662B2FFC2F2BFF0929F620C0886D
:1004E0007E090320545479410000447D413048483E
:1004F0004A32384040227A007A0A0A727D0D193158
:100500007D2629292F28262929292630484D4020B3
:10051000380808080808080808382F10C8ACBA2F8F
:10052000102834FA00007B000008142A1422221438
:100530002A14085500550055AA55AA55AAFF55FF7B
:1005400055FF000000FF00101010FF00141414FFEE
:10055000001010FF00FF1010F010F0141414FC0035
:100560001414F700FF0000FF00FF1414F404FC143F
:100570001417101F10101F101F1414141F00101038
:1005800010F0000000001F101010101F10101010AD
:10059000F010000000FF101010101010101010FFCD
:1005A00010000000FF140000FF00FF00001F1017E4
:1005B0000000FC04F414141710171414F404F400CD
:1005C00000FF00F714141414141414F700F7141493
:1005D00014171410101F101F141414F4141010F01A
:1005E00010F000001F101F0000001F14000000FC8E
:1005F000140000F010F01010FF10FF141414FF147A
:100600001010101F00000000F010FFFFFFFFFFF0B0
:10061000F0F0F0F0FFFFFF0000000000FFFF0F0F01
:100620000F0F0F3844443844FC4A4A4A347E0202D1
:100630000606027E027E0263554941633844443C0B
:1006400004407E201E2006027E020299A5E7A5999D
:100650001C2A492A1C4C7201724C304A4D4D3030D4
:1006600048784830BC625A463D3E494949007E01BF
:1006700001017E2A2A2A2A2A44445F444440514ADE
:10068000444040444A51400000FF0103E080FF0025
:100690000008086B6B083612362436060F090F0661
:1006A000000018180000001010003040FF01010089
:1006B0001F01011E00191D1712003C3C3C3C0000AC
:1006C0000000007E3C3C187EFFE7C300E1311124AE
:1006D0001FBECFEFD8E0DEBFCDBF12E0A0E0B1E09B
:1006E000E2EEFDE602C005900D92AE3AB107D9F7F1
:1006F00024E0AEEAB2E001C01D92A739B207E1F7EB
:1007000013E0C7E6D3E004C02197FE010E94BF3585
:10071000C636D107C9F70E941A320C94EF360C94F2
:100720000000982F2091E50381E0213208F043C0BA
:100730008091C1038111FCCF8091E40332E03093BA
:10074000C1039093C0039FEF9093BF031092BE0329
:100750002093BD03A4ECB3E0EDE9F3E090E02913AE
:1007600031C010929C0390919C03880F892B809339
:100770009C0380919B03813049F510929B038091EB
:100780009C038093BB008091BC0083FDF8CF85EC77
:100790008093BC008091C1038230E1F38091BF035C
:1007A0008F3FB1F08091BF038032A1F08091BF03F1
:1007B000803391F084E01092C3031092E50310920D
:1007C000C20308953D9131939F5FC9CF85EEE0CF7D
:1007D00080E0F1CF82E0EFCF83E0EDCF2F923F9228
:1007E0004F925F926F927F928F929F92AF92BF9241
:1007F000CF92DF92EF92FF920F931F93CF93DF93ED
:1008000000D000D000D0CDB7DEB79E838D837B01B2
:100810003A01DC01ED91FC910284F385E02D09950C
:100820009701220F331F2F5F3F4F42E350E04E19D5
:100830005F09AD81BE81ED91FC9111970088F1892E
:10084000E02D83016DE270E0CD01099581E090E03B
:100850001C012E183F08882799278E199F099C0193
:10086000220F331F3C832B83270181E090E09A8382
:100870008983D12CC12C37FC0AC091E0E91AF10818
:10088000AB81BC811296BC83AB832A0E3B1EBFEFAB
:10089000CB1ADB0A29813A812E5F3F4F3A832983A5
:1008A000220E331EEC14FD040CF47FC04701880CAB
:1008B000991C3FEF831A930AAD81BE81ED91FC91A3
:1008C00011970088F189E02D8301940142E3A42E61
:1008D000B12CAE18BF08A501B601635D7F4FCD01F5
:1008E0000995AD81BE81ED91FC9111970088F18948
:1008F000E02D9401A5016DE270E06C197D09CD0138
:100900000995E414F50459F1B201635D7F4FAD819F
:10091000BE81ED91FC910088F189E02D83018980F1
:100920009A80B2E08B1A9108940183E3A82EB12C2F
:10093000AC18BD08A5018D819E8109956DE270E01E
:1009400064197509AD81BE81ED91FC911197008804
:10095000F189E02D9401A501CD0109952701CE145F
:10096000DF040CF488CFAD81BE81ED91FC9111972D
:100970000688F789E02DCD0126960FB6F894DEBFE4
:100980000FBECDBFDF91CF911F910F91FF90EF90E0
:10099000DF90CF90BF90AF909F908F907F906F909F
:1009A0005F904F903F902F900994E414F50409F064
:1009B000ABCFD9CF2F923F924F925F926F927F929F
:1009C0008F929F92AF92BF92CF92DF92EF92FF925F
:1009D0000F931F93CF93DF93EC016B01E881F981B3
:1009E0000284F385E02D0995812C912C54013FE27E
:1009F000E32EF12C43E0442E512C612C712C5FE44A
:100A0000252E312CC501B401A30192010E94773536
:100A1000B901625B7F4F86E0881A9108A108B1088E
:100A20009101261B370BE881F9810288F389E02DBB
:100A30008601A701CE0109958FEFE81AF80A82E333
:100A4000E816F104F9F6812C912C540182E3E82E8A
:100A5000F12C93E0492E512C612C712C2FE4222E85
:100A6000312CC501B401A30192010E947735B9016F
:100A7000685B7F4F86E0880E911CA11CB11C910120
:100A8000261B370BE881F9810288F389E02D860166
:100A9000A701CE0109958FEFE81AF80A86E3E81658
:100AA000F104F9F6E881F9810688F789E02DCE0195
:100AB000DF91CF911F910F91FF90EF90DF90CF903A
:100AC000BF90AF909F908F907F906F905F904F906E
:100AD0003F902F900994482FE62F282F30E0863042
:100AE00009F459C000F58330E1F1853009F44FC0B5
:100AF0004830E0F14E3010F1443108F063C02E5020
:100B0000310981E090E0A0E0B0E004C0880F991FB7
:100B1000AA1FBB1F2A95D2F728B1EE2309F44FC0B4
:100B2000822B88B908958A30C9F18B30D9F1893088
:100B3000F9F6809180008F778093800028503109EA
:100B400081E090E0A0E0B0E004C0880F991FAA1FE8
:100B5000BB1F2A95D2F7E1112EC025B180958223C3
:100B60002CC09091B0009F7D9093B00081E090E008
:100B7000A0E0B0E004C0880F991FAA1FBB1F4A95D0
:100B8000D2F72BB1EE23A1F0822B8BB9089594B547
:100B90009F7D94BDEBCF94B59F77FBCF8091800074
:100BA0008F7DCACF8091B0008F778093B000C6CF81
:100BB00080958223EACF25B1822B85B9089580954F
:100BC0008223AFCF089508950895CF92DF92EF92D8
:100BD000FF920F931F93613009F460C0623009F4F3
:100BE00099C08830B8F42AB141E050E060E070E08C
:100BF0006A017B0104C0CC0CDD1CEE1CFF1C8A9535
:100C0000D2F7C6018095922F98239AB99BB1892378
:100C10008BB93DC08E30B8F424B1082F0850110BA9
:100C200081E090E0A0E0B0E004C0880F991FAA1F07
:100C3000BB1F0A95D2F78095922F982394B995B14E
:100C4000892385B924C0843110F5E7B190E09C0177
:100C50002E50310941E050E060E070E06A017B0114
:100C600004C0CC0CDD1CEE1CFF1C2A95D2F78601BB
:100C700000950E2307B928B1089704C0440F551FEB
:100C8000661F771F8A95D2F74095422348B91F9176
:100C90000F91FF90EF90DF90CF900895883090F4FF
:100CA0002AB141E050E060E070E07A018B0104C0BD
:100CB000EE0CFF1C001F111F8A95D2F7C701822B73
:100CC0008AB9E5CF8E3090F424B1082F0850110B6B
:100CD00081E090E0A0E0B0E004C0880F991FAA1F57
:100CE000BB1F0A95D2F7822B84B9D1CF843178F615
:100CF00027B1682F6E50770B81E090E0A0E0B0E064
:100D000004C0880F991FAA1FBB1F6A95D2F7822BB8
:100D100087B9BDCF8830B0F43AB141E050E060E02F
:100D200070E06A017B0104C0CC0CDD1CEE1CFF1CD2
:100D30008A95D2F7C6012C2D209523232AB92BB1F1
:100D4000822B66CF8E30B0F434B1082F0850110BCF
:100D500081E090E0A0E0B0E004C0880F991FAA1FD6
:100D6000BB1F0A95D2F7282F2095232324B925B13C
:100D7000822B67CF843108F08ACF37B1682F6E504D
:100D8000770B81E090E0A0E0B0E004C0880F991FED
:100D9000AA1FBB1F6A95D2F7282F2095232327B9B6
:100DA00028B1822B88B973CFAF92BF92CF92DF92D6
:100DB000EF92FF920F931F93CF93DF936C017B0110
:100DC0008B01040F151FEB015E01AE18BF08C017A1
:100DD000D10759F06991D601ED91FC910190F08114
:100DE000E02DC6010995892B79F7C501DF91CF91D7
:100DF0001F910F91FF90EF90DF90CF90BF90AF9039
:100E00000895FC01538D448D252F30E0842F90E010
:100E1000821B930B541710F0CF96089501970895F5
:100E2000FC01918D828D981761F0A28DAE0FBF2FBE
:100E3000B11D5D968C91928D9F5F9F73928F90E014
:100E400008958FEF9FEF0895FC01918D828D981783
:100E500031F0828DE80FF11D858D90E008958FEFC0
:100E60009FEF0895FC01918D228D892F90E0805C89
:100E70009F4F821B91098F73992708958AEE93E003
:100E80000E94320721E0892B09F420E0822F089587
:100E900080E090E0892B29F00E943E0781110C949C
:100EA00000000895FC01A48DA80FB92FB11DA35A0D
:100EB000BF4F2C91848D90E001968F739927848F7A
:100EC000A689B7892C93A089B1898C91837080649D
:100ED0008C93938D848D981306C00288F389E02D3E
:100EE00080818F7D80830895EF92FF920F931F93EF
:100EF000CF93DF93EC0181E0888F9B8D8C8D9813CD
:100F00001AC0E889F989808185FF15C09FB7F894D8
:100F1000EE89FF896083E889F98980818370806424
:100F200080839FBF81E090E0DF91CF911F910F916F
:100F3000FF90EF900895F62E0B8D10E00F5F1F4F7E
:100F40000F731127E02E8C8D8E110CC00FB607FC8D
:100F5000FACFE889F989808185FFF5CFCE010E941B
:100F60005207F1CFEB8DEC0FFD2FF11DE35AFF4F30
:100F7000F0829FB7F8940B8FEA89FB8980818062A9
:100F8000CFCFCF93DF93EC01888D8823B9F0AA8966
:100F9000BB89E889F9898C9185FD03C0808186FD34
:100FA0000DC00FB607FCF7CF8C9185FFF2CF808183
:100FB00085FFEDCFCE010E945207E9CFDF91CF919F
:100FC00008953FB7F8948091750390917603A091AE
:100FD0007703B091780326B5A89B05C02F3F19F081
:100FE0000196A11DB11D3FBFBA2FA92F982F8827A9
:100FF000BC01CD01620F711D811D911D43E0660F83
:10100000771F881F991F4A95D1F708958F929F9255
:10101000AF92BF92CF92DF92EF92FF926B017C0171
:101020000E94E1074B015C010E94E1076819790900
:101030008A099B09683E734081059105A8F381E008
:10104000C81AD108E108F10828EE820E23E0921EAA
:10105000A11CB11CC114D104E104F10429F7FF90D3
:10106000EF90DF90CF90BF90AF909F908F900895BA
:1010700085ED8093BC008091BC0084FDFCCF109274
:10108000C103089520914D03260F3327331F2132CA
:101090003105ECF42091C103FC0190E080E02430A4
:1010A00069F082E00895A0914D032191AC01435D68
:1010B0005C4FA40FB52FB11D2C930196861798F3A2
:1010C00080914D03680F60934D0380E0089581E0A7
:1010D00008950895E091800380917F03E81730F42C
:1010E000F0E0E35FFC4F808190E008958FEF9FEF89
:1010F00008959091800380917F032FEF3FEF981721
:1011000048F4E92FF0E0E35FFC4F208130E09F5F7F
:1011100090938003C901089580917F03909180038B
:10112000891B990B0895CF92DF92EF92FF920F9354
:101130001F93CF93DF937C01CB018A012091C203DF
:10114000222389F0EB016B01C40ED51ECC15DD0501
:1011500069F06991D701ED91FC910190F081E02D4A
:10116000C7010995F3CF642F0E944208C801DF919F
:10117000CF911F910F91FF90EF90DF90CF90089546
:10118000CF93DF931F92CDB7DEB769832091C2035F
:101190002223F9F02091E503203258F021E030E0DD
:1011A000FC013383228390E080E00F90DF91CF91A8
:1011B00008958091C303E82FF0E0EC53FC4F998130
:1011C00090838F5F8093C3038093E50381E090E079
:1011D000ECCF61E0CE0101960E944208F7CFFC01FE
:1011E000A5A1B6A18C9192A589238C93A5A1B6A1A6
:1011F0008C9191A5892B8C9308950F931F93CF9376
:10120000DF93EC018B018DA981110DC01EBD0DB4C2
:1012100007FEFDCF0EBD0DB407FEFDCFDF91CF91D0
:101220001F910F9108958130E9F480E1E9A1FAA1BD
:10123000908117FF14C02DA1922B9083EBA1FCA1EC
:1012400090812FA1922B9083EBA1FCA1908128A5E6
:1012500092239083000F111F815041F7DFCF2EA101
:101260009223EBCFEF8DF8A11083CE010E94EF08FF
:10127000EF8DF8A10083CE01DF91CF911F910F91E7
:101280000C94EF08FC0185A9811105C06EBD0DB459
:1012900007FEFDCF08958130E1F488E0A1A1B2A15D
:1012A0009C9167FF13C025A1922B9C93A3A1B4A18D
:1012B0009C9127A1922B9C93660FA3A1B4A19C9112
:1012C00020A592239C93815049F7089526A192234B
:1012D000ECCFA78DB0A16C93CF010C94EF08CF9306
:1012E000DF93EC01ED8DFE8D80819CA989238083A5
:1012F000CE010E944209ED8DFE8D80819BA9892B34
:101300008083DF91CF910895FC0185A9811104C0EC
:1013100091A182A19CBD8DBD08951F93CF93DF93B2
:10132000EC01162FE881F9810284F385E02D0995FF
:10133000112371F06DADCE010E946F09E881F98132
:101340000688F789E02DCE01DF91CF911F91099496
:101350006EADF1CFAF92BF92CF92DF92EF92FF923C
:101360000F931F93CF93DF93EC0177FD38C08885EF
:101370009985681779079CF557FD31C08A859B854B
:101380004817590764F569017A015B01E881F98121
:101390000284F385E02DCE010995E881F98102A44C
:1013A000F3A5E02D01E010E021E030E0A701B50158
:1013B000CE010995B601CE010E94FD08E881F981B0
:1013C0000688F789E02DCE01DF91CF911F910F9113
:1013D000FF90EF90DF90CF90BF90AF900994DF9196
:1013E000CF911F910F91FF90EF90DF90CF90BF9022
:1013F000AF9008958F929F92AF92BF92CF92DF925B
:10140000EF92FF920F931F93CF93DF93EC0149016B
:101410005701E881F98102A4F3A5E02D0995940113
:10142000D8010E9496356B017C01C114D104E104FE
:10143000F10409F490C08DA9811115C081E0C81A8A
:10144000D108E108F1088FEFC816D806E806F806BB
:1014500009F481C0BEBC0DB407FEFDCFAEBC0DB417
:1014600007FEFDCFEBCF813009F045C081E0C81AFF
:10147000D108E108F1088FEFC816D806E806F8068B
:1014800009F469C09B2D88E0E9A1FAA1208197FFAA
:101490002CC03DA1232B2083EBA1FCA120813FA1E7
:1014A000232B2083EBA1FCA1208138A523232083BB
:1014B000990F815049F79A2D88E0E9A1FAA120817E
:1014C00097FF16C03DA1232B2083EBA1FCA1208117
:1014D0003FA1232B2083EBA1FCA1208138A523234E
:1014E0002083990F815049F7C1CF3EA12323D3CF49
:1014F0003EA12323E9CFBA1016C0CC0CDD1CEE1C94
:10150000FF1CEF8DF8A1B08281E0C81AD108E10874
:10151000F1088FEFC816D806E806F806E1F0CE010C
:101520000E94EF08F1CF81E0C81AD108E108F10864
:101530008FEFC816D806E806F80669F0EF8DF8A117
:10154000B082CE010E94EF08EF8DF8A1A082CE01FB
:101550000E94EF08E8CFDF91CF911F910F91FF908C
:10156000EF90DF90CF90BF90AF909F908F900895B5
:101570008F929F92AF92BF92CF92DF92EF92FF92A3
:101580000F931F93CF93DF935C014B016A01E90135
:1015900077FD52C0DC0118968D919C9168177907F0
:1015A0000CF04AC0209709F447C037FF07C0C901B3
:1015B0000196C80ED91ED195C195D109F501828534
:1015C0009385C816D906C4F5A6014C0F5D1F9A0174
:1015D0002150310937FD30C0D7FE03C0EA01D12CBC
:1015E000C12C281739071CF0EC01CC19DD09D501F5
:1015F000ED91FC910284F385E02DC50109957801F8
:101600008E0121E030E0A601B401C5010E94FA0973
:10161000D501ED91FC910688F789E02DC501DF9198
:10162000CF911F910F91FF90EF90DF90CF90BF90DF
:10163000AF909F908F900994DF91CF911F910F9160
:10164000FF90EF90DF90CF90BF90AF909F908F90E2
:1016500008958F929F92AF92BF92CF92DF92EF92B6
:10166000FF920F931F93CF93DF935C016B014A01AD
:10167000E90157FD52C0DC011A968D919C914817E3
:1016800059070CF04AC0209709F447C037FF07C03C
:10169000C9010196C80ED91ED195C195D109F50190
:1016A00080859185C816D906C4F5A6014C0F5D1F2B
:1016B0009A012150310937FD30C0D7FE03C0EA013D
:1016C000D12CC12C281739071CF0EC01CC19DD09ED
:1016D000D501ED91FC910284F385E02DC5010995BA
:1016E000780101E010E09E01A401B601C5010E944D
:1016F000FA09D501ED91FC910688F789E02DC50125
:10170000DF91CF911F910F91FF90EF90DF90CF90DD
:10171000BF90AF909F908F900994DF91CF911F91D0
:101720000F91FF90EF90DF90CF90BF90AF909F9080
:101730008F9008958F929F92AF92BF92CF92DF9237
:10174000EF92FF920F931F93CF93DF934C016B01A6
:101750005A01E901209709F46CC00115110509F43B
:1017600068C037FF07C0C9010196C80ED91ED195C0
:10177000C195D109F401A085B185CA16DB060CF02C
:1017800058C017FF07C0C8010196A80EB91E1195D1
:1017900001951109F40182859385A816B9060CF00C
:1017A00048C0F601EC0FFD1FAF014150510957FD34
:1017B00040C0B501600F711F9B012150310937FDF9
:1017C00038C0D7FE03C0EF01D12CC12CB7FE03C037
:1017D0008B01B12CA12C4A175B071CF0ED01CC1931
:1017E000DD09281739071CF08C010A191B09D401DF
:1017F000ED91FC910284F385E02DC40109959E01D1
:10180000A501B601C4010E94FA09D401ED91FC9131
:101810000688F789E02DC401DF91CF911F910F91C8
:10182000FF90EF90DF90CF90BF90AF909F908F9000
:101830000994DF91CF911F910F91FF90EF90DF906E
:10184000CF90BF90AF909F908F900895EF92FF92AE
:101850000F931F93CF93DF9377FD32C0DC0118966F
:10186000ED91FC916E177F075CF52115310541F173
:1018700037FF07C0F90131964E0F5F1F3195219553
:101880003109DC011A96ED91FC914E175F07C4F403
:10189000EA01C20FD31FDE011197B7FD11C057FF38
:1018A00003C09E0150E040E0AE17BF071CF09F014F
:1018B000241B350B7801890121E030E00E94FA09F0
:1018C000DF91CF911F910F91FF90EF900895EF92CC
:1018D000FF920F931F93CF93DF9357FD31C0DC012D
:1018E0001A96ED91FC914E175F0754F521153105BD
:1018F00039F137FF07C0F90131966E0F7F1F31951F
:1019000021953109DC011896ED91FC916E177F0746
:10191000BCF4EB01C20FD31FDE011197B7FD10C05D
:1019200077FF03C09E0170E060E0AE17BF071CF0B8
:101930009F01261B370B780101E010E00E94FA0995
:10194000DF91CF911F910F91FF90EF9008958F92AB
:101950009F92AF92BF92CF92DF92EF92FF920F933E
:101960001F93CF93DF9347012115310509F44BC035
:101970000115110509F447C037FF07C0F901319679
:101980006E0F7F1F319521953109DC011896AD90BE
:10199000BC906A157B05BCF517FF07C0F8013196AE
:1019A0004E0F5F1F119501951109DC011A96ED91FB
:1019B000FC914E175F073CF56B01C20ED31EE6018A
:1019C0002197D7FD20C07A01E00EF11ED7011197B3
:1019D000B7FD19C077FF03C0960170E060E057FFC4
:1019E00003C0870150E040E0CA15DB051CF09501FB
:1019F000261B370BAE17BF071CF08F01041B150BFE
:101A000074010E94FA09DF91CF911F910F91FF900D
:101A1000EF90DF90CF90BF90AF909F908F90089500
:101A2000EF92FF920F931F93CF93DF93EC0177FD1B
:101A300022C08885998568177907ECF457FD1BC08B
:101A40008A859B8548175907B4F47901E881F981A3
:101A500002A4F3A5E02D01E010E021E030E0CE018A
:101A60000995B701CE01DF91CF911F910F91FF90A2
:101A7000EF900C94FD08DF91CF911F910F91FF9093
:101A8000EF900895CF93DF93EC010E9484098FA912
:101A900087FD06C0EB8DFC8D80819AA98923808308
:101AA000DF91CF9108950895AF92BF92CF92DF92C8
:101AB000EF92FF920F931F93CF93DF93EC01E62EEB
:101AC0008A01A22E0E9484098FA987FD06C0EB8D92
:101AD000FC8D80819AA989238083ED8DFE8D808184
:101AE0009CA9892380836E2DCE010E944209ED8D31
:101AF000FE8D80819BA9892B8083D12CC12CB12C98
:101B0000CA14DB04E4F48DA97801823079F488A941
:101B1000882361F0F801619171917F01CE010E94EB
:101B2000FD08FFEFCF1ADF0A8701EACFFFEFEF1AB8
:101B3000FF0AF8016491CE010E944209F2CF8FA9F9
:101B400087FD06C0EB8DFC8D808199A9892B808350
:101B5000DF91CF911F910F91FF90EF90DF90CF9089
:101B6000BF90AF900895FC0187A987FD06C0A38DA3
:101B7000B48D9C9181A9892B8C9308950895FC01C3
:101B80006370668B8481958126813781613039F05D
:101B9000633029F0918780873387228708953187C2
:101BA00020879387828708952F923F924F925F926A
:101BB0006F927F928F929F92AF92BF92CF92DF925D
:101BC000EF92FF920F931F93CF93DF93CDB7DEB7C2
:101BD0006A970FB6F894DEBF0FBECDBF9A8F898F7C
:101BE0007A8369834A01D22E18870F833701BC2C70
:101BF000DC0159962D913C915A972115310509F038
:101C000015C118968D919C911997681779070CF05A
:101C1000D7C11A968D919C91481759070CF0D0C1E5
:101C20004C2C512CB6E0CB9E600D711D11247C878D
:101C30006B87161617060CF0C3C1EA2DF0E0FA8781
:101C4000E98793E0EE0FFF1F9A95E1F7F88BEF8796
:101C5000CF01840F951F181619060CF0B1C1A98D7C
:101C6000BA8D58968C91811104C0BFEABD1508F455
:101C7000D394A98DBA8DED91FC9111970284F385CF
:101C8000E02DCD010995B5E0DB9EC0011124E9816D
:101C9000FA81FC83EB83312C212C9C012D533E4F88
:101CA000388F2F8B4A2D50E05E8B4D8BEF89F88D4E
:101CB000E20DF31D44919E828D82D12CC12C69814D
:101CC0007A81620D731D7A8B698B842F90E09C8BD7
:101CD0008B8BE98DFA8DA081B18140FF82C0F1E04C
:101CE000BF126FC0AF126DC01C96ED91FC912F8199
:101CF0003885A4014C0D5D1D69897A89898D9A8D7D
:101D00000995EB89FC89F595E7954E2F5FEFC51A8C
:101D1000D50A6D817E818D899E89680F791F7E83AA
:101D20006D8398E0C916D10481F6AFEF2A1A3A0AFA
:101D3000EB81FC81E40DF51DFC83EB83F5E02F16B0
:101D4000310409F0B3CF2F81388526153705B9F056
:101D5000A98DBA8DED91FC91B1E0BB1257C0AB12C9
:101D600055C069817A816B5F7F4F0088F189E02DD2
:101D7000830128E030E0A401898D9A8D0995A98D11
:101D8000BA8DED91FC9111970688F789E02DCD0170
:101D90006A960FB6F894DEBF0FBECDBFDF91CF912C
:101DA0001F910F91FF90EF90DF90CF90BF90AF9079
:101DB0009F908F907F906F905F904F903F902F906B
:101DC00009941E96ED91FC91EF80F88409851A859F
:101DD00092014D815E816B817C81898D9A8D0995FF
:101DE00090CF2F8138852615370509F48ACF31E049
:101DF000B31207C0A31205C01C96ED91FC9193018C
:101E000078CF1E96ED91FC917301E0CF6B857C85B8
:101E1000641975090684F785E02D73010F8518890B
:101E20009201A401898D9A8D0995A9CFF901349663
:101E30009491329745915491D91AB7E0DB9E400DA9
:101E4000511D1124F901259134913C8B2B8BFA0102
:101E500025903490FA013296749031963491398BF2
:101E6000329664903196449041E04C1518F04A1532
:101E700008F07FC0662D062C000C770B7C836B83EB
:101E8000842D042C000C990B9E838D83A98DBA8D13
:101E9000ED91FC9111970284F385E02DCD01099518
:101EA000512CD12CC12CEA2DF0E0FA87E9872B2D9B
:101EB00030E03C872B87A401440D511D47FC5A9507
:101EC000588F4F8B69817A81660D711D67FC7A95F9
:101ED0007E876D877989C71608F051CF2C2D30E0A9
:101EE0004D815E81420F531FA985BA854A9FC0016B
:101EF0004B9F900D5A9F900D1124FC01E80DF91D88
:101F0000F88BEF87852D612C4F89588D420F531F19
:101F10005E8B4D8B671408F050C044244394480EE8
:101F2000877041F4C1010196EB89FC89E20DF31D34
:101F3000D4901C01D7FE19C0A98DBA8DED91FC91EA
:101F4000662D70E0B1E0BB1219C0AB1217C02D8531
:101F50003E85620F731F0484F585E02D2F8138853F
:101F60004D895E89898D9A8D0995DD0C6394842D48
:101F7000D1CF1E821D821C821B8288CF4B815C8147
:101F8000640F751FAB85BC856A9FC0016B9F900D68
:101F90007A9F900D112469817A81680F791F0684D8
:101FA000F785E02DEF80F88409851A859D014F851E
:101FB0005889898D9A8D0995D8CF570CC3948ACFAB
:101FC0006A960FB6F894DEBF0FBECDBFDF91CF91FA
:101FD0001F910F91FF90EF90DF90CF90BF90AF9047
:101FE0009F908F907F906F905F904F903F902F9039
:101FF00008958F929F92AF92CF92EF92FF920F939C
:102000001F93CF93DF93EC01262F898D9A8D009734
:1020100009F051C06A30D1F41D861C868D8948E0D4
:10202000849F900111248E859F85820F931F9F8727
:102030008E8781E090E0DF91CF911F910F91FF900B
:10204000EF90CF90AF909F908F9008956D3089F36F
:10205000CC88AD888F898823C1F08C859D8536E03A
:10206000C39E800D911D1124488559854817590735
:1020700064F44E855F851D861C8638E0A39EC001F2
:102080001124840F951F9F878E87EA88FB88088913
:1020900019894E855F856C857D85CE010E94D40DA2
:1020A0002C898C859D8546E0249F800D911D1124EF
:1020B0009D878C87BECF6A3069F41D861C86FC0123
:1020C0003896E4912D898E859F85E29F800D911D24
:1020D0001124ADCF6D3009F4ACCFFC0134963491AE
:1020E000631708F4A6CF3296E491E61708F4A1CF5F
:1020F000FC01329685909490462F431B342F47E085
:10210000349F800C911C1124F40132963491319645
:10211000E4913323A9F1EE2399F1CC88F4013596AB
:10212000E491AD884F89442301F10E2E000CFF0B82
:10213000E30FF11DCE9EA001CF9E500D11246C85A2
:102140007D85460F571F68857985641775076CF480
:102150004E855F851D861C86FC013896E491AE9EF7
:10216000400D511D11245F874E87EA88FB8808893E
:1021700019894E855F856C857D85CE010E94D40DC1
:10218000F4013496E4912C898C859D85E29F800D25
:10219000911D11248DCF3F924F925F926F927F924B
:1021A0008F929F92AF92BF92CF92DF92EF92FF9267
:1021B0000F931F93CF93DF9300D000D000D0CDB703
:1021C000DEB79E838D832B015A013901DC01ED912D
:1021D000FC910284F385E02D0995C80107969C01C6
:1021E00093E0359527959A95E1F73A832983C501C0
:1021F0008E0D9F1D9C838B83912C812C312CAB8168
:10220000BC81AA16BB0699F1F12CE12CE016F1066F
:1022100031F1C70187709927330C892B59F4F701E5
:1022200083E0F595E7958A95E1F7E80DF91DE60D50
:10223000F71D349037FE0FC0AD81BE81ED91FC914A
:1022400011970484F585E02D9601A501B2016E0D6C
:102250007F1DCD010995BFEFEB1AFB0AD7CF2FEFFA
:10226000A21AB20A89819A81880E991EC8CFAD81BF
:10227000BE81ED91FC9111970688F789E02DCD0183
:1022800026960FB6F894DEBF0FBECDBFDF91CF917B
:102290001F910F91FF90EF90DF90CF90BF90AF9084
:1022A0009F908F907F906F905F904F903F90099498
:1022B0006F927F928F929F92AF92BF92CF92DF9256
:1022C000EF92FF920F931F93CF93DF93EC016B017B
:1022D0005A0139014801E881F9810284F385E02D32
:1022E0000995E881F9810288F389E02D870193013E
:1022F000A501B601CE010995A501480D591D415012
:102300005109E881F9810288F389E02D9301B60132
:10231000CE010995E881F9810088F189E02D9401C9
:10232000A501B601CE010995C60CD71CB6016150B6
:102330007109E881F9810088F189E02D9401A501F6
:10234000CE010995E881F9810688F789E02DCE0153
:10235000DF91CF911F910F91FF90EF90DF90CF9081
:10236000BF90AF909F908F907F906F9009946F92E5
:102370007F928F929F92AF92BF92CF92DF92EF9215
:10238000FF920F931F93CF93DF935C01EB016A01E0
:10239000490138018701DC01ED91FC916217730757
:1023A00019F5641675062CF0962D872D3A01C92E65
:1023B000D82E9601261937092F5F3F4F048CF58DD3
:1023C000E02DA301BE01C5010995DF91CF911F91B9
:1023D0000F91FF90EF90DF90CF90BF90AF909F90C4
:1023E0008F907F906F9008954615570591F42617AA
:1023F000370724F0892D4B01C22FD82F9E012819B1
:1024000039092F5F3F4F068CF78DE02DA601B401EF
:10241000DACF0284F385E02D0995D501ED91FC9189
:102420000488F589E02D83019401A601BE01C50150
:102430000995D501ED91FC910688F789E02DC5013C
:10244000DF91CF911F910F91FF90EF90DF90CF9090
:10245000BF90AF909F908F907F906F900994EF9274
:10246000FF920F931F93DC011A960D911C911B97FD
:1024700018962D913C911997ED91FC9100A0F1A136
:10248000E02D7B0150E040E070E060E009951F9195
:102490000F91FF90EF9008954F925F926F927F920D
:1024A0008F929F92AF92BF92CF92DF92EF92FF9264
:1024B0000F931F93CF93DF936C012B015A013901C6
:1024C0004801DC01ED91FC910284F385E02D099532
:1024D000E201640C751CD601ED91FC91C615D7057F
:1024E0005CF40088F189E02D87019401A501BE010B
:1024F000C60109952196EFCF0688F789E02DC60120
:10250000DF91CF911F910F91FF90EF90DF90CF90CF
:10251000BF90AF909F908F907F906F905F904F9003
:1025200009948F929F92AF92BF92CF92DF92EF92D7
:10253000FF920F931F93CF93DF93EC015B014A014E
:102540006901E881F9810284F385E02D09959501FF
:102550002C0D3D1D21503109E881F9810488F58950
:10256000E02D78018401A401B501CE010995E8812F
:10257000F9810688F789E02DCE01DF91CF911F9177
:102580000F91FF90EF90DF90CF90BF90AF909F9012
:102590008F9009948F929F92AF92BF92CF92DF92C9
:1025A000EF92FF920F931F93CF93DF93EC015B01A8
:1025B0004A0169017801E881F9810284F385E02DFF
:1025C0000995C80CD91C860101501109E881F981CF
:1025D0000488F589E02D9501A401B501CE01099586
:1025E000E881F9810688F789E02DCE01DF91CF914E
:1025F0001F910F91FF90EF90DF90CF90BF90AF9021
:102600009F908F900994EF92FF920F931F93DC019C
:10261000ED91FC9100A0F1A1E02D09951F910F9182
:10262000FF90EF9008950F931F93DC01ED91FC91C3
:10263000068CF78DE02D09951F910F9108950F934A
:102640001F93DC01ED91FC91048CF58DE02D099533
:102650001F910F910895DC01ED91FC910084F185AB
:10266000E02D09942F923F924F925F926F927F924A
:102670008F929F92AF92BF92CF92DF92EF92FF9292
:102680000F931F93CF93DF9300D000D000D0CDB72E
:10269000DEB73C016A013E832D83FC82EB82580148
:1026A000A41AB50AB7FE03C0B194A194B1088D80F5
:1026B0009E80861A970A97FE03C091948194910890
:1026C0008A149B045CF0902F812F0D811E819D83C5
:1026D0008E839C2D8D2D6B01692F782F0C151D0578
:1026E0005CF09D818E817E836D83692F782F902F82
:1026F000812F8601C92ED82E1601201A310A2B01EE
:102700002D813E81421A530A57FE03C051944194D1
:102710005108710137FE03C03FEFE31AF30AF59445
:10272000E7948D819E81861797075CF5A1E0B0E064
:10273000BA83A983C016D1064CF1D301ED91FC9167
:102740000484F585E02D2B813C81A8016D817E817B
:102750008A149B041CF04D815E81B801C301099568
:10276000E418F508F7FE0AC02D813E8189819A811F
:10277000280F391F3E832D83E20CF31C0F5F1F4F80
:10278000D9CF2FEF3FEF3A832983D4CF26960FB6C8
:10279000F894DEBF0FBECDBFDF91CF911F910F9197
:1027A000FF90EF90DF90CF90BF90AF909F908F9071
:1027B0007F906F905F904F903F902F900895AF92D1
:1027C000BF92CF92DF92EF92FF920F931F93CF931E
:1027D000DF93EC015B016A01215031097901E60EBA
:1027E000F71E01501109040F151F80910C019091E3
:1027F0000D018617970739F480910A0190910B011A
:102800008E159F05A1F06AE2CE010E946F09B50105
:10281000CE010E94FD08B701CE010E94FD08B092D2
:102820000D01A0920C01F0920B01E0920A0180913F
:102830000801909109018C159D0539F480910601DC
:102840009091070180179107A1F06BE2CE010E94E1
:102850006F09B601CE010E94FD08B801CE010E94A9
:10286000FD08D0920901C09208011093070100935E
:1028700006016CE2CE01DF91CF911F910F91FF9085
:10288000EF90DF90CF90BF90AF900C946F096111E3
:1028900006C060E220E050E040E00C94540D61E29C
:1028A000F9CF0F931F93CF93DF931F92CDB7DEB76E
:1028B0008C016370DC0156966C935697623009F474
:1028C00068C0633009F46AC0613009F456C088E416
:1028D000898380EF90E019969C938E93189780E4FB
:1028E00091E01B969C938E931A97C8010E948409CD
:1028F000D801D7968C91D79787FD09C05B96ED914B
:10290000FC915C978081D2969C9189238083D80129
:102910005D96ED91FC915E978081D4969C91892380
:10292000808366E3C8010E944209D8015D96ED915B
:10293000FC915E978081D3969C91D397892B80835D
:10294000D5968C91823061F16981C8010E9442095B
:10295000D801D7968C91D79787FD09C05B96ED91EA
:10296000FC915C978081D1969C91892B80830F90FC
:10297000DF91CF911F910F91089588E2898380E4C0
:1029800091E0F8019187808780EF90E093878287BC
:10299000ACCF88E8898380EF90E09DCF88EEEECFC2
:1029A000F80180A9882381F269817A81C8010E9497
:1029B000FD08CECF089590E080E00895E0EBF0E0D0
:1029C00080818F7D80831092B10060E083E00C9461
:1029D0006B05CF93DF93DC0116968C9116978823B5
:1029E00099F08D919C91119713969C938E931297C9
:1029F00081E090E015969C938E93149714968D9198
:102A00009C911597892BD1F713961C921E921297C1
:102A1000862F90E081509048880F991F840F951F52
:102A2000EC01E881F9818591949111969C938E93A4
:102A300015961C921E92149716966C9381E0DF9166
:102A4000CF910895CF93C82F811109C060E085E030
:102A50000E946B0584B58F7D84BDCF910895843627
:102A600040F084B58F7D84BD61E085E0CF910C940A
:102A70006B0560E085E00E946B0584B58F7D84BDA9
:102A800087B58C9FC001112464E670E00E94413537
:102A900068BD88B5882309F398B587B5981720F7DE
:102AA00084B58062D9CF80919103882379F0809199
:102AB0008F0390919003892B49F080918F0390911F
:102AC000900301979093900380938F0380918A03E2
:102AD000882379F08091880390918903892B49F0AC
:102AE0008091880390918903019790938903809343
:102AF00088030895809186039091870301969093AF
:102B00008703809386032091860330918703809109
:102B10008403909185038217930738F460E086E080
:102B20000E946B0510928A030895A0918A038091F8
:102B3000860390918703A150BB0BAA0FBB1FA3591B
:102B4000BE4F880F991F880F991FED91FC91E80FD8
:102B5000F91F859194919093890380938803A091A4
:102B60008A03E0918603F0918703A150BB0BAA0F63
:102B7000BB1FA359BE4FEE0FFF1FEE0FFF1FCF016C
:102B80000297ED91FC91E80FF91F8591949161E016
:102B9000892B09F460E086E00C946B0590918A0320
:102BA000981750F4682F4DE651E084E893E00E94B6
:102BB000E91481110C947A150895E0E8F0E0808121
:102BC0008F7D808360E08AE00E946B051092810017
:102BD0000895CF93DF9380918D0390918E0301969A
:102BE00090938E0380938D0320918D0330918E03FB
:102BF00080918B0390918C038217930738F40E9485
:102C0000DD1510929103DF91CF910895A09191036A
:102C100080918D0390918E03A150BB0BAA0FBB1F17
:102C2000AB59BE4F880F991F880F991FED91FC91EA
:102C3000E80FF91F859194919093900380938F03EF
:102C4000A0919103E0918D03F0918E03A150BB0BF5
:102C5000AA0FBB1FAB59BE4FEE0FFF1FEE0FFF1F9A
:102C6000CF010297ED91FC91E80FF91FC591D49126
:102C70000E94DD15209709F4C6CF9E0150E040E088
:102C800069E07DE380E090E00E9477353093890031
:102C9000209388002091880030918900AEE1B0E057
:102CA0000E949E3524E630E040E050E00E94553519
:102CB00030938B0020938A00809180008062809303
:102CC000800084E1809381009ECF909191039817BA
:102CD00050F4682F45E651E08BE893E00E94E91438
:102CE00081110C94E9150895229A60E08AE00E940F
:102CF0006B05569A60E086E00E946B05559A60E08D
:102D000085E00E946B0583E0809380001092810033
:102D1000109289001092880010928B0010928A0005
:102D200008958091C20291E089278093C202909118
:102D3000C102911107C0882329F082E38093C10268
:102D40000E9422150895CF93C091C202CC2349F06E
:102D5000823051F08130D1F08430D1F0833031F1C4
:102D6000C0E08C2FCF9108958CEE9091C102482F36
:102D7000552741950CF4509594171506CCF41092F4
:102D8000C1028091C1020E942215EBCF86EFEDCFE8
:102D900084E19091C102492F480F5527551F4536B0
:102DA000510534F084E68093C102EBCF8AE0F1CF85
:102DB000890FF9CF319907C081E02091E803309164
:102DC000E903232B09F480E008952FB7F89460916C
:102DD00092037091930380919403909195032FBF78
:102DE00008958F929F92AF92BF92CF92DF92EF920F
:102DF000FF920F934B015C0169017A010023C1F03E
:102E00006091920370919303809194039091950344
:102E1000C80CD91CEA1CFB1CC814D904EA04FB0426
:102E200050F4681579058A059B05B0F0E0E009C00B
:102E30000E94E516EDCFE1E06C157D058E059F053E
:102E4000A8F38E2F0F91FF90EF90DF90CF90BF905F
:102E5000AF909F908F900895A7019601285D3E4FF7
:102E60004F4F5F4FE1E0621773078407950748F7FC
:102E7000DDCF8F929F92AF92BF92CF92DF92EF926F
:102E8000FF926B017C010E94E5164B015C01C80CAE
:102E9000D91CEA1CFB1CC814D904EA04FB0468F41E
:102EA0000E94E516681579058A059B05C8F789E231
:102EB000C80E81E0D81EE11CF11C0E94E5166C15BD
:102EC0007D058E059F05C8F3FF90EF90DF90CF90B2
:102ED000BF90AF909F908F9008956FB7F8945091E6
:102EE0001A0140911901309118012091E703909146
:102EF000E6036FBF823089F038F4813059F0852FB6
:102F000090E08053984F0895833049F08430B9F7AA
:102F1000892F01C0842F90E00895832FFCCF822F4A
:102F2000FACFCF93DF93CDB7DEB72C970FB6F894D7
:102F3000DEBF0FBECDBF8CE0E4E2F1E0DE01119612
:102F400001900D928A95E1F780911901823011F577
:102F500020911A0130E02053384FC901837099271E
:102F6000892B39F4C90164E670E00E942D35892B64
:102F7000C1F4C90160E971E00E942D35892B89F007
:102F80008CE12C960FB6F894DEBF0FBECDBFDF915B
:102F9000CF910895E0911901EC0FFD2FF11D808173
:102FA000F0CF8DE1EECF8F929F92AF92BF92DF92E2
:102FB000EF92FF920F931F93CF93DF937C018EE8E4
:102FC00080937A0010E4D0E0C0E0DD24DA940E941F
:102FD000E5164B015C01D092B00280917A008064CA
:102FE00080937A008091B0028F3F69F400E02AE07C
:102FF00030E040E050E0C501B4010E94F1168823A2
:1030000089F380E014C08091B002C80FD11D115027
:10301000F1F610927A0085E0D695C7958A95E1F78A
:10302000F701D183C083138281E0CD2B51F3DF916F
:10303000CF911F910F91FF90EF90DF90BF90AF90D5
:103040009F908F900895CF93DF9300D000D0CDB79D
:10305000DEB719821A821B821C82CE0101960E9461
:10306000D317882301F129813A81243A81E0380776
:10307000C0F4273381E03807B0F044E6429FC00136
:10308000439F900D1124885199476EE670E00E948D
:103090002D35862F0F900F900F900F90DF91CF91CD
:1030A000089584E6F7CF80E0F5CF4F925F926F925C
:1030B0007F928F929F92AF92BF92CF92DF92EF92C8
:1030C000FF92CF93CFB7F894C0909203D090930320
:1030D000E0909403F0909503809108039091090388
:1030E000A0910A03B0910B03892B8A2B8B2BC9F07B
:1030F000209108033091090340910A0350910B037A
:10310000CFBFCA01B901CF91FF90EF90DF90CF9070
:10311000BF90AF909F908F907F906F905F904F90F7
:10312000089590E080E020E030E0A901F0E0E0E0E8
:10313000DC01AA0FBB1FAA0FBB1FA852BD4F8D9069
:103140009D90AD90BC90280D391D4A1D5B1DDC0182
:10315000A453BD4F6C91E60FF11D28323105410596
:10316000510580F4833031F4220F331F441F551F63
:10317000EE0FFF1F01968C309105D1F620E030E074
:10318000A901BECFA0E5B6E40E94B4352B013C01F5
:103190009F01A8EEB3E00E949E354B015C01C70180
:1031A000B60128EE33E040E050E00E945535A5011D
:1031B0009401260F371F481F591FC301B2010E94F7
:1031C0005535209308033093090340930A03509325
:1031D0000B0396CFCF92DF92EF92FF920F93CF9394
:1031E00091E09093C20395E79093E4031092C30398
:1031F0001092E503682F87E894E00E94C00880E001
:103200000E9491038091C1038111FCCF81E08093E2
:10321000C1031092C0039FEF9093BF031092BE03AF
:103220001092BD0380939C0380919C038A6E8093CF
:103230009C0380919B038130F1F510929B03809158
:103240009C038093BB008091BC0083FDF8CF85EC8C
:103250008093BC008091C1038130E1F38091BE0373
:1032600081112BC08091BE03ADE9B3E0EDE0F3E046
:10327000C0E0C81324C010928003C0937F030E9453
:10328000E5166B017C01C1111EC000E022E330E0B5
:1032900040E050E0C701B6010E94F1168823A9F36F
:1032A00081E00E9491038C2FCF910F91FF90EF90BE
:1032B000DF90CF90089585EECBCF81E0D5CF9D9163
:1032C0009193CF5FD6CF87E894E00E947908C82F0A
:1032D000E7CF0F931F93CF93DF938C01EB010E94F5
:1032E000FB348883C80101960E94FB348983CE0198
:1032F000DF91CF911F910F910895CF93DF9300D06D
:10330000CDB7DEB764E171E08FE090E00E9469190B
:1033100066E171E081E190E00E94691980911401F9
:103320009091150101978031974230F084E690E04A
:1033300090931501809314018091160190911701CB
:1033400001978031974230F088EE93E09093170117
:10335000809316011A821982BE016F5F7F4F83E14D
:1033600090E00E94691989819A810197803797417D
:1033700020F084EB90E09A83898389819A819093ED
:10338000C5028093C4020F900F90DF91CF910895F2
:10339000EF92FF920F931F93CF93DF93EC017C0189
:1033A00001E010E0C8010E94FB34F70181937F0126
:1033B0000F5F1F4F06301105A9F788819981AA81F7
:1033C000BB818055934CA109B109813A9648A1402F
:1033D000B10540F080E590E4A1E0B0E088839983F6
:1033E000AA83BB838C8181508E3110F08DE08C8359
:1033F000DF91CF911F910F91FF90EF900895CF93A0
:10340000DF9300D000D0CDB7DEB786E190E00E9418
:10341000FB34898387E190E00E94FB348A8388E152
:1034200090E00E94FB348B8389E190E00E94FB34A2
:103430008C8389819A81AB81BC81AC01BD014150F3
:103440005109610971094E3F5F4F6F4F7F4F50F532
:10345000282F2F732093E603AC01BD0126E076955B
:103460006795579547952A95D1F74F714093E70394
:10347000AC01BD013BE076956795579547953A9528
:10348000D1F74F71409318012A2F2F702093190103
:1034900044E1B695A795979587954A95D1F78C5EA7
:1034A00080931A0183E084BD8BE085BD8CE787BDE6
:1034B00080916E00826080936E000F900F900F904D
:1034C0000F90DF91CF9108950E94EA36FB010190A1
:1034D0000020E9F73197AF01461B570BDC01ED9156
:1034E000FC910280F381E02D09948F929F92AF921C
:1034F000BF92EF92FF920F931F93CF93DF93CDB7BD
:10350000DEB7A1970FB6F894DEBF0FBECDBF7C012A
:10351000FA01CB0119A2223008F42AE08E010F5DD6
:103520001F4F822E912CB12CA12CBF01A50194011B
:103530000E945535F901CA016A300CF5605DD80169
:103540006E938D01232B242B252B79F790E080E0BF
:10355000109721F0BD01C7010E94661AA1960FB60F
:10356000F894DEBF0FBECDBFDF91CF911F910F91B9
:10357000FF90EF90BF90AF909F908F900895695CFF
:10358000DECF2AE00C94751A462F50E070E060E020
:103590002AE00C94751AAB0170E060E02AE00C940C
:1035A000751AAB01770F660B770B2AE00C94751A2E
:1035B0000F931F93CF93DF93EC010E94661A8C0147
:1035C00061EC71E0CE010E94661A800F911FDF91BD
:1035D000CF911F910F9108956115710511F00C9411
:1035E000661A90E080E008952F923F924F925F928A
:1035F0006F927F928F929F92AF92BF92CF92DF9203
:10360000EF92FF920F931F93CF93DF9300D01F92FF
:10361000CDB7DEB72091E8033091E9033B832A83DD
:10362000232B09F4AAC1582E8FB7F894A0901A0141
:10363000B12C30E3A31A38EFB30A809019019090AF
:1036400018016090E7037090E6038FBF0E94551841
:103650002091160130911701890130E020E06017B8
:1036600071078207930708F009C120911401309176
:103670001501890130E020E044244394601771076C
:103680008207930708F4412C0E94231890E065E01C
:1036900070E00E944135262E6983C501A3E08A9E11
:1036A000800D911D1124B5E09B9E800D911D11246C
:1036B000EBE07E9E800D911D1124F7E06F9E800D42
:1036C000911D11242091120130911301821793074B
:1036D00009F474C09093130180931201AA81BB81F5
:1036E0001D961C921E921C971F961C921E921E974E
:1036F000ED91FC91119700A0F1A1E02DF12CE12CAE
:1037000007E010E020E630E050E040E070E060E0EC
:10371000CD0109958FEF9FEFEA81FB81938B828B1F
:10372000918B808B81E0848B858BF9E0F61530F0EE
:1037300070E060E08A819B810E94D11A662D8A81A7
:103740009B810E94C41A29E064EC71E0271510F4F3
:1037500063E272E08A819B810E94EC1A672D8A8164
:103760009B810E94C41A6EE272E08A819B810E9452
:10377000EC1AB5018A819B810E94CB1A39E067EC73
:1037800071E0381510F46AEC71E08A819B810E9427
:10379000EC1A682D8A819B810E94C41A89E067EC2B
:1037A00071E0891510F46AEC71E08A819B810E94B6
:1037B000EC1A692D8A819B810E94C41A80911D0197
:1037C000851509F448C050921D014DE8A42E41E032
:1037D000B42E54E1852E912C312C66246A94762CDB
:1037E0008FEF9FEF351002C080EE97E0D501119664
:1037F000EC901197F12C0C9110E012962D913C91C8
:103800006C0149E750E0B4018A819B810E94CB1092
:10381000B3E03B16B1F0C4014096EA81FB81958785
:10382000848789E790E097878687738A628A718A9E
:10383000608A21E0248B258B6CEC71E0CF010E9423
:10384000EC1A339434E0A30EB11C8EE1880E911C67
:1038500094E03912C5CF80911C01A981A81709F401
:103860006BC020921C01AE3060F4A12C38EFB32E57
:10387000A63080F0AA24AA94BA2C0CC072E0472E7D
:1038800003CFB98120EEA22E27E0B22EB33111F47E
:10389000E4E1E983F9818F2E912CAA81BB81ED911E
:1038A000FC91119700A0F1A1E02D750108E010E056
:1038B000940150E040E06AE870E0CD010995B981DB
:1038C000B33138F584E190E03C0168187908EAE802
:1038D0008E0E911CAA81BB81ED91FC91119700A0E5
:1038E000F1A1E02DF12CE12C930150E040E0B40176
:1038F000CD010995AA81BB81ED91FC91119706A09C
:10390000F7A1E02D7501930150E040E0B401CD0135
:103910000995AA81BB81ED91FC91119700A0F1A1BD
:10392000E02D750104E010E022E030E042E050E0DC
:103930006EE970E0CD01099580911B018415E9F0D5
:1039400040921B0180EE97E0442039F0B1E080E026
:1039500098EF4B1202C080EE9FEF6C0188E0E82EDA
:10396000F12C08E010E023EC36E050E040E063E7A3
:1039700070E08A819B810E94CB100F900F900F9076
:10398000DF91CF911F910F91FF90EF90DF90CF903B
:10399000BF90AF909F908F907F906F905F904F906F
:1039A0003F902F9008957F928F929F92AF92BF92F7
:1039B000CF92DF92EF92FF920F931F93CF93DF93FB
:1039C000EC01762E49015A01680128E0629FA001AE
:1039D00011244E5E5F4F80E590E09D878C875F8766
:1039E0004E87E881F98100A0F1A1E02DF12CE12CB6
:1039F00008E010E020E530E060E570E0CE010995D8
:103A000080919A0378123EC080910E0190910F012F
:103A1000A0911001B09111018F3F9F4FAF4FBF4F49
:103A200089F180EE9FEF9B8B8A8B998B888B6EEC54
:103A300071E0CE010E94EC1A40910E0150910F01ED
:103A40006091100170911101CE010E94C11A6EE2C5
:103A500072E0CE010E94EC1AB601CE010E94EC1A6F
:103A600060ED71E0CE01DF91CF911F910F91FF903A
:103A7000EF90DF90CF90BF90AF909F908F907F900E
:103A80000C94EC1A8FEF9FEF9B8B8A8B998B888B12
:103A9000B501A401CE010E94C11A6EE272E0CE010E
:103AA0000E94EC1AB601DECFCF92DF92EF92FF9226
:103AB000CF936B017C01C42F62ED71E08AEE93E03D
:103AC0000E94EC1AB701A6018AEE93E00E94C11A87
:103AD0006EED71E08AEE93E00E94EC1A6C2F8AEE94
:103AE00093E00E94C41A61EC71E08AEE93E00E94B8
:103AF000661A60E079E08DE390E0A70196010E94EC
:103B000055352093B3002091B4008091B3008C9F71
:103B1000C001112464E670E00E9441356093B40056
:103B20009091B40081E0921301C080E0CF91FF90AA
:103B3000EF90DF90CF900895CF92DF92EF92FF92B7
:103B4000CF936B017C01C42F81E08093050110921B
:103B500004010E94DE144C2FC701B6010E94541DBF
:103B600085E0809305018AEF80930401CF91FF9057
:103B7000EF90DF90CF900895CF92DF92EF92FF9277
:103B8000CF93DF9300D000D01F92CDB7DEB79091D6
:103B90009A032FEF280F223008F04BC1911150C02B
:103BA00040910E0150910F0160911001709111012F
:103BB0004F3F2FEF52076207720709F49FC0823010
:103BC00069F580ED97E0A0E0B0E0481B590B6A0B67
:103BD0007B0B40368AEE58076105710520F1409352
:103BE0000E0150930F016093100170931101CE01EB
:103BF000019625E0FC0111922A95E9F70E94C81967
:103C000060910E0170910F0180911001909111014E
:103C10004D810E949C1D1092C602FAC084EF91E073
:103C2000A0E0B0E0D2CF80E69AEEA0E0B0E08093D2
:103C30000E0190930F01A0931001B0931101D7CF03
:103C4000913009F044C040910E0150910F016091F4
:103C50001001709111014F3FFFEF5F076F077F0762
:103C600009F44CC0823009F493E0892F90E0B0E071
:103C7000A0E0481759076A077B0768F481E090E0E5
:103C8000A0E0B0E080930E0190930F01A09310018B
:103C9000B09311010CC0481B590B6A0B7B0B40936E
:103CA0000E0150930F016093100170931101CE012A
:103CB000019625E0FC0111922A95E9F70E94C819A6
:103CC00069817A818B819C8140910E01A2CF9230D3
:103CD000A9F440910E0150910F0160911001709173
:103CE00011014F3F5F4F6F4F7F4F41F08091B10007
:103CF000882309F490CF0E94DE148DCF2AEF290F7C
:103D0000233048F540910E0150910F016091100150
:103D1000709111014F3F2FEF52076207720709F4AC
:103D20006FC08230B1F48AE090E0B0E0A0E04817C4
:103D300059076A077B0778F581E090E0A0E0B0E0E2
:103D400080930E0190930F01A0931001B093110185
:103D500062CF81E0E9CF933069F540910E01509137
:103D60000F0160911001709111014F3FEFEF5E075D
:103D70006E077E0709F447C09091C7029330C1F4E3
:103D80008230B1F4892F90E0B0E0A0E0841795076D
:103D9000A607B70788F6481B590B6A0B7B0B4093A5
:103DA0000E0150930F01609310017093110133CFF6
:103DB00091E0E8CF943021F540910E0150910F0130
:103DC00060911001709111014F3FFFEF5F076F0786
:103DD0007F07C9F0823091F485E090E0B0E0A0E088
:103DE00084179507A607B707B0F210920E0110923C
:103DF0000F0110921001109211010DCF81E0EDCF53
:103E0000992309F434C19150953079F090939A0335
:103E100081E00F900F900F900F900F90DF91CF9156
:103E2000FF90EF90DF90CF90089584E080939A0305
:103E3000EFCF91112BC040910E0150910F01609175
:103E40001001709111014F3F2FEF52076207720767
:103E500009F456C08430A9F480ED97E0A0E0B0E00A
:103E6000840F951FA61FB71F813CE4ED9E07E1E07C
:103E7000AE07B10508F4DBCE80EC94EDA1E0B0E034
:103E8000D6CE84EF91E0A0E0B0E0EACF913041F5EA
:103E900040910E0150910F0160911001709111013C
:103EA0004F3FFFEF5F076F077F0751F1843099F4B1
:103EB00083E090E0A0E0B0E0840F951FA61FB71F3D
:103EC0008F319105A105B10508F4DCCE8EE190E0BB
:103ED000A0E0B0E0D7CE81E090E0A0E0B0E0ECCF91
:103EE000923071F440910E0150910F0160911001D8
:103EF000709111014F3F5F4F6F4F7F4F09F0F6CE2A
:103F00002AEF290F2330F8F440910E0150910F0150
:103F100060911001709111014F3F2FEF520762071E
:103F2000720709F49CC0843049F48AE090E0A0E074
:103F3000B0E0840F951FA61FB71F02CF81E090E06D
:103F4000A0E0B0E0F6CF933009F046C0C0900E017B
:103F5000D0900F01E0901001F0901101EFEFCE161C
:103F6000DE06EE06FE0609F47CC09091C70293308F
:103F7000E9F48430D9F483E0C80ED11CE11CF11CB3
:103F8000C0920E01D0920F01E0921001F092110147
:103F9000923071F48CE090E0A0E0B0E0FDE0CF164C
:103FA000D104E104F10408F0CBCE35CE81E0E4CFBA
:103FB000933009F030CE0E94911790E0B0E0A0E07D
:103FC0008C159D05AE05BF0508F025CE0E94911702
:103FD00090E0B0E0A0E0B4CE943009F040C0409151
:103FE0000E0150910F0160911001709111014F3F2E
:103FF0002FEF520762077207A1F18430F1F485E0D8
:1040000090E0A0E0B0E0840F951FA61FB71F80933B
:104010000E0190930F01A0931001B0931101209114
:10402000C702243079F44797A105B10508F4F3CD10
:1040300087E190E0A0E0B0E083CE81E090E0A0E0F6
:10404000B0E0E1CF253009F0E6CDCB97A105B10571
:1040500008F4E1CD8BE390E0A0E0B0E071CE9830C1
:1040600031F09F5F953009F0D1CE86E0DFCE80E061
:10407000D0CE9F92AF92BF92CF92DF92EF92FF92FB
:104080000F931F93CF93DF9300D000D01F92CDB733
:10409000DEB7A090E803B090E903A114B10409F4DD
:1040A00028C2982ED5011D961C921E921C9782E163
:1040B00090E01F969C938E931E978FEF9FEF5396E1
:1040C0009C938E93529751969C938E93509781E038
:1040D00054968C93549755968C93992091F19812FD
:1040E0001AC288E080939A036BEE71E0C5010E94CA
:1040F000D81A67EF71E0C5010E94D81A63E072E038
:10410000C5010E94D81A6AE072E0C5010E94D81A5F
:1041100063E172E0C5010E94D81A6CE172E0C5014A
:104120000E94D81A65E272E0C5010E94D81A60E3C5
:1041300072E0C5010E94D81A6BE372E0C5010E94CB
:10414000D81A4091C30280919A034813E7C1911095
:10415000E5C18091C6028111C9C1CE01019625E059
:10416000DC011D922A95E9F70E94C81929813A813C
:104170004B815C8109E412E060E0C5010E94D31C20
:104180002D8130E050E040E00CE412E061E0C50138
:104190000E94D31C9090B10080E590E0F5019587D6
:1041A000848782E290E0978786870190F081E02DF6
:1041B00000A0F1A1E02DF12CE12C08E010E020E5B9
:1041C00030E042E250E060E570E0C5010995809181
:1041D0009A03823009F0D1C180910E0190910F01B4
:1041E000A0911001B09111018F3F9F4FAF4FBF4F72
:1041F00009F4C3C180EE9FEFD50153969C938E9333
:10420000529751969C938E9350976EEC71E0C50136
:104210000E94EC1A69E672E0992011F068EE71E0F4
:10422000C5010E94EC1A60ED71E0C5010E94EC1A14
:10423000209114013091150150E040E00EE412E0AD
:1042400066E0C5010E94D31C209116013091170130
:1042500050E040E067E0C5010E94D31C2091C402F9
:104260003091C50250E040E001E512E068E0C50190
:104270000E94D31C80E590E0D5011D969C938E93FF
:104280001C978AE290E01F969C938E931E97ED9167
:10429000FC9100A0F1A1E02DF12CE12C08E010E050
:1042A00020E530E04AE250E060E570E0C5010995A4
:1042B00080919A03833009F0A9C180910E019091F9
:1042C0000F01A0911001B09111018F3F9F4FAF4F8F
:1042D000BF4F09F49BC18091C702813009F05CC1D6
:1042E00080EE9FEFD50153969C938E9352975196F3
:1042F0009C938E9350976EEC71E0C5010E94EC1A6E
:1043000040910E0150910F016091100170911101C7
:10431000C5010E94C11A60ED71E0C5010E94EC1A4E
:104320000FEF1FEFD50153961C930E9352975196A2
:104330001C930E9350976AEC71E0C5010E94EC1A31
:104340008091C702823009F036C180EE9FEFF501FF
:10435000938B828B918B808B6EEC71E0C5010E94F8
:10436000EC1A40910E0150910F0160911001709173
:104370001101C5010E94C11A60ED71E0C5010E94E2
:10438000EC1A0FEF1FEFF501138B028B118B008BD3
:104390006AEC71E0C5010E94EC1A8091C70283307B
:1043A00009F022C180EE9FEFD50153969C938E9326
:1043B000529751969C938E9350976EEC71E0C50185
:1043C0000E94EC1A40910E0150910F016091100172
:1043D00070911101C5010E94C11A60ED71E0C50123
:1043E0000E94EC1A80E590E0F5019587848782E3CE
:1043F00090E0978786870190F081E02D00A0F1A1E1
:10440000E02DF12CE12C08E010E020E530E042E363
:1044100050E060E570E0C501099580919A03843011
:1044200009F052C180910E0190910F01A0911001ED
:10443000B09111018F3F9F4FAF4FBF4F09F444C15F
:104440008091C702843009F012C180EE9FEFD50140
:1044500053969C938E93529751969C938E9350971C
:104460006EEC71E0C5010E94EC1A40910E01509172
:104470000F016091100170911101C5010E94C11AD4
:1044800060ED71E0C5010E94EC1A0FEF1FEFD5013E
:1044900053961C930E93529751961C930E935097DC
:1044A00063E272E0C5010E94EC1A8091C702853078
:1044B00009F0F4C080EE9FEFF501938B828B918B16
:1044C000808B6EEC71E0C5010E94EC1A40910E01E8
:1044D00050910F016091100170911101C5010E946E
:1044E000C11A60ED71E0C5010E94EC1A81E0809371
:1044F000C60280E00F900F900F900F900F90DF9109
:10450000CF911F910F91FF90EF90DF90CF90BF90D0
:10451000AF909F90089510929A03E6CDB8E04B9F1C
:10452000A00111244E5E5F4FD12CC12C88E0E82EF3
:10453000F12C08E010E020E131E063E070E0C5011B
:104540000E94CB1040919A03E8E04E9FA0011124F5
:104550004E5E5F4F90EEC92EDD24DA9420E131E00B
:1045600063E070E0C5010E94CB1080919A038093B4
:10457000C302992009F4EDCDF0CD8FEF9FEFF50147
:10458000938B828B918B808B69E672E0992009F482
:104590004CCE68EE71E049CE8FEF9FEFF501938B23
:1045A000828B918B808B80E00E946D17BC01C501CE
:1045B0000E94CB1AB5CED50153961C930E935297F9
:1045C00051961C930E93509781E00E946D17182FFF
:1045D0008A3028F468EC71E0C5010E94EC1A612F62
:1045E000C5010E94C41ACDCEF501138B028B118B2D
:1045F000008B82E00E946D17182F68EC71E08A3002
:1046000090F1612FC5010E94C41AECCE8FEF9FEF8D
:10461000D50153969C938E93529751969C938E936B
:10462000509780E00E946D17BC01C5010E94CB1A13
:1046300081E00E946D17182F67EC71E08A3010F04E
:104640006AEC71E0C5010E94EC1A612FC5010E945D
:10465000C41A82E00E946D17182F67EC71E08A304F
:1046600010F06AEC71E0C5010E94EC1ACACF8FEF1E
:104670009FEFF501938B828B918B808B83E00E945F
:104680006D17182F8A3028F468EC71E0C5010E947C
:10469000EC1A612FC5010E94C41AF7CED5015396BA
:1046A0001C930E93529751961C930E93509784E04F
:1046B0000E946D17182F68EC71E08A3028F1612F85
:1046C000C5010E94C41A12CF8FEF9FEFF501938BA3
:1046D000828B918B808B83E00E946D17182F8A301C
:1046E00028F468EC71E0C5010E94EC1A612FC50145
:1046F0000E94C41A84E00E946D17182F64EC71E0C8
:104700008A3010F063E272E0C5010E94EC1AD7CF44
:10471000CF92DF92EF92FF92CF93DF93EC0183E091
:104720008C8B8D8B483E83E0580761057105B0F492
:10473000CE010E94C11A82E08C8B8D8B8E859F8565
:1047400008969F878E8765E572E0CE01DF91CF9155
:10475000FF90EF90DF90CF900C94EC1A403482E4FD
:1047600058078FE06807710560F5CB01BA0128EEA4
:1047700033E040E050E00E9455356B017C01BA0106
:10478000A901CE010E94C11A6BE572E0CE010E9420
:10479000EC1AC701B60124E630E040E050E00E9488
:1047A0005535BA01A901CE010E94C11A8E859F8597
:1047B00008969F878E8782E08C8B8D8B6DE572E0EB
:1047C000C4CFCB01BA0120E432E44FE050E00E94B4
:1047D00055356B017C01BA01A901CE010E94C11AB5
:1047E0006BE572E0CE010E94EC1AC701B60120EA27
:1047F00036E841E050E00E945535BA01A901CE01EA
:104800000E94C11A8E859F8508969F878E8782E0B9
:104810008C8B8D8B63E672E098CF8F929F92AF92D4
:10482000BF92CF92DF92EF92FF921F93CF93DF93CD
:10483000C091E803D091E903209709F475C088235B
:1048400059F08FEF9FEFDC018093000190930101FD
:10485000A0930201B09303010E9455186B017C01E3
:10486000409100015091010160910201709103019A
:104870004C155D056E057F0509F449C08091160150
:1048800090911701B0E0A0E012E0C816D906EA0640
:10489000FB0668F48091140190911501B0E0A0E04E
:1048A00011E0C816D906EA06FB0608F410E08AE013
:1048B000882E912C9D868C8694E1A92EB12CBF86E2
:1048C000AE861B8A1A8A198A188ACE010E9488230A
:1048D0009D868C86BF86AE8680EE97E0112331F0F0
:1048E00080E098EF113011F480EE9FEF9B8B8A8B64
:1048F000998B888BB701A601CE010E948823C092B4
:104900000001D0920101E0920201F092030181E0E6
:10491000DF91CF911F91FF90EF90DF90CF90BF90EC
:10492000AF909F908F900895F3CFCF92DF92EF9248
:10493000FF920E94E5166B017C018091B10290917B
:10494000B202A091B302B091B4028C159D05AE05E0
:10495000BF05A8F580918303882349F01092830353
:1049600081E00E940D24809183030E94F41A80ED5F
:10497000C8168AE8D8068FEFE806F80688F08FEFA9
:104980009FEFDC018093B1029093B202A093B30237
:10499000B093B40281E0FF90EF90DF90CF90089544
:1049A00080E3C80E85E7D81EE11CF11CC092B1025D
:1049B000D092B202E092B302F092B402EBCF80E068
:1049C000EACFDF92EF92FF920F931F93CF93DF9383
:1049D000C091E803D091E903209709F46BC1D82E68
:1049E000882309F450C0E881F98106A0F7A1E02DE1
:1049F000EE24EA94FE2C04E110E022E330E048E2E9
:104A000050E064E170E0CE010995E881F98104A0ED
:104A1000F5A1E02D02E210E020E530E047E250E0B1
:104A200066E470E0CE010995E881F98104A0F5A162
:104A3000E02D01E410E020E530E04CE350E066E4D6
:104A400070E0CE010995E881F98104A0F5A1E02D7F
:104A500020E530E043E250E060E570E0CE010995EA
:104A600048E156EC64E070E0CE010E94EE0350E0B5
:104A700040E062E070E0CE010E94EE0368E176EC77
:104A8000CE010E94DA048091C1029091C002981375
:104A900009C02091BF029091C202291303C0DD20FA
:104AA00009F4D3C0811138C068E176ECCE010E94D0
:104AB000DA0448E156EC64E070E0CE010E94EE03B7
:104AC00050E040E062E070E0CE010E94EE03E88139
:104AD000F98100A0F1A1E02DF12CE12C0AE010E019
:104AE00026E630E040E550E06DE170E0CE0109954A
:104AF0008091C202882309F471C0E881F98106A07F
:104B0000F7A1E02DEE24EA94FE2C26E630E040E505
:104B100050E06DE170E060C060EE7FEFCE010E947A
:104B2000DA044FEF5FEF64E070E0CE010E94EE0325
:104B300040EE57E062E070E0CE010E94EE039091FB
:104B4000C2028091BF02992309F489C0811126C055
:104B5000E881F98106A0F7A1E02DEE24EA94FE2C6D
:104B60000AE010E026E630E040E550E06DE170E05C
:104B7000CE0109952091C00230E0E881F98100A0C2
:104B8000F1A1E02D40EEE42EFF24FA9408E010E0BD
:104B900041E550E06EE170E0CE0109953091C00230
:104BA0002091C102E881F98100A0F1A1E02D832FBD
:104BB00090E0622F70E0321708F049C09B01281B7B
:104BC000390BBC01625E7F4F80EEE82EFF24FA9421
:104BD00008E010E041E550E0CE01099584E690E060
:104BE0009D878C878BE290E09F878E8782E08C8BFD
:104BF0008D8B1B8A1A8A198A188A6091C0026111EA
:104C00003BC068E672E0CE010E94EC1A84E690E0B8
:104C10009D878C878BE290E09F878E878FEF9FEF39
:104C20009B8B8A8B998B888B6091C102611133C0F9
:104C300068E672E0CE010E94EC1A8091C102809376
:104C4000C0028091C2028093BF0281E034C09C0107
:104C5000261B370B625E7F4FF12CE12CB9CF8823E6
:104C600009F4BCCFE881F98100A0F1A1E02DF12C7D
:104C7000E12C0AE010E049CFCE010E94C41A8091D5
:104C8000C002843628F46EE272E0CE010E94EC1A73
:104C90006CE472E0B8CFCE010E94C41A8091C102C8
:104CA000843628F46EE272E0CE010E94EC1A6CE4C5
:104CB00072E0C0CF80E0DF91CF911F910F91FF9004
:104CC000EF90DF9008958F929F92AF92BF92CF9214
:104CD000DF92EF92FF920F931F93CF93DF9300D059
:104CE00000D0CDB7DEB7E090E803F090E903E1141F
:104CF000F10409F427C2182F19821A821B821C8220
:104D000019994EC06091B7027091B8028091B902B2
:104D10009091BA02611571058105910519F100E0C4
:104D200028E833E140E050E00E94F11681111AC0FA
:104D3000CE0101960E94D31781116FC011116DC071
:104D400081E00F900F900F900F90DF91CF911F9106
:104D50000F91FF90EF90DF90CF90BF90AF909F901A
:104D60008F9008950E94E5166093B7027093B80281
:104D70008093B9029093BA02429A64E670E080E0B0
:104D800090E00E943917429805E01999D1CF6AE066
:104D900070E080E090E00E9439170150B1F7C8CF71
:104DA0008091960390919703A0919803B0919903F5
:104DB000892B8A2B8B2B69F0809196039091970316
:104DC000A0919803B09199030197A105B10509F04D
:104DD000AFCF85E60E94EA18282F30E0322F222735
:104DE0004901330FAA08BB0884E60E94EA18A5010E
:104DF0009401280F311D411D511D2F3F8FEF3807A2
:104E00004105510531F0211531054105510509F0E4
:104E10004FC1CE0101960E94D31781E0F701848B28
:104E2000858B112309F490C18FEF9FEF938B828BB9
:104E3000918B808B44E1A42EB12CB586A4868EE1A3
:104E400090E0978786876DE672E0C7010E94EC1AB2
:104E5000F701B586A48686E290E09787868769E7A2
:104E600072E0C7010E94EC1AF701B586A4868EE2B3
:104E700090E09787868765E872E0C7010E94EC1A88
:104E8000F701138A128A118A108A34E6A32EB12CF4
:104E9000B586A4868EE190E0978786878091BB02D5
:104EA0009091BC02B5010E942D35C7010E94CB1A1A
:104EB0008091BB029091BC02B5010E942D3561E941
:104EC00072E00A9710F06BE572E0C7010E94EC1ADD
:104ED0008091BB029091BC0264E670E00E942D3587
:104EE000BC01C7010E94CB1A64E972E0C7010E94AD
:104EF000EC1A0E942318873408F01EC18F3108F481
:104F00001EC18FEF9FEFF701938B828B918B808B6C
:104F100024E6A22EB12CB586A4868EE190E0978778
:104F2000868789819A81B5010E942D35C7010E942B
:104F3000CB1A89819A81B5010E942D3561E972E011
:104F40000A9710F06BE572E0C7010E94EC1A8981A4
:104F50009A8164E670E00E942D35BC01C7010E9471
:104F6000CB1A64E972E0C7010E94EC1A89819A8128
:104F70009093BC028093BB02112309F4EFC0F701A8
:104F8000138A128A118A108A84E6882E912C9586BB
:104F9000848696E2A92EB12CB786A6868091BD02A2
:104FA0000AE0602F0E942135682F70E0C7010E943F
:104FB000D11A6BE572E0C7010E94EC1A8091BD0224
:104FC000602F0E942135692F70E0C7010E94D11A1D
:104FD00066E972E0C7010E94EC1A8FEF9FEFF701BC
:104FE000938B828B918B808B95868486B786A686E1
:104FF0008B81602F0E942135682F70E0C7010E94CD
:10500000D11A6BE572E0C7010E94EC1A8B81602F08
:105010000E942135692F70E0C7010E94D11A66E90C
:1050200072E0C7010E94EC1A8B818093BD021111BE
:1050300006C09C818091BE02981709F481CEF701C9
:10504000138A128A118A108A84E690E095878487F1
:105050008EE290E0978786878091BE0268E972E0D1
:10506000811102C060EA72E0C7010E94EC1A2C8133
:1050700080EE97E0211102C080EE9FEFF701938B45
:10508000828B918B808B84E690E0958784878EE27B
:1050900090E09787868768E972E0211102C060EA94
:1050A00072E0C7010E94EC1A8C818093BE0248CE48
:1050B000A7EEB8E60E94B43520E432E44FE050E0B9
:1050C0000E9455352C5F3E4F3A83298387E60E9424
:1050D000EA18282F30E0322F22274901330FAA087F
:1050E000BB0886E60E94EA18A5019401280F311D2D
:1050F000411D511D2115E0E83E074105510560F0B5
:105100008FEF9FEFA0E0B0E05C016D01A21AB30A3F
:10511000C40AD50AA60195016BE873EF81E090E01F
:105120000E94113520E836E948E950E00E945535E3
:105130002B8381E08C8371CE80EE97E0E4CE80E01B
:1051400098EFE1CE80E0FDCD29813A818091BB02CC
:105150009091BC022817390709F092CE9B8180916B
:10516000BD0298130CCF65CFCF92DF92EF92FF92E2
:105170000F931F93CF93DF93EC016A017B01C1145E
:10518000D104E104F10431F4C12C42E1D42E4AE708
:10519000E42EF12C8FA987FD07C061E00E94E50590
:1051A00061E08FA90E946B0561E088AD0E94E50572
:1051B00061E088AD0E946B058DA981119AC040E025
:1051C00059E06DE370E0C416D506E606F70640F434
:1051D00076956795579547958F5F8630A1F787E05D
:1051E000982F906A969599A3809581708AA31BA2A7
:1051F0001CA21DA21EA21FB7F89480910C0381115E
:105200001EC0EAE4F1E08491ECE2F1E09491E82F31
:10521000F0E0EE0FFF1FE85EFE4FA591B491EC9118
:10522000E92321F461E08AE00E946B05229A8CB5A3
:1052300080618CBD8CB580648CBD259A239A809149
:105240000C038F5F80930C031FBF8EA987FD21C0C5
:1052500061E00E94E50561E08EA90E946B0564E6AD
:1052600070E080E090E00E94060860E08EA90E9455
:105270006B0564E670E080E090E00E94060861E063
:105280008EA90E946B0568EC70E080E090E00E94BF
:1052900006088EA987FF0DC020E050E040E061E0E5
:1052A000CE010E94540D66E970E080E090E00E941B
:1052B000060804E511E0C8010196F801649166232F
:1052C00009F463C00E5F1F4FFC01F490EF2CE894CB
:1052D000E7F82E2DA801CE010E94540D0E0D111DD0
:1052E000F7FEE9CF66E970E080E090E00E940608F2
:1052F000E2CF00E411E0F12C8130B9F461E08AA53D
:105300000E94E50560E08AA50E946B0561E08CA51E
:105310000E94E50560E08CA50E946B058BA587FDCA
:1053200094CF60E00E94E50590CFF8018491E82FCA
:10533000F0E0EE0FFF1FEA5CFE4F859194912F8DF8
:1053400038A12817390741F461E08F2D0E94E50547
:1053500060E08F2D0E946B05F3940F5F1F4FF4E107
:10536000FF12E3CF61E08EA50E94E50561E08EA506
:105370000E946B058FA587FD68CF61E00E94E5055F
:1053800061E08FA50E946B0560CF80EF90E0998768
:10539000888780E491E09B878A87DF91CF911F9176
:1053A0000F91FF90EF90DF90CF900895FF920F93B1
:1053B0001F93CF93DF93EC01F62E08811981C8016A
:1053C0000E94FB34F81621F06F2DC8010E940335AE
:1053D000CE01DF91CF911F910F91FF900895EF9231
:1053E000FF920F931F93CF93DF9300D0CDB7DEB71B
:1053F0008C017B019A838983FB016081CE01019638
:105400000E94D6290F5F1F4F1A830983F70161811C
:10541000CE0101960E94D629C7010F900F90DF910F
:10542000CF911F910F91FF90EF900895EF92FF920F
:105430000F931F93CF93DF9300D000D000D0CDB750
:10544000DEB78451990B092E000CAA0BBB0B34E07C
:10545000880F991FAA1FBB1F3A95D1F7860F911D80
:10546000A11DB11D55E0880F991FAA1FBB1F5A959A
:10547000D1F7840F911DA11DB11D65E0880F991F03
:10548000AA1FBB1F6A95D1F7820F911DA11DB11DE7
:1054900076E0880F991FAA1FBB1F7A95D1F7800F5E
:1054A000911DA11DB11D89839A83AB83BC83CE015D
:1054B00001967C0106E110E01E830D83F7016191E6
:1054C0007F01CE0105960E94D6290F5F1F4F0A313A
:1054D000110591F726960FB6F894DEBF0FBECDBF2B
:1054E000DF91CF911F910F91FF90EF9008950F934F
:1054F0000FB7F8948230E1F1A0F4813001F1605DE2
:1055000060931A010FBF0091E6032091E7034091D9
:1055100018016091190180911A010E94162A0F91B9
:105520000895833099F1843051F76093E6038091B8
:10553000E6038C3338F38BE38093E603E3CF609389
:105540001901909119019D3020F08CE08093190190
:1055500004C0909119019923C9F30E949117909169
:105560001801891778F60E94911780931801CACF05
:10557000609318010E94911790911801891798F370
:10558000809118018111BECF81E0EFCF6093E703D6
:105590008091E703883108F4B5CF87E18093E70372
:1055A000B1CFEF92FF920F931F93CF93DF9300D071
:1055B000CDB7DEB77C0101E010E01A830983F70163
:1055C00061917F01CE0101960E94D6290F5F1F4F86
:1055D0000630110591F70F900F90DF91CF911F9139
:1055E0000F91FF90EF900895EF92FF921F93CF934A
:1055F000DF93CDB7DEB72D970FB6F894DEBF0FBEA1
:10560000CDBF10919A03123008F04AC0CE01019626
:105610007C0185E0F70111928A95E9F7C7010E94A4
:10562000C81980910E0190910F01A0911001B091C5
:1056300011018F3FFFEF9F07AF07BF0711F5111152
:105640001BC089819A81AB81BC8180930E019093AC
:105650000F01A0931001B09311011092C60281E0D6
:105660002D960FB6F894DEBF0FBECDBFDF91CF9160
:105670001F91FF90EF9008958D8190E0B0E0A0E041
:10568000E4CF11110BC089839A83AB83BC83C7011C
:105690000E94D12A8FEF9FEFDC01D7CF8D83F7CF08
:1056A000123091F480910E0190910F01A0911001A0
:1056B000B09111018F3F9F4FAF4FBF4F59F781E01E
:1056C00090E0A0E0B0E0C1CF8AEF810F823008F017
:1056D00047C080910E0190910F01A0911001B091EF
:1056E00011018F3FEFEF9E07AE07BE0759F480917F
:1056F000140190911501163009F2809116019091D4
:105700001701BCCF1630C9F4209116013091170152
:105710009D878C873B872A87BE01645F7F4F8FE020
:1057200090E00E94EF29BE01665F7F4F81E190E02B
:105730000E94EF290E947D19ADCF20911401309174
:105740001501398728879F838E83BE01685F7F4F4D
:105750008FE090E00E94EF29BE016A5F7F4FE6CFA5
:105760001830D9F480910E0190910F01A091100191
:10577000B09111018F3FFFEF9F07AF07BF0729F4DB
:105780008091C4029091C50279CF9A838983BE012A
:105790006F5F7F4F83E190E0CBCF133059F560917D
:1057A0000E0170910F0180911001909111016F3FD6
:1057B0002FEF72078207920739F481E08093C702C6
:1057C00080E00E946D175ACF2091C702213041F42A
:1057D00080E00E94772A82E08093C70281E0F1CFC7
:1057E00082E0223049F581E00E94772A1093C702B7
:1057F00082E0E7CF143009F030CF60910E01709154
:105800000F0180911001909111016F3FEFEF7E0722
:105810008E079E0721F41093C70283E0D2CF209118
:10582000C70284E0243041F483E00E94772A85E0B7
:105830008093C70284E0C5CF0E94772A1092C702E6
:1058400029CFEF92FF920F931F93CF93DF93809115
:10585000E8039091E903892B09F077C0419864E649
:1058600070E080E090E00E94391783E490E00E94AD
:10587000C535EC011B821A8220EF30E03D832C837A
:1058800080E491E09F838E83398728879B878A876E
:105890001E8A1D861C861F861E8681E08D8B8C8B42
:1058A0002FEF3FEF3B8B2A8B398B288B8F8B188EFA
:1058B0001A8E198E1DAA8FEF8EAB8FAB91E198AF28
:1058C0001AAE19AE1CAE1BAE1DAE1EAEFE01FF968B
:1058D000108211821282138226EB32E038A32F8FBE
:1058E000E1E5F1E0E491F0E0EE0FFF1FEA5CFE4F2E
:1058F000259134913E8F2D8FE3E3F1E0E491EBAB02
:105900003C8F2B8F19AA8AABE095ECAB89E391E031
:1059100099838883D093E903C093E80340E050E083
:10592000BA01CE010E94B428E881F98100A0F1A15A
:10593000E02DF12CE12C00E810E020EA30E050E00E
:1059400040E070E060E0CE010995DF91CF911F91BA
:105950000F91FF90EF9008954F925F926F927F9218
:105960008F929F92AF92BF92CF92DF92EF92FF926F
:105970000F93CF93DF9300D000D0CDB7DEB78091E7
:10598000D8029091D902A091DA02B091DB02892B62
:105990008A2B8B2B29F4809104018B3F09F4A8C03A
:1059A0008091D8029091D902A091DA02B091DB02E5
:1059B0000196A11DB11D8093D8029093D902A093A6
:1059C000DA02B093DB02809104018A3F58F480919F
:1059D000040191E0980F90930401823318F08AEF4C
:1059E0008093040181E0809381036091C8027091EB
:1059F000C9028091CA029091CB0201E020ED37E00C
:105A000040E050E00E94F116882309F471C08091B3
:105A1000920390919303A0919403B0919503809386
:105A2000C8029093C902A093CA02B093CB0280919E
:105A3000C8029091C902A091CA02B091CB02898399
:105A40009A83AB83BC838091CC02882309F450C035
:105A50002091D8023091D9024091DA025091DB02B4
:105A6000E091CC02C0901601D0901701F12CE12CEE
:105A7000A0E5B6E40E94B4352B013C012E2F30E0A6
:105A8000A8EEB3E00E949E354B015C0169817A81EA
:105A90008B819C8128EE33E040E050E00E94553538
:105AA000A5019401260F371F481F591FC301B201DA
:105AB0000E9455352C153D054E055F05C8F00E9426
:105AC000DA16811115C00F900F900F900F90DF9193
:105AD000CF910F91FF90EF90DF90CF90BF90AF905C
