:020000040000FA
:100000000C946E030C94F8220C94D3220C943E248E
:100010000C9494240C94AB240C9496030C949603A7
:100020000C9496030C9496030C9496030C949603EC
:100030000C9496030C9496030C94EB240C94960366
:100040000C947C220C9496030C944A220C94242247
:100050000C9496030C94A1260C9496030C9496038E
:100060000C941F230C9496030300C8001027F4017E
:100070001027C80010270B005802F4012C01F401CE
:100080005802F4012C01F4015802F4012C01F4018E
:100090005802F4012C01F4015802F4012C01F4017E
:1000A0005802F40105002C01F4016400F4012C0154
:1000B000F4016400F4012C01F4010100F401C80012
:1000C00001000100102705000100E8030000E8031B
:1000D0000100E8030000E8030100E8030500010057
:1000E000640000006400010064000000640001007E
:1000F00064000100010064003C5A81DBDB815A3C52
:100100000000FE8383FE0000000307FFFF070300DB
:1001100000000000240027002A000102040810202B
:100120004080010204081020010204081020040489
:10013000040404040404020202020202030303038F
:100140000303EF03038002CF0300C130ED04640317
:100150001281E803850078CB05392C003402F701C1
:1001600020EA020000C00123C10110C5023E28C7D9
:1001700001863601483701003A0155B1020018B630
:1001800003088227F20100260101E00F0F312B0C3A
:100190000E084EF1370710030E0900E10F000E1490
:1001A00003110731C148080F0C31360F1180298027
:1001B0000000000000003E5B4F5B3E3E6B4F6B3E1D
:1001C0001C3E7C3E1C183C7E3C181C577D571C1C5A
:1001D0005E7F5E1C00183C1800FFE7C3E7FF0018B5
:1001E000241800FFE7DBE7FF30483A060E2629799E
:1001F0002926407F050507407F05253F5A3CE73CFF
:100200005A7F3E1C1C08081C1C3E7F14227F2214AF
:100210005F5F005F5F06097F017F006689956A6006
:100220006060606094A2FFA29408047E040810201D
:100230007E201008082A1C08081C2A08081E101016
:1002400010100C1E0C1E0C30383E3830060E3E0EC0
:1002500006000000000000005F000000070007002B
:10026000147F147F14242A7F2A1223130864623611
:10027000495620500008070300001C22410000419D
:10028000221C002A1C7F1C2A08083E0808008070D7
:10029000300008080808080000606000201008040A
:1002A000023E5149453E00427F400072494949465D
:1002B0002141494D331814127F1027454545393CDB
:1002C0004A494931412111090736494949364649C8
:1002D00049291E00001400000040340000000814EA
:1002E0002241141414141400412214080201590963
:1002F000063E415D594E7C1211127C7F49494936B8
:100300003E414141227F4141413E7F494949417F30
:10031000090909013E414151737F0808087F0041E6
:100320007F41002040413F017F081422417F40402F
:1003300040407F021C027F7F0408107F3E41414104
:100340003E7F090909063E4151215E7F0919294670
:10035000264949493203017F01033F4040403F1F86
:100360002040201F3F4038403F63140814630304BB
:100370007804036159494D43007F4141410204081B
:100380001020004141417F040201020440404040EE
:1003900040000307080020545478407F2844443824
:1003A0003844444428384444287F3854545418006E
:1003B000087E090218A4A49C787F080404780044ED
:1003C0007D40002040403D007F1028440000417FD8
:1003D00040007C047804787C080404783844444461
:1003E00038FC1824241818242418FC7C0804040859
:1003F000485454542404043F44243C4040207C1C72
:100400002040201C3C4030403C44281028444C9064
:1004100090907C4464544C440008364100000077BE
:100420000000004136080002010204023C26232697
:100430003C1EA1A161123A4040207A3854545559CB
:100440002155557941225454784221555478402001
:10045000545579400C1E527212395555555939541C
:1004600054545939555454580000457C41000245B4
:100470007D420001457C407D1211127DF028252827
:10048000F07C545545002054547C547C0A097F4923
:1004900032494949323A4444443A324A4848303A67
:1004A0004141217A3A42402078009DA0A07D3D4202
:1004B00042423D3D4040403D3C24FF2424487E498B
:1004C00043662B2FFC2F2BFF0929F620C0887E09BD
:1004D0000320545479410000447D413048484A3259
:1004E000384040227A007A0A0A727D0D19317D2641
:1004F00029292F28262929292630484D4020380827
:1005000008080808080808382F10C8ACBA2F1028A7
:1005100034FA00007B000008142A142222142A1442
:10052000085500550055AA55AA55AAFF55FF55FF75
:10053000000000FF00101010FF00141414FF001042
:1005400010FF00FF1010F010F0141414FC0014142D
:10055000F700FF0000FF00FF1414F404FC1414174C
:10056000101F10101F101F1414141F00101010F073
:10057000000000001F101010101F10101010F010BD
:10058000000000FF101010101010101010FF1000CD
:100590000000FF140000FF00FF00001F1017000004
:1005A000FC04F414141710171414F404F40000FFDE
:1005B00000F714141414141414F700F71414141777
:1005C0001410101F101F141414F4141010F010F055
:1005D00000001F101F0000001F14000000FC14008A
:1005E00000F010F01010FF10FF141414FF1410107E
:1005F000101F00000000F010FFFFFFFFFFF0F0F001
:10060000F0F0FFFFFF0000000000FFFF0F0F0F0FD3
:100610000F3844443844FC4A4A4A347E02020606F3
:10062000027E027E0263554941633844443C0440E3
:100630007E201E2006027E020299A5E7A5991C2AAB
:10064000492A1C4C7201724C304A4D4D303048786A
:100650004830BC625A463D3E494949007E0101018D
:100660007E2A2A2A2A2A44445F444440514A44406C
:1006700040444A51400000FF0103E080FF000008B1
:10068000086B6B083612362436060F090F06000079
:1006900018180000001010003040FF0101001F0179
:1006A000011E00191D1712003C3C3C3C00000000DC
:1006B00000030F3FFFFF3F0F030000183C3C1800F2
:1006C000003C7EE7C3C3E77E3C080C0EFFFF0E0C28
:1006D000087E3C3C187EFFE7C300C72611241FBEDE
:1006E000CFEFD8E0DEBFCDBF12E0A0E0B1E0E4E59F
:1006F000FBE502C005900D92A039B107D9F725E0BE
:10070000A0E9B2E001C01D92AE36B207E1F713E0F6
:10071000CEE6D3E004C02197FE010E94A22DCD3683
:10072000D107C9F70E9406270C94A82D0C9400004D
:100730003FB7F89460910C0170E090E080E024E015
:10074000660F771F881F991F2A95D1F720910B01FB
:10075000620F711D811D911D45E0660F771F881F77
:10076000991F4A95D1F720910A01620F711D811DD1
:10077000911D55E0660F771F881F991F5A95D1F775
:100780002091C204620F711D811D911DE6E0660F6C
:10079000771F881F991FEA95D1F72091C1043FBFA9
:1007A000620F711D811D911D0895982F2091BB042A
:1007B00081E0213208F043C0809197048111FCCF81
:1007C0008091BA0432E030939704909396049FEF9F
:1007D000909395041092940420939304AAE9B4E0B2
:1007E000E3E7F4E090E0291331C010927204909195
:1007F0007204880F892B8093720480917104813078
:1008000049F510927104809172048093BB0080912D
:10081000BC0083FDF8CF85EC8093BC0080919704E9
:100820008230E1F3809195048F3FB1F0809195047F
:100830008032A1F080919504803391F084E0109291
:1008400099041092BB041092980408953D9131933D
:100850009F5FC9CF85EEE0CF80E0F1CF82E0EFCFA0
:1008600083E0EDCF482FE62F282F30E0863009F4C3
:1008700059C000F58330E1F1853009F44FC04830AC
:10088000E0F14E3010F1443108F063C02E503109D0
:1008900081E090E0A0E0B0E004C0880F991FAA1F9B
:1008A000BB1F2A95D2F728B1EE2309F44FC0822B43
:1008B00088B908958A30C9F18B30D9F18930F9F6B9
:1008C000809180008F77809380002850310981E0EB
:1008D00090E0A0E0B0E004C0880F991FAA1FBB1FE2
:1008E0002A95D2F7E1112EC025B1809582232CC024
:1008F0009091B0009F7D9093B00081E090E0A0E0E7
:10090000B0E004C0880F991FAA1FBB1F4A95D2F7F9
:100910002BB1EE23A1F0822B8BB9089594B59F7D66
:1009200094BDEBCF94B59F77FBCF809180008F7DF6
:10093000CACF8091B0008F778093B000C6CF8095EA
:100940008223EACF25B1822B85B908958095822331
:10095000AFCF089508950895AF92BF92CF92DF92DE
:10096000EF92FF920F931F93CF93DF936C017B0164
:100970008B01040F151FEB015E01AE18BF08C017F5
:10098000D10759F06991D601ED91FC910190F08168
:10099000E02DC6010995892B79F7C501DF91CF912B
:1009A0001F910F91FF90EF90DF90CF90BF90AF908D
:1009B0000895FC01538D448D252F30E0842F90E065
:1009C000821B930B541710F0CF960895019708954A
:1009D000FC01918D828D981761F0A28DAE0FBF2F13
:1009E000B11D5D968C91928D9F5F9F73928F90E069
:1009F00008958FEF9FEF0895FC01918D828D9817D8
:100A000031F0828DE80FF11D858D90E008958FEF14
:100A10009FEF0895FC01918D228D892F90E0805CDD
:100A20009F4F821B91098F739927089583EC94E05F
:100A30000E940A0521E0892B09F420E0822F089505
:100A400080E090E0892B29F00E94160581110C941A
:100A500000000895FC01A48DA80FB92FB11DA35A61
:100A6000BF4F2C91848D90E001968F739927848FCE
:100A7000A689B7892C93A089B1898C9183708064F1
:100A80008C93938D848D981306C00288F389E02D92
:100A900080818F7D80830895EF92FF920F931F9343
:100AA000CF93DF93EC0181E0888F9B8D8C8D981321
:100AB0001AC0E889F989808185FF15C09FB7F8942D
:100AC000EE89FF896083E889F98980818370806479
:100AD00080839FBF81E090E0DF91CF911F910F91C4
:100AE000FF90EF900895F62E0B8D10E00F5F1F4FD3
:100AF0000F731127E02E8C8D8E110CC00FB607FCE2
:100B0000FACFE889F989808185FFF5CFCE010E946F
:100B10002A05F1CFEB8DEC0FFD2FF11DE35AFF4FAE
:100B2000F0829FB7F8940B8FEA89FB8980818062FD
:100B3000CFCFCF93DF93EC01888D8823B9F0AA89BA
:100B4000BB89E889F9898C9185FD03C0808186FD88
:100B50000DC00FB607FCF7CF8C9185FFF2CF8081D7
:100B600085FFEDCFCE010E942A05E9CFDF91CF911D
:100B7000089585ED8093BC008091BC0084FDFCCF7E
:100B800010929704089520916803260F3327331F8E
:100B900021323105ECF420919704FC0190E080E0D3
:100BA000243069F082E00895A09168032191AC019E
:100BB000485B5C4FA40FB52FB11D2C93019686178F
:100BC00098F380916803680F6093680380E008954C
:100BD00081E008950895E0919B0380919A03E817BE
:100BE00030F4F0E0E85DFC4F808190E008958FEFF5
:100BF0009FEF089590919B0380919A032FEF3FEF11
:100C0000981748F4E92FF0E0E85DFC4F208130E0D0
:100C10009F5F90939B03C901089580919A039091DF
:100C20009B03891B990B0895CF92DF92EF92FF925D
:100C30000F931F93CF93DF937C01CB018A01209107
:100C40009804222389F0EB016B01C40ED51ECC154C
:100C5000DD0569F06991D701ED91FC910190F0817A
:100C6000E02DC7010995F3CF642F0E94C305C80189
:100C7000DF91CF911F910F91FF90EF90DF90CF9078
:100C80000895CF93DF931F92CDB7DEB7698320918C
:100C900098042223F9F02091BB04203258F021E07F
:100CA00030E0FC013383228390E080E00F90DF91FD
:100CB000CF91089580919904E82FF0E0E656FB4F1C
:100CC000998190838F5F809399048093BB0481E026
:100CD00090E0ECCF61E0CE0101960E94C305F7CF12
:100CE00090E080E00895E0EBF0E080818F7D8083EC
:100CF0001092B10060E083E00C943204CF93DF9354
:100D0000C82FD62F81E080930401109203010E9426
:100D100073062C2F30E050E040E060EA7FE080E096
:100D200090E00E94A02CA3EBB0E02C93E4EBF0E069
:100D300080818C918D9FC001112464E670E00E9437
:100D40006A2C6083808185E0809304018AEF809320
:100D50000301DF91CF910895CF93DF93DC011696C5
:100D60008C911697882399F08D919C9111971396E9
:100D70009C938E93129781E090E015969C938E93AE
:100D8000149714968D919C911597892BD1F71396F2
:100D90001C921E921297862F90E081509048880FE7
:100DA000991F840F951FEC01E881F9818591949139
:100DB00011969C938E9315961C921E9214971696DC
:100DC0006C9381E0DF91CF910895CF93C82F81116B
:100DD00009C060E085E00E94320484B58F7D84BD47
:100DE000CF910895843640F084B58F7D84BD61E055
:100DF00085E0CF910C94320460E085E00E943204DB
:100E000084B58F7D84BD87B58C9FC001112464E6B5
:100E100070E00E946A2C68BD88B5882309F398B5F4
:100E200087B5981720F784B58062D9CF8091680480
:100E3000882379F08091660490916704892B49F0AA
:100E40008091660490916704019790936704809362
:100E5000660480916104882379F080915F04909109
:100E60006004892B49F080915F04909160040197A0
:100E70009093600480935F04089580915D04909145
:100E80005E04019690935E0480935D0420915D045E
:100E900030915E0480915B0490915C04821793070B
:100EA00038F460E086E00E943204109261040895F4
:100EB000A091610480915D0490915E04A150BB0BF0
:100EC000AA0FBB1FAF5DBE4F880F991F880F991FD8
:100ED000ED91FC91E80FF91F859194919093600436
:100EE00080935F04A0916104E0915D04F0915E0441
:100EF000A150BB0BAA0FBB1FAF5DBE4FEE0FFF1F74
:100F0000EE0FFF1FCF010297ED91FC91E80FF91F43
:100F10008591949161E0892B09F460E086E00C945E
:100F2000320490916104981750F4682F41E251E027
:100F30008BE594E00E94AC0681110C943D07089566
:100F4000E0E8F0E080818F7D808360E08AE00E94AD
:100F50003204109281000895CF93DF93809164044E
:100F600090916504019690936504809364042091A8
:100F70006404309165048091620490916304821747
:100F8000930738F40E94A00710926804DF91CF9174
:100F90000895A09168048091640490916504A15023
:100FA000BB0BAA0FBB1FA75EBE4F880F991F880FF0
:100FB000991FED91FC91E80FF91F85919491909301
:100FC000670480936604A0916804E0916404F09142
:100FD0006504A150BB0BAA0FBB1FA75EBE4FEE0F4F
:100FE000FF1FEE0FFF1FCF010297ED91FC91E80F5D
:100FF000F91FC591D4910E94A007209709F4C6CF8C
:101000009E0150E040E069E07DE380E090E00E94D6
:10101000A02C309389002093880020918800309183
:101020008900AEE1B0E00E94BF2C24E630E040E051
:1010300050E00E947E2C30938B0020938A00809198
:10104000800080628093800084E1809381009ECF45
:1010500090916804981750F4682F49E151E082E6B6
:1010600094E00E94AC0681110C94AC070895229A7A
:1010700060E08AE00E943204569A60E086E00E94B6
:101080003204559A60E085E00E94320483E0809348
:1010900080001092810010928900109288001092B6
:1010A0008B0010928A0008954F925F926F927F9208
:1010B0008F929F92AF92BF92CF92DF92EF92FF9268
:1010C0000F931F93A0904304AA2001F140903F0486
:1010D0005090400460904104709042048FEF481695
:1010E00058066806780609F51092440410924504E3
:1010F000109246041092470410924804109249043A
:1011000010924A0410924B04109243041F910F91C5
:10111000FF90EF90DF90CF90BF90AF909F908F9017
:101120007F906F905F904F900895B12CC12CD12C7F
:10113000E12CF12C00E010E02091440430914504B2
:1011400040914604509147046091480470914904CD
:1011500080914A0490914B040E94332D49015A0119
:101160002E3F3F4F4F4F5F4F610571058105910540
:1011700069F060F08FEF9FEFDC0180933F04909364
:101180004004A0934104B0934204AECF840C951C5C
:10119000A61CB71C481459046A047B0458F78092B3
:1011A0003F0490924004A0924104B09242049CCF2C
:1011B0008091DE028D7F21F483E08093DE0208952A
:1011C00082E0FBCF8091A50291E089278093A50260
:1011D0009091A402911107C0882329F082E38093A3
:1011E000A4020E94E5060895CF93C091A502CC23E6
:1011F00049F0823051F08130D1F08430D1F0833029
:1012000031F1C0E08C2FCF9108958CEE9091A40223
:10121000482F552741950CF4509594171506CCF49A
:101220001092A4028091A4020E94E506EBCF86EF03
:10123000EDCF84E19091A402492F480F5527551F07
:101240004536510534F084E68093A402EBCF8AE062
:10125000F1CF890FF9CF6150710948F09EBD0DB4EF
:1012600007FEFDCF8EBD0DB407FEFDCFF4CF089570
:1012700008958EBD00000DB407FEFDCF8EB5089514
:10128000CF93DF93D82FC091990260E08C2F0E94FA
:1012900032048D2F0E94390961E08C2FDF91CF91AC
:1012A0000C9432040F931F93CF93DF93082F162FC4
:1012B000C22F4150D42FD80F8AE20E94400980E00B
:1012C0000E943909802F0E94390980E00E94390963
:1012D0008D2F0E943909C150C10F8BE20E94400935
:1012E00080E00E943909812F0E94390980E00E9424
:1012F00039098C2F0E9439098CE2DF91CF911F911F
:101300000F910C944009CF93DF93803A78F467FDF6
:101310000DC0EA0121E041E00E9452098D2F0E9498
:1013200039098C2FDF91CF910C943909DF91CF913E
:1013300008958CBD9DBD0895EF92FF920F931F936A
:10134000CF93DF93F82EE62EC42FD22F282F240F11
:101350003327331F213A310514F0C0EACF192E2D5F
:101360002D0F3327331F2138310514F0D0E8DE1953
:1013700080916C0590916D050E9499092D2F4C2F3D
:101380006E2D8F2D0E945209CD9FB0011124611541
:10139000710549F0C801DF91CF911F910F91FF9026
:1013A000EF900C942B09DF91CF911F910F91FF903B
:1013B000EF9008950F931F939FEF940F903A28F4A6
:1013C0009FEF920F97FF0E949C091F910F91089524
:1013D0000F931F936623A9F08A01262F43E150E063
:1013E000481B5109842F880F880F840F8D5F62E797
:1013F000621B45E012161CF0219545E063E30E9454
:10140000DA091F910F9108959F92AF92BF92CF92E8
:10141000DF92EF92FF920F931F93CF93DF93C82F2A
:10142000D62F142F022F841316C021E0200F261B65
:101430000FEF1FEF41E06D2F8C2F0E94DA09DF9133
:10144000CF911F910F91FF90EF90DF90CF90BF90C1
:10145000AF909F900895621307C041E0410F481B71
:101460000FEF1FEF21E0E7CF80916C0590916D05A4
:101470000E949909202F2D1B330B690137FF03C0F0
:10148000D194C194D108812F8C1B990B5C0197FFDB
:1014900003C0B194A194B108AC14BD0434F4812FFD
:1014A000102F082F8C2FCD2FD82F1C1730F48D2FF5
:1014B000D02F082F8C2FC12F182F912E9C1A202F40
:1014C0002D1B330BC90137FF03C0919581959109FD
:1014D000F82EE92CE694D017B0F00FEF1C1708F4A3
:1014E000AECF4FEF5FEF6C2F8D2FAC14BD0414F017
:1014F0006D2F8C2F0E948309EF18E7FE02C0D00FDA
:10150000E90CCF5FEBCF01E0E9CFCF92DF92EF9212
:10151000FF920F931F93CF93DF93D82FF62EC42FF4
:10152000E22E21E00E94DA096FEF6E0D6F0D21E0CF
:101530004C2F8D2F0E94DA092E2D41E06F2D8D2F1B
:101540000E94DA098FEF8C0F2E2D41E06F2D8D0F49
:101550000E94DA09DF91CF911F910F91FF90EF90D8
:10156000DF90CF9008955F926F927F928F929F92BB
:10157000AF92BF92CF92DF92EF92FF920F931F93A1
:10158000CF93DF937C01D5E0F70101917F01002328
:1015900009F454C080916C0590916D050E949909E1
:1015A0000D0280011124D12CC12C0F541E4F5C2C34
:1015B000F801EC0DFD1DE491612CAE2EB12CC09113
:1015C000BC047090C004E0FF0EC08090BD049090F9
:1015D000BE046091BF04C130E1F4660DA401852D05
:1015E000870D0E9483096394F501F595E795F8E06E
:1015F0006F12E3CF8FEFC81AD80AE5E0CE16D104F8
:10160000B1F68C2F880FC80FCC0FC70DC093C00444
:10161000BBCFC69D600D11242C2F4C2F872DC59D4F
:10162000800D11240E945209CC9FB0011124611534
:101630007105C9F2C4010E942B09D5CFDF91CF916A
:101640001F910F91FF90EF90DF90CF90BF90AF90E0
:101650009F908F907F906F905F9008950E94B30A43
:101660001092C0048091BF04885F8093BF040895E6
:101670006F927F928F929F92AF92BF92CF92DF92A2
:10168000EF92FF920F931F93CF93DF93882E162F25
:101690005A01922E80916C0590916D050E949909D6
:1016A000C92DD0E0279683E0D595C7958A95E1F7B7
:1016B000612E600ED12CC12C712C161501F100E0A9
:1016C0000915C9F0802F8770770C81110AC0E02FAF
:1016D000E695E695E695EC0DFD2DF11DEA0DFB1D59
:1016E000749077FE06C0A701612F802F880D0E949D
:1016F00083090F5FE5CF1F5FCC0EDD1EDECFDF91CC
:10170000CF911F910F91FF90EF90DF90CF90BF90FE
:10171000AF909F908F907F906F90089586B190E0EA
:101720009595879580959095817008952FB7F89439
:101730006091690470916A0480916B0490916C04CB
:101740002FBF08958F929F92AF92BF92CF92DF9258
:10175000EF92FF920F934B015C0169017A01002324
:10176000C1F06091690470916A0480916B0490915A
:101770006C04C80CD91CEA1CFB1CC814D904EA046C
:10178000FB0450F4681579058A059B05B0F0E0E08C
:1017900009C00E94960BEDCFE1E06C157D058E052A
:1017A0009F05A8F38E2F0F91FF90EF90DF90CF90C1
:1017B000BF90AF909F908F900895A7019601285DEC
:1017C0003E4F4F4F5F4FE1E0621773078407950765
:1017D00048F7DDCF8F929F92AF92BF92CF92DF9268
:1017E000EF92FF926B017C010E94960B4B015C0112
:1017F000C80CD91CEA1CFB1CC814D904EA04FB045D
:1018000068F40E94960B681579058A059B05C8F750
:1018100089E2C80E81E0D81EE11CF11C0E94960BE3
:101820006C157D058E059F05C8F3FF90EF90DF9046
:10183000CF90BF90AF909F908F900895FF920F939D
:101840001F93CF93DF930E948E0B81119CC0419810
:1018500064E670E080E090E00E94EA0B81E1809312
:1018600099023B9A61E0809199020E943204CFB7BD
:10187000F8948091980281111EC0E8E3F1E0849110
:10188000E4E2F1E09491E82FF0E0EE0FFF1FE05F5B
:10189000FE4FA591B491EC91E92321F461E08AE037
:1018A0000E943204229A8CB580618CBD8CB5806414
:1018B0008CBD259A239A809198028F5F809398021D
:1018C000CFBF80E580936C05C1E0C0936D0580912A
:1018D0006C0590916D050E94990960E080919902D4
:1018E0000E943204CEBD0DB407FEFDCF61E08091B1
:1018F00099020E94320466E970E080E090E00E9464
:10190000EA0BC2E4D1E0CE010196FE01F490FF2083
:1019100091F12296FC011491012F0F7780916C05B3
:1019200090916D050E94990960E0809199020E9452
:101930003204FEBC0DB407FEFDCF61E08091990238
:101940000E94320490E080E0801750F4FE01E80F1E
:10195000F91FE491EEBD0DB407FEFDCF0196F4CF63
:10196000C00FD11D17FFCFCF66E970E080E090E097
:101970000E94EA0BC8CF10E000E020E840EA60E0F7
:1019800080E00E949C09DF91CF911F910F91FF9001
:1019900008956FB7F89450910C0140910B0130916C
:1019A0000A012091C2049091C1046FBF823089F076
:1019B00038F4813059F0852F90E08053984F089586
:1019C000833049F08430B9F7892F01C0842F90E02B
:1019D0000895832FFCCF822FFACFCF93DF93CDB71B
:1019E000DEB72C970FB6F894DEBF0FBECDBF8CE0EC
:1019F000EDE0F1E0DE01119601900D928A95E1F79C
:101A000080910B01823011F520910C0130E02053C0
:101A1000384FC90183709927892B39F4C90164E6CD
:101A200070E00E94562C892BC1F4C90160E971E075
:101A30000E94562C892B89F08CE12C960FB6F894D5
:101A4000DEBF0FBECDBFDF91CF910895E0910B01B6
:101A5000EC0FFD2FF11D8081F0CF8DE1EECF8F9245
:101A60009F92AF92BF92DF92EF92FF920F931F93DC
:101A7000CF93DF937C018EE880937A0010E4D0E06E
:101A8000C0E0DD24DA940E94960B4B015C01D092F9
:101A9000920280917A00806480937A008091920211
:101AA0008F3F69F400E02AE030E040E050E0C501FB
:101AB000B4010E94A20B882389F380E014C08091B6
:101AC0009202C80FD11D1150F1F610927A0085E0F4
:101AD000D695C7958A95E1F7F701D183C083138224
:101AE00081E0CD2B51F3DF91CF911F910F91FF90AA
:101AF000EF90DF90BF90AF909F908F900895CF931D
:101B0000DF9300D000D0CDB7DEB719821A821B82D6
:101B10001C82CE0101960E942F0D882301F129819C
:101B20003A81243A81E03807C0F4273381E038074E
:101B3000B0F044E6429FC001439F900D11248851AC
:101B400099476EE670E00E94562C862F0F900F90FA
:101B50000F900F90DF91CF91089584E6F7CF80E04A
:101B6000F5CFCF92DF92EF92FF926B017C01209133
:101B7000020130E0A8EEB3E00E94BF2CC616D706E3
:101B8000E806F90688F44091000150E070E060E05A
:101B900081E0C416D506E606F70608F480E0FF905B
:101BA000EF90DF90CF90089582E0F9CF4F925F924F
:101BB0006F927F928F929F92AF92BF92CF92DF925D
:101BC000EF92FF92CF93CFB7F894C0906904D09072
:101BD0006A04E0906B04F0906C048091240390916F
:101BE0002503A0912603B0912703892B8A2B8B2BE9
:101BF000C9F0209124033091250340912603509190
:101C00002703CFBFCA01B901CF91FF90EF90DF90BA
:101C1000CF90BF90AF909F908F907F906F905F908C
:101C20004F90089590E080E020E030E0A901F0E0DE
:101C3000E0E0DC01AA0FBB1FAA0FBB1FAC50BD4FD9
:101C40008D909D90AD90BC90280D391D4A1D5B1D57
:101C5000DC01A851BD4F6C91E60FF11D2832310512
:101C60004105510580F4833031F4220F331F441FA6
:101C7000551FEE0FFF1F01968C309105D1F620E025
:101C800030E0A901BECFA0E5B6E40E94CE2C2B0126
:101C90003C019F01A8EEB3E00E94BF2C4B015C0108
:101CA000C701B60128EE33E040E050E00E947E2CF0
:101CB000A5019401260F371F481F591FC301B20108
:101CC0000E947E2C20932403309325034093260307
:101CD0005093270396CF4F925F926F927F928F928D
:101CE0009F92AF92BF92CF92DF92EF92FF920F93AB
:101CF000CF93DF9300D000D0CDB7DEB78091F40250
:101D00009091F502A091F602B091F702892B8A2BEF
:101D10008B2B29F4809103018B3F09F4ADC0809196
:101D2000F4029091F502A091F602B091F7020196AB
:101D3000A11DB11D8093F4029093F502A093F602C9
:101D4000B093F702809103018A3F58F48091030118
:101D500091E0980F90930301823318F08AEF8093FB
:101D6000030181E080939C036091E4027091E5029D
:101D70008091E6029091E70201E020ED37E040E03B
:101D800050E00E94A20B882309F476C08091690478
:101D900090916A04A0916B04B0916C048093E4026A
:101DA0009093E502A093E602B093E7028091E402EB
:101DB0009091E502A091E602B091E70289839A83AF
:101DC000AB83BC838091E802882309F455C020913D
:101DD000F4023091F5024091F6025091F702E09141
:101DE000E8026091020188EE93E0689F6001699FBC
:101DF000D00C1124F12CE12CA0E5B6E40E94CE2CED
:101E00002B013C012E2F30E0A8EEB3E00E94BF2C46
:101E10004B015C0169817A818B819C8128EE33E0E2
:101E200040E050E00E947E2CA5019401260F371F50
:101E3000481F591FC301B2010E947E2C2C153D057D
:101E40004E055F05C8F00E948E0B811115C00F90E2
:101E50000F900F900F90DF91CF910F91FF90EF9027
:101E6000DF90CF90BF90AF909F908F907F906F90BA
:101E70005F904F900C941E0C0F900F900F900F904E
:101E8000DF91CF910F91FF90EF90DF90CF90BF90B7
:101E9000AF909F908F907F906F905F904F9008953C
:101EA000CF92DF92EF92FF920F93CF9391E09093B6
:101EB000980495E79093BA04109299041092BB0489
:101EC000682F80E695E00E94410680E00E94D503DD
:101ED000809197048111FCCF81E080939704109248
:101EE00096049FEF9093950410929404109293049B
:101EF00080937204809172048A6E80937204809140
:101F000071048130F1F51092710480917204809314
:101F1000BB008091BC0083FDF8CF85EC8093BC00B2
:101F2000809197048130E1F38091940481112BC05A
:101F300080919404A3E7B4E0E8E2F3E0C0E0C813C2
:101F400024C010929B03C0939A030E94960B6B01CE
:101F50007C01C1111EC000E022E330E040E050E00F
:101F6000C701B6010E94A20B8823A9F381E00E9459
:101F7000D5038C2FCF910F91FF90EF90DF90CF90F2
:101F8000089585EECBCF81E0D5CF9D919193CF5F22
:101F9000D6CF80E695E00E94FA05C82FE7CFCF9212
:101FA000DF92EF92FF920F931F93CF93DF93EB019A
:101FB0007B0124E0E20EF11C8B016C01C61AD70AEA
:101FC000C601800F911F0E94242CF80181938F017C
:101FD000EE15FF05A9F7CE01DF91CF911F910F916B
:101FE000FF90EF90DF90CF900895CF93DF93EB01B8
:101FF0000E94242C8883CE01DF91CF910895CF9346
:10200000DF931F92CDB7DEB7BE016F5F7F4F82E0D7
:1020100090E00E94F50F898181508E3110F08DE0A3
:10202000898389810F90DF91CF910895CF93DF93BA
:102030001F92CDB7DEB7BE016F5F7F4F81E090E0AA
:102040000E94F50F89818253853610F084E68983DA
:1020500089810F90DF91CF910895CF939091E30202
:102060002FEF280F223008F086C0911118C0209160
:1020700001012F3FC1F1823081F483E0281B8CE302
:102080002C3308F484C0209301010E94FF0F682FB5
:10209000809101010E947E0623C081E0EFCF913044
:1020A000A1F4209101012F3FF1F0823009F493E077
:1020B00081E0291708F482C0291B20930101C091F7
:1020C00001010E9416106C2FE5CF923061F420912F
:1020D00001012F3F41F08091B10081110E947306F0
:1020E0001092E10241C02AEF290F233078F42091A9
:1020F00001012F3F89F1823039F48AE0281750F529
:1021000081E080930101ECCF81E0F8CF933091F42E
:10211000209101012F3F19F19091E202933041F497
:10212000823031F4921760F7291B20930101D8CF38
:1021300091E0F8CF943081F4209101012F3F79F0A4
:10214000823031F485E0821728F010920101C8CF67
:1021500081E0F9CF281BE9CF992309F499C0915068
:10216000953029F09093E30281E0CF91089584E0C7
:102170008093E302F9CF911111C0209101012F3F0B
:1021800039F1843039F483E0820F833828F4809366
:1021900001017BCF81E0F8CF82E8F9CF913089F45B
:1021A000209101012F3FA1F0843009F493E0920FB8
:1021B0008EE19F3118F49093010181CF809301014A
:1021C0007ECF923029F4209101012F3F09F083CF77
:1021D0002AEF290F233080F4209101012F3F09F4C9
:1021E0004FC0843039F48AE0820F813F08F489CFF0
:1021F00080EF87CF81E0F8CF933019F5C0910101CE
:10220000CF3F09F43FC09091E202933069F48430EB
:1022100059F483E0C80FC0930101923039F4CD30F6
:1022200008F45ECF8CE06DCF81E0F4CF933009F0FD
:1022300057CF0E94ED0C8C1708F052CF0E94ED0C86
:1022400060CF9430E9F4209101012F3FD9F0843020
:1022500069F485E0820F809301019091E20294304D
:1022600039F4873108F43CCF87E14BCF81E0F2CFDE
:10227000953009F035CF8B3308F432CF8BE341CF63
:10228000983031F09F5F953009F06CCF86E070CFC9
:1022900080E06BCFCF93DF931F92CDB7DEB760E0C6
:1022A00071E08FE090E00E94F50F62E071E080E164
:1022B00090E00E94F50F8091000181508E3F18F050
:1022C00084E6809300018091020181508E3F18F0D6
:1022D00081E0809302011982BE016F5F7F4F81E12F
:1022E00090E00E94F50F898181508E3F10F084EBC1
:1022F000898389818093E0020F90DF91CF910895C7
:10230000FF920F931F93CF93DF93EC01F62E08817A
:102310001981C8010E94242CF81621F06F2DC801E4
:102320000E942C2CCE01DF91CF911F910F91FF9035
:102330000895AF92BF92CF92DF92EF92FF920F93E8
:102340001F93CF93DF9300D0CDB7DEB78B016B0126
:1023500024E0C20ED11C7B015C01A61AB70AC5019C
:102360008E0D9F1D9A838983F70161917F01CE01B4
:1023700001960E948011EC14FD0489F7C8010F90AA
:102380000F90DF91CF911F910F91FF90EF90DF9011
:10239000CF90BF90AF9008950F931F93CF93DF938B
:1023A000CDB7DEB728970FB6F894DEBF0FBECDBF0E
:1023B0006D837E838F8398878FEF9FEFDC01898306
:1023C0009A83AB83BC830EE913E0BE016F5F7F4F3E
:1023D000C8010E949911BE016F5F7F4FC80104962A
:1023E0000E949911085F1F4F063F83E0180769F7A5
:1023F000BE016B5F7F4F86E993E00E9499111982BD
:102400001A821B821C82BE016F5F7F4F8AE993E0B4
:102410000E94991128960FB6F894DEBF0FBECDBF6B
:10242000DF91CF911F910F9108954F925F926F921C
:102430007F928F929F92AF92BF92CF92DF92EF9254
:10244000FF920F931F93CF93DF93CDB7DEB72C97F7
:102450000FB6F894DEBF0FBECDBF69017A016627C3
:10246000772769877A878B879C871D821E821F82C8
:10247000188646E9A42E43E0B42E10E0BE016B5F3F
:102480007F4FC5010E94CF0F4D815E816F8178859E
:1024900089859A85AB85BC85481759076A077B07EC
:1024A00019F4812F90E050C01F5F28E0A20EB11CEC
:1024B0001C3021F7BE016B5F7F4F86E993E00E94DD
:1024C000CF0F0D811E812F8138850F3F8FEF1807A9
:1024D0002807380761F069857A858B859C856017A8
:1024E00071078207930718F40E94CC112BC0198240
:1024F0001A821B821C82BE016F5F7F4F86E993E0C8
:102500000E94CF0F89819A81AB81BC8138E0A32ED4
:10251000B12C11E08F3F9F4FAF4FBF4F09F079C0F3
:10252000BE01675F7F4F86E993E00E9499111D828B
:102530001E821F821886BE016B5F7F4F8AE993E07F
:102540000E94991190E080E019821A821B821C82FD
:1025500023E0880F991F2A95E1F78C0106561C4F3E
:10256000BE016F5F7F4FC8010E94CF0F89819A81A2
:10257000AB81BC818F3F2FEF9207A207B207A1F07A
:10258000C80ED91EEA1EFB1E8C159D05AE05BF05A3
:1025900008F067C0C982DA82EB82FC82BE016F5FFD
:1025A0007F4FC8010E9499112C960FB6F894DEBF98
:1025B0000FBECDBFDF91CF911F910F91FF90EF9094
:1025C000DF90CF90BF90AF909F908F907F906F9053
:1025D0005F904F90089569857A858B859C856415F9
:1025E00075058605970508F47FCF49815A816B816F
:1025F0007C81441555056605770500F549825A82A8
:102600006B827C821F5F88E0A80EB11C1C3009F42D
:1026100087CF45018AE6881A8CEF980ABE016B5F66
:102620007F4FC4010E94CF0F4D805E806F80788401
:102630002FEF421652066206720669F6BE01675F08
:102640007F4FC4010E9499111D821E821F8218862D
:10265000BE016B5F7F4FC50186569C4F0E9499114A
:1026600020CF8FEF9FEFDC0189839A83AB83BC83FC
:1026700095CF1F93CF93DF9300D000D0CDB7DEB7B7
:102680001FB7F894823009F483C008F057C0813036
:1026900009F464C0605D60930C011FBF2091C10408
:1026A0003091C20440910A0150910B0180910C01BC
:1026B00090E0805D9740092E000CAA0BBB0B64E0F4
:1026C000880F991FAA1FBB1F6A95D1F7850F911D0F
:1026D000A11DB11D75E0880F991FAA1FBB1F7A9518
:1026E000D1F7840F911DA11DB11DE5E0880F991F41
:1026F000AA1FBB1FEA95D1F7830F911DA11DB11D24
:10270000F6E0880F991FAA1FBB1FFA95D1F7820F19
:10271000911DA11DB11D89839A83AB83BC83BE012A
:102720006F5F7F4F86E190E00E9499110F900F90AC
:102730000F900F90DF91CF911F9108958330B1F1E9
:10274000843009F0A7CF6093C1048091C1048C3319
:1027500008F4A3CF8BE38093C1049FCF60930B0158
:1027600090910B019D3020F08CE080930B0104C010
:1027700090910B019923C9F30E94ED0C90910A01ED
:10278000891708F08ACF0E94ED0C80930A0185CF4B
:1027900060930A010E94ED0C90910A01891798F349
:1027A00080910A01811179CF81E0EFCF6093C2045B
:1027B0008091C204883108F470CF87E18093C2040D
:1027C0006CCF0F931F93CF93DF9300D0CDB7DEB7BD
:1027D0008B019A838983FB016081CE0101960E945F
:1027E0008011C8010F900F90DF91CF911F910F9131
:1027F00008951F93CF93DF9300D000D000D01F9295
:10280000CDB7DEB71091E30211111FC08091010115
:102810008F3F89F40E941610809301011092E1020B
:1028200081E027960FB6F894DEBF0FBECDBFDF91D3
:10283000CF911F9108958F83BE01695F7F4F81E023
:1028400090E00E94E1138FEFE7CF113071F4809197
:1028500001018F3F19F40E94FF0FDECF8E83BE016E
:102860006A5F7F4F82E090E0ECCF123031F48091CC
:1028700001018F3F41F781E0CFCF8AEF810F823096
:1028800088F5809101018F3F39F480910001163065
:1028900019F280910201C0CF1630A9F49091020183
:1028A0008D839C83BE016B5F7F4F8FE090E00E9421
:1028B000E113BE016C5F7F4F80E190E00E94E11365
:1028C0000E944A11C0CF909100019B838A83BE0170
:1028D0006D5F7F4F8FE090E00E94E113BE016E5F5D
:1028E0007F4FEACF183071F4809101018F3F19F4C6
:1028F0008091E00291CF8983BE016F5F7F4F81E1BC
:1029000090E0DCCF133061F5609101016F3F41F43D
:1029100081E08093E20280E00E94C90C805D7CCF60
:102920008091E20270E0813061F46053784F80E082
:102930000E94391382E08093E20281E00E94C90C78
:102940006BCF823039F481E00E9439131093E20298
:1029500082E0F4CF82E00E9439131092E20273CF3A
:10296000143009F05BCF609101016F3F21F41093A7
:10297000E20283E0E3CF70E08091E202843041F430
:1029800083E00E94391385E08093E20284E0D6CF91
:1029900084E0E1CF0F931F93CF93DF93CDB7DEB7E2
:1029A0002A970FB6F894DEBF0FBECDBFCB018E01C4
:1029B0000F5F1F4F2AE0F80111922A95E9F74AE0CC
:1029C000B8010E94EF2BC8010E94B30A2A960FB6E5
:1029D000F894DEBF0FBECDBFDF91CF911F910F9155
:1029E0000895BC0190E080E00C94CA14CF92DF926D
:1029F000EF92FF92CF93DF93C42FD091C004683E33
:102A000023E072078105910548F523E0411101C0DB
:102A100021E02093BC04CB010E94F1148091BF04FB
:102A2000CC23A9F092E09093BC04885F9091C004FD
:102A3000905F9093C0048093BF0485E791E0DF919D
:102A4000CF91FF90EF90DF90CF900C94B30A91E07C
:102A50009093BC04885FD093C004EDCF603422E42F
:102A600072072FE082079105D8F523E0411101C0DC
:102A700021E02093BC0428EE33E040E050E00E94C7
:102A80007E2C6B017C01C9010E94F1148AE791E060
:102A90000E94B30AC701B60124E630E040E050E0EE
:102AA0000E947E2CC9010E94F1148091BF04CC23A6
:102AB00071F0885F9091C004905F9093C004809300
:102AC000BF0482E08093BC048CE791E0B8CF91E032
:102AD0009093BC04885FD093C0048093BF04F4CF6C
:102AE00023E0411101C021E02093BC0420E432E442
:102AF0004FE050E00E947E2C6B017C01C9010E94D6
:102B0000F1148AE791E00E94B30AC701B60120EAF6
:102B100036E841E050E00E947E2CC9010E94F11489
:102B20008091BF04CC2371F0885F9091C004905FC6
:102B30009093C0048093BF0482E08093BC048DE72F
:102B400091E07DCF91E09093BC04885FD093C00466
:102B50008093BF04F4CFCF92DF92EF92FF92CF9396
:102B60006B017C01C091C00481E08093BC0481E8CA
:102B700091E00E94B30A8091BF04865FC093C004B5
:102B80008093BF048EEFC8168FEFD806E806F806CC
:102B900048F087E891E0CF91FF90EF90DF90CF90E1
:102BA0000C94B30A81E4C81682E4D8068FE0E806E4
:102BB000F10430F1C701B60120E432E44FE050E007
:102BC0000E947E2C6B017C01C9010E94F1148AE7EE
:102BD00091E00E94B30AC701B60120EA36E841E05D
:102BE00050E00E947E2CC9010E94F1148091BF0424
:102BF000865FC093C0048093BF048BE991E0CBCF84
:102C000089EEC81683E0D806E104F10430F1C7016B
:102C1000B60128EE33E040E050E00E947E2C6B01CC
:102C20007C01C9010E94F1148AE791E00E94B30A75
:102C3000C701B60124E630E040E050E00E947E2C5F
:102C4000C9010E94F1148091BF04865FC093C00443
:102C50008093BF048FE991E09ECFC6010E94F114DA
:102C60008091BF04865FC093C0048093BF0484EA50
:102C700091E091CFCF92DF92EF92FF926F3F2FEFD3
:102C800072078207920741F480E991E0FF90EF908C
:102C9000DF90CF900C94B30A613422E472072FE0E6
:102CA0008207910510F120E432E44FE050E00E94E9
:102CB0007E2C6B017C01C9010E94F1148AE791E02E
:102CC0000E94B30AC701B60120EA36E841E050E0AD
:102CD0000E947E2CC9010E94F1148AE991E0FF90C4
:102CE000EF90DF90CF900C942E0B693E23E072079B
:102CF00081059105E8F028EE33E040E050E00E94C5
:102D00007E2C6B017C01C9010E94F1148AE791E0DD
:102D10000E94B30AC701B60124E630E040E050E06B
:102D20000E947E2CC9010E94F1148EE991E0D7CF58
:102D3000CB010E94F11483EA91E0D1CF682F70E0BB
:102D400090E080E00C94CA146F927F928F929F92D1
:102D5000AF92BF92CF92DF92EF92FF920F931F93A9
:102D6000CF93DF93B82E8FB7F894E0900C01F12C3D
:102D700020E3E21A28EFF20AC0900B01D0900A017A
:102D80008090C2049090C1048FBF0E94D60D0E9413
:102D9000B10DD82F0E947F0D90E065E070E00E9499
:102DA0006A2CA62EC62FC701E3E0CE9E800D911D92
:102DB0001124F5E0DF9E800D911D11242BE0929EE1
:102DC000800D911D1124E7E08E9E800D911D112430
:102DD00020910501309106018217930709F44CC038
:102DE00090930601809305011092C0041092BF04D5
:102DF00010E000E027E040E660E080E00E949C09EF
:102E00008FEF9FEF9093BE048093BD0481E0809389
:102E1000BC04F9E0F81520F08CEA91E00E94B30AB6
:102E2000882D0E949E1629E088EA91E0291510F469
:102E30008FEE91E00E94B30A892D0E949E168AE2CD
:102E400092E00E94B30AC7010E94F11489E08C1538
:102E500008F461C08BEA91E00E94B30A8C2D0E94B5
:102E60009E1699E09D1508F459C08BEA91E00E94E6
:102E7000B30A8D2D0E949E16809109018B15C9F110
:102E8000B092090131E4832E31E0932E44E1742E97
:102E900010E0CC24CA94DC2C662463948FEF9FEF5F
:102EA000B11202C080EE97E0F401428153817C01AF
:102EB0000181208169E7872D0E94380B133089F04A
:102EC00080E1870D8093C00489E78093BF04D0928E
:102ED000BE04C092BD046092BC0480EB91E00E94ED
:102EE000B30A1F5FF4E08F0E911C2EE1720E1430B6
:102EF000A9F680910801C81709F43FC0A092080103
:102F0000CE3078F4E12C28EFF22EC63088F0EE2493
:102F1000EA94FE2C0DC08EEA91E09ECF8EEA91E0FD
:102F2000A6CF90EEE92E97E0F92EC33109F44DC0FB
:102F3000CC2349F0870128E04C2F60E08AE80E940A
:102F4000DA09C33198F484E1D82EDC1AC65710E0B0
:102F500000E028E04D2D60E08C2F0E94DA09870107
:102F600028E04D2D60E08C2F0E94850A870124E027
:102F700042E062E08EE90E949C0980910701D81727
:102F8000A9F0D093070180EE97E0DD2331F080E0D7
:102F900098EFD13011F480EE9FEF7C0108E028E03B
:102FA00041ED56E060E083E70E94380BDF91CF915E
:102FB0001F910F91FF90EF90DF90CF90BF90AF9057
:102FC0009F908F907F906F900895C4E1B3CFEF9260
:102FD000FF920F931F93CF93DF93F82EE62EEA0113
:102FE000682F660F660F660F6E5E80E58093C004E3
:102FF0006093BF0410E000E028E040E50E949C09D7
:103000008091E3028F1122C0109101011F3FF1F066
:1030100080EE9FEF9093BE048093BD0482EB91E01D
:103020000E94B30A812F0E949E168AE292E00E94BB
:10303000B30ACE010E94B30A87E392E0DF91CF91F9
:103040001F910F91FF90EF900C94B30A8FEF9FEFB9
:103050009093BE048093BD048E2D0E949E168AE23A
:1030600092E00E94B30ACE01E9CFEF92FF920F9354
:103070001F93CF93DF93C82F0E948E0B882309F4F0
:103080005DC11092C00482E18093BF048FEF9FEF77
:103090009093BE048093BD0481E08093BC04CC2354
:1030A00051F1C13009F052C188E08093E30287EB0F
:1030B00091E00E942E0B83EC91E00E942E0B8FEC8E
:1030C00091E00E942E0B86ED91E00E942E0B8FED79
:1030D00091E00E942E0B88EE91E00E942E0B81EF72
:1030E00091E00E942E0B8CEF91E00E942E0B87E066
:1030F00092E00E942E0B6091DF02D091E3026D13EB
:1031000028C1C11126C18091E102811114C10E9420
:10311000161045E152E0682F80E00E94E7170E94F8
:10312000FF0F49E152E0682F81E00E94E717C0914C
:10313000B10080E58093C00482E28093BF0410E078
:1031400000E028E040E562E280E50E949C09809171
:10315000E302823009F01FC1809101018F3F09F421
:103160001AC180EE9FEF9093BE048093BD0482EB62
:1031700091E00E94B30A88E492E0CC2311F084EB42
:1031800091E00E94B30A87E392E00E94B30A4BE108
:1031900052E06091000186E00E94E7174EE152E0A4
:1031A0006091020187E00E94E7176091E00241E22E
:1031B00052E088E00E94E71780E58093C0048AE22D
:1031C0008093BF0410E000E028E040E56AE280E57B
:1031D0000E949C098091E302833009F010C1C091E4
:1031E0000101CF3F09F40BC18091E202813009F067
:1031F000E0C080EE9FEF9093BE048093BD0485E213
:1032000092E00E94B30A8C2F0E949E1687E392E000
:103210000E94B30A8FEF9FEF9093BE048093BD048A
:103220008EEA91E00E94B30A8091E202823009F0B6
:10323000CCC080EE9FEF9093BE048093BD0482EBE0
:1032400091E00E94B30A809101010E949E1687E3DB
:1032500092E00E94B30A8FEF9FEF9093BE04809399
:10326000BD048EEA91E00E94B30A8091E2028330AD
:1032700009F0B9C080EE9FEF9093BE048093BD0427
:1032800082EB91E00E94B30A809101010E949E1698
:1032900087E392E00E94B30A80E58093C00482E352
:1032A0008093BF0410E000E028E040E562E380E5A1
:1032B0000E949C098091E302843009F0E7C0C0912C
:1032C0000101CF3F09F4E2C08091E202843009F0AD
:1032D000BDC080EE9FEF9093BE048093BD0482EB4F
:1032E00091E00E94B30A8C2F0E949E1687E392E021
:1032F0000E94B30A8FEF9FEF9093BE048093BD04AA
:103300008FEE91E00E94B30A8091E202853009F0CD
:10331000B1C080EE9FEF9093BE048093BD0482EB1A
:1033200091E00E94B30A809101010E949E1687E3FA
:1033300092E00E94B30A81E08093E10280E0DF9195
:10334000CF911F910F91FF90EF9008951092E3029B
:10335000AECE660F660F660F6E5EF12CE12C08E0B4
:1033600028E049EC56E083E00E94380B6D2F660F91
:10337000660F660F6E5E80EEE82EFF24FA9428E05A
:1033800049EC56E083E00E94380BD093DF02CC2357
:1033900009F4B9CEBCCE8FEF9FEF9093BE0480931B
:1033A000BD0488E492E0CC2309F4EFCE84EB91E0F5
:1033B000ECCE8FEF9FEF9093BE048093BD0480E02E
:1033C0000E94C90C0E94F11425CF81E00E94C90C13
:1033D000C82F8A3020F48CEA91E00E94B30A8C2F27
:1033E0000E949E1638CF82E00E94C90CC82F8CEA3A
:1033F00091E0CA3040F18C2F0E949E164DCF8FEF86
:103400009FEF9093BE048093BD0480E00E94C90C9E
:103410000E94F11481E00E94C90CC82F8BEA91E050
:10342000CA3010F08EEA91E00E94B30A8C2F0E94FD
:103430009E1682E00E94C90CC82F8BEA91E0CA3028
:1034400010F08EEA91E00E94B30AD5CF8FEF9FEF84
:103450009093BE048093BD0483E00E94C90CC82FE2
:103460008A3020F48CEA91E00E94B30A8C2F0E94EB
:103470009E1640CF84E00E94C90CC82F8CEA91E0D0
:10348000CA3008F18C2F0E949E1655CF8FEF9FEF08
:103490009093BE048093BD0483E00E94C90CC82FA2
:1034A0008A3020F48CEA91E00E94B30A8C2F0E94AB
:1034B0009E1684E00E94C90CC82F88EA91E0CA30A9
:1034C00010F08FEE91E00E94B30ADCCF2F923F9272
:1034D0004F925F926F927F928F929F92AF92BF9224
:1034E000CF92DF92EF92FF920F931F93CF93DF93D0
:1034F000CDB7DEB760970FB6F894DEBF0FBECDBF75
:10350000A82E0E948E0B882309F4FAC32FEFA21273
:1035100002C01092DE029091DE028EEF890F82309F
:1035200008F04EC081E0923009F480E08093DE0222
:1035300010E000E020E740EA68E080E00E949C099B
:10354000AA24A3948FEF9FEFDC018093DA0290937B
:10355000DB02A093DC02B093DD028093D60290934D
:10356000D702A093D802B093D90284E1E2ECF2E052
:10357000DF01282F1D922A95E9F7EEEAF2E0DF013C
:103580001D928A95E9F71092AA021092AB0210924E
:10359000AC021092AD021092A6021092A7021092F5
:1035A000A8021092A9028091DE0281110BC00FEFD8
:1035B0001FEF21E446E662E382E00E94850A02C032
:1035C000A110C0CFB090DE02B1109DC20E94D60DF6
:1035D0006B017C016091DA027091DB028091DC0268
:1035E0009091DD02C616D706E806F90671F108E0EB
:1035F0000093C00414E11093BF041092BE04109213
:10360000BD0441E00E94F614C701B6010E94B10D4D
:103610000093C0041093BF04882309F4C5C081300F
:1036200009F4C5C080E098EF9093BE048093BD0478
:1036300041E0C701B6010E94F614C092DA02D092AE
:10364000DB02E092DC02F092DD0280919E0388238F
:1036500009F4A3C110929E030FE9802E03E0902E7F
:10366000F401C12CD12C760180819181A281B3819A
:10367000C816D906EA06FB0610F46C017D013896DF
:10368000B4E0EF33FB0781F7C114D104E104F10486
:1036900009F4F6C0E2E3CE16D104E104F10408F423
:1036A000CFC0F1E4CF16F2E4DF06FFE0EF06F1044D
:1036B00008F480C0C701B60120EA36E841E050E0D6
:1036C0000E947E2C2F5F3F4F4F4F5F4F60EA76E89E
:1036D00081E090E00E943A2C6B017C018091AA026B
:1036E0009091AB02A091AC02B091AD028093A60282
:1036F0009093A702A093A802B093A902C092AA0235
:10370000D092AB02E092AC02F092AD0284E1E2EC26
:10371000F2E0AEEAB2E001900D928A95E1F7C701BE
:10372000B6012FE330E040E050E00E947E2C2D8770
:103730003E874F87588B02EC12E0B6ED2B2EB2E09D
:103740003B2ED4014D905D906D907C908D859E8533
:10375000AF85B8890297A105B10508F077C0AFE33E
:10376000B0E0A30192010E94CE2CA70196010E9415
:103770007E2CD8012C93D8018C91EFE3803440F457
:10378000811107C0411451046104710411F0E1E09A
:10379000EC93C301B2010E94B10D811162C0D80146
:1037A0008C9180648C9363C080EE97E03DCF80EE77
:1037B0009FEF3ACF21EAC21626E8D20621E0E206C0
:1037C000F10488F0C701B60120E137E240E050E0A3
:1037D0000E947E2C2F5F3F4F4F4F5F4FA0E1B7E21B
:1037E0000E94CE2C79CF81E1C81687E2D806E10489
:1037F000F10478F0C701B60128EE33E040E050E074
:103800000E947E2C2F5F3F4F4F4F5F4FA8EEB3E0DB
:10381000E7CF99EEC91693E0D906E104F10408F464
:103820005DCFC701B60124E630E040E050E00E94E1
:103830007E2C2F5F3F4F4F4F5F4FA4E6B0E0D0CFBD
:1038400012E3C12ED12CE12CF12C48CFC301B201DF
:103850002D853E854F8558890E947E2CF801208356
:103860008ACF8130B1F5F801808180688083B8E02B
:103870008B0E911C0F5F1F4F2016310609F061CF90
:10388000F2ECEF2EF2E0FF2EAEEACA2EA2E0DA2E24
:10389000F70181917F01D6019D916D01891751F149
:1038A000182F1F73092F0F7309F42BC29827907CD0
:1038B000B1F0807C40EE57E0803431F040E058EFCA
:1038C000803811F440EE5FEF612F8B2D0E94E809E4
:1038D00008C0823061F6D8018C91806C63CF0117EB
:1038E00044F310173CF461EC610F50E040E08B2D85
:1038F0000E94E809B394B4E1BB12CACFC090AA02F7
:10390000D090AB02E090AC02F090AD02C114D104B3
:10391000E104F10409F441C06091A6027091A7028C
:103920008091A8029091A902C616D706E806F9066A
:1039300011F4AA2091F109E60093C00414E3109356
:10394000BF041092BE041092BD0440E00E94F61421
:10395000C701B6010E94B10D0093C0041093BF04CB
:10396000882309F47DC0813009F47DC080E098EFA0
:103970009093BE048093BD0440E0C701B6010E944D
:10398000F61422E34BE662E387E60E94040A21E58F
:103990004BE661E587E60E94040AA0904304A1106B
:1039A00065C060913F047091400480914104909102
:1039B000420426E630E040E050E00E947E2C69019F
:1039C0007A016091D6027091D7028091D8029091CD
:1039D000D9026F3FFFEF7F078F079F0729F06C1514
:1039E0007D058E059F0511F10EE60093C00415E5D7
:1039F0001093BF041092BE041092BD040E94AB1538
:103A00000093C0041093BF048FEF9FEF9093BE0408
:103A10008093BD04C701B6010E94AB15C092D602C7
:103A2000D092D702E092D802F092D90281E060965B
:103A30000FB6F894DEBF0FBECDBFDF91CF911F91BF
:103A40000F91FF90EF90DF90CF90BF90AF909F903D
:103A50008F907F906F905F904F903F902F90089540
:103A600080EE97E085CF80EE9FEF82CF0E94980393
:103A70006F73962E09F495CFB12CC12CD12CE12C6B
:103A8000F12C00E010E02091440430914504409175
:103A90004604509147046091480470914904809114
:103AA0004A0490914B040E94332DECE3AE2E0E9409
:103AB000332DA92C0E94D92C49015A012F3F3F4F89
:103AC0004F4F5F4F610571058105910509F0A0F425
:103AD00000913F0410914004209141043091420430
:103AE000C901B801680D791D8A1D9B1D06171707AE
:103AF0002807390708F45DCF6EEFC62EDD24DA946F
:103B0000ED2CFD2C5ECFAA2009F490CF1092C004BA
:103B10008AE08093BF048FEF9FEF9093BE04809361
:103B2000BD0481E08093BC04C12CD12C760110E04F
:103B300056E6452E512C612C712C193020F48AE266
:103B400092E00E94B30A33243394310E832D0E94F5
:103B50009E1689E292E00E94B30A19861A861B8695
:103B60001C861D821E821F821886BE016B5F7F4FDE
:103B700086E993E00E94CF0F8D819E81AF81B88549
:103B80000197A109B1094EE9A42E43E0B42E01E04A
:103B90008E3F9F4FAF4FBF4F80F08CE292E00E946C
:103BA0002E0B132D1C3049F689E392E00E94B30AD4
:103BB000C701B6010E943A1639CF19821A821B82B8
:103BC0001C82BE016F5F7F4FC5010E94CF0F8981AC
:103BD0009A81AB81BC818F3FEFEF9E07AE07BE0796
:103BE00099F04D815E816F817885481759076A0782
:103BF0007B0758F48D839E83AF83B8870F5FF8E00F
:103C0000AF0EB11C0C30C9F600E0010F0C3008F00B
:103C10000C5028E0029F80011124BE016B5F7F4F92
:103C2000C8018A569C4F0E94CF0F8D809E80AF8026
:103C3000B8848FEF88169806A806B80609F4ADCFA9
:103C4000BE01675F7F4FC80186569C4F0E94CF0F11
:103C500069857A858B859C856F3FAFEF7A078A07E8
:103C60009A0741F0A30192010E947E2C29873A878E
:103C70004B875C87D501C40124E1B695A79597953C
:103C800087952A95D1F78053984F0E94F1148EEAB8
:103C900091E00E94B30A1A2D1F701A3020F48CEAAA
:103CA00091E00E94B30A812F0E949E1689EF91E055
:103CB0000E94B30A69857A858B859C850E943A1695
:103CC00089859A85AB85BC850097A105B10581F0F2
:103CD000EFEFCE16DE06EE06FE0609F462CF8C0D7F
:103CE0009D1DAE1DBF1DC816D906EA06FB0628F0AD
:103CF000CC24CA94DC2C760154CF6C017D0151CFC9
:103D000096CE1111D6CDF6CDCF92DF92EF92FF92E3
:103D1000CF930E94960B6B017C018091930290914E
:103D20009402A0919502B09196028C159D05AE0566
:103D3000BF05D8F580915A04882371F010925A0477
:103D40008FEF0E94661AC0915A040E948E0B88233E
:103D500019F08C2F0E94A41680EDC8168AE8D806A8
:103D60008FEFE806F80690F08FEF9FEFDC0180936D
:103D7000930290939402A0939502B093960281E0EF
:103D8000CF91FF90EF90DF90CF90089580E3C80E21
:103D900085E7D81EE11CF11CC0929302D0929402D8
:103DA000E0929502F0929602EACF80E0E9CFBF92CE
:103DB000CF92DF92EF92FF920F931F93CF93DF93F7
:103DC000B82E0E948E0BC82E882309F4B7C0BB20E2
:103DD000D1F10FEF1FEF24E142E368E284E10E949A
:103DE000850A22E240E567E286E40E94040A21E4B3
:103DF00040E56CE386E40E94040A21E440E563E2C6
:103E000080E50E94040A49E5E42E46ECF42E08E021
:103E100028E041EC56E06EE289E20E94380BF12C7A
:103E2000E12C28E049EB56E06EE289E20E94380B73
:103E300059E5E52E56ECF52E28E041EB56E06EE212
:103E400088E40E94380BC091A302D091A402D090C4
:103E5000A502CD1307C08091A2028D1103C0BB2023
:103E600009F46CC0D11175C039E5E32E36ECF32EA0
:103E700008E028E041EB56E06EE288E40E94380B4F
:103E800028E041EC56E06EE289E20E94380BF12C0A
:103E9000E12C28E049EB56E06EE289E20E94380B03
:103EA00010E000E02AE046E660E58DE10E949C0912
:103EB000DD2041F00FEF1FEF2AE046E660E58DE1DF
:103EC0000E94850A84E68093C0048BE28093BF043D
:103ED00082E08093BC041092BE041092BD0487E47B
:103EE00092E0CC2369F08C2F0E949E168091A30251
:103EF000843620F48AE292E00E94B30A89E192E0DB
:103F00000E94B30A84E68093C0048BE28093BF04CE
:103F10008FEF9FEF9093BE048093BD048091A40225
:103F2000811170C087E492E00E94B30A8091A402DC
:103F30008093A3028091A5028093A2028C2DDF9131
:103F4000CF911F910F91FF90EF90DF90CF90BF9096
:103F5000089580EEE82EFF24FA9408E028E041EB73
:103F600056E06EE288E40E94380BEE24EA94FE2CC0
:103F700028E041EC56E06EE289E20E94380B20EE28
:103F8000E22E27E0F22E28E049EB56E06EE289E2CD
:103F90000E94380B8091A202DD2041F1811110C0F6
:103FA0000FEF1FEF2AE046E660E58DE10E94850AEB
:103FB00000EE1FEF28E04C2F61E58EE10E94DA0948
:103FC000CD1758F44D2F4C1B00EE1FEF28E061E594
:103FD0008EE18C0F0E94DA0975CF4C2F4D1B10E03B
:103FE00000E028E061E58EE18D0FF4CF882309F42D
:103FF00069CF10E000E02AE046E660E58DE10E942E
:104000009C0960CF0E949E168091A402843620F401
:104010008AE292E00E94B30A89E192E085CFBF92E2
:10402000CF92DF92EF92FF920F931F93CF93DF9384
:1040300000D000D0CDB7DEB7182F0E948E0BB82E5F
:10404000882321F119821A821B821C8219994BC084
:1040500060919A0270919B0280919C0290919D02C6
:10406000611571058105910501F100E028E833E152
:1040700040E050E00E94A20B811117C0CE010196D2
:104080000E942F0D81116CC011116AC08B2D0F90F1
:104090000F900F900F90DF91CF911F910F91FF9094
:1040A000EF90DF90CF90BF9008950E94960B6093A1
:1040B0009A0270939B0280939C0290939D02429A75
:1040C00064E670E080E090E00E94EA0B429805E030
:1040D0001999D4CF6AE070E080E090E00E94EA0B8A
:1040E0000150B1F7CBCF80916D0490916E04A091F7
:1040F0006F04B0917004892B8A2B8B2B69F080910F
:104100006D0490916E04A0916F04B09170040197BA
:10411000A105B10509F0B2CF85E60E94500F282F06
:1041200030E0322F22276901330FEE08FF0884E6C2
:104130000E94500FA7019601280F311D411D511DEE
:104140002F3F8FEF38074105510531F0211531051B
:104150004105510509F011C1CE0101960E942F0DB4
:1041600081E08093BC04E0909E02F0909F021123B6
:1041700009F459C18FEF9FEF9093BE048093BD0463
:1041800004E10093C0048EE18093BF048CE492E0CC
:104190000E94B30A0093C00486E28093BF0488E5BE
:1041A00092E00E94B30A0093C0048EE28093BF04A1
:1041B00084E692E00E94B30A1092BE041092BD04FD
:1041C00084E68093C0048EE18093BF0434E6C32E5E
:1041D000D12CC701B6010E94562C862F0E949E1634
:1041E00080919E0290919F02B6010E94562C7C0104
:1041F0008AE0E816F10408F004C180E792E00E942A
:10420000B30A8E2D0E949E1683E792E00E94B30AA5
:104210000E947F0D873408F0F7C08F3108F4F7C093
:104220008FEF9FEF9093BE048093BD0484E680934C
:10423000C0048EE18093BF0489819A8124E6E22E36
:10424000F12CB7010E94562C862F0E949E16898160
:104250009A81B7010E94562C0A9708F0DBC080E7CC
:1042600092E00E94B30A89819A8164E670E00E941C
:10427000562C0E949E1683E792E00E94B30A898121
:104280009A8190939F0280939E02112309F4D1C0DA
:104290001092BE041092BD0484E6E82EE092C004A1
:1042A00096E2F92EF092BF048091A0020AE0602FFE
:1042B0000E944A2C0E949E168AE791E00E94B30A4F
:1042C0008091A002602F0E944A2C892F0E949E1686
:1042D00085E792E00E94B30A8FEF9FEF9093BE04B0
:1042E0008093BD04E092C004F092BF048B81602FE4
:1042F0000E944A2C0E949E168AE791E00E94B30A0F
:104300008B81602F0E944A2C892F0E949E1685E780
:1043100092E00E94B30A8B818093A002112309F4DA
:104320008DC01092BE041092BD0484E68093C00438
:104330008EE28093BF048091A102882309F46DC0AE
:1043400087E792E00E94B30A8C8120EE37E081116A
:1043500002C020EE3FEF3093BE042093BD0494E6EC
:104360009093C004882309F45BC087E792E00E9421
:10437000B30A8C818093A10289CEA7EEB8E60E9491
:10438000CE2C20E432E44FE050E00E947E2C2C5FE3
:104390003E4F3A83298387E60E94500F282F30E052
:1043A000322F22276901330FEE08FF0886E60E94AC
:1043B000500FA7019601280F311D411D511D2115D8
:1043C00080E838074105510560F08FEF9FEFA0E0CE
:1043D000B0E06C017D01C21AD30AE40AF50AA70114
:1043E00096016BE873EF81E090E00E943A2C20E8A0
:1043F00036E948E950E00E947E2C2B8381E08C83D3
:10440000AFCE8AE791E0FBCE80EE97E00BCF80E065
:1044100098EF08CF8AE791E024CF8FE792E092CF20
:104420008FE792E0A4CF89819A818E159F0509F0CC
:10443000C3CE9B818091A00298132ACF9C8180914A
:10444000A10298136ECF22CE1F920F920FB60F9239
:1044500011242F933F934F935F936F937F938F9389
:104460009F93AF93BF93EF93FF9383EC94E00E94ED
:104470002A05FF91EF91BF91AF919F918F917F910D
:104480006F915F914F913F912F910F900FBE0F90C1
:104490001F9018951F920F920FB60F9211242F9311
:1044A0008F939F93EF93FF93E091D304F091D40403
:1044B0008081E091D904F091DA0482FD1BC09081E3
:1044C0008091DC048F5F8F732091DD04821741F0AF
:1044D000E091DC04F0E0ED53FB4F958F8093DC041A
:1044E000FF91EF919F918F912F910F900FBE0F90A1
:1044F0001F9018958081F4CF1F920F920FB60F92E4
:1045000011248F939F93AF93BF93809190039091C9
:104510009103A0919203B09193030296A11DB11D46
:104520008093900390939103A0939203B09393038D
:1045300080918F0396E0980F9D37F0F490938F034E
:1045400080918B0390918C03A0918D03B0918E0389
:104550000196A11DB11D80938B0390938C03A093B2
:104560008D03B0938E03BF91AF919F918F910F9068
:104570000FBE0F901F901895875780938F038091DF
:10458000900390919103A0919203B09193030196AF
:10459000A11DB11D8093900390939103A09392036A
:1045A000B0939303CDCF1F920F920FB60F921124A9
:1045B0002F933F934F935F936F937F938F939F932B
:1045C000AF93BF93EF93FF93F0E0E0E00995FF9185
:1045D000EF91BF91AF919F918F917F916F915F917B
:1045E0004F913F912F910F900FBE0F901F901895F4
:1045F0001F920F920FB60F9211242F933F934F9358
:104600005F936F937F938F939F93AF93BF93EF933A
:10461000FF93E0919403F09195030995FF91EF9139
:10462000BF91AF919F918F917F916F915F914F91CA
:104630003F912F910F900FBE0F901F9018951F92D2
:104640000F920FB60F9211242F933F934F935F93C6
:104650006F937F938F939F93AF93BF93EF93FF934A
:104660008091B900887F803609F44AC0F0F588321D
:1046700009F4A7C018F5803109F49BC0B8F4882369
:1046800009F4F9C0883009F494C0FF91EF91BF910B
:10469000AF919F918F917F916F915F914F913F91DA
:1046A0002F910F900FBE0F901F901895883109F42D
:1046B00088C0803251F78093950414C0803409F487
:1046C0009DC040F48033B9F38833F9F680939504A4
:1046D00085ECB0C0803509F485C0883509F496C0F2
:1046E000883499F60E94B905D0CF883909F48CC076
:1046F00038F5883729F050F4883611F0803729F6DC
:1047000083E08093970410928A0357C0883809F495
:104710007BC0803919F0803809F0B7CF80918A03C7
:10472000803208F071C0E0918A0381E08E0F80939F
:104730008A038091BB00F0E0E659FC4F80833DC0C6
:10474000803B39F0E0F4803A09F479C0883A09F006
:104750009CCF84E0809397041092690310926803C1
:10476000E0919803F0919903099580916803811174
:104770000FC081E0809368031092480309C0803C19
:1047800009F4A6CF883C09F4A3CF883B09F07DCF7C
:10479000E091690381E08E0F80936903F0E0E85BAC
:1047A000FC4F80818093BB009091690380916803E6
:1047B00029C0809172048093BB0085EC8093BC007B
:1047C00064CF9091940480919304981758F5E091E8
:1047D000940481E08E0F80939404F0E0ED58FB4F39
:1047E0008081E9CFE091940481E08E0F809394045E
:1047F0008091BB00F0E0ED58FB4F808390919404D2
:10480000809193049817C8F285E8D8CFE09194047A
:1048100081E08E0F809394048091BB00F0E0ED580E
:10482000FB4F80838091960481115CCF81E080935F
:10483000710484EA8093BC001092970426CF85EC23
:104840008093BC001092970480918A03803230F4E8
:10485000E0918A03F0E0E659FC4F108260918A03F0
:1048600070E0E0919603F09197038AE693E0099552
:1048700010928A030ACF1092950434CF1F920F92A0
:104880000FB60F9211242F933F934F935F936F9323
:104890007F938F939F93AF93BF93EF93FF93189959
:1048A00005C080915904846080935904199B33C0DA
:1048B00080916D0490916E04A0916F04B09170048A
:1048C000892B8A2B8B2B81F48091690490916A0447
:1048D000A0916B04B0916C0480936D0490936E046E
:1048E000A0936F04B09370040E948E0B811102C0DC
:1048F0000E941E0CFF91EF91BF91AF919F918F91FC
:104900007F916F915F914F913F912F910F900FBECB
:104910000F901F90189510926D0410926E041092D3
:104920006F0410927004E6CF1F920F920FB60F9291
:1049300011248F93309B09C0809159048260809329
:10494000590480915904809359048F910F900FBEA0
:104950000F901F9018951F920F920FB60F9211246F
:104960002F933F934F935F936F937F938F939F9377
:10497000AF93BF93EF93FF934C9B09C08091590471
:10498000816080935904809159048093590489B1BE
:1049900090E0880F892F881F990B892B59F48091FB
:1049A00059048860809359040E948E0B811102C0C3
:1049B0000E941E0CFF91EF91BF91AF919F918F913B
:1049C0007F916F915F914F913F912F910F900FBE0B
:1049D0000F901F9018951F920F920FB60F921124EF
:1049E0002F933F934F935F936F937F938F939F93F7
:1049F000AF93BF93EF93FF93CF93DF9300D000D09B
:104A0000CDB7DEB78091690490916A04A0916B04E0
:104A1000B0916C040196A11DB11D8093690490931F
:104A20006A04A0936B04B0936C0480916904909124
:104A30006A04A0916B04B0916C04892B8A2B8B2B98
:104A4000E1F488E291E0A0E0B0E080936904909303
:104A50006A04A0936B04B0936C04109293021092BA
:104A6000940210929502109296021092E402109213
:104A7000E5021092E6021092E702609169047091DB
:104A80006A0480916B0490916C0428EE33E040E05E
:104A900050E00E947E2C672B682B692B09F034C1F3
:104AA000809197028F5F80939702809197028C3359
:104AB00038F0109297028091C1048F5F8093C104F7
:104AC0008091C1048C3338F01092C1048091C204EB
:104AD0008F5F8093C2048091C204883138F01092B5
:104AE000C20480910A018F5F80930A010E94ED0C3D
:104AF00090910A01891740F481E080930A01809126
:104B00000B018F5F80930B0180910B018D3040F082
:104B100081E080930B0180910C018F5F80930C01E9
:104B20008091970281114CC08091C104811148C0CD
:104B30002091C1043091C20440910A0150910B01AF
:104B400080910C0190E0805D9740092E000CAA0B2B
:104B5000BB0B64E0880F991FAA1FBB1F6A95D1F792
:104B6000850F911DA11DB11D75E0880F991FAA1F0A
:104B7000BB1F7A95D1F7840F911DA11DB11DE5E0F2
:104B8000880F991FAA1FBB1FEA95D1F7830F911DAC
:104B9000A11DB11DF6E0880F991FAA1FBB1FFA9532
:104BA000D1F7820F911DA11DB11D89839A83AB831B
:104BB000BC83BE016F5F7F4F86E190E00E94991138
:104BC00080919702109224031092250310922603DD
:104BD000109227038091E8028F5F8093E802809112
:104BE000E8028F3188F48091F4029091F502A0914F
:104BF000F602B091F70285369105A105B10598F14D
:104C00008091E802833078F18AE090E09C012F5F88
:104C10003F4FFC01EE0FFF1FEE0FFF1FEC50FD4F4B
:104C20004081518162817381F901EE0FFF1FEE0F08
:104C3000FF1FEC50FD4F4083518362837383FC015F
:104C4000E851FD4F408128513D4FF90140830197C4
:104C5000E8F61092F4021092F5021092F602109209
:104C6000F7021092E802809103018A3F98F0809148
:104C70000401811104C081E0809304010BC0809184
:104C80000401813009F059C00E947306109203019B
:104C9000109204018091970281112CC04091690407
:104CA00050916A0460916B0470916C048091E402ED
:104CB0009091E502A091E602B091E702E091E00256
:104CC000481B590B6A0B7B0B28EE33E0E29FC001B7
:104CD000E39F900D1124092E000CAA0BBB0B841727
:104CE0009507A607B70730F484E00E94280884E0FF
:104CF0000E9491078091970265E00E944A2C82E011
:104D0000911181E080939D030E9416070F900F90F0
:104D10000F900F90DF91CF91FF91EF91BF91AF91E5
:104D20009F918F917F916F915F914F913F912F91C3
:104D30000F900FBE0F901F90189580910401815025
:104D40009BCF1F920F920FB60F9211245F936F9318
:104D50007F938F939F93AF93BF936091790061503E
:104D6000770B71F410929202BF91AF919F918F9146
:104D70007F916F915F910F900FBE0F901F901895CC
:104D800089EC96E30E94562C60939202EDCFE3ECFF
:104D9000F4E01382128288EE93E0A0E0B0E0848316
:104DA0009583A683B78325E531E03183208325EC05
:104DB00030E03587248724EC30E03787268720ECE5
:104DC00030E0318B208B21EC30E0338B228B22ECD6
:104DD00030E0358B248B26EC30E0378B268B118E20
:104DE000128E138E148EE0E6F5E013821282848315
:104DF0009583A683B78387E691E091838083ECE671
:104E0000F5E080E5808381E081830895CF93DF938F
:104E1000CDB7DEB760970FB6F894DEBF0FBECDBF3B
:104E2000F89482E880937A0083E084BD85BD809108
:104E30006E00816080936E0081E0809380009BE033
:104E4000909381008093B00084E08093B100109231
:104E5000C1007894E091D304F091D40482E080837F
:104E6000E091CF04F091D0041082E091D104F09150
:104E7000D20487E680831092DB04E091D704F0919E
:104E8000D80486E08083E091D504F091D604808137
:104E900080618083E091D504F091D60480818860A0
:104EA0008083E091D504F091D6048081806880836E
:104EB000E091D504F091D60480818F7D80831982A2
:104EC0001A821B821C82BE016F5F7F4F86E190E0D9
:104ED0000E94CF0F89819A81AB81BC81AC01BD0159
:104EE00041505109610971094E3F5F4F6F4F7F4F2C
:104EF00050F5282F2F732093C104AC01BD01E6E0CB
:104F00007695679557954795EA95D1F74F714093F8
:104F1000C204AC01BD01FBE07695679557954795B6
:104F2000FA95D1F74F7140930A012A2F2F702093E1
:104F30000B0114E1B695A795979587951A95D1F72A
:104F4000805380930C0183E084BD8BE085BD8CE7AA
:104F500087BD80916E00826080936E000E9437084A
:104F600090E080E00E94242C8F3F51F51A82198234
:104F700061E0CE0101960E94801114E61983BE0102
:104F80006F5F7F4F81E090E00E94E1138DE08D83A1
:104F9000BE016B5F7F4F82E090E00E94E1131F83B0
:104FA00081E08E83BE01695F7F4F8FE090E00E94B9
:104FB000E113BE016A5F7F4F80E190E00E94E11340
:104FC0006FEF7FEFCB010E94CC112CE5822E21E107
:104FD000922EA12CB12CC12CD12C31E7E32EFF2431
:104FE000F394A5019401C701B6010E9415128FEF39
:104FF000E81AF80A94E6890E911CA11CB11CC11490
:10500000D104A8E7EA06A1E0FA0659F752985A9A9D
:105010008BE69EE0909395038093940380916900C2
:105020008C70826080936900E89A539A60E083E014
:105030000E94320481E08093B0000E9473060E94B7
:10504000FF0F182F0E941610282F30E050E040E08C
:1050500060EA7FE080E090E00E94A02C2093B30003
:105060008091B4008091B300819FC001112464E657
:1050700070E00E946A2C6093B4008091B4000E949A
:10508000370854985C9A3898409A2098289A5798EC
:105090005F9A65E070E080E090E00E94EA0B87E0B4
:1050A0008093680080916D00806980936D0080918D
:1050B0006C00816080936C0080916B0083608093B2
:1050C0006B00399A419A68EE73E080E090E00E94AC
:1050D000EA0B0E941E0C8FEF80935A040E944A1123
:1050E0003A9A429821982998199B0AC00E94960BD7
:1050F00060936D0470936E0480936F0490937004BA
:1051000010929B0310929A03109299041092BB0480
:105110001092970481E08093960410927104449A4F
:10512000459A8091B9008E7F8093B9008091B90033
:105130008D7F8093B90080E28093B80085E48093EE
:10514000BC008AEA94E090939903809398038BEAD9
:1051500094E090939703809396038CE08093B8003B
:1051600010927A008EE680937C0049E050E063E87C
:1051700072E083EC94E00E94AC0442E050E06DE801
:1051800072E083EC94E00E94AC0433243A94809162
:105190009C03882391F010929C030E94D60D0E94DC
:1051A000B10D823091F50E94841E882331F083E096
:1051B0000E94280883E00E9491078091590483FF90
:1051C00036C080915904877F809359040E948E0BCA
:1051D000882359F1419A439864E670E080E090E0BA
:1051E0000E94EA0B10926D0410926E0410926F04EC
:1051F0001092700480E090E0892B49F20E9416051D
:10520000882329F20E940000C2CF813049F40E9415
:10521000841E882391F282E00E94280882E0CBCF8E
:1052200081E00E94280881E0C6CF0E941E0C0E94E7
:105230008E0B8823F9F280916D0490916E04A091F9
:105240006F04B0917004892B8A2B8B2B61F4199B0E
:105250000AC00E94960B60936D0470936E04809355
:105260006F049093700480916D0490916E04A091EE
:105270006F04B0917004892B8A2B8B2BB1F0809135
:105280006D0490916E04A0916F04B0917004019729
:10529000A105B10551F0199961C010926D041092E9
:1052A0006E0410926F041092700480916804882339
:1052B00059F02FB7F89480916604909167042FBF3E
:1052C000892B11F40E94AC0780916104882359F066
:1052D0002FB7F89480915F04909160042FBF892BC1
:1052E00011F40E943D070E948E0B882309F4B2C07E
:1052F00080915A04912C8F3F21F410925A0493E02C
:10530000992E8FB7F8949091590490FF4EC09091C8
:10531000590495FF42C0909159049F7D9093590480
:105320008FBF12E0E0915A0496E09E9FF001112495
:10533000E75DFE4F0280F381E02D309709F005C153
:1053400090905A041150123008F008C1911002C117
:1053500083E080935A049924939440C060916D0433
:1053600070916E0480916F049091700400E028E5C4
:1053700032E040E050E00E94A20B882309F495CF70
:1053800081E090E0A0E0B0E080936D0490936E0423
:10539000A0936F04B093700488CF909159049E7FBE
:1053A000909359048FBF11E0BDCF9091590491FFA4
:1053B00014C09091590495FF08C0909159049F7DA5
:1053C000909359048FBF14E0ADCF909159049D7F05
:1053D000909359048FBF13E0A5CF8FBF80915904DC
:1053E00082FF14C0E0915A04809159048B7F80930E
:1053F0005904B6E0BE9FF0011124E75DFE4F048022
:10540000F581E02D309711F080E00995992061F049
:105410000E948E0B882341F010E000E020E740EA74
:1054200068E080E00E949C09E0915A0426E02E9FEB
:10543000F0011124E75DFE4F0190F081E02D892DF0
:10544000099510915A040E948E0B882319F0812F20
:105450000E94A4169FB7F89480919D0310929D031B
:105460009FBF882309F46AC0823009F083C020916D
:105470005804222309F462C030E050E040E060911B
:1054800054047091550480915604909157040E94E1
:105490007E2CEFE2F4E080819181A281B38180874C
:1054A0009187A287B38784819581A681B7818487FC
:1054B0009587A687B78738978FE993E08E179F0760
:1054C00051F78091500490915104A0915204B091F1
:1054D00053048093AB039093AC03A093AD03B093BC
:1054E000AE032093A7033093A8034093A9035093DE
:1054F000AA031092A3031092A4031092A503109282
:10550000A60320939F033093A0034093A1035093DD
:10551000A20381E080939E031092540410925504DC
:10552000109256041092570410925804109250048E
:1055300010925104109252041092530465E070E0EE
:1055400080E090E00E94EA0B55CE812F09958111F1
:1055500045CFF6CE9A9490925A04FDCEA3E09A12CB
:1055600003C010925A043ACF939490925A0483E065
:10557000982E34CF813011F78091500490915104CE
:10558000A0915204B0915304892B8A2B8B2B51F498
:105590000E949803609350047093510480935204C6
:1055A000909353040E94D60D2B013C0141145104E9
:1055B0006104710419F20E9498034B015C0180910F
:1055C0004C0490914D04A0914E04B0914F04881664
:1055D0009906AA06BB0609F487C081149104A104A8
:1055E000B10441F188259925AA25BB25AC01BD014F
:1055F0004427587F452B462B472B09F4C6C00E94F1
:10560000540820913F04309140044091410450914E
:105610004204211531054105510521F0C501B401B0
:105620000E94151210923F041092400410924104FF
:105630001092420480924C0490924D04A0924E0429
:10564000B0924F04A0914404A887B0914504B98753
:10565000A0914604AA87B0914704BB87A091480453
:10566000AC87B0914904BD87A0914A04AE87B09140
:105670004B04BF879201A30160E070E080E090E0FE
:10568000A884B984CA84DB84EC84FD848D010E94E3
:10569000902D222E388B4A01B62FA72FF82FE92FF5
:1056A0009501A601B701C801A22CB8886401EB2EB0
:1056B000FA2E0F2F1E2F0E94992D08F06FC02092F6
:1056C0004404B09245048092460490924704B093FB
:1056D0004804A0934904F0934A04E0934B0480915A
:1056E00043048F5F80934304C0905404D0905504CA
:1056F000E0905604F0905704C301B2016C0D7D1D7B
:105700008E1D9F1DC616D706E806F90608F016CFAF
:1057100060935404709355048093560490935704F7
:10572000209158042F5F2093580430E050E040E06F
:105730000E947E2C8091A3039091A403A091A503C5
:10574000B091A603C0909F03D090A003E090A10366
:10575000F090A2032C153D054E055F0581F5892BC0
:105760008A2B8B2B09F0EACE809150049091510442
:10577000A0915204B09153048093A3039093A40387
:10578000A093A503B093A6031EC0807C892B8A2B0F
:105790008B2B09F44FCF0E9454084CCF3092440415
:1057A00030924504309246043092470430924804C7
:1057B0003092490430924A0430924B0495CF892BA1
:1057C0008A2B8B2B89F220939F033093A003409365
:1057D000A1035093A20381E080939E03AFCEBB2729
:1057E0004A3031F4992322F4BDE2909581959F4F80
:1057F0000C94FB2BBB27FB015527AA27880F991F69
:10580000AA1FA41710F0A41B83955051B9F7A05DEF
:10581000AA3308F0A95DA193009779F7B111B1936C
:105820001192CB010C94142CDC01FC01672F7191B7
:105830007723E1F7329704C07C916D937083629176
:10584000AE17BF07C8F30895F999FECF92BD81BD89
:10585000F89A992780B50895262FF999FECF1FBA97
:1058600092BD81BD20BD0FB6F894FA9AF99A0FBE89
:1058700001960895DB018F939F930E94CE2CBF91D8
:10588000AF91A29F800D911DA39F900DB29F900D8F
:1058900011240895991B79E004C0991F961708F008
:1058A000961B881F7A95C9F780950895AA1BBB1B84
:1058B00051E107C0AA1FBB1FA617B70710F0A61B10
:1058C000B70B881F991F5A95A9F780959095BC0131
:1058D000CD01089597FB072E16F4009407D077FDAD
:1058E00009D00E94562C07FC05D03EF49095819576
:1058F0009F4F0895709561957F4F0895A1E21A2EEC
:10590000AA1BBB1BFD010DC0AA1FBB1FEE1FFF1F63
:10591000A217B307E407F50720F0A21BB30BE40BB3
:10592000F50B661F771F881F991F1A9469F76095FA
:105930007095809590959B01AC01BD01CF010895B4
:10594000052E97FB1EF400940E94B72C57FD07D03C
:105950000E947E2C07FC03D04EF40C94B72C50957B
:105960004095309521953F4F4F4F5F4F089590954B
:105970008095709561957F4F8F4F9F4F0895A29F9F
:10598000B001B39FC001A39F700D811D1124911D13
:10599000B29F700D811D1124911D08950E94BF2C8E
:1059A000A59F900DB49F900DA49F800D911D112473
:1059B0000895DF93CF931F930F939A9DF02D219F0E
:1059C000F00D8B9DF00D8A9DE02DF10D039FF00DE4
:1059D000029FE00DF11D4E9DE00DF11D5E9DF00D4D
:1059E0004F9DF00D7F936F93BF92AF925F934F9354
:1059F000D5010E94BF2C8B01AC01D7010E94BF2CA6
:105A0000EB01E80FF91FD6010E94282D2F913F913D
:105A1000D6010E94BF2CC60FD71FE81FF91FAF91F8
:105A2000BF910E94282D2F913F910E94BF2CC60F3D
:105A3000D71FE81FF91FD6010E94BF2CE60FF71FE2
:105A40009801BE01CF010F911F91CF91DF91089571
:105A50000E94BF2C460F571FC81FD91F08F431964C
:105A60000895689401C0E8948F929F92CF93DF933A
:105A70000E943F2DDF91CF919F908F9008958824B1
:105A80009924F401E401B0E49F93AA279A158B04AA
:105A90009C04ED05FE05CF05D007A10798F4AD2FB6
:105AA000DC2FCF2FFE2FE92D982C892E982F872FB2
:105AB000762F652F542F432F322F2227B85031F7DE
:105AC000BF9127C01B2EBF91BB27220F331F441F3E
:105AD000551F661F771F881F991F881C991CEE1F72
