:020000040000FA
:100000000C946E030C94DD1B0C94B81B0C94231DF4
:100010000C94791D0C94901D0C9496030C949603EB
:100020000C9496030C9496030C9496030C949603EC
:100030000C9496030C9496030C94D01D0C94960388
:100040000C94611B0C9496030C942F1B0C94091BAD
:100050000C9496030C94391F0C9496030C949603FD
:100060000C94041C0C9496030300C8001027F401A0
:100070001027C80010270B005802F4012C01F401CE
:100080005802F4012C01F4015802F4012C01F4018E
:100090005802F4012C01F4015802F4012C01F4017E
:1000A0005802F40105002C01F4016400F4012C0154
:1000B000F4016400F4012C01F4010100F401C80012
:1000C00001000100102705000100E8030000E8031B
:1000D0000100E8030000E8030100E8030500010057
:1000E000640000006400010064000000640001007E
:1000F00064000100010064003C5A81DBDB815A3C52
:100100000000FE8383FE0000000307FFFF070300DB
:1001100000000000240027002A000102040810202B
:100120004080010204081020010204081020040489
:10013000040404040404020202020202030303038F
:100140000303EF03038002CF0300C130ED04640317
:100150001281E803850078CB05392C003402F701C1
:1001600020EA020000C00123C10110C5023E28C7D9
:1001700001863601483701003A0155B1020018B630
:1001800003088227F20100260101E00F0F312B0C3A
:100190000E084EF1370710030E0900E10F000E1490
:1001A00003110731C148080F0C31360F1180298027
:1001B0000000000000003E5B4F5B3E3E6B4F6B3E1D
:1001C0001C3E7C3E1C183C7E3C181C577D571C1C5A
:1001D0005E7F5E1C00183C1800FFE7C3E7FF0018B5
:1001E000241800FFE7DBE7FF30483A060E2629799E
:1001F0002926407F050507407F05253F5A3CE73CFF
:100200005A7F3E1C1C08081C1C3E7F14227F2214AF
:100210005F5F005F5F06097F017F006689956A6006
:100220006060606094A2FFA29408047E040810201D
:100230007E201008082A1C08081C2A08081E101016
:1002400010100C1E0C1E0C30383E3830060E3E0EC0
:1002500006000000000000005F000000070007002B
:10026000147F147F14242A7F2A1223130864623611
:10027000495620500008070300001C22410000419D
:10028000221C002A1C7F1C2A08083E0808008070D7
:10029000300008080808080000606000201008040A
:1002A000023E5149453E00427F400072494949465D
:1002B0002141494D331814127F1027454545393CDB
:1002C0004A494931412111090736494949364649C8
:1002D00049291E00001400000040340000000814EA
:1002E0002241141414141400412214080201590963
:1002F000063E415D594E7C1211127C7F49494936B8
:100300003E414141227F4141413E7F494949417F30
:10031000090909013E414151737F0808087F0041E6
:100320007F41002040413F017F081422417F40402F
:1003300040407F021C027F7F0408107F3E41414104
:100340003E7F090909063E4151215E7F0919294670
:10035000264949493203017F01033F4040403F1F86
:100360002040201F3F4038403F63140814630304BB
:100370007804036159494D43007F4141410204081B
:100380001020004141417F040201020440404040EE
:1003900040000307080020545478407F2844443824
:1003A0003844444428384444287F3854545418006E
:1003B000087E090218A4A49C787F080404780044ED
:1003C0007D40002040403D007F1028440000417FD8
:1003D00040007C047804787C080404783844444461
:1003E00038FC1824241818242418FC7C0804040859
:1003F000485454542404043F44243C4040207C1C72
:100400002040201C3C4030403C44281028444C9064
:1004100090907C4464544C440008364100000077BE
:100420000000004136080002010204023C26232697
:100430003C1EA1A161123A4040207A3854545559CB
:100440002155557941225454784221555478402001
:10045000545579400C1E527212395555555939541C
:1004600054545939555454580000457C41000245B4
:100470007D420001457C407D1211127DF028252827
:10048000F07C545545002054547C547C0A097F4923
:1004900032494949323A4444443A324A4848303A67
:1004A0004141217A3A42402078009DA0A07D3D4202
:1004B00042423D3D4040403D3C24FF2424487E498B
:1004C00043662B2FFC2F2BFF0929F620C0887E09BD
:1004D0000320545479410000447D413048484A3259
:1004E000384040227A007A0A0A727D0D19317D2641
:1004F00029292F28262929292630484D4020380827
:1005000008080808080808382F10C8ACBA2F1028A7
:1005100034FA00007B000008142A142222142A1442
:10052000085500550055AA55AA55AAFF55FF55FF75
:10053000000000FF00101010FF00141414FF001042
:1005400010FF00FF1010F010F0141414FC0014142D
:10055000F700FF0000FF00FF1414F404FC1414174C
:10056000101F10101F101F1414141F00101010F073
:10057000000000001F101010101F10101010F010BD
:10058000000000FF101010101010101010FF1000CD
:100590000000FF140000FF00FF00001F1017000004
:1005A000FC04F414141710171414F404F40000FFDE
:1005B00000F714141414141414F700F71414141777
:1005C0001410101F101F141414F4141010F010F055
:1005D00000001F101F0000001F14000000FC14008A
:1005E00000F010F01010FF10FF141414FF1410107E
:1005F000101F00000000F010FFFFFFFFFFF0F0F001
:10060000F0F0FFFFFF0000000000FFFF0F0F0F0FD3
:100610000F3844443844FC4A4A4A347E02020606F3
:10062000027E027E0263554941633844443C0440E3
:100630007E201E2006027E020299A5E7A5991C2AAB
:10064000492A1C4C7201724C304A4D4D303048786A
:100650004830BC625A463D3E494949007E0101018D
:100660007E2A2A2A2A2A44445F444440514A44406C
:1006700040444A51400000FF0103E080FF000008B1
:10068000086B6B083612362436060F090F06000079
:1006900018180000001010003040FF0101001F0179
:1006A000011E00191D1712003C3C3C3C00000000DC
:1006B00000030F3FFFFF3F0F030000183C3C1800F2
:1006C000003C7EE7C3C3E77E3C080C0EFFFF0E0C28
:1006D000087E3C3C187EFFE7C3005F1F11241FBE4D
:1006E000CFEFD8E0DEBFCDBF12E0A0E0B1E0EEEC8E
:1006F000F6E402C005900D92A835B107D9F724E0C1
:10070000A8E5B2E001C01D92A134B207E1F713E001
:10071000CEE6D3E004C02197FE010E945F23CD36D0
:10072000D107C9F70E949E1F0C9465230C9400000A
:10073000982F20918E0381E0213208F043C08091F0
:100740006A038111FCCF80918D0332E030936A03FC
:10075000909369039FEF909368031092670320932F
:100760006603ADE6B3E0E6E4F3E090E0291331C0C0
:100770001092450390914503880F892B8093450380
:1007800080914403813049F51092440380914503E0
:100790008093BB008091BC0083FDF8CF85EC8093F3
:1007A000BC0080916A038230E1F3809168038F3F3F
:1007B000B1F0809168038032A1F0809168038033AA
:1007C00091F084E010926C0310928E0310926B03F0
:1007D00008953D9131939F5FC9CF85EEE0CF80E0D2
:1007E000F1CF82E0EFCF83E0EDCF482FE62F282F27
:1007F00030E0863009F459C000F58330E1F18530EE
:1008000009F44FC04830E0F14E3010F1443108F0A7
:1008100063C02E50310981E090E0A0E0B0E004C058
:10082000880F991FAA1FBB1F2A95D2F728B1EE2364
:1008300009F44FC0822B88B908958A30C9F18B30F2
:10084000D9F18930F9F6809180008F77809380000C
:100850002850310981E090E0A0E0B0E004C0880FAA
:10086000991FAA1FBB1F2A95D2F7E1112EC025B1EF
:10087000809582232CC09091B0009F7D9093B00012
:1008800081E090E0A0E0B0E004C0880F991FAA1FAB
:10089000BB1F4A95D2F72BB1EE23A1F0822B8BB967
:1008A000089594B59F7D94BDEBCF94B59F77FBCF12
:1008B000809180008F7DCACF8091B0008F77809328
:1008C000B000C6CF80958223EACF25B1822B85B9AF
:1008D000089580958223AFCF089508950895AF922B
:1008E000BF92CF92DF92EF92FF920F931F93CF931D
:1008F000DF936C017B018B01040F151FEB015E017F
:10090000AE18BF08C017D10759F06991D601ED9113
:10091000FC910190F081E02DC6010995892B79F7B2
:10092000C501DF91CF911F910F91FF90EF90DF9064
:10093000CF90BF90AF900895FC01538D448D252F2B
:1009400030E0842F90E0821B930B541710F0CF9669
:10095000089501970895FC01918D828D981761F09B
:10096000A28DAE0FBF2FB11D5D968C91928D9F5FB2
:100970009F73928F90E008958FEF9FEF0895FC0191
:10098000918D828D981731F0828DE80FF11D858D44
:1009900090E008958FEF9FEF0895FC01918D228DD7
:1009A000892F90E0805C9F4F821B91098F7399275C
:1009B000089586E993E00E94CD0421E0892B09F493
:1009C00020E0822F089580E090E0892B29F00E949A
:1009D000D90481110C9400000895FC01A48DA80F86
:1009E000B92FB11DA35ABF4F2C91848D90E0019671
:1009F0008F739927848FA689B7892C93A089B18991
:100A00008C91837080648C93938D848D981306C031
:100A10000288F389E02D80818F7D80830895EF9295
:100A2000FF920F931F93CF93DF93EC0181E0888FA8
:100A30009B8D8C8D98131AC0E889F989808185FF78
:100A400015C09FB7F894EE89FF896083E889F9891A
:100A500080818370806480839FBF81E090E0DF911C
:100A6000CF911F910F91FF90EF900895F62E0B8D6F
:100A700010E00F5F1F4F0F731127E02E8C8D8E112A
:100A80000CC00FB607FCFACFE889F989808185FF91
:100A9000F5CFCE010E94ED04F1CFEB8DEC0FFD2FD1
:100AA000F11DE35AFF4FF0829FB7F8940B8FEA894C
:100AB000FB8980818062CFCFCF93DF93EC01888D5B
:100AC0008823B9F0AA89BB89E889F9898C9185FDC9
:100AD00003C0808186FD0DC00FB607FCF7CF8C9157
:100AE00085FFF2CF808185FFEDCFCE010E94ED041E
:100AF000E9CFDF91CF91089585ED8093BC0080917F
:100B0000BC0084FDFCCF10926A0308952091F70287
:100B1000260F3327331F21323105ECF420916A036D
:100B2000FC0190E080E0243069F082E00895A0911B
:100B3000F7022191AC0149525D4FA40FB52FB11DB1
:100B40002C930196861798F38091F702680F6093B3
:100B5000F70280E0089581E008950895E0912A0366
:100B600080912903E81730F4F0E0E954FD4F8081CB
:100B700090E008958FEF9FEF089590912A03809160
:100B800029032FEF3FEF981748F4E92FF0E0E954DD
:100B9000FD4F208130E09F5F90932A03C9010895A3
:100BA0008091290390912A03891B990B0895CF9274
:100BB000DF92EF92FF920F931F93CF93DF937C010D
:100BC000CB018A0120916B03222389F0EB016B0199
:100BD000C40ED51ECC15DD0569F06991D701ED91E4
:100BE000FC910190F081E02DC7010995F3CF642FAE
:100BF0000E948605C801DF91CF911F910F91FF9050
:100C0000EF90DF90CF900895CF93DF931F92CDB7F1
:100C1000DEB7698320916B032223F9F020918E03C4
:100C2000203258F021E030E0FC013383228390E051
:100C300080E00F90DF91CF91089580916C03E82FB1
:100C4000F0E0E359FC4F998190838F5F80936C03B0
:100C500080938E0381E090E0ECCF61E0CE010196BD
:100C60000E948605F7CF90E080E00895E0EBF0E089
:100C700080818F7D80831092B10060E083E00C94CE
:100C8000F503E0EBF0E080818062808389E080936F
:100C9000B1000895CF93DF93C82FD62F81E08093C2
:100CA0000601109205010E9436062C2F30E050E01C
:100CB00040E060EA7FE080E090E00E942623A3EB22
:100CC000B0E02C93E4EBF0E080818C918D9FC0012B
:100CD000112464E670E00E94F022608380810E940B
:100CE000410685E0809306018AEF80930501DF913C
:100CF000CF910895CF93DF93DC0116968C911697D0
:100D0000882399F08D919C91119713969C938E93C3
:100D1000129781E090E015969C938E931497149609
:100D20008D919C911597892BD1F713961C921E9249
:100D30001297862F90E081509048880F991F840F5A
:100D4000951FEC01E881F9818591949111969C930E
:100D50008E9315961C921E92149716966C9381E0B2
:100D6000DF91CF910895CF93C82F811109C060E022
:100D700085E00E94F50384B58F7D84BDCF910895F1
:100D8000843640F084B58F7D84BD61E085E0CF91ED
:100D90000C94F50360E085E00E94F50384B58F7D37
:100DA00084BD87B58C9FC001112464E670E00E9469
:100DB000F02268BD88B5882309F398B587B59817E0
:100DC00020F784B58062D9CF80913B03882379F0E6
:100DD0008091390390913A03892B49F0809139032E
:100DE00090913A03019790933A038093390380914D
:100DF0003403882379F08091320390913303892B57
:100E000049F080913203909133030197909333031B
:100E100080933203089580913003909131030196BD
:100E2000909331038093300320913003309131034C
:100E300080912E0390912F038217930738F460E07E
:100E400086E00E94F503109234030895A0913403C4
:100E50008091300390913103A150BB0BAA0FBB1FAF
:100E6000AB5DBE4F880F991F880F991FED91FC91C4
:100E7000E80FF91F85919491909333038093320387
:100E8000A0913403E0913003F0913103A150BB0BEA
:100E9000AA0FBB1FAB5DBE4FEE0FFF1FEE0FFF1F74
:100EA000CF010297ED91FC91E80FF91F8591949184
:100EB00061E0892B09F460E086E00C94F5039091E1
:100EC0003403981750F4682F45E251E08EE293E026
:100ED0000E947A0681110C940B070895E0E8F0E077
:100EE00080818F7D808360E08AE00E94F50310920C
:100EF00081000895CF93DF93809137039091380359
:100F000001969093380380933703209137033091F3
:100F1000380380913503909136038217930738F494
:100F20000E946E0710923B03DF91CF910895A0912C
:100F30003B038091370390913803A150BB0BAA0F5C
:100F4000BB1FA35EBE4F880F991F880F991FED919D
:100F5000FC91E80FF91F8591949190933A03809347
:100F60003903A0913B03E0913703F0913803A1507E
:100F7000BB0BAA0FBB1FA35EBE4FEE0FFF1FEE0FF2
:100F8000FF1FCF010297ED91FC91E80FF91FC5916A
:100F9000D4910E946E07209709F4C6CF9E0150E0BD
:100FA00040E069E07DE380E090E00E9426233093FA
:100FB0008900209388002091880030918900AEE15B
:100FC000B0E00E94452324E630E040E050E00E947B
:100FD000042330938B0020938A00809180008062EC
:100FE0008093800084E1809381009ECF90913B03A9
:100FF000981750F4682F4DE151E085E393E00E948B
:101000007A0681110C947A070895229A60E08AE0AA
:101010000E94F503569A60E086E00E94F503559A17
:1010200060E085E00E94F50383E0809380001092E9
:101030008100109289001092880010928B0010920B
:101040008A00089580916D0291E0892780936D0256
:1010500090916C02911107C0882329F082E380935C
:101060006C020E94B3060895CF93C0916D02CC2309
:1010700049F0823051F08130D1F08430D1F08330AA
:1010800031F1C0E08C2FCF9108958CEE90916C02DD
:10109000482F552741950CF4509594171506CCF41C
:1010A00010926C0280916C020E94B306EBCF86EF27
:1010B000EDCF84E190916C02492F480F5527551FC1
:1010C0004536510534F084E680936C02EBCF8AE01C
:1010D000F1CF890FF9CF6150710948F09EBD0DB471
:1010E00007FEFDCF8EBD0DB407FEFDCFF4CF0895F2
:1010F00008958EBD00000DB407FEFDCF8EB5089596
:10110000CF93DF93D82FC091610260E08C2F0E94B3
:10111000F5038D2F0E94790861E08C2FDF91CF912C
:101120000C94F5030F931F93CF93DF93082F162F83
:10113000C22F4150D42FD80F8AE20E94800880E04D
:101140000E947908802F0E94790880E00E94790827
:101150008D2F0E947908C150C10F8BE20E94800838
:1011600080E00E947908812F0E94790880E00E9427
:1011700079088C2F0E9479088CE2DF91CF911F9122
:101180000F910C948008CF93DF93803A78F467FD39
:101190000DC0EA0121E041E00E9492088D2F0E94DB
:1011A00079088C2FDF91CF910C947908DF91CF9142
:1011B0000895FF920F931F93CF93DF93D82FF62EAE
:1011C000172F042FC091610260E08C2F0E94F5035D
:1011D0008D2F0E94790861E08C2F0E94F503CF2D9E
:1011E000D12F0C0F1D2F111DC017D10721F0899190
:1011F0000E947908F9CFDF91CF911F910F91FF9055
:1012000008958CBD9DBD0895EF92FF920F931F939B
:10121000CF93DF93F82EE62EC42FD22F282F240F42
:101220003327331F213A310514F0C0EACF192E2D90
:101230002D0F3327331F2138310514F0D0E8DE1984
:1012400080913F04909140040E9401092D2F4C2F62
:101250006E2D8F2D0E949208CD9FB0011124611533
:10126000710549F0C801DF91CF911F910F91FF9057
:10127000EF900C946B08DF91CF911F910F91FF902D
:10128000EF9008950F931F939FEF940F903A28F4D7
:101290009FEF920F97FF0E9404091F910F910895ED
:1012A0009F92AF92BF92CF92DF92EF92FF920F93F5
:1012B0001F93CF93DF93D82FC62F142F8035A9F417
:1012C00021E0240F261B0FEF1FEF41E080E50E9475
:1012D0004209DF91CF911F910F91FF90EF90DF9026
:1012E000CF90BF90AF909F900895641306C041E5E2
:1012F000481B0FEF1FEF21E0EACF80913F04909150
:1013000040040E940109212F2C1B330B590137FF88
:1013100003C0B194A194B10880E590E06C01CD1AAE
:10132000D10880E5E82ECA14DB043CF41C1758F5FC
:10133000EC2E8D2FD12F182FC0E59E2C9D1A212F1A
:101340002C1B330BC90137FF03C09195819591097F
:10135000082FF92CF694C117E0F01FEFED1608F4F2
:10136000B8CF4FEF5FEF6D2F8C2FCA14DB0414F052
:101370006C2F8D2F0E94C308F01AF7FE02C0C10F18
:10138000F90CDF5FEBCFE12E8D2FDC2FC82F10E59E
:10139000D4CF11E0E3CFCF92DF92EF92FF920F9381
:1013A0001F93CF93DF93D82FF62EC42FE22E21E088
:1013B0000E9442096FEF6E0D6F0D21E04C2F8D2FB3
:1013C0000E9442092E2D41E06F2D8D2F0E9442096F
:1013D0008FEF8C0F2E2D41E06F2D8D0F0E94420953
:1013E000DF91CF911F910F91FF90EF90DF90CF9001
:1013F00008955F926F927F928F929F92AF92BF9269
:10140000CF92DF92EF92FF920F931F93CF93DF93D0
:101410007C01D5E0F70101917F01002309F454C05C
:1014200080913F04909140040E9401090D028001C7
:101430001124D12CC12C0F541E4F5C2CF801EC0D43
:10144000FD1DE491612CAE2EB12CC09191037090E2
:101450009503E0FF0EC080909203909093036091FB
:101460009403C130E1F4660DA401852D870D0E941F
:10147000C3086394F501F595E795F8E06F12E3CFA3
:101480008FEFC81AD80AE5E0CE16D104B1F68C2F3A
:10149000880FC80FCC0FC70DC0939503BBCFC69D57
:1014A000600D11242C2F4C2F872DC59D800D1124EC
:1014B0000E949208CC9FB001112461157105C9F2F8
:1014C000C4010E946B08D5CFDF91CF911F910F917E
:1014D000FF90EF90DF90CF90BF90AF909F908F9054
:1014E0007F906F905F9008950E94F9091092950384
:1014F00080919403885F8093940308956F927F9204
:101500008F929F92AF92BF92CF92DF92EF92FF9213
:101510000F931F93CF93DF93882E162F5A01922E8D
:1015200080913F04909140040E940109C92DD0E0B0
:10153000279683E0D595C7958A95E1F7612E600ED1
:10154000D12CC12C712C161501F100E00915C9F040
:10155000802F8770770C81110AC0E02FE695E69501
:10156000E695EC0DFD2DF11DEA0DFB1D749077FE47
:1015700006C0A701612F802F880D0E94C3080F5F4E
:10158000E5CF1F5FCC0EDD1EDECFDF91CF911F9127
:101590000F91FF90EF90DF90CF90BF90AF909F9012
:1015A0008F907F906F90089586B190E09595879584
:1015B00080959095817008952FB7F89460913C03C1
:1015C00070913D0380913E0390913F032FBF08959A
:1015D0008F929F92AF92BF92CF92DF92EF92FF9243
:1015E0000F934B015C0169017A010023C1F0609106
:1015F0003C0370913D0380913E0390913F03C80CE2
:10160000D91CEA1CFB1CC814D904EA04FB0450F4DE
:10161000681579058A059B05B0F0E0E009C00E94D5
:10162000DC0AEDCFE1E06C157D058E059F05A8F382
:101630008E2F0F91FF90EF90DF90CF90BF90AF90E3
:101640009F908F900895A7019601285D3E4F4F4FC0
:101650005F4FE1E0621773078407950748F7DDCF16
:101660008F929F92AF92BF92CF92DF92EF92FF92B2
:101670006B017C010E94DC0A4B015C01C80CD91C87
:10168000EA1CFB1CC814D904EA04FB0468F40E9499
:10169000DC0A681579058A059B05C8F789E2C80E3A
:1016A00081E0D81EE11CF11C0E94DC0A6C157D054E
:1016B0008E059F05C8F3FF90EF90DF90CF90BF900D
:1016C000AF909F908F9008950F931F93CF93DF93C8
:1016D0000E94D40A811170C0419864E670E080E0F5
:1016E00090E00E94300B81E1809361023B9A61E0BF
:1016F000809161020E94F503CFB7F8948091600257
:1017000081111EC0E8E3F1E08491E4E2F1E09491FC
:10171000E82FF0E0EE0FFF1FE05FFE4FA591B491C0
:10172000EC91E92321F461E08AE00E94F503229A1A
:101730008CB580618CBD8CB580648CBD259A239A54
:10174000809160028F5F80936002CFBF80E58093BD
:101750003F0481E08093400440E070E060E00E943C
:10176000D90866E970E080E090E00E94300BC2E4A6
:10177000D1E09E012F5F3F4FFE0184918823A1F0AD
:101780002296F9011491012F0F77402FBE010E947C
:10179000D908C00FD11D17FFECCF66E970E080E0DB
:1017A00090E00E94300BE5CF10E000E020E840EA36
:1017B00060E080E00E940409DF91CF911F910F91BA
:1017C00008956FB7F8945091090140910801309144
:1017D00007012091900390918F036FBF823089F0B1
:1017E00038F4813059F0852F90E08053984F089558
:1017F000833049F08430B9F7892F01C0842F90E0FD
:101800000895832FFCCF822FFACFCF93DF93CDB7EC
:10181000DEB72C970FB6F894DEBF0FBECDBF8CE0BD
:10182000E1E1F1E0DE01119601900D928A95E1F778
:1018300080910801823011F52091090130E0205398
:10184000384FC90183709927892B39F4C90164E69F
:1018500070E00E94DC22892BC1F4C90160E971E0CB
:101860000E94DC22892B89F08CE12C960FB6F8942B
:10187000DEBF0FBECDBFDF91CF910895E09108018B
:10188000EC0FFD2FF11D8081F0CF8DE1EECF8F9217
:101890009F92AF92BF92DF92EF92FF920F931F93AE
:1018A000CF93DF937C018EE880937A0010E4D0E040
:1018B000C0E0DD24DA940E94DC0A4B015C01D09286
:1018C0005A0280917A00806480937A0080915A0253
:1018D0008F3F69F400E02AE030E040E050E0C501CD
:1018E000B4010E94E80A882389F380E014C0809143
:1018F0005A02C80FD11D1150F1F610927A0085E0FE
:10190000D695C7958A95E1F7F701D183C0831382F5
:1019100081E0CD2B51F3DF91CF911F910F91FF907B
:10192000EF90DF90BF90AF909F908F900895CF93EE
:10193000DF9300D000D0CDB7DEB719821A821B82A8
:101940001C82CE0101960E94470C882301F1298157
:101950003A81243A81E03807C0F4273381E0380720
:10196000B0F044E6429FC001439F900D112488517E
:1019700099476EE670E00E94DC22862F0F900F9050
:101980000F900F90DF91CF91089584E6F7CF80E01C
:10199000F5CF4F925F926F927F928F929F92AF920C
:1019A000BF92CF92DF92EF92FF92CF93CFB7F8948E
:1019B000C0903C03D0903D03E0903E03F0903F0385
:1019C0008091B3029091B402A091B502B091B60299
:1019D000892B8A2B8B2BC9F02091B3023091B40252
:1019E0004091B5025091B602CFBFCA01B901CF9163
:1019F000FF90EF90DF90CF90BF90AF909F908F902F
:101A00007F906F905F904F90089590E080E020E08D
:101A100030E0A901F0E0E0E0DC01AA0FBB1FAA0F53
:101A2000BB1FAD57BD4F8D909D90AD90BC90280DC4
:101A3000391D4A1D5B1DDC01A958BD4F6C91E60F95
:101A4000F11D283231054105510580F4833031F410
:101A5000220F331F441F551FEE0FFF1F01968C30BE
:101A60009105D1F620E030E0A901BECFA0E5B6E4B3
:101A70000E9454232B013C019F01A8EEB3E00E9479
:101A800045234B015C01C701B60128EE33E040E07D
:101A900050E00E940423A5019401260F371F481F20
:101AA000591FC301B2010E9404232093B302309353
:101AB000B4024093B5025093B60296CF4F925F9214
:101AC0006F927F928F929F92AF92BF92CF92DF924E
:101AD000EF92FF920F93CF93DF9300D000D0CDB75A
:101AE000DEB78091830290918402A0918502B0912B
:101AF0008602892B8A2B8B2B29F4809105018B3F41
:101B000009F4ADC08091830290918402A091850276
:101B1000B09186020196A11DB11D8093830290931E
:101B20008402A0938502B0938602809105018A3FCA
:101B300058F48091050191E0980F9093050182334C
:101B400018F08AEF8093050181E080932B03609168
:101B5000730270917402809175029091760201E097
:101B600020ED37E040E050E00E94E80A882309F4C5
:101B700076C080913C0390913D03A0913E03B091CB
:101B80003F038093730290937402A0937502B09305
:101B900076028091730290917402A0917502B091C7
:101BA000760289839A83AB83BC83809177028823F2
:101BB00009F455C02091830230918402409185023E
:101BC00050918602E091770260910B0188EE93E0DC
:101BD000689F6001699FD00C1124F12CE12CA0E5D5
:101BE000B6E40E9454232B013C012E2F30E0A8EED6
:101BF000B3E00E9445234B015C0169817A818B81AE
:101C00009C8128EE33E040E050E00E940423A501CF
:101C10009401260F371F481F591FC301B2010E94AC
:101C200004232C153D054E055F05C8F00E94D40A1B
:101C3000811115C00F900F900F900F90DF91CF91F1
:101C40000F91FF90EF90DF90CF90BF90AF909F905B
:101C50008F907F906F905F904F900C94640B0F90DB
:101C60000F900F900F90DF91CF910F91FF90EF9019
:101C7000DF90CF90BF90AF909F908F907F906F90AC
:101C80005F904F900895CF92DF92EF92FF920F9363
:101C9000CF9391E090936B0395E790938D0310920F
:101CA0006C0310928E03682F83E394E00E94040675
:101CB00080E00E94980380916A038111FCCF81E04B
:101CC00080936A03109269039FEF909368031092C8
:101CD00067031092660380934503809145038A6EE3
:101CE00080934503809144038130F1F510924403C1
:101CF000809145038093BB008091BC0083FDF8CFA9
:101D000085EC8093BC0080916A038130E1F380917F
:101D1000670381112BC080916703A6E4B3E0E7EB72
:101D2000F2E0C0E0C81324C010922A03C093290334
:101D30000E94DC0A6B017C01C1111EC000E022E39D
:101D400030E040E050E0C701B6010E94E80A882375
:101D5000A9F381E00E9498038C2FCF910F91FF90FF
:101D6000EF90DF90CF90089585EECBCF81E0D5CF77
:101D70009D919193CF5FD6CF83E394E00E94BD0500
:101D8000C82FE7CFCF93DF93EB010E94AA2288836D
:101D9000CE01DF91CF910895CF93DF931F92CDB7FE
:101DA000DEB7BE016F5F7F4F82E090E00E94C20EFF
:101DB000898181508E3110F08DE0898389810F9067
:101DC000DF91CF910895CF93DF931F92CDB7DEB708
:101DD000BE016F5F7F4F81E090E00E94C20E89815B
:101DE0008253853610F084E6898389810F90DF91D4
:101DF000CF910895CF93909172022FEF280F223048
:101E000008F08AC0911118C0209104012F3FE1F120
:101E1000823081F483E0281B8CE32C3308F488C0E3
:101E2000209304010E94CC0E682F809104010E942F
:101E30004A0624C081E0EFCF9130A1F42091040143
:101E40002F3F11F1823009F493E081E0291708F463
:101E500086C0291B20930401C09104010E94E30E57
:101E60006C2FE5CF923081F4209104012F3F61F077
:101E70008091B100882329F00E94360610927002EA
:101E800044C00E944106FACF2AEF290F233078F48C
:101E9000209104012F3F89F1823039F48AE028171C
:101EA00050F581E080930401E9CF81E0F8CF9330D1
:101EB00091F4209104012F3F19F190917102933018
:101EC00041F4823031F4921760F7291B209304010A
:101ED000D5CF91E0F8CF943081F4209104012F3FC9
:101EE00079F0823031F485E0821728F010920401F5
:101EF000C5CF81E0F9CF281BE9CF992309F499C018
:101F00009150953029F09093720281E0CF9108951D
:101F100084E080937202F9CF911111C020910401E5
:101F20002F3F39F1843039F483E0820F833828F46D
:101F30008093040177CF81E0F8CF82E8F9CF913028
:101F400089F4209104012F3FA1F0843009F493E03B
:101F5000920F8EE19F3118F4909304017DCF80930E
:101F600004017ACF923029F4209104012F3F09F027
:101F70007FCF2AEF290F233080F4209104012F3FD7
:101F800009F44FC0843039F48AE0820F813F08F4AD
:101F900089CF80EF87CF81E0F8CF933019F5C091DA
:101FA0000401CF3F09F43FC090917102933069F46E
:101FB000843059F483E0C80FC0930401923039F49F
:101FC0008CE0CD3008F06ECF59CF81E0F4CF933064
:101FD00009F054CF0E94050C8C1708F04FCF0E94D7
:101FE000050C60CF9430E9F4209104012F3FD9F023
:101FF000843069F485E0820F80930401909171022E
:10200000943039F4873108F439CF87E14BCF81E040
:10201000F2CF953009F032CF8B3308F42FCF8BE31A
:1020200041CF983031F09F5F953009F06CCF86E05A
:1020300070CF80E06BCFCF93DF931F92CDB7DEB729
:102040006AE071E08FE090E00E94C20E6BE071E008
:1020500080E190E00E94C20E80910A0181508E3F83
:1020600018F084E680930A0180910B0181508E3F25
:1020700018F081E080930B011982BE016F5F7F4FE2
:1020800081E190E00E94C20E898181508E3F10F064
:1020900084EB8983898180936F020F90DF91CF91C8
:1020A0000895CF93DF9300D000D0CDB7DEB786E19F
:1020B00090E00E94AA22898387E190E00E94AA22F0
:1020C0008A8388E190E00E94AA228B8389E190E0D4
:1020D0000E94AA228C8389819A81AB81BC81AC0148
:1020E000BD0141505109610971094E3F5F4F6F4F6A
:1020F0007F4F50F5282F2F7320938F03AC01BD0124
:1021000026E076956795579547952A95D1F74F71B3
:1021100040939003AC01BD013BE0769567955795E0
:1021200047953A95D1F74F71409307012A2F2F70A9
:102130002093080144E1B695A795979587954A9510
:10214000D1F78C5E8093090183E084BD8BE085BD6F
:102150008CE787BD80916E00826080936E000F9047
:102160000F900F900F90DF91CF910895FF920F93F2
:102170001F93CF93DF93EC01F62E08811981C801DC
:102180000E94AA22F81621F06F2DC8010E94B222E7
:10219000CE01DF91CF911F910F91FF9008950F9382
:1021A0001F93CF93DF9300D0CDB7DEB78B019A8317
:1021B0008983FB016081CE0101960E94B610C8019F
:1021C0000F900F90DF91CF911F910F910895EF9293
:1021D000FF920F931F93CF93DF9300D000D000D0D6
:1021E000CDB7DEB78451990B092E000CAA0BBB0B9F
:1021F00034E0880F991FAA1FBB1F3A95D1F7860FAD
:10220000911DA11DB11D55E0880F991FAA1FBB1F6D
:102210005A95D1F7840F911DA11DB11D65E0880F5E
:10222000991FAA1FBB1F6A95D1F7820F911DA11D8F
:10223000B11D76E0880F991FAA1FBB1F7A95D1F7B1
:10224000800F911DA11DB11D89839A83AB83BC832F
:10225000CE0101967C0106E110E01E830D83F7019B
:1022600061917F01CE0105960E94B6100F5F1F4F4E
:102270000A31110591F726960FB6F894DEBF0FBE0E
:10228000CDBFDF91CF911F910F91FF90EF900895F7
:102290000F930FB7F8948230E1F1A0F4813001F18F
:1022A000605D609309010FBF00918F03209190033F
:1022B0004091070160910801809109010E94E71097
:1022C0000F910895833099F1843051F760938F0313
:1022D00080918F038C3338F38BE380938F03E3CFAC
:1022E00060930801909108019D3020F08CE080936C
:1022F000080104C0909108019923C9F30E94050CBC
:1023000090910701891778F60E94050C80930701C8
:10231000CACF609307010E94050C909107018917AD
:1023200098F3809107018111BECF81E0EFCF6093D8
:10233000900380919003883108F4B5CF87E18093B2
:102340009003B1CF1F93CF93DF9300D000D000D084
:102350001F92CDB7DEB71091720211111FC080918C
:1023600004018F3F89F40E94E30E809304011092D0
:10237000700281E027960FB6F894DEBF0FBECDBF86
:10238000DF91CF911F9108958F83BE01695F7F4FC9
:1023900081E090E00E94CF108FEFE7CF113071F411
:1023A000809104018F3F19F40E94CC0EDECF8E8302
:1023B000BE016A5F7F4F82E090E0ECCF123031F4D3
:1023C000809104018F3F41F781E0CFCF8AEF810FE9
:1023D000823088F5809104018F3F39F480910A01A1
:1023E000163019F280910B01C0CF1630A9F49091EC
:1023F0000B018D839C83BE016B5F7F4F8FE090E06C
:102400000E94CF10BE016C5F7F4F80E190E00E9480
:10241000CF100E941B10C0CF90910A019B838A832A
:10242000BE016D5F7F4F8FE090E00E94CF10BE0134
:102430006E5F7F4FEACF183071F4809104018F3FB7
:1024400019F480916F0291CF8983BE016F5F7F4F36
:1024500081E190E0DCCF133061F5609104016F3FC2
:1024600041F481E08093710280E00E94E10B805D85
:102470007CCF8091710270E0813061F46053784FBD
:1024800080E00E94481182E08093710281E00E9406
:10249000E10B6BCF823039F481E00E944811109338
:1024A000710282E0F4CF82E00E9448111092710222
:1024B00073CF143009F05BCF609104016F3F21F4BA
:1024C0001093710283E0E3CF70E080917102843059
:1024D00041F483E00E94481185E08093710284E01A
:1024E000D6CF84E0E1CF0F931F93CF93DF93CDB787
:1024F000DEB72A970FB6F894DEBF0FBECDBFCB0173
:102500008E010F5F1F4F2AE0F80111922A95E9F71B
:102510004AE0B8010E947522C8010E94F9092A9672
:102520000FB6F894DEBF0FBECDBFDF91CF911F91E4
:102530000F910895BC0190E080E00C947312CF924B
:10254000DF92EF92FF9223E020939103683E23E015
:1025500072078105910598F4CB010E949A1282E0DE
:102560008093910380919403885F8093940389E71B
:1025700091E0FF90EF90DF90CF900C94F9096034D8
:1025800022E472072FE08207910528F528EE33E058
:1025900040E050E00E9404236B017C01C9010E94CD
:1025A0009A128FE791E00E94F909C701B60124E66B
:1025B00030E040E050E00E940423C9010E949A12DA
:1025C00080919403885F8093940382E080939103C9
:1025D00081E891E0CECF20E432E44FE050E00E9469
:1025E00004236B017C01C9010E949A128FE791E0DC
:1025F0000E94F909C701B60120EA36E841E050E03F
:102600000E940423C9010E949A1280919403885F5A
:102610008093940382E08093910387E891E0A9CFAF
:10262000CF92DF92EF92FF92F82E0E94D40A882375
:1026300009F46DC0FF2059F08FEF9FEFDC0180930C
:10264000000190930101A0930201B09303010E9445
:10265000C90C6B017C0160910001709101018091B6
:10266000020190910301C616D706E806F90609F49F
:1026700040C02AE02093950324E120939403109214
:102680009303109292030E949F1220910B0130E05D
:10269000A8EEB3E00E944523C616D706E806F90661
:1026A00070F540910A0150E070E060E081E0C416EE
:1026B000D506E606F70608F480E09AE090939503C5
:1026C00094E1909394038823E1F08130E9F080E075
:1026D00098EF9093930380939203C701B6010E94F1
:1026E0009F12C0920001D0920101E0920201F0928B
:1026F000030181E0FF90EF90DF90CF90089582E09A
:10270000DCCF80EE97E0E5CF80EE9FEFE2CFF2CF17
:10271000682F70E090E080E00C9473124F925F920B
:102720006F927F928F929F92AF92BF92CF92DF92E1
:10273000EF92FF920F931F93CF93DF93B82E8FB733
:10274000F894E0900901F12C20E3E21A28EFF20A54
:10275000C0900801D09007018090900390908F0363
:102760008FBF0E94C90C2B013C0120910B0130E06E
:10277000A8EEB3E00E944523D2E04616570668064D
:10278000790660F480910A0190E0B0E0A0E0D1E029
:10279000481659066A067B0608F4D0E00E94970C9A
:1027A00090E065E070E00E94F022A62EC62FC701DF
:1027B000E3E0CE9E800D911D1124F5E0DF9E800D9B
:1027C000911D11242BE0929E800D911D1124E7E0B4
:1027D0008E9E800D911D112420910C0130910D01D0
:1027E0008217930709F44CC090930D0180930C015C
:1027F000109295031092940310E000E027E040E669
:1028000060E080E00E9404098FEF9FEF90939303B4
:102810008093920381E080939103F9E0F81520F012
:1028200080E991E00E94F909882D0E94881329E02F
:102830008CE891E0291510F485ED91E00E94F909EA
:10284000892D0E94881380EE91E00E94F909C7014A
:102850000E949A1289E08C1508F461C08FE891E01B
:102860000E94F9098C2D0E94881399E09D1508F4A7
:1028700059C08FE891E00E94F9098D2D0E948813BC
:10288000809110018B15C9F1B092100135E4832EAF
:1028900031E0932E44E1742E10E0CC24CA94DC2C59
:1028A000662463948FEF9FEFB11202C080EE97E031
:1028B000F401428153817C010181208169E7872DE8
:1028C0000E947E0A133089F080E1870D8093950382
:1028D00089E780939403D0929303C092920360920D
:1028E000910384E991E00E94F9091F5FF4E08F0EE3
:1028F000911C2EE1720E1430A9F680910F01C817B9
:1029000009F43FC0A0920F01CE3078F4E12C28EFFB
:10291000F22EC63088F0EE24EA94FE2C0DC082E937
:1029200091E09ECF82E991E0A6CF90EEE92E97E06C
:10293000F92EC33109F44FC0CC2349F0870128E0B8
:102940004C2F60E08AE80E944209C33198F484E188
:10295000D82EDC1AC65710E000E028E04D2D60E0CC
:102960008C2F0E944209870128E04D2D60E08C2FBA
:102970000E94CB09870124E042E062E08EE90E94D8
:10298000040980910E018D17A9F0D0930E0180EEFD
:1029900097E0DD2331F080E098EFD13011F480EE44
:1029A0009FEF7C0108E028E041ED56E060E083E71E
:1029B0000E947E0ADF91CF911F910F91FF90EF90BF
:1029C000DF90CF90BF90AF909F908F907F906F904F
:1029D0005F904F900895C4E1B1CFCF92DF92EF9214
:1029E000FF92CF930E94DC0A6B017C0180915B0215
:1029F00090915C02A0915D02B0915E028C159D05E4
:102A0000AE05BF05D8F580912D03882371F0109293
:102A10002D0381E00E941013C0912D030E94D40A5F
:102A2000882319F08C2F0E948E1380EDC8168AE837
:102A3000D8068FEFE806F80690F08FEF9FEFDC01E5
:102A400080935B0290935C02A0935D02B0935E0260
:102A500081E0CF91FF90EF90DF90CF90089580E3D9
:102A6000C80E85E7D81EE11CF11CC0925B02D09213
:102A70005C02E0925D02F0925E02EACF80E0E9CF74
:102A8000EF92FF920F931F93CF93DF93F82EE62ED2
:102A9000EA01682F660F660F660F6E5E80E5809311
:102AA00095036093940310E000E028E040E50E9465
:102AB0000409809172028F1122C0109104011F3FFE
:102AC000F1F080EE9FEF909393038093920386E959
:102AD00091E00E94F909812F0E94881380EE91E015
:102AE0000E94F909CE010E94F90988E991E0DF917D
:102AF000CF911F910F91FF90EF900C94F9098FEFF8
:102B00009FEF90939303809392038E2D0E948813DE
:102B100080EE91E00E94F909CE01E9CFEF92FF9299
:102B20000F931F93CF93DF93C82F0E94D40A88235B
:102B300009F45DC11092950382E1809394038FEFB5
:102B40009FEF909393038093920381E0809391038E
:102B5000CC2351F1C13009F052C188E08093720258
:102B60008DE991E00E94740A89EA91E00E94740A5A
:102B700085EB91E00E94740A8CEB91E00E94740A4C
:102B800085EC91E00E94740A8EEC91E00E94740A38
:102B900087ED91E00E94740A82EE91E00E94740A2F
:102BA0008DEE91E00E94740A60916E02D0917202E3
:102BB0006D1328C1C11126C180917002811114C109
:102BC0000E94E30E4BEF51E0682F80E00E94401519
:102BD0000E94CC0E4FEF51E0682F81E00E9440151B
:102BE000C091B10080E58093950382E280939403C5
:102BF00010E000E028E040E562E280E50E94040980
:102C000080917202823009F01FC1809104018F3FD0
:102C100009F41AC180EE9FEF90939303809392037F
:102C200086E991E00E94F90980E192E0CC2311F05D
:102C30008AE991E00E94F90988E991E00E94F90986
:102C400041E052E060910A0186E00E94401544E0B4
:102C500052E060910B0187E00E94401560916F0285
:102C600047E052E088E00E94401580E5809395039C
:102C70008AE28093940310E000E028E040E56AE2F5
:102C800080E50E94040980917202833009F010C12E
:102C9000C0910401CF3F09F40BC1809171028130D2
:102CA00009F0E0C080EE9FEF90939303809392032E
:102CB0008BE092E00E94F9098C2F0E94881388E92A
:102CC00091E00E94F9098FEF9FEF90939303809317
:102CD000920382E991E00E94F909809171028230A9
:102CE00009F0CCC080EE9FEF909393038093920302
:102CF00086E991E00E94F909809104010E948813FD
:102D000088E991E00E94F9098FEF9FEF9093930378
:102D10008093920382E991E00E94F9098091710207
:102D2000833009F0B9C080EE9FEF909393038093B6
:102D3000920386E991E00E94F909809104010E94C2
:102D4000881388E991E00E94F90980E58093950352
:102D500082E38093940310E000E028E040E562E322
:102D600080E50E94040980917202843009F0E7C076
:102D7000C0910401CF3F09F4E2C080917102843018
:102D800009F0BDC080EE9FEF909393038093920370
:102D900086E991E00E94F9098C2F0E94881388E946
:102DA00091E00E94F9098FEF9FEF90939303809336
:102DB000920385ED91E00E94F909809171028530BE
:102DC00009F0B1C080EE9FEF90939303809392033C
:102DD00086E991E00E94F909809104010E9488131C
:102DE00088E991E00E94F90981E08093700280E017
:102DF000DF91CF911F910F91FF90EF900895109266
:102E00007202AECE660F660F660F6E5EF12CE12C7D
:102E100008E028E049EC56E083E00E947E0A6D2F2E
:102E2000660F660F660F6E5E80EEE82EFF24FA9442
:102E300028E049EC56E083E00E947E0AD0936E02BF
:102E4000CC2309F4B9CEBCCE8FEF9FEF90939303C0
:102E50008093920380E192E0CC2309F4EFCE8AE9DB
:102E600091E0ECCE8FEF9FEF9093930380939203CA
:102E700080E00E94E10B0E949A1225CF81E00E941F
:102E8000E10BC82F8A3020F480E991E00E94F90913
:102E90008C2F0E94881338CF82E00E94E10BC82F4C
:102EA00080E991E0CA3040F18C2F0E9488134DCF09
:102EB0008FEF9FEF909393038093920380E00E94A3
:102EC000E10B0E949A1281E00E94E10BC82F8FE86B
:102ED00091E0CA3010F082E991E00E94F9098C2F4C
:102EE0000E94881382E00E94E10BC82F8FE891E0D6
:102EF000CA3010F082E991E00E94F909D5CF8FEF36
:102F00009FEF909393038093920383E00E94E10BE1
:102F1000C82F8A3020F480E991E00E94F9098C2FB3
:102F20000E94881340CF84E00E94E10BC82F80E903
:102F300091E0CA3008F18C2F0E94881355CF8FEF93
:102F40009FEF909393038093920383E00E94E10BA1
:102F5000C82F8A3020F480E991E00E94F9098C2F73
:102F60000E94881384E00E94E10BC82F8CE891E056
:102F7000CA3010F085ED91E00E94F909DCCFBF92D4
:102F8000CF92DF92EF92FF920F931F93CF93DF9335
:102F9000B82E0E94D40AC82E882309F4B4C0BB20DE
:102FA000B9F10FEF1FEF24E142E368E284E10E94F0
:102FB000CB0942E267E286E40E94500941E46CE3F7
:102FC00086E40E94500941E463E280E50E945009D2
:102FD00049E5E42E46ECF42E08E028E041EC56E00A
:102FE0006EE289E20E947E0AF12CE12C28E049EB96
:102FF00056E06EE289E20E947E0A59E5E52E56EC23
:10300000F52E28E041EB56E06EE288E40E947E0A4D
:10301000C0916B02D0916C02D0906D02CD1307C0AD
:1030200080916A028D1103C0BB2009F46CC0D111DC
:1030300075C039E5E32E36ECF32E08E028E041EBCD
:1030400056E06EE288E40E947E0A28E041EC56E0F9
:103050006EE289E20E947E0AF12CE12C28E049EB25
:1030600056E06EE289E20E947E0A10E000E02AE06B
:1030700046E660E58DE10E940409DD2041F000E0B4
:1030800018EF2AE046E660E58DE10E94CB0984E670
:10309000809395038BE28093940382E08093910365
:1030A00010929303109292038FE092E0CC2369F088
:1030B0008C2F0E94881380916B02843620F480EE5E
:1030C00091E00E94F9098FEF91E00E94F90984E6EE
:1030D000809395038BE2809394038FEF9FEF9093FF
:1030E00093038093920380916C02811170C08FE0F2
:1030F00092E00E94F90980916C0280936B028091AA
:103100006D0280936A028C2DDF91CF911F910F91F8
:10311000FF90EF90DF90CF90BF90089580EEE82E63
:10312000FF24FA9408E028E041EB56E06EE288E4E0
:103130000E947E0AEE24EA94FE2C28E041EC56E040
:103140006EE289E20E947E0A20EEE22E27E0F22E55
:1031500028E049EB56E06EE289E20E947E0A809107
:103160006A02DD2041F1811110C00FEF1FEF2AE04C
:1031700046E660E58DE10E94CB0900EE1FEF28E0F6
:103180004C2F61E58EE10E944209CD1758F44D2F76
:103190004C1B00EE1FEF28E061E58EE18C0F0E94D2
:1031A000420975CF4C2F4D1B10E000E028E061E58F
:1031B0008EE18D0FF4CF882309F469CF10E000E091
:1031C0002AE046E660E58DE10E94040960CF0E9496
:1031D000881380916C02843620F480EE91E00E9486
:1031E000F9098FEF91E085CFBF92CF92DF92EF92F6
:1031F000FF920F931F93CF93DF9300D000D0CDB7F2
:10320000DEB7182F0E94D40AB82E882321F1198224
:103210001A821B821C8219994BC0609162027091C4
:1032200063028091640290916502611571058105C8
:10323000910501F100E028E833E140E050E00E9410
:10324000E80A811117C0CE0101960E94470C811136
:103250006CC011116AC08B2D0F900F900F900F90C2
:10326000DF91CF911F910F91FF90EF90DF90CF9062
:10327000BF9008950E94DC0A60936202709363021B
:103280008093640290936502429A64E670E080E065
:1032900090E00E94300B429805E01999D4CF6AE083
:1032A00070E080E090E00E94300B0150B1F7CBCF8E
:1032B0008091400390914103A0914203B091430358
:1032C000892B8A2B8B2B69F08091400390914103CD
:1032D000A0914203B09143030197A105B10509F004
:1032E000B2CF85E60E94430E282F30E0322F2227EE
:1032F0006901330FEE08FF0884E60E94430EA70120
:103300009601280F311D411D511D2F3F8FEF3807AA
:103310004105510531F0211531054105510509F0EF
:1033200011C1CE0101960E94470C81E08093910368
:10333000E0906602F0906702112309F459C18FEF03
:103340009FEF909393038093920304E1009395037E
:103350008EE18093940384E192E00E94F909009346
:10336000950386E28093940380E292E00E94F9093B
:10337000009395038EE2809394038CE292E00E9486
:10338000F909109293031092920384E680939503B7
:103390008EE18093940334E6C32ED12CC701B6018D
:1033A0000E94DC22862F0E948813809166029091F1
:1033B0006702B6010E94DC227C018AE0E816F10473
:1033C00008F004C188E392E00E94F9098E2D0E9462
:1033D00088138BE392E00E94F9090E94970C8734CE
:1033E00008F0F7C08F3108F4F7C08FEF9FEF90938C
:1033F00093038093920384E6809395038EE18093F8
:10340000940389819A8124E6E22EF12CB7010E946F
:10341000DC22862F0E94881389819A81B7010E943D
:10342000DC220A9708F0DBC088E392E00E94F909E9
:1034300089819A8164E670E00E94DC220E948813F0
:103440008BE392E00E94F90989819A819093670247
:1034500080936602112309F4D1C010929303109255
:10346000920384E6E82EE092950396E2F92EF0921C
:103470009403809168020AE0602F0E94D0220E948B
:1034800088138FE791E00E94F90980916802602F0C
:103490000E94D022892F0E9488138DE392E00E941F
:1034A000F9098FEF9FEF9093930380939203E0923B
:1034B0009503F09294038B81602F0E94D0220E948A
:1034C00088138FE791E00E94F9098B81602F0E9499
:1034D000D022892F0E9488138DE392E00E94F9097F
:1034E0008B8180936802112309F48DC0109293039D
:1034F0001092920384E6809395038EE28093940366
:1035000080916902882309F46DC08FE392E00E94E4
:10351000F9098C8120EE37E0811102C020EE3FEFE7
:10352000309393032093920394E69093950388231A
:1035300009F45BC08FE392E00E94F9098C818093CB
:10354000690289CEA7EEB8E60E94542320E432E453
:103550004FE050E00E9404232C5F3E4F3A832983C2
:1035600087E60E94430E282F30E0322F2227690180
:10357000330FEE08FF0886E60E94430EA70196016E
:10358000280F311D411D511D211580E838074105C7
:10359000510560F08FEF9FEFA0E0B0E06C017D017E
:1035A000C21AD30AE40AF50AA70196016BE873EF81
:1035B00081E090E00E94C02220E836E948E950E02E
:1035C0000E9404232B8381E08C83AFCE8FE791E0B0
:1035D000FBCE80EE97E00BCF80E098EF08CF8FE72F
:1035E00091E024CF87E492E092CF87E492E0A4CFE9
:1035F00089819A818E159F0509F0C3CE9B818091A8
:10360000680298132ACF9C818091690298136ECF2B
:1036100022CE1F920F920FB60F9211242F933F9339
:103620004F935F936F937F938F939F93AF93BF93CA
:10363000EF93FF9386E993E00E94ED04FF91EF91F1
:10364000BF91AF919F918F917F916F915F914F91BA
:103650003F912F910F900FBE0F901F9018951F92C2
:103660000F920FB60F9211242F938F939F93EF9386
:10367000FF93E091A603F091A7038081E091AC0352
:10368000F091AD0382FD1BC090818091AF038F5FED
:103690008F732091B003821741F0E091AF03F0E007
:1036A000EA56FC4F958F8093AF03FF91EF919F9166
:1036B0008F912F910F900FBE0F901F9018958081C2
:1036C000F4CF1F920F920FB60F9211248F939F93F6
:1036D000AF93BF9380911F0390912003A09121038A
:1036E000B09122030296A11DB11D80931F039093F8
:1036F0002003A0932103B093220380911E0396E040
:10370000980F9D37F0F490931E0380911A039091C7
:103710001B03A0911C03B0911D030196A11DB11DB7
:1037200080931A0390931B03A0931C03B0931D0373
:10373000BF91AF919F918F910F900FBE0F901F90EF
:103740001895875780931E0380911F039091200343
:10375000A0912103B09122030196A11DB11D809378
:103760001F0390932003A0932103B0932203CDCF96
:103770001F920F920FB60F9211242F933F934F93E6
:103780005F936F937F938F939F93AF93BF93EF93C9
:10379000FF93F0E0E0E00995FF91EF91BF91AF91C9
:1037A0009F918F917F916F915F914F913F912F9159
:1037B0000F900FBE0F901F9018951F920F920FB68B
:1037C0000F9211242F933F934F935F936F937F93A7
:1037D0008F939F93AF93BF93EF93FF93E091230356
:1037E000F09124030995FF91EF91BF91AF919F91C3
:1037F0008F917F916F915F914F913F912F910F909A
:103800000FBE0F901F9018951F920F920FB60F9238
:1038100011242F933F934F935F936F937F938F93D5
:103820009F93AF93BF93EF93FF938091B900887FED
:10383000803609F44AC0F0F5883209F4A7C018F5BB
:10384000803109F49BC0B8F4882309F4F9C08830AA
:1038500009F494C0FF91EF91BF91AF919F918F9127
:103860007F916F915F914F913F912F910F900FBE7C
:103870000F901F901895883109F488C0803251F755
:103880008093680314C0803409F49DC040F48033F1
:10389000B9F38833F9F68093680385ECB0C08035BE
:1038A00009F485C0883509F496C0883499F60E94D9
:1038B0007C05D0CF883909F48CC038F5883729F0D9
:1038C00050F4883611F0803729F683E080936A033C
:1038D0001092190357C0883809F47BC0803919F059
:1038E000803809F0B7CF80911903803208F071C099
:1038F000E091190381E08E0F809319038091BB0042
:10390000F0E0E750FD4F80833DC0803B39F0E0F4AC
:10391000803A09F479C0883A09F09CCF84E080931A
:103920006A031092F8021092F702E0912703F091D7
:10393000280309958091F70281110FC081E08093DF
:10394000F7021092D70209C0803C09F4A6CF883C48
:1039500009F4A3CF883B09F07DCFE091F80281E024
:103960008E0F8093F802F0E0E952FD4F8081809342
:10397000BB009091F8028091F70229C08091450325
:103980008093BB0085EC8093BC0064CF909167036B
:1039900080916603981758F5E091670381E08E0FD8
:1039A00080936703F0E0EA5BFC4F8081E9CFE09110
:1039B000670381E08E0F809367038091BB00F0E086
:1039C000EA5BFC4F808390916703809166039817B0
:1039D000C8F285E8D8CFE091670381E08E0F80932D
:1039E00067038091BB00F0E0EA5BFC4F808380912D
:1039F000690381115CCF81E08093440384EA809362
:103A0000BC0010926A0326CF85EC8093BC00109214
:103A10006A0380911903803230F4E0911903F0E0D9
:103A2000E750FD4F10826091190370E0E09125038B
:103A3000F091260389EF92E00995109219030ACFBD
:103A40001092680334CF1F920F920FB60F92112479
:103A50002F933F934F935F936F937F938F939F9396
:103A6000AF93BF93EF93FF93189905C080912C03F8
:103A7000846080932C03199B33C080914003909104
:103A80004103A0914203B0914303892B8A2B8B2BD6
:103A900081F480913C0390913D03A0913E03B0914D
:103AA0003F038093400390934103A0934203B0935C
:103AB00043030E94D40A811102C00E94640BFF914B
:103AC000EF91BF91AF919F918F917F916F915F9196
:103AD0004F913F912F910F900FBE0F901F9018950F
:103AE000109240031092410310924203109243033C
:103AF000E6CF1F920F920FB60F9211248F93309B37
:103B000009C080912C03826080932C0380912C0348
:103B100080932C038F910F900FBE0F901F901895DC
:103B20001F920F920FB60F9211242F933F934F9332
:103B30005F936F937F938F939F93AF93BF93EF9315
:103B4000FF934C9B09C080912C03816080932C03D0
:103B500080912C0380932C0389B190E0880F892FEA
:103B6000881F990B892B59F480912C0388608093CE
:103B70002C030E94D40A811102C00E94640BFF91A1
:103B8000EF91BF91AF919F918F917F916F915F91D5
:103B90004F913F912F910F900FBE0F901F9018954E
:103BA0001F920F920FB60F9211240F932F933F93F2
:103BB0004F935F936F937F938F939F93AF93BF9335
:103BC000EF93FF9380913C0390913D03A0913E03BE
:103BD000B0913F030196A11DB11D80933C039093CA
:103BE0003D03A0933E03B0933F0380913C0390912B
:103BF0003D03A0913E03B0913F03892B8A2B8B2B71
:103C0000E1F488E291E0A0E0B0E080933C0390937F
:103C10003D03A0933E03B0933F0310925B021092CA
:103C20005C0210925D0210925E021092730210927A
:103C30007402109275021092760260913C037091AA
:103C40003D0380913E0390913F0328EE33E040E036
:103C500050E00E940423672B682B692B09F0E4C015
:103C600080915F028F5F80935F0280915F028C334F
:103C700038F010925F0280918F038F5F80938F03E3
:103C800080918F038C3338F010928F0380919003D2
:103C90008F5F8093900380919003883138F0109269
:103CA0009003809107018F5F809307010E94050CAC
:103CB00090910701891740F481E08093070180917A
:103CC00008018F5F80930801809108018D3040F0DA
:103CD00081E080930801809109018F5F8093090141
:103CE00080915F02811110C080918F0381110CC0FF
:103CF00000918F032091900340910701609108018A
:103D0000809109010E94E71080915F021092B30236
:103D10001092B4021092B5021092B602809177020E
:103D20008F5F80937702809177028F3188F4809142
:103D3000830290918402A0918502B091860285361B
:103D40009105A105B10598F180917702833078F152
:103D50008AE090E09C012F5F3F4FFC01EE0FFF1FB8
:103D6000EE0FFF1FED57FD4F40815181628173813E
:103D7000F901EE0FFF1FEE0FFF1FED57FD4F4083C0
:103D8000518362837383FC01E958FD4F40812958B8
:103D90003D4FF90140830197E8F61092830210929B
:103DA000840210928502109286021092770280910E
:103DB00005018A3F48F080910601811149C081E0E8
:103DC000809306010E94410680915F0281112CC000
:103DD00040913C0350913D0360913E0370913F033D
:103DE0008091730290917402A0917502B091760255
:103DF000E0916F02481B590B6A0B7B0B28EE33E0F6
:103E0000E29FC001E39F900D1124092E000CAA0B24
:103E1000BB0B84179507A607B70730F484E00E9410
:103E2000F60784E00E945F070E94E406FF91EF918D
:103E3000BF91AF919F918F917F916F915F914F91C2
:103E40003F912F910F910F900FBE0F901F901895DB
:103E500080910601813039F40E94360610920501E6
:103E600010920601B1CF8091060181508093060126
:103E7000ABCF1F920F920FB60F9211245F936F93E7
:103E80007F938F939F93AF93BF936091790061501D
:103E9000770B71F410925A02BF91AF919F918F915D
:103EA0007F916F915F910F900FBE0F901F901895AB
:103EB00089EC96E30E94DC2260935A02EDCFE6E99A
:103EC000F3E01382128288EE93E0A0E0B0E08483F6
:103ED0009583A683B78329E531E03183208325ECE0
:103EE00030E03587248724EC30E03787268720ECC4
:103EF00030E0318B208B21EC30E0338B228B22ECB5
:103F000030E0358B248B26EC30E0378B268B118EFE
:103F1000128E138E148EE3E3F4E0138212828483F4
:103F20009583A683B7838BE691E091838083EFE34B
:103F3000F4E080E5808381E081830895CF93DF936F
:103F400000D000D01F92CDB7DEB7F89482E88093FE
:103F50007A0083E084BD85BD80916E00816080938E
:103F60006E0011E0109380008BE08093810010932D
:103F7000B00084E08093B1001092C1007894E09189
:103F8000A603F091A70382E08083E091A203F09161
:103F9000A3031082E091A403F091A50387E6808338
:103FA0001092AE03E091AA03F091AB0386E0808308
:103FB000E091A803F091A903808180618083E09162
:103FC000A803F091A903808188608083E091A80311
:103FD000F091A903808180688083E091A803F0912B
:103FE000A90380818F7D80830E9451100E94050863
:103FF00090E080E00E94AA228F3F49F51A82198240
:1040000061E0CE0101960E94B61004E60983BE016C
:104010006F5F7F4F81E090E00E94CF108DE08B8337
:10402000BE016D5F7F4F82E090E00E94CF100D8354
:104030001C83BE016B5F7F4F8FE090E00E94CF102A
:10404000BE016C5F7F4F80E190E00E94CF100E9424
:10405000511052985A9A8EE59DE0909324038093D4
:104060002303809169008C70826080936900E89AD4
:10407000539A60E083E00E94F50381E08093B000F2
:104080000E9436060E94CC0E182F0E94E30E282FA5
:1040900030E050E040E060EA7FE080E090E00E94A5
:1040A00026232093B3008091B4008091B300819FB8
:1040B000C001112464E670E00E94F0226093B40015
:1040C0008091B4000E9441060E94050854985C9AB1
:1040D0003898409A2098289A57985F9A65E070E03F
:1040E00080E090E00E94300B87E080936800809130
:1040F0006D00806980936D0080916C008160809379
:104100006C0080916B00836080936B00399A419AB8
:1041100068EE73E080E090E00E94300B0E94640B38
:104120000E941B103A9A429821982998199B0AC01C
:104130000E94DC0A60934003709341038093420322
:104140009093430310922A031092290310926C0358
:1041500010928E0310926A0381E08093690310929B
:104160004403449A459A8091B9008E7F8093B900A8
:104170008091B9008D7F8093B90080E28093B80070
:1041800085E48093BC008DE694E0909328038093AF
:1041900027038EE694E090932603809325038CE01A
:1041A0008093B80010927A008EE680937C0049E0FC
:1041B00050E06BE472E086E993E00E946F0442E015
:1041C00050E065E572E086E993E00E946F0496E0B6
:1041D000E92E20E0C22E20E0D22E812C912C540119
:1041E000839480912B038823E1F010922B030E948B
:1041F000C90C2B013C0120910B0130E0A8EEB3E08B
:104200000E944523461657066806790698F10E94D3
:10421000ED14882331F083E00E94F60783E00E94CA
:104220005F0780912C0383FF3BC080912C03877F25
:1042300080932C030E94D40A882381F1419A4398E9
:1042400064E670E080E090E00E94300B1092400342
:10425000109241031092420310924303C114D104FF
:1042600009F4BFCF0E94D904882309F4BACF0E9471
:104270000000B7CF80910A0190E0B0E0A0E04816BE
:1042800059066A067B0608F42BC10E94ED148823A8
:1042900041F282E00E94F60782E0C1CF0E94640BE7
:1042A0000E94D40A8823D1F2809140039091410367
:1042B000A0914203B0914303892B8A2B8B2B61F48D
:1042C000199B0AC00E94DC0A60934003709341036B
:1042D0008093420390934303809140039091410364
:1042E000A0914203B0914303892B8A2B8B2BB1F011
:1042F0008091400390914103A0914203B091430308
:104300000197A105B10551F0199997C0109240038A
:1043100010924103109242031092430380913B0399
:10432000882359F02FB7F8948091390390913A037C
:104330002FBF892B11F40E947A07809134038823C0
:1043400059F02FB7F89480913203909133032FBF27
:10435000892B11F40E940B070E94D40A882309F4C8
:1043600065C08FB7F89490912C0390FF89C090910D
:104370002C0395FF7DC090912C039F7D90932C037F
:104380008FBF12E0E0912D03EE9EF0011124E35D5A
:10439000FE4F0280F381E02D309709F08CC0F09041
:1043A0002D031150123008F08FC0F11089C083E046
:1043B00080932D03FF24F39480912C0382FF13C07C
:1043C000E0912D0380912C038B7F80932C03EE9E34
:1043D000F0011124E35DFE4F0480F581E02D30975C
:1043E00011F080E00995FF2061F00E94D40A882333
:1043F00041F010E000E020E740EA68E080E00E9441
:104400000409E0912D03EE9EF0011124E35DFE4FBF
:104410000190F081E02D8F2D099510912D030E94C0
:10442000D40A882319F0812F0E948E1365E070E072
:1044300080E090E00E94300B11CF609140037091BA
:104440004103809142039091430300E028E532E06C
:1044500040E050E00E94E80A882309F45FCF809290
:10446000400390924103A0924203B092430356CF7F
:1044700090912C039E7F90932C038FBF11E082CFED
:1044800090912C0391FF14C090912C0395FF08C0CC
:1044900090912C039F7D90932C038FBF14E072CFDB
:1044A00090912C039D7F90932C038FBF13E06ACFD4
:1044B0008FBFF12C81CF812F09958111FACF6FCF5A
:1044C000FA94F0922D0376CF83E0F81203C0109295
:1044D0002D0372CFF394F0922D0383E0F82E6CCF6E
:1044E00081E00E94F60781E09ACEBB274A3031F482
:1044F000992322F4BDE2909581959F4F0C948122DF
:10450000BB27FB015527AA27880F991FAA1FA417AD
:1045100010F0A41B83955051B9F7A05DAA3308F0A1
:10452000A95DA193009779F7B111B1931192CB01D5
:104530000C949A22DC01FC01672F71917723E1F73B
:10454000329704C07C916D9370836291AE17BF0760
:10455000C8F30895F999FECF92BD81BDF89A9927C5
:1045600080B50895262FF999FECF1FBA92BD81BD5F
:1045700020BD0FB6F894FA9AF99A0FBE01960895E5
:10458000DB018F939F930E945423BF91AF91A29F11
:10459000800D911DA39F900DB29F900D1124089541
:1045A000991B79E004C0991F961708F0961B881F85
:1045B0007A95C9F780950895AA1BBB1B51E107C0E6
:1045C000AA1FBB1FA617B70710F0A61BB70B881FA3
:1045D000991F5A95A9F780959095BC01CD01089532
:1045E00097FB072E16F4009407D077FD09D00E94A0
:1045F000DC2207FC05D03EF4909581959F4F0895ED
:10460000709561957F4F0895A1E21A2EAA1BBB1BDE
:10461000FD010DC0AA1FBB1FEE1FFF1FA217B3078E
:10462000E407F50720F0A21BB30BE40BF50B661FA4
:10463000771F881F991F1A9469F760957095809568
:1046400090959B01AC01BD01CF010895052E97FB0C
:104650001EF400940E943D2357FD07D00E940423BE
:1046600007FC03D04EF40C943D23509540953095B3
:1046700021953F4F4F4F5F4F0895909580957095CE
:1046800061957F4F8F4F9F4F0895A29FB001B39FB9
:10469000C001A39F700D811D1124911DB29F700D4B
:1046A000811D1124911D08950E944523A59F900D01
:1046B000B49F900DA49F800D911D11240895EE0FBD
:1046C000FF1F0590F491E02D0994F894FFCFFFFFB0
:1046D000FFFFFFFB0A070C16FFFFFFFFFFFFFF1F97
:1046E0001C1F1E1F1E1F1F1E1F1E1FBA00A40076A8
:1046F000006800F200DC00C600C0001013000000DB
:1047000000BF1734082208F418000000008E15FAC4
:104710000EA2110808D106080808010808000108BF
:1047200008F800000000000F056F049C045C05CD34
:1047300004AB04BF04000000000406D7053306AD37
:1047400005D005BD05AE052075522F68002E00204E
:104750006D522F680020522F68003A30002D300033
:104760002D007C003C003E004F4E0020205556207E
:10477000667265713A200020205556206475747960
:104780003A2000202055563A2000202044617465CC
:104790003A2000202054696D653A200020416C6168
:1047A000726D733A0020204C6576656C313A2000BA
:1047B00020204C6576656C323A200020204E6F2018
:1047C000496D70756C733A20004B487A002500756E
:1047D00052006D5200736563003C323000204F463A
:1047E00046005662617420202020203D200049634D
:1047F000686172676572203D2000536F7572636552
:104800002020203D20002E300056004100436861EA
:10481000726765720041444300496E697420646F99
:064820006E65000D0A00A8
:107800000C94343C0C94513C0C94513C0C94513CE1
:107810000C94513C0C94513C0C94513C0C94513CB4
:107820000C94513C0C94513C0C94513C0C94513CA4
:107830000C94513C0C94513C0C94513C0C94513C94
:107840000C94513C0C94513C0C94513C0C94513C84
:107850000C94513C0C94513C0C94513C0C94513C74
:107860000C94513C0C94513C11241FBECFEFD8E036
:10787000DEBFCDBF11E0A0E0B1E0ECE9FFE702C060
:1078800005900D92A230B107D9F712E0A2E0B1E065
:1078900001C01D92AD30B107E1F70E942D3D0C945F
:1078A000CC3F0C94003C982F959595959595959582
:1078B000905D8F708A307CF0282F295A8091C0000B
:1078C00085FFFCCF9093C6008091C00085FFFCCF60
:1078D0002093C6000895282F205DF0CF982F809127
:1078E000C00085FFFCCF9093C6000895EF92FF92F1
:1078F0000F931F93EE24FF2487018091C00087FD22
:1079000017C00894E11CF11C011D111D81E4E8164B
:1079100082E4F8068FE0080780E0180770F3E09132
:107920000401F091050109958091C00087FFE9CF1E
:107930008091C6001F910F91FF90EF9008950E94D3
:10794000763C982F8091C00085FFFCCF9093C600B5
:1079500091362CF490330CF09053892F089597555D
:10796000892F08951F930E949F3C182F0E949F3CCF
:107970001295107F810F1F9108951F93182F882350
:1079800021F00E94763C1150E1F71F9108951F935A
:10799000182F0E94763C803249F0809103018F5F5E
:1079A000809303018530C1F01F9108958091C0003C
:1079B00085FFFCCF84E18093C6008091C00085FFE5
:1079C000FCCF1093C6008091C00085FFFCCF80E102
:1079D0008093C6001F910895E0910401F091050184
:1079E00009951F9108950E94763C803241F0809164
:1079F00003018F5F80930301853081F008958091AA
:107A0000C00085FFFCCF84E18093C6008091C00058
:107A100085FFFCCF80E18093C6000895E0910401CA
:107A2000F09105010995089540E951E08823A1F0FE
:107A30002D9A28EE33E0FA013197F1F721503040CA
:107A4000D1F72D9828EE33E0FA013197F1F7215064
:107A50003040D1F7815061F708953F924F925F9285
:107A60006F927F928F929F92AF92BF92CF92DF924E
:107A7000EF92FF920F931F93CF93DF93000080E16B
:107A80008093C4001092C50088E18093C10086E015
:107A90008093C2005098589A259A81E00E94143D24
:107AA00024E1F22E9EE1E92E85E9D82E0FE0C02ECA
:107AB00010E1B12EAA24A394B1E49B2EA6E58A2E50
:107AC000F2E57F2EE0E26E2E79E4572E63E5462E36
:107AD00050E5352E0E94763C8033B1F18133B9F107
:107AE000803409F46FC0813409F476C0823409F41B
:107AF00085C0853409F488C0803531F1823521F1A3
:107B0000813511F1853509F485C0863509F48DC0BC
:107B1000843609F496C0843709F403C1853709F423
:107B200072C1863709F466C0809103018F5F80932C
:107B30000301853079F6E0910401F0910501099582
:107B40000E94763C803351F60E94F33CC3CF0E94E2
:107B5000763C803249F78091C00085FFFCCFF092DF
:107B6000C6008091C00085FFFCCF9092C600809136
:107B7000C00085FFFCCF8092C6008091C00085FFC9
:107B8000FCCF7092C6008091C00085FFFCCF609250
:107B9000C6008091C00085FFFCCF5092C600809146
:107BA000C00085FFFCCF4092C6008091C00085FFD9
:107BB000FCCF3092C6008091C00085FFFCCFB09210
:107BC000C60088CF0E94763C863808F4BDCF0E945C
:107BD000763C0E94F33C7ECF0E94763C803809F4CC
:107BE0009CC0813809F40BC1823809F43CC1883942
:107BF00009F48FC080E00E94C73C6CCF84E10E94F2
:107C0000BD3C0E94F33C66CF85E00E94BD3C0E94D3
:107C1000F33C60CF0E94763C809306010E94763C44
:107C2000809307010E94F33C55CF0E94763C80333D
:107C300009F41DC183E00E94BD3C80E00E94C73C66
:107C400049CF0E94763C809309020E94763C809343
:107C5000080280910C028E7F80930C020E94763C79
:107C6000853409F415C18091080290910902892B8D
:107C700089F000E010E00E94763CF801E85FFE4FDA
:107C800080830F5F1F4F80910802909109020817AF
:107C9000190788F30E94763C803209F045CF809125
:107CA0000C0280FF01C16091060170910701660F0F
:107CB000771F7093070160930601A0910802B091AD
:107CC00009021097C9F0E8E0F1E09B01AD014E0F09
:107CD0005F1FF999FECF32BD21BD819180BDFA9A17
:107CE000F99A2F5F3F4FE417F50799F76A0F7B1F4B
:107CF00070930701609306018091C00085FFFCCF5F
:107D0000F092C6008091C00085FFFCCFB092C60003
:107D1000E1CE83E00E94C73CDDCE82E00E94C73CFA
:107D2000D9CE0E94763C809309020E94763C8093D3
:107D300008028091060190910701880F991F909386
:107D40000701809306010E94763C853409F4A6C0A1
:107D500080910C028E7F80930C020E94763C8032D0
:107D600009F0B8CE8091C00085FFFCCFF092C6002C
:107D7000609108027091090261157105B9F140E046
:107D800050E080910C02A82FA170B82FB27011C0E2
:107D9000BB2309F45CC0E0910601F0910701319624
:107DA000F0930701E09306014F5F5F4F46175707B7
:107DB000E8F4AA2369F3F999FECF209106013091E6
:107DC000070132BD21BDF89A90B58091C00085FFB2
:107DD000FCCF9093C6002F5F3F4F30930701209355
:107DE00006014F5F5F4F4617570718F38091C00099
:107DF00085FDE5CE8091C00085FFF8CFE0CE81E023
:107E00000E94C73C67CE0E94763C803209F08CCE3F
:107E10008091C00085FFFCCFF092C6008091C00029
:107E200085FFFCCFE092C6008091C00085FFFCCFAB
:107E3000D092C6008091C00085FFFCCFC092C600E2
:107E40008091C00085FFFCCFB092C60043CEE09188
:107E50000601F091070194918091C00085FFFCCF4D
:107E60009093C6009CCF80E10E94C73C33CE0E9415
:107E7000763C0E94763C182F0E94763C112309F430
:107E800083C0113009F484C08FE00E94C73C22CE29
:107E900080910C02816080930C02E5CE80910C02EF
:107EA000816080930C0259CF809107018823880F4D
:107EB000880B8A2180930B02809106019091070123
:107EC000880F991F90930701809306018091080203
:107ED00080FF09C080910802909109020196909359
:107EE000090280930802F894F999FECF1127E091D6
:107EF0000601F0910701C8E0D1E08091080290915D
:107F00000902103091F40091570001700130D9F34B
:107F100003E000935700E89500915700017001308D
:107F2000D9F301E100935700E89509901990009169
:107F3000570001700130D9F301E000935700E89534
:107F40001395103498F011270091570001700130FB
:107F5000D9F305E000935700E895009157000170B0
:107F60000130D9F301E100935700E895329602976A
:107F700009F0C7CF103011F00296E5CF112480919F
:107F8000C00085FFB9CEBCCE8EE10E94C73CA2CD19
:0E7F900085E90E94C73C9ECDF894FFCF80008B
:00000001FF
