:020000040000FA
:100000000C9473030C9438290C9413290C947E2AB5
:100010000C94D42A0C94EB2A0C949B030C949B0311
:100020000C949B030C949B030C949B030C949B03D8
:100030000C949B030C949B030C942B2B0C949B0310
:100040000C94BC280C949B030C948A280C94642870
:100050000C949B030C94912C0C949B030C949B0389
:100060000C945F290C949B030300C8001027F40133
:100070001027C80010270B005802F4012C01F401CE
:100080005802F4012C01F4015802F4012C01F4018E
:100090005802F4012C01F4015802F4012C01F4017E
:1000A0005802F40105002C01F4016400F4012C0154
:1000B000F4016400F4012C01F4010100F401C80012
:1000C00001000100102705000100E8030000E8031B
:1000D0000100E8030000E8030100E8030500010057
:1000E000640000006400010064000000640001007E
:1000F00064000100010064003C5A81DBDB815A3C52
:100100000000FE8383FE0000000307FFFF070300DB
:10011000030F3FFFFF3F0F030000183C3C18000097
:100120003C7EE7C3C3E77E3C080C0EFFFF0E0C08C5
:1001300000000000240027002A000102040810200B
:100140004080010204081020010204081020000071
:100150000000250028002B00040404040404040407
:10016000020202020202030303030303EF030380FC
:1001700002CF0300C130ED0464031281E80385005F
:1001800078CB05392C003402F70120EA020000C0C8
:100190000123C10110C5023E28C701863601483738
:1001A00001003A0155B1020018B603088227F20196
:1001B00000260101E00F0F312B0C0E084EF137071E
:1001C00010030E0900E10F000E1403110731C1489E
:1001D000080F0C31360F118029800000000000004C
:1001E0003E5B4F5B3E3E6B4F6B3E1C3E7C3E1C18A5
:1001F0003C7E3C181C577D571C1C5E7F5E1C001803
:100200003C1800FFE7C3E7FF0018241800FFE7DBF6
:10021000E7FF30483A060E2629792926407F050552
:1002200007407F05253F5A3CE73C5A7F3E1C1C088F
:10023000081C1C3E7F14227F22145F5F005F5F0654
:10024000097F017F006689956A606060606094A2A2
:10025000FFA29408047E040810207E201008082ABB
:100260001C08081C2A08081E101010100C1E0C1E5A
:100270000C30383E3830060E3E0E060000000000FE
:1002800000005F00000007000700147F147F1424A3
:100290002A7F2A1223130864623649562050000828
:1002A000070300001C2241000041221C002A1C7F81
:1002B0001C2A08083E08080080703000080808085A
:1002C00008000060600020100804023E5149453ECD
:1002D00000427F400072494949462141494D331847
:1002E00014127F1027454545393C4A49493141217F
:1002F0001109073649494936464949291E00001463
:1003000000000040340000000814224114141414AA
:1003100014004122140802015909063E415D594E5C
:100320007C1211127C7F494949363E414141227F6E
:100330004141413E7F494949417F090909013E4107
:100340004151737F0808087F00417F4100204041F0
:100350003F017F081422417F404040407F021C0241
:100360007F7F0408107F3E4141413E7F0909090615
:100370003E4151215E7F09192946264949493203E8
:10038000017F01033F4040403F1F2040201F3F406E
:1003900038403F6314081463030478040361594927
:1003A0004D43007F4141410204081020004141417A
:1003B0007F0402010204404040404000030708005F
:1003C00020545478407F28444438384444442838E2
:1003D0004444287F385454541800087E090218A455
:1003E000A49C787F0804047800447D4000204040AD
:1003F0003D007F1028440000417F40007C047804C9
:10040000787C080404783844444438FC18242418C0
:1004100018242418FC7C0804040848545454240468
:10042000043F44243C4040207C1C2040201C3C4095
:1004300030403C44281028444C9090907C446454B4
:100440004C440008364100000077000000413608A7
:100450000002010204023C2623263C1EA1A16112D7
:100460003A4040207A385454555921555579412203
:1004700054547842215554784020545579400C1EEC
:100480005272123955555559395454545939555495
:1004900054580000457C410002457D420001457CE6
:1004A000407D1211127DF0282528F07C545545001E
:1004B0002054547C547C0A097F4932494949323AD4
:1004C0004444443A324A4848303A4141217A3A4217
:1004D000402078009DA0A07D3D4242423D3D4040ED
:1004E000403D3C24FF2424487E4943662B2FFC2FAB
:1004F0002BFF0929F620C0887E0903205454794136
:100500000000447D413048484A32384040227A0059
:100510007A0A0A727D0D19317D2629292F2826296C
:1005200029292630484D40203808080808080808BE
:1005300008382F10C8ACBA2F102834FA00007B00FE
:100540000008142A142222142A14085500550055B4
:10055000AA55AA55AAFF55FF55FF000000FF00103D
:100560001010FF00141414FF001010FF00FF1010F3
:10057000F010F0141414FC001414F700FF0000FF36
:1005800000FF1414F404FC141417101F10101F1093
:100590001F1414141F00101010F0000000001F1092
:1005A0001010101F10101010F010000000FF10109D
:1005B00010101010101010FF10000000FF140000A9
:1005C000FF00FF00001F10170000FC04F4141417B4
:1005D00010171414F404F40000FF00F7141414149A
:1005E000141414F700F7141414171410101F101F0C
:1005F000141414F4141010F010F000001F101F0059
:1006000000001F14000000FC140000F010F0101097
:10061000FF10FF141414FF141010101F000000002E
:10062000F010FFFFFFFFFFF0F0F0F0F0FFFFFF0022
:1006300000000000FFFF0F0F0F0F0F384444384435
:10064000FC4A4A4A347E02020606027E027E0263A9
:10065000554941633844443C04407E201E20060234
:100660007E020299A5E7A5991C2A492A1C4C720111
:10067000724C304A4D4D303048784830BC625A4652
:100680003D3E494949007E0101017E2A2A2A2A2A43
:1006900044445F444440514A444040444A5140002D
:1006A00000FF0103E080FF000008086B6B083612B2
:1006B000362436060F090F06000018180000001037
:1006C00010003040FF0101001F01011E00191D171D
:1006D00012003C3C3C3C00000000007E3C3C187E8C
:1006E000FFE7C300B72C11241FBECFEFD8E0DEBF59
:1006F000CDBF12E0A0E0B1E0E2EAF3E602C005906F
:100700000D92A639B107D9F724E0A6E9B2E001C0FD
:100710001D92AE37B207E1F713E0C3E7D3E004C0A0
:100720002197FE010E949F30C237D107C9F70E946E
:10073000F02C0C94CF310C940000982F2091CC0316
:1007400081E0213208F043C08091A8038111FCCFE1
:100750008091CB0332E03093A8039093A7039FEFDF
:100760009093A6031092A5032093A403ABEAB3E0F1
:10077000E4E8F3E090E0291331C0109283039091F4
:100780008303880F892B80938303809182038130B8
:1007900049F510928203809183038093BB0080917E
:1007A000BC0083FDF8CF85EC8093BC008091A8034A
:1007B0008230E1F38091A6038F3FB1F08091A603D0
:1007C0008032A1F08091A603803391F084E01092F2
:1007D000AA031092CC031092A90308953D9131937E
:1007E0009F5FC9CF85EEE0CF80E0F1CF82E0EFCF11
:1007F00083E0EDCFEF92FF920F931F93A091CF0371
:10080000B091D003042F10E0462F50E0682F70E025
:10081000ED91FC91119704A0F5A1E02DEE24EA944E
:10082000FE2C20E530E0CD0109951F910F91FF903E
:10083000EF900895482FE62F282F30E0863009F4F6
:1008400059C000F58330E1F1853009F44FC04830DC
:10085000E0F14E3010F1443108F063C02E50310900
:1008600081E090E0A0E0B0E004C0880F991FAA1FCB
:10087000BB1F2A95D2F728B1EE2309F44FC0822B73
:1008800088B908958A30C9F18B30D9F18930F9F6E9
:10089000809180008F77809380002850310981E01B
:1008A00090E0A0E0B0E004C0880F991FAA1FBB1F12
:1008B0002A95D2F7E1112EC025B1809582232CC054
:1008C0009091B0009F7D9093B00081E090E0A0E017
:1008D000B0E004C0880F991FAA1FBB1F4A95D2F72A
:1008E0002BB1EE23A1F0822B8BB9089594B59F7D97
:1008F00094BDEBCF94B59F77FBCF809180008F7D27
:10090000CACF8091B0008F778093B000C6CF80951A
:100910008223EACF25B1822B85B908958095822361
:10092000AFCF089508950895CF92DF92EF92FF928E
:100930000F931F93613009F460C0623009F499C0CD
:100940008830B8F42AB141E050E060E070E06A011C
:100950007B0104C0CC0CDD1CEE1CFF1C8A95D2F779
:10096000C6018095922F98239AB99BB189238BB9A0
:100970003DC08E30B8F424B1082F0850110B81E02F
:1009800090E0A0E0B0E004C0880F991FAA1FBB1F31
:100990000A95D2F78095922F982394B995B189231F
:1009A00085B924C0843110F5E7B190E09C012E5048
:1009B000310941E050E060E070E06A017B0104C071
:1009C000CC0CDD1CEE1CFF1C2A95D2F7860100958D
:1009D0000E2307B928B1089704C0440F551F661F9E
:1009E000771F8A95D2F74095422348B91F910F91FE
:1009F000FF90EF90DF90CF900895883090F42AB167
:100A000041E050E060E070E07A018B0104C0EE0C40
:100A1000FF1C001F111F8A95D2F7C701822B8AB9CC
:100A2000E5CF8E3090F424B1082F0850110B81E0EF
:100A300090E0A0E0B0E004C0880F991FAA1FBB1F80
:100A40000A95D2F7822B84B9D1CF843178F627B1B9
:100A5000682F6E50770B81E090E0A0E0B0E004C01A
:100A6000880F991FAA1FBB1F6A95D2F7822B87B9DF
:100A7000BDCF8830B0F43AB141E050E060E070E0C2
:100A80006A017B0104C0CC0CDD1CEE1CFF1C8A95A6
:100A9000D2F7C6012C2D209523232AB92BB1822B06
:100AA00066CF8E30B0F434B1082F0850110B81E0BE
:100AB00090E0A0E0B0E004C0880F991FAA1FBB1F00
:100AC0000A95D2F7282F2095232324B925B1822B0C
:100AD00067CF843108F08ACF37B1682F6E50770B1B
:100AE00081E090E0A0E0B0E004C0880F991FAA1F49
:100AF000BB1F6A95D2F7282F2095232327B928B149
:100B0000822B88B973CFAF92BF92CF92DF92EF92D0
:100B1000FF920F931F93CF93DF936C017B018B01A7
:100B2000040F151FEB015E01AE18BF08C017D107F7
:100B300059F06991D601ED91FC910190F081E02D81
:100B4000C6010995892B79F7C501DF91CF911F91D6
:100B50000F91FF90EF90DF90CF90BF90AF900895EE
:100B6000FC01538D448D252F30E0842F90E0821BB3
:100B7000930B541710F0CF96089501970895FC0138
:100B8000918D828D981761F0A28DAE0FBF2FB11D90
:100B90005D968C91928D9F5F9F73928F90E00895E8
:100BA0008FEF9FEF0895FC01918D828D981731F0A2
:100BB000828DE80FF11D858D90E008958FEF9FEFF6
:100BC0000895FC01918D228D892F90E0805C9F4FCC
:100BD000821B91098F739927089581ED93E00E94FC
:100BE000E10521E0892B09F420E0822F089580E0BF
:100BF00090E0892B29F00E94ED0581110C940000F2
:100C00000895FC01A48DA80FB92FB11DA35ABF4FA1
:100C10002C91848D90E001968F739927848FA689FB
:100C2000B7892C93A089B1898C91837080648C934F
:100C3000938D848D981306C00288F389E02D8081FE
:100C40008F7D80830895EF92FF920F931F93CF9330
:100C5000DF93EC0181E0888F9B8D8C8D98131AC0F7
:100C6000E889F989808185FF15C09FB7F894EE89DE
:100C7000FF896083E889F98980818370806480833B
:100C80009FBF81E090E0DF91CF911F910F91FF9086
:100C9000EF900895F62E0B8D10E00F5F1F4F0F732E
:100CA0001127E02E8C8D8E110CC00FB607FCFACFE9
:100CB000E889F989808185FFF5CFCE010E94010680
:100CC000F1CFEB8DEC0FFD2FF11DE35AFF4FF082BA
:100CD0009FB7F8940B8FEA89FB8980818062CFCF20
:100CE000CF93DF93EC01888D8823B9F0AA89BB8963
:100CF000E889F9898C9185FD03C0808186FD0DC04E
:100D00000FB607FCF7CF8C9185FFF2CF808185FF6E
:100D1000EDCFCE010E940106E9CFDF91CF9108957A
:100D20003FB7F89480915C0390915D03A0915E03BE
:100D3000B0915F0326B5A89B05C02F3F19F001961F
:100D4000A11DB11D3FBFBA2FA92F982F8827BC0125
:100D5000CD01620F711D811D911D43E0660F771F4C
:100D6000881F991F4A95D1F708958F929F92AF924D
:100D7000BF92CF92DF92EF92FF926B017C010E94B3
:100D800090064B015C010E949006681979098A0956
:100D90009B09683E734081059105A8F381E0C81A5C
:100DA000D108E108F10828EE820E23E0921EA11C72
:100DB000B11CC114D104E104F10429F7FF90EF90B4
:100DC000DF90CF90BF90AF909F908F90089585ED6A
:100DD0008093BC008091BC0084FDFCCF1092A803DE
:100DE000089520913403260F3327331F2132310514
:100DF000ECF42091A803FC0190E080E0243069F03D
:100E000082E00895A09134032191AC014C5E5C4FC7
:100E1000A40FB52FB11D2C930196861798F38091DE
:100E20003403680F6093340380E0089581E00895EF
:100E30000895E091670380916603E81730F4F0E0CD
:100E4000EC50FD4F808190E008958FEF9FEF089563
:100E500090916703809166032FEF3FEF981748F456
:100E6000E92FF0E0EC50FD4F208130E09F5F909340
:100E70006703C90108958091660390916703891BF8
:100E8000990B0895CF92DF92EF92FF920F931F93E9
:100E9000CF93DF937C01CB018A012091A903222308
:100EA00089F0EB016B01C40ED51ECC15DD0569F090
:100EB0006991D701ED91FC910190F081E02DC7017E
:100EC0000995F3CF642F0E94F106C801DF91CF91FD
:100ED0001F910F91FF90EF90DF90CF900895CF93E7
:100EE000DF931F92CDB7DEB769832091A903222338
:100EF000F9F02091CC03203258F021E030E0FC01E1
:100F00003383228390E080E00F90DF91CF910895AA
:100F10008091AA03E82FF0E0E555FC4F998190837A
:100F20008F5F8093AA038093CC0381E090E0ECCFA5
:100F300061E0CE0101960E94F106F7CFFC01A5A168
:100F4000B6A18C9192A589238C93A5A1B6A18C9171
:100F500091A5892B8C9308950F931F93CF93DF93C3
:100F6000EC018B018DA981110DC01EBD0DB407FED2
:100F7000FDCF0EBD0DB407FEFDCFDF91CF911F91C8
:100F80000F9108958130E9F480E1E9A1FAA19081FF
:100F900017FF14C02DA1922B9083EBA1FCA190818F
:100FA0002FA1922B9083EBA1FCA1908128A59223E5
:100FB0009083000F111F815041F7DFCF2EA19223A4
:100FC000EBCFEF8DF8A11083CE010E949E07EF8D2D
:100FD000F8A10083CE01DF91CF911F910F910C9466
:100FE0009E07FC0185A9811105C06EBD0DB407FEE9
:100FF000FDCF08958130E1F488E0A1A1B2A19C91D8
:1010000067FF13C025A1922B9C93A3A1B4A19C912F
:1010100027A1922B9C93660FA3A1B4A19C9120A51C
:1010200092239C93815049F7089526A19223ECCFF7
:10103000A78DB0A16C93CF010C949E07CF93DF9343
:10104000EC01ED8DFE8D80819CA989238083CE01EA
:101050000E94F107ED8DFE8D80819BA9892B8083F5
:10106000DF91CF910895FC0185A9811104C091A160
:1010700082A19CBD8DBD08951F93CF93DF93EC019A
:10108000162FE881F9810284F385E02D099511235B
:1010900071F06DADCE010E941E08E881F9810688CD
:1010A000F789E02DCE01DF91CF911F9109946EADAC
:1010B000F1CFAF92BF92CF92DF92EF92FF920F9358
:1010C0001F93CF93DF93EC0177FD38C08885998516
:1010D000681779079CF557FD31C08A859B854817AD
:1010E000590764F569017A015B01E881F98102849D
:1010F000F385E02DCE010995E881F98102A4F3A5DD
:10110000E02D01E010E021E030E0A701B501CE01C3
:101110000995B601CE010E94AC07E881F9810688E5
:10112000F789E02DCE01DF91CF911F910F91FF90B4
:10113000EF90DF90CF90BF90AF900994DF91CF9167
:101140001F910F91FF90EF90DF90CF90BF90AF90E5
:1011500008958F929F92AF92BF92CF92DF92EF92BB
:10116000FF920F931F93CF93DF93EC014901570137
:10117000E881F98102A4F3A5E02D09959401D80135
:101180000E9476306B017C01C114D104E104F104AA
:1011900009F490C08DA9811115C081E0C81AD10849
:1011A000E108F1088FEFC816D806E806F80609F43A
:1011B00081C0BEBC0DB407FEFDCFAEBC0DB407FEB2
:1011C000FDCFEBCF813009F045C081E0C81AD108CE
:1011D000E108F1088FEFC816D806E806F80609F40A
:1011E00069C09B2D88E0E9A1FAA1208197FF2CC05E
:1011F0003DA1232B2083EBA1FCA120813FA1232B28
:101200002083EBA1FCA1208138A523232083990F03
:10121000815049F79A2D88E0E9A1FAA1208197FF32
:1012200016C03DA1232B2083EBA1FCA120813FA16F
:10123000232B2083EBA1FCA1208138A5232320832D
:10124000990F815049F7C1CF3EA12323D3CF3EA1AF
:101250002323E9CFBA1016C0CC0CDD1CEE1CFF1CFA
:10126000EF8DF8A1B08281E0C81AD108E108F10839
:101270008FEFC816D806E806F806E1F0CE010E9406
:101280009E07F1CF81E0C81AD108E108F1088FEF7D
:10129000C816D806E806F80669F0EF8DF8A1B08206
:1012A000CE010E949E07EF8DF8A1A082CE010E9480
:1012B0009E07E8CFDF91CF911F910F91FF90EF90A4
:1012C000DF90CF90BF90AF909F908F9008958F92B6
:1012D0009F92AF92BF92CF92DF92EF92FF920F93C5
:1012E0001F93CF93DF935C014B016A01E90177FD06
:1012F00052C0DC0118968D919C91681779070CF00B
:101300004AC0209709F447C037FF07C0C9010196BA
:10131000C80ED91ED195C195D109F5018285938555
:10132000C816D906C4F5A6014C0F5D1F9A012150BD
:10133000310937FD30C0D7FE03C0EA01D12CC12CE2
:10134000281739071CF0EC01CC19DD09D501ED9106
:10135000FC910284F385E02DC501099578018E0189
:1013600021E030E0A601B401C5010E94A908D50121
:10137000ED91FC910688F789E02DC501DF91CF91B1
:101380001F910F91FF90EF90DF90CF90BF90AF90A3
:101390009F908F900994DF91CF911F910F91FF90B3
:1013A000EF90DF90CF90BF90AF909F908F90089577
:1013B0008F929F92AF92BF92CF92DF92EF92FF9265
:1013C0000F931F93CF93DF935C016B014A01E901F7
:1013D00057FD52C0DC011A968D919C914817590710
:1013E0000CF04AC0209709F447C037FF07C0C90175
:1013F0000196C80ED91ED195C195D109F5018085F8
:101400009185C816D906C4F5A6014C0F5D1F9A0137
:101410002150310937FD30C0D7FE03C0EA01D12C7D
:10142000C12C281739071CF0EC01CC19DD09D501B6
:10143000ED91FC910284F385E02DC50109957801B9
:1014400001E010E09E01A401B601C5010E94A908B7
:10145000D501ED91FC910688F789E02DC501DF915A
:10146000CF911F910F91FF90EF90DF90CF90BF90A1
:10147000AF909F908F900994DF91CF911F910F9122
:10148000FF90EF90DF90CF90BF90AF909F908F90A4
:1014900008958F929F92AF92BF92CF92DF92EF9278
:1014A000FF920F931F93CF93DF934C016B015A016F
:1014B000E901209709F46CC00115110509F468C011
:1014C00037FF07C0C9010196C80ED91ED195C19535
:1014D000D109F401A085B185CA16DB060CF058C00D
:1014E00017FF07C0C8010196A80EB91E11950195F6
:1014F0001109F40182859385A816B9060CF048C03D
:10150000F601EC0FFD1FAF014150510957FD40C0DE
:10151000B501600F711F9B012150310937FD38C0A3
:10152000D7FE03C0EF01D12CC12CB7FE03C08B0145
:10153000B12CA12C4A175B071CF0ED01CC19DD0979
:10154000281739071CF08C010A191B09D401ED91E9
:10155000FC910284F385E02DC40109959E01A5014B
:10156000B601C4010E94A908D401ED91FC9106883E
:10157000F789E02DC401DF91CF911F910F91FF906A
:10158000EF90DF90CF90BF90AF909F908F90099495
:10159000DF91CF911F910F91FF90EF90DF90CF904F
:1015A000BF90AF909F908F900895EF92FF920F930E
:1015B0001F93CF93DF9377FD32C0DC011896ED9136
:1015C000FC916E177F075CF52115310541F137FF5E
:1015D00007C0F90131964E0F5F1F319521953109F2
:1015E000DC011A96ED91FC914E175F07C4F4EA01F5
:1015F000C20FD31FDE011197B7FD11C057FF03C003
:101600009E0150E040E0AE17BF071CF09F01241B75
:10161000350B7801890121E030E00E94A908DF91B3
:10162000CF911F910F91FF90EF900895EF92FF924D
:101630000F931F93CF93DF9357FD31C0DC011A96B0
:10164000ED91FC914E175F0754F52115310539F1E5
:1016500037FF07C0F90131966E0F7F1F3195219535
:101660003109DC011896ED91FC916E177F07BCF4EF
:10167000EB01C20FD31FDE011197B7FD10C077FF3A
:1016800003C09E0170E060E0AE17BF071CF09F0131
:10169000261B370B780101E010E00E94A908DF91BA
:1016A000CF911F910F91FF90EF9008958F929F928D
:1016B000AF92BF92CF92DF92EF92FF920F931F9360
:1016C000CF93DF9347012115310509F44BC0011574
:1016D000110509F447C037FF07C0F90131966E0FB5
:1016E0007F1F319521953109DC011896AD90BC9092
:1016F0006A157B05BCF517FF07C0F80131964E0F40
:101700005F1F119501951109DC011A96ED91FC916D
:101710004E175F073CF56B01C20ED31EE601219701
:10172000D7FD20C07A01E00EF11ED7011197B7FD59
:1017300019C077FF03C0960170E060E057FF03C057
:10174000870150E040E0CA15DB051CF09501261B1F
:10175000370BAE17BF071CF08F01041B150B74016C
:101760000E94A908DF91CF911F910F91FF90EF90F8
:10177000DF90CF90BF90AF909F908F900895EF92A1
:10178000FF920F931F93CF93DF93EC0177FD22C05D
:101790008885998568177907ECF457FD1BC08A8501
:1017A0009B8548175907B4F47901E881F98102A4AF
:1017B000F3A5E02D01E010E021E030E0CE01099535
:1017C000B701CE01DF91CF911F910F91FF90EF9064
:1017D0000C94AC07DF91CF911F910F91FF90EF9088
:1017E0000895CF93DF93EC010E9433088FA987FD02
:1017F00006C0EB8DFC8D80819AA989238083DF91BF
:10180000CF9108950895FC016370668B8481958162
:1018100026813781613039F0633029F091878087E4
:101820003387228708953187208793878287089599
:101830002F923F924F925F926F927F928F929F92E0
:10184000AF92BF92CF92DF92EF92FF920F931F93CE
:10185000CF93DF93CDB7DEB76A970FB6F894DEBFAC
:101860000FBECDBF9A8F898F7A8369834A01D22EAA
:1018700018870F833701BC2CDC0159962D913C91C0
:101880005A972115310509F015C118968D919C9133
:101890001997681779070CF0D7C11A968D919C910A
:1018A000481759070CF0D0C14C2C512CB6E0CB9EF8
:1018B000600D711D11247C876B87161617060CF0BE
:1018C000C3C1EA2DF0E0FA87E98793E0EE0FFF1F2E
:1018D0009A95E1F7F88BEF87CF01840F951F1816C3
:1018E00019060CF0B1C1A98DBA8D58968C91811151
:1018F00004C0BFEABD1508F4D394A98DBA8DED914B
:10190000FC9111970284F385E02DCD010995B5E096
:10191000DB9EC0011124E981FA81FC83EB83312C29
:10192000212C9C0125523E4F388F2F8B4A2D50E0A1
:101930005E8B4D8BEF89F88DE20DF31D44919E82F5
:101940008D82D12CC12C69817A81620D731D7A8BB5
:10195000698B842F90E09C8B8B8BE98DFA8DA08115
:10196000B18140FF82C0F1E0BF126FC0AF126DC005
:101970001C96ED91FC912F813885A4014C0D5D1DC5
:1019800069897A89898D9A8D0995EB89FC89F59504
:10199000E7954E2F5FEFC51AD50A6D817E818D893F
:1019A0009E89680F791F7E836D8398E0C916D104E4
:1019B00081F6AFEF2A1A3A0AEB81FC81E40DF51D9E
:1019C000FC83EB83F5E02F16310409F0B3CF2F81B0
:1019D000388526153705B9F0A98DBA8DED91FC91A2
:1019E000B1E0BB1257C0AB1255C069817A816B5F01
:1019F0007F4F0088F189E02D830128E030E0A401C9
:101A0000898D9A8D0995A98DBA8DED91FC911197CB
:101A10000688F789E02DCD016A960FB6F894DEBFEF
:101A20000FBECDBFDF91CF911F910F91FF90EF902F
:101A3000DF90CF90BF90AF909F908F907F906F90EE
:101A40005F904F903F902F9009941E96ED91FC91DE
:101A5000EF80F88409851A8592014D815E816B8142
:101A60007C81898D9A8D099590CF2F813885261597
:101A7000370509F48ACF31E0B31207C0A31205C0BD
:101A80001C96ED91FC91930178CF1E96ED91FC91FF
:101A90007301E0CF6B857C85641975090684F78531
:101AA000E02D73010F8518899201A401898D9A8D0B
:101AB0000995A9CFF90134969491329745915491A3
:101AC000D91AB7E0DB9E400D511D1124F901259173
:101AD00034913C8B2B8BFA0125903490FA0132968D
:101AE000749031963491398B32966490319644904B
:101AF00041E04C1518F04A1508F07FC0662D062C01
:101B0000000C770B7C836B83842D042C000C990BC9
:101B10009E838D83A98DBA8DED91FC9111970284DE
:101B2000F385E02DCD010995512CD12CC12CEA2D46
:101B3000F0E0FA87E9872B2D30E03C872B87A40162
:101B4000440D511D47FC5A95588F4F8B69817A81FE
:101B5000660D711D67FC7A957E876D877989C7163A
:101B600008F051CF2C2D30E04D815E81420F531F84
:101B7000A985BA854A9FC0014B9F900D5A9F900D31
:101B80001124FC01E80DF91DF88BEF87852D612CE0
:101B90004F89588D420F531F5E8B4D8B671408F091
:101BA00050C044244394480E877041F4C10101960B
:101BB000EB89FC89E20DF31DD4901C01D7FE19C0FE
:101BC000A98DBA8DED91FC91662D70E0B1E0BB124C
:101BD00019C0AB1217C02D853E85620F731F048498
:101BE000F585E02D2F8138854D895E89898D9A8D07
:101BF0000995DD0C6394842DD1CF1E821D821C8239
:101C00001B8288CF4B815C81640F751FAB85BC85BF
:101C10006A9FC0016B9F900D7A9F900D112469817E
:101C20007A81680F791F0684F785E02DEF80F884AC
:101C300009851A859D014F855889898D9A8D099549
:101C4000D8CF570CC3948ACF6A960FB6F894DEBFEC
:101C50000FBECDBFDF91CF911F910F91FF90EF90FD
:101C6000DF90CF90BF90AF909F908F907F906F90BC
:101C70005F904F903F902F9008958F929F92AF92D8
:101C8000CF92EF92FF920F931F93CF93DF93EC01CC
:101C9000262F898D9A8D009709F051C06A30D1F4B2
:101CA0001D861C868D8948E0849F900111248E85B5
:101CB0009F85820F931F9F878E8781E090E0DF9141
:101CC000CF911F910F91FF90EF90CF90AF909F9089
:101CD0008F9008956D3089F3CC88AD888F898823E3
:101CE000C1F08C859D8536E0C39E800D911D112429
:101CF000488559854817590764F44E855F851D86C8
:101D00001C8638E0A39EC0011124840F951F9F8775
:101D10008E87EA88FB88088919894E855F856C85DE
:101D20007D85CE010E94180C2C898C859D8546E00E
:101D3000249F800D911D11249D878C87BECF6A3012
:101D400069F41D861C86FC013896E4912D898E85E8
:101D50009F85E29F800D911D1124ADCF6D3009F458
:101D6000ACCFFC0134963491631708F4A6CF3296B9
:101D7000E491E61708F4A1CFFC0132968590949087
:101D8000462F431B342F47E0349F800C911C1124B5
:101D9000F401329634913196E4913323A9F1EE2384
:101DA00099F1CC88F4013596E491AD884F894423AC
:101DB00001F10E2E000CFF0BE30FF11DCE9EA001D2
:101DC000CF9E500D11246C857D85460F571F688569
:101DD0007985641775076CF44E855F851D861C86B2
:101DE000FC013896E491AE9E400D511D11245F8791
:101DF0004E87EA88FB88088919894E855F856C853E
:101E00007D85CE010E94180CF4013496E4912C8952
:101E10008C859D85E29F800D911D11248DCF6F9241
:101E20007F928F929F92AF92BF92CF92DF92EF926A
:101E3000FF920F931F93CF93DF93EC016B015A0135
:101E400039014801E881F9810284F385E02D099583
:101E5000E881F9810288F389E02D87019301A501CA
:101E6000B601CE010995A501480D591D41505109F2
:101E7000E881F9810288F389E02D9301B601CE0152
:101E80000995E881F9810088F189E02D9401A50187
:101E9000B601CE010995C60CD71CB6016150710977
:101EA000E881F9810088F189E02D9401A501CE0136
:101EB0000995E881F9810688F789E02DCE01DF9147
:101EC000CF911F910F91FF90EF90DF90CF90BF9037
:101ED000AF909F908F907F906F9009946F927F92B8
:101EE0008F929F92AF92BF92CF92DF92EF92FF922A
:101EF0000F931F93CF93DF935C01EB016A014901BC
:101F000038018701DC01ED91FC916217730719F527
:101F1000641675062CF0962D872D3A01C92ED82E01
:101F20009601261937092F5F3F4F048CF58DE02D60
:101F3000A301BE01C5010995DF91CF911F910F91BA
:101F4000FF90EF90DF90CF90BF90AF909F908F90D9
:101F50007F906F9008954615570591F4261737071F
:101F600024F0892D4B01C22FD82F9E012819390941
:101F70002F5F3F4F068CF78DE02DA601B401DACF1D
:101F80000284F385E02D0995D501ED91FC9104883B
:101F9000F589E02D83019401A601BE01C5010995D3
:101FA000D501ED91FC910688F789E02DC501DF91FF
:101FB000CF911F910F91FF90EF90DF90CF90BF9046
:101FC000AF909F908F907F906F900994EF92FF92C7
:101FD0000F931F93DC011A960D911C911B97189675
:101FE0002D913C911997ED91FC9100A0F1A1E02D6C
:101FF0007B0150E040E070E060E009951F910F9197
:10200000FF90EF9008954F925F926F927F928F9220
:102010009F92AF92BF92CF92DF92EF92FF920F9377
:102020001F93CF93DF936C012B015A0139014801B3
:10203000DC01ED91FC910284F385E02D0995E2012C
:10204000640C751CD601ED91FC91C615D7055CF4A6
:102050000088F189E02D87019401A501BE01C60128
:1020600009952196EFCF0688F789E02DC601DF910B
:10207000CF911F910F91FF90EF90DF90CF90BF9085
:10208000AF909F908F907F906F905F904F9009944A
:102090008F929F92AF92BF92CF92DF92EF92FF9278
:1020A0000F931F93CF93DF93EC015B014A0169010A
:1020B000E881F9810284F385E02D099595012C0DC5
:1020C0003D1D21503109E881F9810488F589E02D11
:1020D00078018401A401B501CE010995E881F98157
:1020E0000688F789E02DCE01DF91CF911F910F91E6
:1020F000FF90EF90DF90CF90BF90AF909F908F9028
:1021000009948F929F92AF92BF92CF92DF92EF92FB
:10211000FF920F931F93CF93DF93EC015B014A0172
:1021200069017801E881F9810284F385E02D099540
:10213000C80CD91C860101501109E881F981048875
:10214000F589E02D9501A401B501CE010995E8813D
:10215000F9810688F789E02DCE01DF91CF911F919B
:102160000F91FF90EF90DF90CF90BF90AF909F9036
:102170008F900994EF92FF920F931F93DC01ED91E2
:10218000FC9100A0F1A1E02D09951F910F91FF9006
:10219000EF9008950F931F93DC01ED91FC91068C55
:1021A000F78DE02D09951F910F9108950F931F93BF
:1021B000DC01ED91FC91048CF58DE02D09951F91CA
:1021C0000F910895DC01ED91FC910084F185E02DE3
:1021D00009942F923F924F925F926F927F928F92CB
:1021E0009F92AF92BF92CF92DF92EF92FF920F93A6
:1021F0001F93CF93DF9300D000D000D0CDB7DEB7D0
:102200003C016A013E832D83FC82EB825801A41AB3
:10221000B50AB7FE03C0B194A194B1088D809E8029
:10222000861A970A97FE03C09194819491088A14A4
:102230009B045CF0902F812F0D811E819D838E83E6
:102240009C2D8D2D6B01692F782F0C151D055CF0D1
:102250009D818E817E836D83692F782F902F812FB2
:102260008601C92ED82E1601201A310A2B012D8184
:102270003E81421A530A57FE03C0519441945108BB
:10228000710137FE03C03FEFE31AF30AF594E794B8
:102290008D819E81861797075CF5A1E0B0E0BA8337
:1022A000A983C016D1064CF1D301ED91FC910484B1
:1022B000F585E02D2B813C81A8016D817E818A14FA
:1022C0009B041CF04D815E81B801C3010995E4189F
:1022D000F508F7FE0AC02D813E8189819A81280F79
:1022E000391F3E832D83E20CF31C0F5F1F4FD9CFA4
:1022F0002FEF3FEF3A832983D4CF26960FB6F89479
:10230000DEBF0FBECDBFDF91CF911F910F91FF9028
:10231000EF90DF90CF90BF90AF909F908F907F9085
:102320006F905F904F903F902F900895AF92BF9223
:10233000CF92DF92EF92FF920F931F93CF93DF9391
:10234000EC015B016A01215031097901E60EF71EAB
:1023500001501109040F151F80910C0190910D017E
:102360008617970739F480910A0190910B018E1519
:102370009F05A1F06AE2CE010E941E08B501CE01C0
:102380000E94AC07B701CE010E94AC07B0920D01CC
:10239000A0920C01F0920B01E0920A0180910801D9
:1023A000909109018C159D0539F480910601909159
:1023B000070180179107A1F06BE2CE010E941E0871
:1023C000B601CE010E94AC07B801CE010E94AC0755
:1023D000D0920901C09208011093070100930601F1
:1023E0006CE2CE01DF91CF911F910F91FF90EF90A2
:1023F000DF90CF90BF90AF900C941E08089590E0AE
:1024000080E00895E0EBF0E080818F7D8083109282
:10241000B10060E083E00C941A04CF93DF93C82FDF
:10242000D62F81E080930501109204010E940212D0
:102430002C2F30E050E040E060EA7FE080E090E068
:102440000E945730A3EBB0E02C93E4EBF0E08081E6
:102450008C918D9FC001112464E670E00E942130B0
:102460006083808185E0809305018AEF8093040179
:10247000DF91CF910895CF93DF93DC0116968C9175
:102480001697882399F08D919C91119713969C93A0
:102490008E93129781E090E015969C938E931497FB
:1024A00014968D919C911597892BD1F713961C92B8
:1024B0001E921297862F90E081509048880F991FA6
:1024C000840F951FEC01E881F98185919491119613
:1024D0009C938E9315961C921E92149716966C934D
:1024E00081E0DF91CF910895CF93C82F811109C06A
:1024F00060E085E00E941A0484B58F7D84BDCF9191
:102500000895843640F084B58F7D84BD61E085E018
:10251000CF910C941A0460E085E00E941A0484B5FF
:102520008F7D84BD87B58C9FC001112464E670E067
:102530000E94213068BD88B5882309F398B587B516
:10254000981720F784B58062D9CF809178038823CB
:1025500079F08091760390917703892B49F08091EF
:102560007603909177030197909377038093760396
:1025700080917103882379F080916F0390917003AB
:10258000892B49F080916F0390917003019790938C
:10259000700380936F03089580916D0390916E0393
:1025A000019690936E0380936D0320916D0330919B
:1025B0006E0380916B0390916C038217930738F43C
:1025C00060E086E00E941A04109271030895A091C1
:1025D000710380916D0390916E03A150BB0BAA0F04
:1025E000BB1FAD59BE4F880F991F880F991FED91E2
:1025F000FC91E80FF91F859194919093700380935B
:102600006F03A0917103E0916D03F0916E03A150EF
:10261000BB0BAA0FBB1FAD59BE4FEE0FFF1FEE0F36
:10262000FF1FCF010297ED91FC91E80FF91F8591F3
:10263000949161E0892B09F460E086E00C941A041F
:1026400090917103981750F4682F43E651E08BE6A0
:1026500093E00E943B1281110C94CC120895E0E8A3
:10266000F0E080818F7D808360E08AE00E941A0420
:10267000109281000895CF93DF938091740390911D
:1026800075030196909375038093740320917403EE
:1026900030917503809172039091730382179307B1
:1026A00038F40E942F1310927803DF91CF91089590
:1026B000A09178038091740390917503A150BB0B96
:1026C000AA0FBB1FA55ABE4F880F991F880F991FCD
:1026D000ED91FC91E80FF91F859194919093770308
:1026E00080937603A0917803E0917403F0917503D1
:1026F000A150BB0BAA0FBB1FA55ABE4FEE0FFF1F69
:10270000EE0FFF1FCF010297ED91FC91E80FF91F2B
:10271000C591D4910E942F13209709F4C6CF9E0132
:1027200050E040E069E07DE380E090E00E945730B7
:10273000309389002093880020918800309189008F
:10274000AEE1B0E00E947E3024E630E040E050E0B0
:102750000E94353030938B0020938A008091800056
:1027600080628093800084E1809381009ECF90916D
:102770007803981750F4682F4BE551E082E793E017
:102780000E943B1281110C943B130895229A60E041
:102790008AE00E941A04569A60E086E00E941A04B9
:1027A000559A60E085E00E941A0483E080938000DF
:1027B00010928100109289001092880010928B0074
:1027C00010928A0008958091AA0291E0892780934F
:1027D000AA029091A902911107C0882329F082E3EF
:1027E0008093A9020E9474120895CF93C091AA0207
:1027F000CC2349F0823051F08130D1F08430D1F0D7
:10280000833031F1C0E08C2FCF9108958CEE909100
:10281000A902482F552741950CF450959417150699
:10282000CCF41092A9028091A9020E947412EBCFFD
:1028300086EFEDCF84E19091A902492F480F5527EB
:10284000551F4536510534F084E68093A902EBCF3D
:102850008AE0F1CF890FF9CF0895AF92BF92CF925E
:10286000DF92EF92FF920F931F93CF93DF93EC01D0
:10287000E62E8A01A22E0E9433088FA987FD06C08A
:10288000EB8DFC8D80819AA989238083ED8DFE8D4F
:1028900080819CA9892380836E2DCE010E94F1073F
:1028A000ED8DFE8D80819BA9892B8083D12CC12C3D
:1028B000B12CCA14DB04E4F48DA97801823079F4D8
:1028C00088A9882361F0F801619171917F01CE019F
:1028D0000E94AC07FFEFCF1ADF0A8701EACFFFEFB4
:1028E000EF1AFF0AF8016491CE010E94F107F2CFBE
:1028F0008FA987FD06C0EB8DFC8D808199A9892B5E
:102900008083DF91CF911F910F91FF90EF90DF9027
:10291000CF90BF90AF900895611106C060E220E0B3
:1029200050E040E00C942D1461E2F9CFFC0187A93E
:1029300087FD06C0A38DB48D9C9181A9892B8C93B2
:1029400008950F931F93CF93DF931F92CDB7DEB7F8
:102950008C016370DC0156966C935697623009F4D3
:1029600068C0633009F46AC0613009F456C088E475
:10297000898380EF90E019969C938E93189780E45A
:1029800091E01B969C938E931A97C8010E9433087E
:10299000D801D7968C91D79787FD09C05B96ED91AA
:1029A000FC915C978081D2969C9189238083D80189
:1029B0005D96ED91FC915E978081D4969C918923E0
:1029C000808366E3C8010E94F107D8015D96ED910E
:1029D000FC915E978081D3969C91D397892B8083BD
:1029E000D5968C91823061F16981C8010E94F1070E
:1029F000D801D7968C91D79787FD09C05B96ED914A
:102A0000FC915C978081D1969C91892B80830F905B
:102A1000DF91CF911F910F91089588E2898380E41F
:102A200091E0F8019187808780EF90E0938782871B
:102A3000ACCF88E8898380EF90E09DCF88EEEECF21
:102A4000F80180A9882381F269817A81C8010E94F6
:102A5000AC07CECFE091CF03F091D003938B828B64
:102A6000918B808B08953F924F925F926F927F92ED
:102A70008F929F92AF92BF92CF92DF92EF92FF928E
:102A80000F931F93CF93DF93CDB7DEB72A970FB67F
:102A9000F894DEBF0FBECDBF182F562E4A0180918D
:102AA000CF039091D0039A878987A02FB0E0BA8393
:102AB000A983622E712CDC01ED91FC910284F385D7
:102AC000E02D0995C30107969C0193E03595279564
:102AD0009A95E1F73C832B83B12CA12CD12CC12CEE
:102AE000312C852D90E09E838D83A12FB0E0B88797
:102AF000AF834D805E804C0C5D1C29813A81C216EB
:102B0000D3069CF510E000E00615170534F5C80162
:102B100087709927330C892B59F4F80183E0F595D8
:102B2000E7958A95E1F7EA0DFB1DE80DF91D349054
:102B300037FE10C0A985BA85ED91FC9111970484E8
:102B4000F585E02D9701A2016F817885600F711FD7
:102B5000CD0109950F5F1F4FD7CFBFEFCB1ADB0A0F
:102B60002B813C81A20EB31EC4CFA985BA85ED91FD
:102B7000FC9111970688F789E02DCD012A960FB6B2
:102B8000F894DEBF0FBECDBFDF91CF911F910F91A3
:102B9000FF90EF90DF90CF90BF90AF909F908F907D
:102BA0007F906F905F904F903F900994EF92FF92CB
:102BB0000F931F93CF93DF93C091CF03D091D00396
:102BC000A22FB0E0242F30E0462F50E0682F70E0B5
:102BD000E881F98106A0F7A1E02D78018D01CE01F1
:102BE0000995DF91CF911F910F91FF90EF9008957C
:102BF000EF92FF920F931F93CF93DF93C091CF0378
:102C0000D091D003A22FB0E0242F30E0462F50E027
:102C1000682F70E0E881F98100A0F1A1E02D780132
:102C20008D01CE010995DF91CF911F910F91FF90FA
:102C3000EF900895319907C081E02091CF03309142
:102C4000D003232B09F480E008952FB7F894609106
:102C5000790370917A0380917B0390917C032FBF5D
:102C600008958F929F92AF92BF92CF92DF92EF9290
:102C7000FF920F934B015C0169017A010023C1F0BF
:102C80006091790370917A0380917B0390917C032A
:102C9000C80CD91CEA1CFB1CC814D904EA04FB04A8
:102CA00050F4681579058A059B05B0F0E0E009C08D
:102CB0000E942516EDCFE1E06C157D058E059F0580
:102CC000A8F38E2F0F91FF90EF90DF90CF90BF90E1
:102CD000AF909F908F900895A7019601285D3E4F79
:102CE0004F4F5F4FE1E0621773078407950748F77E
:102CF000DDCF8F929F92AF92BF92CF92DF92EF92F1
:102D0000FF926B017C010E9425164B015C01C80CEF
:102D1000D91CEA1CFB1CC814D904EA04FB0468F49F
:102D20000E942516681579058A059B05C8F789E272
:102D3000C80E81E0D81EE11CF11C0E9425166C15FE
:102D40007D058E059F05C8F3FF90EF90DF90CF9033
:102D5000BF90AF909F908F9008956FB7F894509167
:102D600011014091100130910F012091CE039091FB
:102D7000CD036FBF823089F038F4813059F0852F50
:102D800090E08053984F0895833049F08430B9F72C
:102D9000892F01C0842F90E00895832FFCCF822FCC
:102DA000FACFCF93DF93CDB7DEB72C970FB6F89459
:102DB000DEBF0FBECDBF8CE0EFE1F1E0DE0111968A
:102DC00001900D928A95E1F780911001823011F502
:102DD0002091110130E02053384FC90183709927A9
:102DE000892B39F4C90164E670E00E940D30892B0B
:102DF000C1F4C90160E971E00E940D30892B89F0AE
:102E00008CE12C960FB6F894DEBF0FBECDBFDF91DC
:102E1000CF910895E0911001EC0FFD2FF11D8081FD
:102E2000F0CF8DE1EECF8F929F92AF92BF92DF9263
:102E3000EF92FF920F931F93CF93DF937C018EE865
:102E400080937A0010E4D0E0C0E0DD24DA940E94A0
:102E500025164B015C01D092980280917A00806423
:102E600080937A00809198028F3F69F400E02AE015
:102E700030E040E050E0C501B4010E9431168823E3
:102E800089F380E014C080919802C80FD11D1150C1
:102E9000F1F610927A0085E0D695C7958A95E1F70C
:102EA000F701D183C083138281E0CD2B51F3DF91F1
:102EB000CF911F910F91FF90EF90DF90BF90AF9057
:102EC0009F908F900895CF93DF9300D000D0CDB71F
:102ED000DEB719821A821B821C82CE0101960E94E3
:102EE0001317882301F129813A81243A81E03807B8
:102EF000C0F4273381E03807B0F044E6429FC001B8
:102F0000439F900D1124885199476EE670E00E940E
:102F10000D30862F0F900F900F900F90DF91CF9173
:102F2000089584E6F7CF80E0F5CF4F925F926F92DD
:102F30007F928F929F92AF92BF92CF92DF92EF9249
:102F4000FF92CF93CFB7F894C0907903D0907A03D3
:102F5000E0907B03F0907C038091EF029091F0026F
:102F6000A091F102B091F202892B8A2B8B2BC9F030
:102F70002091EF023091F0024091F1025091F20263
:102F8000CFBFCA01B901CF91FF90EF90DF90CF90F2
:102F9000BF90AF909F908F907F906F905F904F9079
:102FA000089590E080E020E030E0A901F0E0E0E06A
:102FB000DC01AA0FBB1FAA0FBB1FA154BD4F8D90F0
:102FC0009D90AD90BC90280D391D4A1D5B1DDC0104
:102FD000AD54BD4F6C91E60FF11D2832310541050E
:102FE000510580F4833031F4220F331F441F551FE5
:102FF000EE0FFF1F01968C309105D1F620E030E0F6
:10300000A901BECFA0E5B6E40E9494302B013C019B
:103010009F01A8EEB3E00E947E304B015C01C70126
:10302000B60128EE33E040E050E00E943530A501C3
:103030009401260F371F481F591FC301B2010E9478
:1030400035302093EF023093F0024093F102509319
:10305000F20296CFCF92DF92EF92FF920F93CF932F
:1030600091E09093A90395E79093CB031092AA0364
:103070001092CC03682F8EE694E00E946F0780E0E8
:103080000E949D038091A8038111FCCF81E0809371
:10309000A8031092A7039FEF9093A6031092A50395
:1030A0001092A40380938303809183038A6E80939C
:1030B0008303809182038130F1F510928203809125
:1030C00083038093BB008091BC0083FDF8CF85EC27
:1030D0008093BC008091A8038130E1F38091A50327
:1030E00081112BC08091A503A4E8B3E0E4EFF2E0E6
:1030F000C0E0C81324C010926703C09366030E9407
:1031000025166B017C01C1111EC000E022E330E0F6
:1031100040E050E0C701B6010E9431168823A9F3B0
:1031200081E00E949D038C2FCF910F91FF90EF9033
:10313000DF90CF90089585EECBCF81E0D5CF9D91E4
:103140009193CF5FD6CF8EE694E00E942807C82FD8
:10315000E7CFCF93DF93EB010E94DB2F8883CE0173
:10316000DF91CF910895CF93DF931F92CDB7DEB754
:10317000BE016F5F7F4F82E090E00E94A9188981B5
:1031800081508E3110F08DE0898389810F90DF911D
:10319000CF910895CF93DF931F92CDB7DEB7BE01D5
:1031A0006F5F7F4F81E090E00E94A9188981825370
:1031B000853610F084E6898389810F90DF91CF9165
:1031C0000895CF93909181032FEF280F223008F0BC
:1031D00086C0911118C020910E012F3FC1F182309D
:1031E00081F483E0281B8CE32C3308F484C0209303
:1031F0000E010E94B318682F80910E010E940D12DB
:1032000023C081E0EFCF9130A1F420910E012F3F38
:10321000F1F0823009F493E081E0291708F482C0CC
:10322000291B20930E01C0910E010E94CA186C2F19
:10323000E5CF923061F420910E012F3F41F0809153
:10324000B10081110E9402121092AD0241C02AEF1A
:10325000290F233078F420910E012F3F89F182301D
:1032600039F48AE0281750F581E080930E01ECCF05
:1032700081E0F8CF933091F420910E012F3F19F1A6
:103280009091AE02933041F4823031F4921760F79E
:10329000291B20930E01D8CF91E0F8CF943081F410
:1032A00020910E012F3F79F0823031F485E08217B2
:1032B00028F010920E01C8CF81E0F9CF281BE9CF8A
:1032C000992309F499C09150953029F09093810386
:1032D00081E0CF91089584E080938103F9CF91112B
:1032E00011C020910E012F3F39F1843039F483E071
:1032F000820F833828F480930E017BCF81E0F8CFD2
:1033000082E8F9CF913089F420910E012F3FA1F08E
:10331000843009F493E0920F8EE19F3118F490937A
:103320000E0181CF80930E017ECF923029F420913F
:103330000E012F3F09F083CF2AEF290F233080F4AD
:1033400020910E012F3F09F44FC0843039F48AE0F8
:10335000820F813F08F489CF80EF87CF81E0F8CFDB
:10336000933019F5C0910E01CF3F09F43FC0909101
:10337000AE02933069F4843059F483E0C80FC093EF
:103380000E01923039F4CD3008F45ECF8CE06DCF71
:1033900081E0F4CF933009F057CF0E94D1168C17FB
:1033A00008F052CF0E94D11660CF9430E9F42091FA
:1033B0000E012F3FD9F0843069F485E0820F8093AD
:1033C0000E019091AE02943039F4873108F43CCF6D
:1033D00087E14BCF81E0F2CF953009F035CF8B33C9
:1033E00008F432CF8BE341CF983031F09F5F9530B6
:1033F00009F06CCF86E070CF80E06BCFCF93DF9386
:103400001F92CDB7DEB762E171E08FE090E00E94DD
:10341000A91863E171E080E190E00E94A918809111
:10342000120181508E3F18F084E680931201809142
:10343000130181508E3F18F081E0809313011982AF
:10344000BE016F5F7F4F81E190E00E94A9188981E2
:1034500081508E3F10F084EB898389818093AC0288
:103460000F90DF91CF910895CF93DF9300D000D0DC
:10347000CDB7DEB786E190E00E94DB2F898387E13C
:1034800090E00E94DB2F8A8388E190E00E94DB2F8E
:103490008B8389E190E00E94DB2F8C8389819A8164
:1034A000AB81BC81AC01BD01415051096109710979
:1034B0004E3F5F4F6F4F7F4F50F5282F2F73209354
:1034C000CD03AC01BD0126E07695679557954795EC
:1034D0002A95D1F74F714093CE03AC01BD013BE07B
:1034E00076956795579547953A95D1F74F714093E3
:1034F0000F012A2F2F702093100144E1B695A79554
:10350000979587954A95D1F78C5E8093110183E05A
:1035100084BD8BE085BD8CE787BD80916E008260A5
:1035200080936E000F900F900F900F90DF91CF91CE
:1035300008950E94CA31FB0101900020E9F73197FC
:10354000AF01461B570BDC01ED91FC910280F3812A
:10355000E02D09948F929F92AF92BF92EF92FF92CB
:103560000F931F93CF93DF93CDB7DEB7A1970FB61D
:10357000F894DEBF0FBECDBF7C01FA01CB0119A2CA
:10358000223008F42AE08E010F5D1F4F822E912C0D
:10359000B12CA12CBF01A50194010E943530F90185
:1035A000CA016A300CF5605DD8016E938D01232B42
:1035B000242B252B79F790E080E0109721F0BD01B6
:1035C000C7010E949B1AA1960FB6F894DEBF0FBEEA
:1035D000CDBFDF91CF911F910F91FF90EF90BF90E2
:1035E000AF909F908F900895695CDECFAC0170E042
:1035F00060E02AE08091CF039091D0030C94AA1A46
:10360000482F50E070E060E02AE08091CF03909175
:10361000D0030C94AA1ACF93DF93C091CF03D0911B
:10362000D003BC01CE010E949B1A67EB71E0CE0172
:10363000DF91CF910C949B1ABC018091CF039091A4
:10364000D0030C949B1A4F925F926F927F928F924D
:103650009F92AF92BF92CF92DF92EF92FF920F9321
:103660001F93CF93DF93782E8FB7F894C0901101FA
:10367000D12C20E3C21A28EFD20AA0901001B090FA
:103680000F018090CE039090CD038FBF0E949517BD
:103690007B018C012091130130E0A8EEB3E00E9481
:1036A0007E30D2E0E616F7060807190760F480912D
:1036B000120190E0B0E0A0E0D1E0E816F9060A07B8
:1036C0001B0708F4D0E00E94631790E065E070E00B
:1036D0000E942130662EC62FC601E3E0AE9E800D0B
:1036E000911D1124F5E0BF9E800D911D11242BE04A
:1036F000929E800D911D1124E7E08E9E800D911DFC
:10370000112420911401309115018217930709F4B7
:1037100052C09093150180931401E091CF03F09172
:10372000D003158614861786168610E000E027E081
:1037300040E660E080E00E94F8158FEF9FEF0E9466
:103740002A15E091CF03F091D00381E0848B858B23
:10375000F9E0F81520F08EEB91E00E941C1B882DFB
:103760000E94001B29E08AEB91E0291510F483E008
:1037700092E00E941C1B892D0E94001B8EE092E0AB
:103780000E941C1BC6010E94F61A89E08A1508F4E3
:1037900069C08DEB91E00E941C1B8A2D0E94001BCA
:1037A00099E09B1508F461C08DEB91E00E941C1B11
:1037B0008B2D0E94001B80911801871509F441C0D0
:1037C0007092180133E8C32E31E0D32E44E2A42EC8
:1037D000B12C512C59E7852E912C442443948FEF22
:1037E0009FEF751002C080EE97E0F6014281538191
:1037F0007C010181208169E780EF8A0D0E943315E9
:10380000F3E05F16A1F00091CF031091D003F8010F
:10381000B586A486978686868FEF9FEF0E942A152D
:10382000F801448A458A82EC91E00E941C1B539463
:10383000F4E0CF0ED11C2EE1A20EB11C84E0581290
:10384000CECF80911701C817E9F160921701CE30F1
:1038500078F4C12C28EFD22EC63088F0CC24CA943C
:10386000DC2C0DC080EC91E096CF80EC91E09ECFF7
:1038700090EEC92E97E0D92EC33109F4C4E1860138
:1038800028E04C2F60E08AE80E94F815C33198F4D4
:1038900084E1B82EBC1AC65710E000E028E04B2D9A
:1038A00060E08C2F0E94F815860128E04B2D60E027
:1038B0008C2F0E94D615860124E042E062E08EE95A
:1038C0000E94F815809116018D17A9F0D09316016A
:1038D00080EE97E0DD2331F080E098EFD13011F4F5
:1038E00080EE9FEF7C0108E028E04BED56E060E0C1
:1038F00083E70E943315DF91CF911F910F91FF90C5
:10390000EF90DF90CF90BF90AF909F908F907F907F
:103910006F905F904F900895EF92FF920F931F93D7
:10392000CF93DF93F82EE62EEA01682F660F660F1D
:10393000660F6E5EE091CF03F091D00380E590E0DA
:1039400095878487862F90E09787868710E000E030
:1039500028E040E580E50E94F81580918103F81287
:1039600021C080910E018F3FE9F080EE9FEF0E9411
:103970002A1584EC91E00E941C1B80910E010E948C
:10398000001B8EE092E00E941C1BCE010E941C1BBB
:1039900086EC91E0DF91CF911F910F91FF90EF9016
:1039A0000C941C1B8FEF9FEF0E942A158E2D0E94F6
:1039B000001B8EE092E00E941C1BCE01EBCFEF9229
:1039C000FF920F931F93CF93C82F0E941A1688233C
:1039D00009F464C10091CF031091D003F80115865A
:1039E000148682E190E0978786878FEF9FEF0E9491
:1039F0002A1581E0F801848B858BCC2351F1C130ED
:103A000009F053C188E0809381038BEC91E00E9420
:103A10000B1B87ED91E00E940B1B83EE91E00E944F
:103A20000B1B8AEE91E00E940B1B83EF91E00E943A
:103A30000B1B8CEF91E00E940B1B85E092E00E9433
:103A40000B1B80E192E00E940B1B8BE192E00E9435
:103A50000B1B6091AB0280918103681329C1C111D6
:103A600027C18091AD02811116C10E94CA1849E296
:103A700052E0682F80E00E948C1C0E94B3184DE237
:103A800052E0682F81E00E948C1CC091B100E0914F
:103A9000CF03F091D00380E590E09587848782E2A0
:103AA00090E09787868710E000E028E040E562E23A
:103AB00080E50E94F81580918103823009F01DC1D4
:103AC00080910E018F3F09F418C180EE9FEF0E9494
:103AD0002A1584EC91E00E941C1B88EC91E0C11136
:103AE00002C081E592E00E94001B86EC91E00E94FA
:103AF0001C1B4FE252E06091120186E00E948C1C78
:103B000042E352E06091130187E00E948C1C6091B7
:103B1000AC0245E352E088E00E948C1CE091CF03A8
:103B2000F091D00380E590E0958784878AE290E069
:103B30009787868710E000E028E040E56AE280E5AC
:103B40000E94F81580918103833009F00EC18091A5
:103B50000E018F3F09F409C18091AE02813009F056
:103B6000D8C080EE9FEF0E942A1589E392E00E9460
:103B70001C1B80910E010E94001B86EC91E00E94AC
:103B80001C1B8FEF9FEF0E942A1580EC91E00E9492
:103B90001C1B8091AE02823009F0C5C080EE9FEF01
:103BA0000E942A1584EC91E00E941C1B80910E015A
:103BB0000E94001B86EC91E00E941C1B8FEF9FEF80
:103BC0000E942A1580EC91E00E941C1B8091AE029D
:103BD000833009F0BAC080EE9FEF0E942A1584EC72
:103BE00091E00E941C1B80910E010E94001B86EC3C
:103BF00091E00E941C1BE091CF03F091D00380E57F
:103C000090E09587848782E390E09787868710E02D
:103C100000E028E040E562E380E50E94F81580912D
:103C20008103843009F0E8C080910E018F3F09F4D0
:103C3000E3C08091AE02843009F0BCC080EE9FEFFB
:103C40000E942A1584EC91E00E941C1B80910E01B9
:103C50000E94001B86EC91E00E941C1B8FEF9FEFDF
:103C60000E942A1583E092E00E941C1B8091AE0204
:103C7000853009F0B1C080EE9FEF0E942A1584ECD8
:103C800091E00E941C1B80910E010E94001B86EC9B
:103C900091E00E941C1B81E08093AD0280E0CF91F7
:103CA0001F910F91FF90EF90089510928103ADCE78
:103CB000660F660F660F6E5EF12CE12C08E028E0BF
:103CC00048E251E083E00E94331560918103660F62
:103CD000660F660F6E5E80EEE82EFF24FA9428E0F1
:103CE00048E251E083E00E94331580918103809384
:103CF000AB02CC2309F4B5CEB8CE8FEF9FEF0E9474
:103D00002A1581E592E0CC2309F4F1CE88EC91E00C
:103D1000EECE8FEF9FEF0E942A1580E00E94AD1635
:103D20000E94F61A2ECF8FEF9FEF0E942A1581E096
:103D30000E94AD16C82F8A3020F48EEB91E00E94CD
:103D40001C1B8C2F0E94001B39CF8FEF9FEF0E940E
:103D50002A1582E00E94AD16C82F8EEB91E0CA3082
:103D600030F18C2F0E94001B46CF8FEF9FEF0E94F7
:103D70002A1580E00E94AD160E94F61A81E00E948A
:103D8000AD16C82F8DEB91E0CA3010F080EC91E0B9
:103D90000E941C1B8C2F0E94001B82E00E94AD160B
:103DA000C82F8DEB91E0CA3010F080EC91E00E94BA
:103DB0001C1BD7CF8FEF9FEF0E942A1583E00E9434
:103DC000AD16C82F8A3020F48EEB91E00E941C1BA8
:103DD0008C2F0E94001B42CF8FEF9FEF0E942A156D
:103DE00084E00E94AD16C82F8EEB91E0CA30F8F047
:103DF0008C2F0E94001B4FCF8FEF9FEF0E942A1540
:103E000083E00E94AD16C82F8A3020F48EEB91E03B
:103E10000E941C1B8C2F0E94001B84E00E94AD1688
:103E2000C82F8AEB91E0CA3010F083E092E00E9444
:103E30001C1BDECFCF92DF92EF92FF92E091CF0377
:103E4000F091D00323E0248B258B683E23E072079A
:103E500081059105E0F4CB010E94F61AE091CF03B1
:103E6000F091D00382E0848B858B8685885F90E01B
:103E700024853585332735872487978786878DE383
:103E800092E0FF90EF90DF90CF900C941C1B603479
:103E900022E472072FE08207910570F528EE33E0E7
:103EA00040E050E00E9435306B017C01C9010E9466
:103EB000F61A83E492E00E941C1BC701B60124E6B7
:103EC00030E040E050E00E943530C9010E94F61A0F
:103ED000E091CF03F091D0038685885F90E0248540
:103EE00035853327358724879787868782E0848BBB
:103EF000858B85E492E0C5CF20E432E44FE050E0CA
:103F00000E9435306B017C01C9010E94F61A83E4DE
:103F100092E00E941C1BC701B60120EA36E841E08E
:103F200050E00E943530C9010E94F61AE091CF039B
:103F3000F091D0038685885F90E02485358533270E
:103F4000358724879787868782E0848B858B8BE4EF
:103F500092E097CF8F929F92AF92BF92CF92DF92D3
:103F6000EF92FF92F82E0E941A16882309F47DC062
:103F7000FF2059F08FEF9FEFDC01809300019093B9
:103F80000101A0930201B09303010E9495176B01F8
:103F90007C018090000190900101A0900201B090FE
:103FA0000301C814D904EA04FB0409F44CC0E091ED
:103FB000CF03F091D0038AE090E09587848784E175
:103FC00090E09787868790E080E00E942A15C501DF
:103FD000B4010E941A1F2091130130E0A8EEB3E053
:103FE0000E947E30C616D706E806F906B0F5409165
:103FF000120150E070E060E081E0C416D506E606EC
:10400000F70608F480E0E091CF03F091D0032AE0B6
:1040100030E03587248724E130E0378726878823FE
:10402000F1F08130F9F080E098EF0E942A15C70185
:10403000B6010E941A1FC0920001D0920101E092C5
:104040000201F092030181E0FF90EF90DF90CF90AA
:10405000BF90AF909F908F90089582E0D4CF80EE74
:1040600097E0E3CF80EE9FEFE0CFEECFCF92DF92ED
:10407000EF92FF92CF930E9425166B017C018091F5
:10408000990290919A02A0919B02B0919C028C158A
:104090009D05AE05BF05D8F580916A03882371F0B0
:1040A00010926A0381E00E94AA1FC0916A030E94D5
:1040B0001A16882319F08C2F0E94231B80EDC81636
:1040C0008AE8D8068FEFE806F80690F08FEF9FEFAA
:1040D000DC018093990290939A02A0939B02B09383
:1040E0009C0281E0CF91FF90EF90DF90CF900895F8
:1040F00080E3C80E85E7D81EE11CF11CC09299022E
:10410000D0929A02E0929B02F0929C02EACF80E069
:10411000E9CFEF92FF920F931F93CF93DF93D82FA6
:104120000E941A16C82F882309F4B5C0DD23B9F1FF
:104130000FEF1FEF24E142E368E284E10E94D6150D
:1041400042E267E286E40E94FA0341E46CE386E41B
:104150000E94FA0341E463E280E50E94FA0348E129
:10416000E42E46ECF42E08E028E040E251E06EE256
:1041700089E20E943315F12CE12C28E048E151E05E
:104180006EE289E20E94331558E1E52E56ECF52ED9
:1041900028E040E151E06EE288E40E94331580910E
:1041A000A9029091A802981309C02091A7029091AA
:1041B000AA02291303C0DD2309F46DC0811173C065
:1041C00038E1E32E36ECF32E08E028E040E151E040
:1041D0006EE288E40E94331528E040E251E06EE28E
:1041E00089E20E943315F12CE12C28E048E151E0EE
:1041F0006EE289E20E94331510E000E02AE046E614
:1042000060E58DE10E94F8158091AA02882341F0B3
:104210000FEF1FEF2AE046E660E58DE10E94D6151C
:10422000E091CF03F091D00384E690E095878487F6
:104230008BE290E09787868782E0848B858B90E085
:1042400080E00E942A158091A802811189C080E532
:1042500092E00E941C1BE091CF03F091D00384E612
:1042600090E0958784878BE290E0978786878FEF31
:104270009FEF0E942A158091A90281117EC080E5DE
:1042800092E00E941C1B8091A9028093A802809159
:10429000AA028093A7028C2FDF91CF911F910F91DB
:1042A000FF90EF90089580EEE82EFF24FA9408E046
:1042B00028E040E151E06EE288E40E943315EE24EC
:1042C000EA94FE2C28E040E251E06EE289E20E948E
:1042D000331520EEE22E27E0F22E28E048E151E0EF
:1042E0006EE289E20E9433159091AA028091A702A2
:1042F000992361F1811111C00FEF1FEF2AE046E60B
:1043000060E58DE10E94D61500EE1FEF28E0409198
:10431000A80261E58EE10E94F8158091A8029091B3
:10432000A902891750F4492F481B00EE1FEF28E01F
:1043300061E5825E0E94F81573CF482F491B10E09B
:1043400000E028E061E58EE1890FF4CF882309F4CD
:1043500067CF10E000E02AE046E660E58DE1EACFB5
:104360000E94001B8091A802843620F48EE092E027
:104370000E941C1B8DE292E06CCF0E94001B80917A
:10438000A902843620F48EE092E00E941C1B8DE28C
:1043900092E077CFBF92CF92DF92EF92FF920F938E
:1043A0001F93CF93DF9300D000D0CDB7DEB7182F87
:1043B0000E941A16B82E882321F119821A821B82B4
:1043C0001C8219994BC060919F027091A00280914C
:1043D000A1029091A202611571058105910501F17B
:1043E00000E028E833E140E050E00E9431168111FE
:1043F00017C0CE0101960E94131781116CC01111D4
:104400006AC08B2D0F900F900F900F90DF91CF917E
:104410001F910F91FF90EF90DF90CF90BF90089584
:104420000E94251660939F027093A0028093A102C0
:104430009093A202429A64E670E080E090E00E94CD
:104440007916429805E01999D4CF6AE070E080E0CF
:1044500090E00E9479160150B1F7CBCF80917D0397
:1044600090917E03A0917F03B0918003892B8A2BCA
:104470008B2B69F080917D0390917E03A0917F0347
:10448000B09180030197A105B10509F0B2CF85E68F
:104490000E942A18282F30E0322F22276901330F7B
:1044A000EE08FF0884E60E942A18A7019601280F4B
:1044B000311D411D511D2F3F8FEF3807410551051B
:1044C00031F0211531054105510509F040C1CE01FA
:1044D00001960E941317E090CF03F090D00381E083
:1044E000F701848B858B112309F48AC18FEF9FEF2D
:1044F0000E942A1544E1C42ED12CF701D586C4862A
:104500008EE190E09787868785E592E00E941C1BEC
:10451000E091CF03F091D003D586C48686E290E087
:104520009787868781E692E00E941C1BE091CF036B
:10453000F091D003D586C4868EE290E09787868777
:104540008DE692E00E941C1B90E080E00E942A15FC
:10455000E091CF03F091D00334E6E32EF12CF58601
:10456000E4868EE190E0978786878091A302909100
:10457000A402B7010E940D30862F0E94001B80917B
:10458000A3029091A402B7010E940D300A9708F08F
:1045900022C189E792E00E941C1B8091A3029091A6
:1045A000A40264E670E00E940D300E94001B8CE7BC
:1045B00092E00E941C1B0E946317873408F00EC112
:1045C0008F3108F40EC18FEF9FEF0E942A15E09102
:1045D000CF03F091D00324E6E22EF12CF586E48699
:1045E0008EE190E09787868789819A81B7010E9442
:1045F0000D30862F0E94001B89819A81B7010E948D
:104600000D300A9708F0F0C089E792E00E941C1B69
:1046100089819A8164E670E00E940D300E94001B3F
:104620008CE792E00E941C1B89819A819093A402DE
:104630008093A302112309F4EDC090E080E00E9472
:104640002A15E091CF03F091D00384E6C82ED12C37
:10465000D586C48696E2E92EF12CF786E68680910F
:10466000A5020AE0602F0E9401300E94001B83E433
:1046700092E00E941C1B8091A502602F0E940130D5
:10468000892F0E94001B8EE792E00E941C1B8FEF77
:104690009FEF0E942A15E091CF03F091D003D586B9
:1046A000C486F786E6868B81602F0E9401300E94C7
:1046B000001B83E492E00E941C1B8B81602F0E94F0
:1046C0000130892F0E94001B8EE792E00E941C1B84
:1046D0008B818093A502112309F4A1C090E080E0B2
:1046E0000E942A15E091CF03F091D00384E690E078
:1046F000958784878EE290E0978786878091A602CF
:10470000882309F474C080E892E00E941C1B8C810D
:10471000882309F46FC080EE97E00E942A15E0918B
:10472000CF03F091D00384E690E0958784878EE2F2
:1047300090E0978786878C81882309F45EC080E8A3
:1047400092E00E941C1B8C818093A6025ACEA7EE99
:10475000B8E60E94943020E432E44FE050E00E943A
:1047600035302C5F3E4F3A83298387E60E942A1812
:10477000282F30E0322F22276901330FEE08FF087F
:1047800086E60E942A18A7019601280F311D411DB7
:10479000511D2115E0E83E074105510560F08FEFFE
:1047A0009FEFA0E0B0E06C017D01C21AD30AE40AD9
:1047B000F50AA70196016BE873EF81E090E00E9493
:1047C000F12F20E836E948E950E00E9435302B838C
:1047D00081E08C8380CE83E492E0DDCE80EE97E0B2
:1047E000F4CE80E098EFF1CE83E492E00FCF88E83A
:1047F00092E08BCF80EE9FEF90CF88E892E0A1CF40
:1048000029813A818091A3029091A4022817390747
:1048100009F09ACE9B818091A50298130ECF9C81BE
:104820008091A60298135ACFECCDCF92DF92EF92EF
:10483000FF920F931F93CF93DF93EC016A017B01EB
:10484000C114D104E104F10431F4C12C42E1D42EAD
:104850004AE7E42EF12C8FA987FD07C061E00E9492
:10486000940461E08FA90E941A0461E088AD0E945F
:10487000940461E088AD0E941A048DA981119AC048
:1048800040E059E06DE370E0C416D506E606F70691
:1048900040F476956795579547958F5F8630A1F7D9
:1048A00087E0982F906A969599A3809581708AA346
:1048B0001BA21CA21DA21EA21FB7F8948091F30296
:1048C00081111EC0E2E6F1E08491E4E4F1E094910C
:1048D000E82FF0E0EE0FFF1FE05DFE4FA591B491D1
:1048E000EC91E92321F461E08AE00E941A04229A03
:1048F0008CB580618CBD8CB580648CBD259A239A63
:104900008091F3028F5F8093F3021FBF8EA987FD12
:1049100021C061E00E94940461E08EA90E941A0403
:1049200064E670E080E090E00E94B50660E08EA949
:104930000E941A0464E670E080E090E00E94B506F0
:1049400061E08EA90E941A0468EC70E080E090E0BB
:104950000E94B5068EA987FF0DC020E050E040E020
:1049600061E0CE010E942D1466E970E080E090E0E5
:104970000E94B5060CE611E0C8010196F8016491A9
:10498000662309F463C00E5F1F4FFC01F490EF2C07
:10499000E894E7F82E2DA801CE010E942D140E0DEB
:1049A000111DF7FEE9CF66E970E080E090E00E941B
:1049B000B506E2CF08E511E0F12C8130B9F461E0F1
:1049C0008AA50E94940460E08AA50E941A0461E00E
:1049D0008CA50E94940460E08CA50E941A048BA50B
:1049E00087FD94CF60E00E94940490CFF8018491F9
:1049F000E82FF0E0EE0FFF1FE25BFE4F85919491F0
:104A00002F8D38A12817390741F461E08F2D0E94BE
:104A1000940460E08F2D0E941A04F3940F5F1F4FDF
:104A2000F4E1FF12E3CF61E08EA50E94940461E0FF
:104A30008EA50E941A048FA587FD68CF61E00E94B1
:104A4000940461E08FA50E941A0460CF80EF90E08B
:104A50009987888780E491E09B878A87DF91CF914F
:104A60001F910F91FF90EF90DF90CF900895FF92EC
:104A70000F931F93CF93DF93EC01F62E08811981DA
:104A8000C8010E94DB2FF81621F06F2DC8010E948B
:104A9000E32FCE01DF91CF911F910F91FF900895E9
:104AA0000F931F93CF93DF9300D0CDB7DEB78B0169
:104AB0009A838983FB016081CE0101960E9437258C
:104AC000C8010F900F90DF91CF911F910F91089522
:104AD000EF92FF920F931F93CF93DF9300D000D0FC
:104AE00000D0CDB7DEB78451990B092E000CAA0B6C
:104AF000BB0B34E0880F991FAA1FBB1F3A95D1F753
:104B0000860F911DA11DB11D55E0880F991FAA1F89
:104B1000BB1F5A95D1F7840F911DA11DB11D65E0F2
:104B2000880F991FAA1FBB1F6A95D1F7820F911D8D
:104B3000A11DB11D76E0880F991FAA1FBB1F7A9592
:104B4000D1F7800F911DA11DB11D89839A83AB837D
:104B5000BC83CE0101967C0106E110E01E830D832B
:104B6000F70161917F01CE0105960E9437250F5F05
:104B70001F4F0A31110591F726960FB6F894DEBF44
:104B80000FBECDBFDF91CF911F910F91FF90EF909E
:104B900008950F930FB7F8948230E1F1A0F48130BB
:104BA00001F1605D609311010FBF0091CD03209171
:104BB000CE0340910F0160911001809111010E947C
:104BC00068250F910895833099F1843051F76093EF
:104BD000CD038091CD038C3338F38BE38093CD03E9
:104BE000E3CF60931001909110019D3020F08CE094
:104BF0008093100104C0909110019923C9F30E9481
:104C0000D11690910F01891778F60E94D1168093E2
:104C10000F01CACF60930F010E94D11690910F012E
:104C2000891798F380910F018111BECF81E0EFCFFA
:104C30006093CE038091CE03883108F4B5CF87E12D
:104C40008093CE03B1CF1F93CF93DF9300D000D0DA
:104C500000D01F92CDB7DEB71091810311111FC094
:104C600080910E018F3F89F40E94CA1880930E0133
:104C70001092AD0281E027960FB6F894DEBF0FBE0A
:104C8000CDBFDF91CF911F9108958F83BE01695FE2
:104C90007F4F81E090E00E9450258FEFE7CF1130E9
:104CA00071F480910E018F3F19F40E94B318DECF8A
:104CB0008E83BE016A5F7F4F82E090E0ECCF1230BE
:104CC00031F480910E018F3F41F781E0CFCF8AEF21
:104CD000810F823088F580910E018F3F39F48091E9
:104CE0001201163019F280911301C0CF1630A9F4C9
:104CF000909113018D839C83BE016B5F7F4F8FE08A
:104D000090E00E945025BE016C5F7F4F80E190E0F3
:104D10000E9450250E94FE19C0CF909112019B83E2
:104D20008A83BE016D5F7F4F8FE090E00E94502527
:104D3000BE016E5F7F4FEACF183071F480910E0193
:104D40008F3F19F48091AC0291CF8983BE016F5FD0
:104D50007F4F81E190E0DCCF133061F560910E016F
:104D60006F3F41F481E08093AE0280E00E94AD1677
:104D7000805D7CCF8091AE0270E0813061F4605341
:104D8000784F80E00E94C92582E08093AE0281E0E6
:104D90000E94AD166BCF823039F481E00E94C925A4
:104DA0001093AE0282E0F4CF82E00E94C9251092F7
:104DB000AE0273CF143009F05BCF60910E016F3FEC
:104DC00021F41093AE0283E0E3CF70E08091AE0255
:104DD000843041F483E00E94C92585E08093AE02CF
:104DE00084E0D6CF84E0E1CFEF92FF920F931F9340
:104DF000CF93DF938091CF039091D003892B09F05B
:104E000077C0419864E670E080E090E00E947916F7
:104E100083E490E00E94A530EC011B821A8220EF0F
:104E200030E03D832C8380E491E09F838E8339873B
:104E300028879B878A871E8A1D861C861F861E865A
:104E400081E08D8B8C8B2FEF3FEF3B8B2A8B398B47
:104E5000288B8F8B188E1A8E198E1DAA8FEF8EAB12
:104E60008FAB91E198AF1AAE19AE1CAE1BAE1DAE62
:104E70001EAEFE01FF9610821182128213822EE96D
:104E800032E038A32F8FE9E6F1E0E491F0E0EE0F95
:104E9000FF1FE25BFE4F259134913E8F2D8FEBE497
:104EA000F1E0E491EBAB3C8F2B8F19AA8AABE09534
:104EB000ECAB8FE291E099838883D093D003C093C9
:104EC000CF0340E050E0BA01CE010E941524E881F2
:104ED000F98100A0F1A1E02DF12CE12C00E810E017
:104EE00020EA30E050E040E070E060E0CE0109955B
:104EF000DF91CF911F910F91FF90EF9008954F9206
:104F00005F926F927F928F929F92AF92BF92CF9259
:104F1000DF92EF92FF920F93CF93DF9300D000D0F8
:104F2000CDB7DEB78091BF029091C002A091C102BF
:104F3000B091C202892B8A2B8B2B29F4809104011A
:104F40008B3F09F4ADC08091BF029091C002A09147
:104F5000C102B091C2020196A11DB11D8093BF0292
:104F60009093C002A093C102B093C2028091040149
:104F70008A3F58F48091040191E0980F90930401C6
:104F8000823318F08AEF8093040181E080936803F4
:104F90006091AF027091B0028091B1029091B20223
:104FA00001E020ED37E040E050E00E943116882318
:104FB00009F476C08091790390917A03A0917B03E4
:104FC000B0917C038093AF029093B002A093B102A2
:104FD000B093B2028091AF029091B002A091B10261
:104FE000B091B20289839A83AB83BC838091B30270
:104FF000882309F455C02091BF023091C00240912E
:10500000C1025091C202E091B3026091130188EE97
:1050100093E0689F6001699FD00C1124F12CE12C72
:10502000A0E5B6E40E9494302B013C012E2F30E025
:10503000A8EEB3E00E947E304B015C0169817A8169
:105040008B819C8128EE33E040E050E00E943530B7
:10505000A5019401260F371F481F591FC301B20134
:105060000E9435302C153D054E055F05C8F00E94A5
:105070001A16811115C00F900F900F900F90DF91AD
:10508000CF910F91FF90EF90DF90CF90BF90AF90B6
:105090009F908F907F906F905F904F900C94F4262C
:1050A0000F900F900F900F90DF91CF910F91FF9085
:1050B000EF90DF90CF90BF90AF909F908F907F90B8
:1050C0006F905F904F9008951F920F920FB60F92BE
:1050D00011242F933F934F935F936F937F938F93FD
:1050E0009F93AF93BF93EF93FF9381ED93E00E9463
:1050F0000106FF91EF91BF91AF919F918F917F91A9
:105100006F915F914F913F912F910F900FBE0F9034
:105110001F9018951F920F920FB60F9211242F9384
:105120008F939F93EF93FF93E091E103F091E2035C
:105130008081E091E703F091E80382FD1BC090813C
:105140008091EA038F5F8F732091EB03821741F008
:10515000E091EA03F0E0EF52FC4F958F8093EA0371
:10516000FF91EF919F918F912F910F900FBE0F9014
:105170001F9018958081F4CF1F920F920FB60F9257
:1051800011248F939F93AF93BF9380915803909175
:105190005903A0915A03B0915B030296A11DB11D62
:1051A0008093580390935903A0935A03B0935B03E1
:1051B0008091570396E0980F9D37F0F49093570332
:1051C00080915C0390915D03A0915E03B0915F03B9
:1051D0000196A11DB11D80935C0390935D03A09384
:1051E0005E03B0935F03BF91AF919F918F910F903A
:1051F0000FBE0F901F90189587578093570380918B
:10520000580390915903A0915A03B0915B03019602
:10521000A11DB11D8093580390935903A0935A0385
:10522000B0935B03CDCF1F920F920FB60F92112454
:105230002F933F934F935F936F937F938F939F939E
:10524000AF93BF93EF93FF93F0E0E0E00995FF91F8
:10525000EF91BF91AF919F918F917F916F915F91EE
:105260004F913F912F910F900FBE0F901F90189567
:105270001F920F920FB60F9211242F933F934F93CB
:105280005F936F937F938F939F93AF93BF93EF93AE
:10529000FF93E0916003F09161030995FF91EF9115
:1052A000BF91AF919F918F917F916F915F914F913E
:1052B0003F912F910F900FBE0F901F9018951F9246
:1052C0000F920FB60F9211242F933F934F935F933A
:1052D0006F937F938F939F93AF93BF93EF93FF93BE
:1052E0008091B900887F803609F44AC0F0F5883291
:1052F00009F4A7C018F5803109F49BC0B8F48823DD
:1053000009F4F9C0883009F494C0FF91EF91BF917E
:10531000AF919F918F917F916F915F914F913F914D
:105320002F910F900FBE0F901F901895883109F4A0
:1053300088C0803251F78093A60314C0803409F4EA
:105340009DC040F48033B9F38833F9F68093A60307
:1053500085ECB0C0803509F485C0883509F496C065
:10536000883499F60E94E706D0CF883909F48CC0BA
:1053700038F5883729F050F4883611F0803729F64F
:1053800083E08093A8031092560357C0883809F42D
:105390007BC0803919F0803809F0B7CF809156036F
:1053A000803208F071C0E091560381E08E0F809347
:1053B00056038091BB00F0E0EA5CFC4F80833DC067
:1053C000803B39F0E0F4803A09F479C0883A09F07A
:1053D0009CCF84E08093A80310923503109234038D
:1053E000E0916403F0916503099580913403811184
:1053F0000FC081E0809334031092140309C0803CF5
:1054000009F4A6CF883C09F4A3CF883B09F07DCFEF
:10541000E091350381E08E0F80933503F0E0EC5E80
:10542000FC4F80818093BB009091350380913403C1
:1054300029C0809183038093BB0085EC8093BC00DE
:1054400064CF9091A5038091A403981758F5E0913B
:10545000A50381E08E0F8093A503F0E0EC57FC4F8D
:105460008081E9CFE091A50381E08E0F8093A503B1
:105470008091BB00F0E0EC57FC4F80839091A50336
:105480008091A4039817C8F285E8D8CFE091A503CE
:1054900081E08E0F8093A5038091BB00F0E0EC5774
:1054A000FC4F80838091A70381115CCF81E08093C2
:1054B000820384EA8093BC001092A80326CF85EC77
:1054C0008093BC001092A80380915603803230F480
:1054D000E0915603F0E0EA5CFC4F108260915603C5
:1054E00070E0E0916203F091630386E393E0099535
:1054F000109256030ACF1092A60334CF1F920F9238
:105500000FB60F9211242F933F934F935F936F9396
:105510007F938F939F93AF93BF93EF93FF931899CC
:1055200005C080916903846080936903199B33C02F
:1055300080917D0390917E03A0917F03B0918003C1
:10554000892B8A2B8B2B81F48091790390917A039C
:10555000A0917B03B0917C0380937D0390937E03A5
:10556000A0937F03B09380030E941A16811102C09A
:105570000E94F426FF91EF91BF91AF919F918F917F
:105580007F916F915F914F913F912F910F900FBE3F
:105590000F901F90189510927D0310927E03109229
:1055A0007F0310928003E6CF1F920F920FB60F92E7
:1055B00011248F93309B09C080916903826080938E
:1055C000690380916903809369038F910F900FBEE7
:1055D0000F901F9018951F920F920FB60F921124E3
:1055E0002F933F934F935F936F937F938F939F93EB
:1055F000AF93BF93EF93FF934C9B09C080916903D6
:10560000816080936903809169038093690389B104
:1056100090E0880F892F881F990B892B59F480916E
:1056200069038860809369030E941A16811102C081
:105630000E94F426FF91EF91BF91AF919F918F91BE
:105640007F916F915F914F913F912F910F900FBE7E
:105650000F901F9018951F920F920FB60F92112462
:105660000F932F933F934F935F936F937F938F93FA
:105670009F93AF93BF93EF93FF93809179039091A2
:105680007A03A0917B03B0917C030196A11DB11D0B
:105690008093790390937A03A0937B03B0937C0368
:1056A0008091790390917A03A0917B03B0917C0360
:1056B000892B8A2B8B2BE1F488E291E0A0E0B0E00B
:1056C0008093790390937A03A0937B03B0937C0338
:1056D0001092990210929A0210929B0210929C02D0
:1056E0001092AF021092B0021092B1021092B20268
:1056F0006091790370917A0380917B0390917C0390
:1057000028EE33E040E050E00E943530672B682BF4
:10571000692B09F0EEC080919D028F5F80939D02FE
:1057200080919D028C3338F010929D028091CD03C0
:105730008F5F8093CD038091CD038C3338F010922E
:10574000CD038091CE038F5F8093CE038091CE03F3
:10575000883138F01092CE0380910F018F5F8093D3
:105760000F010E94D11690910F01891740F481E03A
:1057700080930F01809110018F5F809310018091C1
:1057800010018D3040F081E0809310018091110173
:105790008F5F8093110180919D02811110C08091D3
:1057A000CD0381110CC00091CD032091CE03409117
:1057B0000F0160911001809111010E946825809174
:1057C0009D021092EF021092F0021092F1021092DC
:1057D000F2028091B3028F5F8093B3028091B30293
:1057E0008F3188F48091BF029091C002A091C102D4
:1057F000B091C20285369105A105B10598F180915D
:10580000B302833078F18AE090E09C012F5F3F4F34
:10581000FC01EE0FFF1FEE0FFF1FE154FD4F408113
:10582000518162817381F901EE0FFF1FEE0FFF1F9F
:10583000E154FD4F4083518362837383FC01ED5437
:10584000FD4F40812D543D4FF90140830197E8F60B
:105850001092BF021092C0021092C1021092C202B6
:105860001092B302809104018A3F98F08091050163
:10587000811104C081E0809305010BC08091050176
:10588000813009F04AC00E94021210920401109265
:10589000050180919D0281112CC0409179035091A6
:1058A0007A0360917B0370917C038091AF029091A9
:1058B000B002A091B102B091B202E091AC02481BDB
:1058C000590B6A0B7B0B28EE33E0E29FC001E39F8C
:1058D000900D1124092E000CAA0BBB0B8417950701
:1058E000A607B70730F484E00E94B71384E00E9453
:1058F00020130E94A512FF91EF91BF91AF919F914C
:105900008F917F916F915F914F913F912F910F9167
:105910000F900FBE0F901F90189580910501815038
:10592000AACF1F920F920FB60F9211245F936F931D
:105930007F938F939F93AF93BF9360917900615052
:10594000770B71F410929802BF91AF919F918F9154
:105950007F916F915F910F900FBE0F901F901895E0
:1059600089EC96E30E940D3060939802EDCFE1ED53
:10597000F3E01382128288EE93E0A0E0B0E084832B
:105980009583A683B78327E931E03183208325EC13
:1059900030E03587248724EC30E03787268720ECF9
:1059A00030E0318B208B21EC30E0338B228B22ECEA
:1059B00030E0358B248B26EC30E0378B268B118E34
:1059C000128E138E148EEEE6F4E01382128284831C
:1059D0009583A683B78389EA91E0918380830895B4
:1059E000CF93DF9300D000D01F92CDB7DEB7F894ED
:1059F00082E880937A0083E084BD85BD80916E004B
:105A0000816080936E0011E0109380008BE08093A2
:105A100081001093B00084E08093B1001092C10027
:105A20007894E091E103F091E20382E08083E091D9
:105A3000DD03F091DE031082E091DF03F091E003DB
:105A400087E680831092E903E091E503F091E60395
:105A500086E08083E091E303F091E403808180613C
:105A60008083E091E303F091E40380818860808388
:105A7000E091E303F091E403808180688083E0910A
:105A8000E303F091E40380818F7D80830E94341AC8
:105A90000E94C61390E080E00E94DB2F8F3F49F503
:105AA0001A82198261E0CE0101960E94372504E630
:105AB0000983BE016F5F7F4F81E090E00E94502517
:105AC0008DE08B83BE016D5F7F4F82E090E00E948E
:105AD00050250D831C83BE016B5F7F4F8FE090E0EC
