:100000000C9470030C9483260C945E260C94C927E0
:100010000C9498030C941B280C947C280C94980343
:100020000C9498030C9498030C9498030C949803E4
:100030000C9498030C9498030C94A9280C9498039E
:100040000C9498030C9498030C942C260C9406267C
:100050000C9498030C94622A0C9498030C949803C3
:100060000C94AA260C9498030300C8001027F401EE
:100070001027C80010270B005802F4012C01F401CE
:100080005802F4012C01F4015802F4012C01F4018E
:100090005802F4012C01F4015802F4012C01F4017E
:1000A0005802F40105002C01F4016400F4012C0154
:1000B000F4016400F4012C01F4010100F401C80012
:1000C00001000100102705000100E8030000E8031B
:1000D0000100E8030000E8030100E8030500010057
:1000E000640000006400010064000000640001007E
:1000F00064000100010064003C5A81DBDB815A3C52
:100100000000FE8383FE0000000307FFFF070300DB
:1001100000000000240027002A000102040810202B
:100120004080010204081020010204081020040489
:10013000040404040404020202020202030303038F
:10014000030304E010021C07123732292D29252B46
:100150003900010310E110031D07062E2C292D2E56
:100160002E373F0000021013800A298064022A04FF
:100170000000007F2B040000009F0F01809611807B
:10018000FFB103012C2DB203012C2DB306012C2D40
:10019000012C2DB40107C003A20284C101C5C20213
:1001A0000A00C3028A2AC4028AEEC5010E20003664
:1001B00001C83A010500000000003E5B4F5B3E3E77
:1001C0006B4F6B3E1C3E7C3E1C183C7E3C181C5703
:1001D0007D571C1C5E7F5E1C00183C1800FFE7C3A7
:1001E000E7FF0018241800FFE7DBE7FF30483A0676
:1001F0000E2629792926407F050507407F05253FE2
:100200005A3CE73C5A7F3E1C1C08081C1C3E7F14CD
:10021000227F22145F5F005F5F06097F017F006617
:1002200089956A606060606094A2FFA29408047E71
:10023000040810207E201008082A1C08081C2A0820
:10024000081E101010100C1E0C1E0C30383E3830DA
:10025000060E3E0E06000000000000005F000000D9
:1002600007000700147F147F14242A7F2A12231307
:1002700008646236495620500008070300001C221B
:1002800041000041221C002A1C7F1C2A08083E084D
:10029000080080703000080808080800006060004E
:1002A00020100804023E5149453E00427F40007242
:1002B000494949462141494D331814127F102745B9
:1002C0004545393C4A4949314121110907364949D7
:1002D0004936464949291E000014000000403400F8
:1002E00000000814224114141414140041221408AC
:1002F00002015909063E415D594E7C1211127C7F64
:10030000494949363E414141227F4141413E7F4971
:100310004949417F090909013E414151737F08085C
:10032000087F00417F41002040413F017F081422A7
:10033000417F404040407F021C027F7F0408107FC5
:100340003E4141413E7F090909063E4151215E7F00
:1003500009192946264949493203017F01033F40D3
:1003600040403F1F2040201F3F4038403F6314085B
:10037000146303047804036159494D43007F4141EC
:10038000410204081020004141417F04020102049F
:100390004040404040000307080020545478407F0C
:1003A000284444383844444428384444287F385446
:1003B00054541800087E090218A4A49C787F0804ED
:1003C000047800447D40002040403D007F102844D8
:1003D0000000417F40007C047804787C08040478A5
:1003E0003844444438FC1824241818242418FC7C6D
:1003F00008040408485454542404043F44243C4052
:1004000040207C1C2040201C3C4030403C442810B4
:1004100028444C9090907C4464544C4400083641ED
:1004200000000077000000413608000201020402CB
:100430003C2623263C1EA1A161123A4040207A3876
:1004400054545559215555794122545478422155D7
:1004500054784020545579400C1E5272123955552B
:100460005559395454545939555454580000457C01
:10047000410002457D420001457C407D1211127D04
:10048000F0282528F07C545545002054547C547C99
:100490000A097F4932494949323A4444443A324A86
:1004A0004848303A4141217A3A42402078009DA0A4
:1004B000A07D3D4242423D3D4040403D3C24FF2422
:1004C00024487E4943662B2FFC2F2BFF0929F62059
:1004D000C0887E090320545479410000447D413096
:1004E00048484A32384040227A007A0A0A727D0D22
:1004F00019317D2629292F28262929292630484DDA
:100500004020380808080808080808382F10C8AC28
:10051000BA2F102834FA00007B000008142A142295
:1005200022142A14085500550055AA55AA55AAFFA9
:1005300055FF55FF000000FF00101010FF001414BD
:1005400014FF001010FF00FF1010F010F01414142E
:10055000FC001414F700FF0000FF00FF1414F40463
:10056000FC141417101F10101F101F1414141F0058
:10057000101010F0000000001F101010101F1010BD
:100580001010F010000000FF1010101010101010CC
:1005900010FF10000000FF140000FF00FF00001F0C
:1005A00010170000FC04F414141710171414F404AA
:1005B000F40000FF00F714141414141414F700F7D7
:1005C000141414171410101F101F141414F4141002
:1005D00010F010F000001F101F0000001F1400009A
:1005E00000FC140000F010F01010FF10FF141414A1
:1005F000FF141010101F00000000F010FFFFFFFF9D
:10060000FFF0F0F0F0F0FFFFFF0000000000FFFF40
:100610000F0F0F0F0F3844443844FC4A4A4A347EC7
:1006200002020606027E027E026355494163384497
:10063000443C04407E201E2006027E020299A5E76B
:10064000A5991C2A492A1C4C7201724C304A4D4D06
:10065000303048784830BC625A463D3E49494900EE
:100660007E0101017E2A2A2A2A2A44445F4444400A
:10067000514A444040444A51400000FF0103E08099
:10068000FF000008086B6B083612362436060F0987
:100690000F06000018180000001010003040FF0185
:1006A00001001F01011E00191D1712003C3C3C3CBB
:1006B0000000000000030F3FFFFF3F0F0300001882
:1006C0003C3C1800003C7EE7C3C3E77E3C080C0EB0
:1006D000FFFF0E0C087E3C3C187EFFE7C300882A13
:1006E00011241FBECFEFD8E0DEBFCDBF12E0A0E0E7
:1006F000B1E0E4E3F0E602C005900D92A83AB1073C
:10070000D9F725E0A8EAB2E001C01D92A838B207E7
:10071000E1F713E0C0E7D3E004C02197FE010E9497
:100720001230CF36D107C9F70E94C72A0C9418306F
:100730000C9400003FB7F89460910D0170E090E0D8
:1007400080E024E0660F771F881F991F2A95D1F754
:1007500020910C01620F711D811D911D45E0660FF6
:10076000771F881F991F4A95D1F720910B01620FBF
:10077000711D811D911D55E0660F771F881F991F00
:100780005A95D1F72091DB04620F711D811D911DD7
:10079000E6E0660F771F881F991FEA95D1F7209131
:1007A000DA043FBF620F711D811D911D0895982FBE
:1007B0002091D40481E0213208F043C08091B0043C
:1007C0008111FCCF8091D30432E03093B004909338
:1007D000AF049FEF9093AE041092AD042093AC044D
:1007E000A3EBB4E0ECE8F4E090E0291331C0109200
:1007F0008B0490918B04880F892B80938B048091BC
:100800008A04813049F510928A0480918B04809388
:10081000BB008091BC0083FDF8CF85EC8093BC00C9
:100820008091B0048230E1F38091AE048F3FB1F04B
:100830008091AE048032A1F08091AE04803391F0BB
:1008400084E01092B2041092D4041092B10408957E
:100850003D9131939F5FC9CF85EEE0CF80E0F1CF2E
:1008600082E0EFCF83E0EDCF482FE62F282F30E056
:10087000863009F459C000F58330E1F1853009F480
:100880004FC04830E0F14E3010F1443108F063C001
:100890002E50310981E090E0A0E0B0E004C0880F64
:1008A000991FAA1FBB1F2A95D2F728B1EE2309F47E
:1008B0004FC0822B88B908958A30C9F18B30D9F1A5
:1008C0008930F9F6809180008F77809380002850DE
:1008D000310981E090E0A0E0B0E004C0880F991FEA
:1008E000AA1FBB1F2A95D2F7E1112EC025B1809512
:1008F00082232CC09091B0009F7D9093B00081E046
:1009000090E0A0E0B0E004C0880F991FAA1FBB1FB1
:100910004A95D2F72BB1EE23A1F0822B8BB9089523
:1009200094B59F7D94BDEBCF94B59F77FBCF80911D
:1009300080008F7DCACF8091B0008F778093B00008
:10094000C6CF80958223EACF25B1822B85B9089541
:1009500080958223AFCF089508950895AF92BF92F6
:10096000CF92DF92EF92FF920F931F93CF93DF937B
:100970006C017B018B01040F151FEB015E01AE18AA
:10098000BF08C017D10759F06991D601ED91FC91CC
:100990000190F081E02DC6010995892B79F7C501F9
:1009A000DF91CF911F910F91FF90EF90DF90CF904B
:1009B000BF90AF900895FC01538D448D252F30E0FA
:1009C000842F90E0821B930B541710F0CF9608955C
:1009D00001970895FC01918D828D981761F0A28D89
:1009E000AE0FBF2FB11D5D968C91928D9F5F9F734F
:1009F000928F90E008958FEF9FEF0895FC01918D05
:100A0000828D981731F0828DE80FF11D858D90E071
:100A100008958FEF9FEF0895FC01918D228D892F0E
:100A200090E0805C9F4F821B91098F7399270895F6
:100A30008DED94E00E940C0521E0892B09F420E063
:100A4000822F089580E090E0892B29F00E941805FC
:100A500081110C9400000895FC01A48DA80FB92FFA
:100A6000B11DA35ABF4F2C91848D90E001968F73D6
:100A70009927848FA689B7892C93A089B1898C91F5
:100A8000837080648C93938D848D981306C0028844
:100A9000F389E02D80818F7D80830895EF92FF920E
:100AA0000F931F93CF93DF93EC0181E0888F9B8D91
:100AB0008C8D98131AC0E889F989808185FF15C04B
:100AC0009FB7F894EE89FF896083E889F98980816E
:100AD0008370806480839FBF81E090E0DF91CF913D
:100AE0001F910F91FF90EF900895F62E0B8D10E05F
:100AF0000F5F1F4F0F731127E02E8C8D8E110CC0CE
:100B00000FB607FCFACFE889F989808185FFF5CF18
:100B1000CE010E942C05F1CFEB8DEC0FFD2FF11DC6
:100B2000E35AFF4FF0829FB7F8940B8FEA89FB8955
:100B300080818062CFCFCF93DF93EC01888D8823B3
:100B4000B9F0AA89BB89E889F9898C9185FD03C030
:100B5000808186FD0DC00FB607FCF7CF8C9185FF15
:100B6000F2CF808185FFEDCFCE010E942C05E9CF29
:100B7000DF91CF91089585ED8093BC008091BC00FA
:100B800084FDFCCF1092B004089520919403260FA9
:100B90003327331F21323105ECF42091B004FC01DE
:100BA00090E080E0243069F082E00895A091940301
:100BB0002191AC014C585C4FA40FB52FB11D2C9363
:100BC0000196861798F380919403680F60939403BD
:100BD00080E0089581E008950895E091C003809138
:100BE000BF03E81730F4F0E0EC5AFC4F808190E04E
:100BF00008958FEF9FEF08959091C0038091BF03F8
:100C00002FEF3FEF981748F4E92FF0E0EC5AFC4F34
:100C1000208130E09F5F9093C003C90108958091C7
:100C2000BF039091C003891B990B0895CF92DF9267
:100C3000EF92FF920F931F93CF93DF937C01CB0131
:100C40008A012091B104222389F0EB016B01C40ECB
:100C5000D51ECC15DD0569F06991D701ED91FC91A8
:100C60000190F081E02DC7010995F3CF642F0E9418
:100C7000C505C801DF91CF911F910F91FF90EF90B3
:100C8000DF90CF900895CF93DF931F92CDB7DEB75B
:100C900069832091B1042223F9F02091D4042032F9
:100CA00058F021E030E0FC013383228390E080E0C3
:100CB0000F90DF91CF9108958091B204E82FF0E07A
:100CC000ED54FB4F998190838F5F8093B2048093A2
:100CD000D40481E090E0ECCF61E0CE0101960E9467
:100CE000C505F7CF90E080E00895CF93C62F282F59
:100CF00030E050E040E060EA7FE080E090E00E9479
:100D0000102F2093B300C09305012091B40080916F
:100D1000B3008C9FC001112464E670E00E94DA2EBB
:100D20006093B4009091B40081E0921301C080E020
:100D3000CF910895E0EBF0E080818F7D8083109269
:100D4000B10060E083E00C943404E0EBF0E08081DB
:100D50008062808389E08093B100089581E0809370
:100D60000401109203010E949A060E94A50685E0E4
:100D7000809304018AEF809303010895CF93DF935A
:100D8000C82FD62F81E080930401109203010E94A6
:100D90009A066D2F8C2F0E9475060E94A50685E08D
:100DA000809304018AEF80930301DF91CF9108952E
:100DB000CF93C82F811109C060E085E00E94340400
:100DC00084B58F7D84BDCF910895843640F084B57D
:100DD0008F7D84BD61E085E0CF910C94340460E0A8
:100DE00085E00E94340484B58F7D84BD87B58C9FD7
:100DF000C001112464E670E00E94DA2E68BD88B557
:100E0000882309F398B587B5981720F784B58062D1
:100E1000D9CFFC018681882361F080819181938301
:100E2000828381E090E09583848384819581892BFE
:100E3000E1F7089580917D04882379F080917B0407
:100E400090917C04892B49F080917B0490917C04E3
:100E5000019790937C0480937B048091760488238F
:100E600079F08091740490917504892B49F08091F8
:100E700074049091750401979093750480937404A1
:100E80000895809172049091730401969093730475
:100E900080937204209172043091730480917004E5
:100EA000909171048217930738F460E086E00E9405
:100EB0003404109276040895A0917604809172040F
:100EC00090917304A150BB0BAA0FBB1FAE5DBE4F28
:100ED000880F991F880F991FED91FC91E80FF91F5A
:100EE000859194919093750480937404A0917604F5
:100EF000E0917204F0917304A150BB0BAA0FBB1FC9
:100F0000AE5DBE4FEE0FFF1FEE0FFF1FCF0102972A
:100F1000ED91FC91E80FF91F8591949161E0892B87
:100F200009F460E086E00C943404CF939091760449
:100F3000981708F5C82F80E794E00E9409071092DF
:100F4000730410927204EC2FF0E0EE0FFF1FE05ECE
:100F5000FE4F0190F081E02D859194919093710462
:100F6000809370041092750410927404C0937604F8
:100F7000CF910C944107CF910895E0E8F0E0808193
:100F80008F7D808360E08AE00E94340410928100AB
:100F90000895CF93DF938091790490917A0401961C
:100FA00090937A04809379042091790430917A04A3
:100FB00080917704909178048217930738F40E9407
:100FC000BD0710927D04DF91CF910895A0917D041B
:100FD0008091790490917A04A150BB0BAA0FBB1F9A
:100FE000A65EBE4F880F991F880F991FED91FC9147
:100FF000E80FF91F8591949190937C0480937B0472
:10100000A0917D04E0917904F0917A04A150BB0B8A
:10101000AA0FBB1FA65EBE4FEE0FFF1FEE0FFF1FF6
:10102000CF010297ED91FC91E80FF91FC591D49182
:101030000E94BD07209709F4C6CF9E0150E040E012
:1010400069E07DE380E090E00E94102F30938900FA
:10105000209388002091880030918900AEE1B0E0B3
:101060000E942F2F24E630E040E050E00E94EE2E58
:1010700030938B0020938A0080918000806280935F
:10108000800084E1809381009ECFCF9390917D0476
:10109000981708F5C82F87E794E00E940907109277
:1010A0007A0410927904EC2FF0E0EE0FFF1FE85E57
:1010B000FE4F0190F081E02D8591949190937804FA
:1010C0008093770410927C0410927B04C0937D047B
:1010D000CF910C94C907CF910895229A60E08AE0DD
:1010E0000E943404569A60E086E00E943404559AC7
:1010F00060E085E00E94340483E0809380001092D9
:101100008100109289001092880010928B0010923A
:101110008A0008954F925F926F927F928F929F9272
:10112000AF92BF92CF92DF92EF92FF920F931F93F5
:10113000A0904503AA2001F1409041035090420342
:1011400060904303709044038FEF4816580668067A
:10115000780609F51092460310924703109248034F
:101160001092490310924A0310924B0310924C03C1
:1011700010924D03109245031F910F91FF90EF9035
:10118000DF90CF90BF90AF909F908F907F906F90A7
:101190005F904F900895B12CC12CD12CE12CF12CF3
:1011A00000E010E02091460330914703409148034E
:1011B0005091490360914A0370914B0380914C0315
:1011C00090914D030E94A32F49015A012E3F3F4F9A
:1011D0004F4F5F4F610571058105910569F060F022
:1011E0008FEF9FEFDC018093410390934203A09324
:1011F0004303B0934403AECF840C951CA61CB71CCC
:10120000481459046A047B0458F780924103909271
:101210004203A0924303B09244039CCF8091C20347
:10122000882329F080916E04886080936E0408956D
:101230001092FC021092FB028FEF8093010110923A
:10124000FA021092F90208951092F4021092F50237
:101250001092F6021092F7021092F0021092F10230
:101260001092F2021092F3021092EF020895809110
:10127000EF028D7F21F483E08093EF02089582E0F6
:10128000FBCF1092BE021092BD021092BC021092CF
:10129000BB0208958091BC0291E089278093BC0233
:1012A0009091BE02911107C0882329F082E38093B8
:1012B000BE020E94D8060895CF93C091BC02CC23F1
:1012C00049F0823051F08130D1F08430D1F0833058
:1012D00031F1C0E08C2FCF9108958CEE9091BE0239
:1012E000482F552741950CF4509594171506CCF4CA
:1012F0001092BE028091BE020E94D806EBCF86EF0C
:10130000EDCF84E19091BE02492F480F5527551F1C
:101310004536510534F084E68093BE02EBCF8AE077
:10132000F1CF890FF9CF6150710948F09EBD0DB41E
:1013300007FEFDCF8EBD0DB407FEFDCFF4CF08959F
:1013400008958EBD00000DB407FEFDCF8EB5089543
:10135000CF93DF93D82FC091DC0460E08C2F0E94E4
:1013600034048D2F0E94A10961E08C2FDF91CF9171
:101370000C9434040F931F93CF93DF93082F162FF1
:10138000C22F4150D42FD80F8AE20E94A80980E0D2
:101390000E94A109802F0E94A10980E00E94A1095A
:1013A0008D2F0E94A109C150C10F8BE20E94A80994
:1013B00080E00E94A109812F0E94A10980E00E9483
:1013C000A1098C2F0E94A1098CE2DF91CF911F917E
:1013D0000F910C94A809CF93DF93803A78F467FDBE
:1013E0000DC0EA0121E041E00E94BA098D2F0E9460
:1013F000A1098C2FDF91CF910C94A109DF91CF919E
:1014000008958CBD9DBD0895CF93DF93EC0180912D
:101410008605909187050E94010A60E08091DC04B6
:101420000E94340486E38EBD0DB407FEFDCF61E05B
:101430008091DC040E94340488818EBD0DB407FEC7
:10144000FDCFDF91CF910895EF92FF920F931F93FD
:10145000CF93DF93F82EE62EC42FD22F282F240F00
:101460003327331F213A310514F0C0EACF192E2D4E
:101470002D0F3327331F2138310514F0D0E8DE1942
:1014800080918605909187050E94010A2D2F4C2F8F
:101490006E2D8F2D0E94BA09CD9FB00111246115C8
:1014A000710549F0C801DF91CF911F910F91FF9015
:1014B000EF900C949309DF91CF911F910F91FF90C2
:1014C000EF9008950F931F939FEF940F903A28F495
:1014D0009FEF920F97FF0E94240A1F910F9108958A
:1014E0000F931F936623A9F08A01262F43E150E052
:1014F000481B5109842F880F880F840F8D5F62E786
:10150000621B45E012161CF0219545E063E30E9442
:10151000620A1F910F9108959F92AF92BF92CF924E
:10152000DF92EF92FF920F931F93CF93DF93C82F19
:10153000D62F142F022F841316C021E0200F261B54
:101540000FEF1FEF41E06D2F8C2F0E94620ADF9199
:10155000CF911F910F91FF90EF90DF90CF90BF90B0
:10156000AF909F900895621307C041E0410F481B60
:101570000FEF1FEF21E0E7CF80918605909187055F
:101580000E94010A202F2D1B330B690137FF03C076
:10159000D194C194D108812F8C1B990B5C0197FFCA
:1015A00003C0B194A194B108AC14BD0434F4812FEC
:1015B000102F082F8C2FCD2FD82F1C1730F48D2FE4
:1015C000D02F082F8C2FC12F182F912E9C1A202F2F
:1015D0002D1B330BC90137FF03C0919581959109EC
:1015E000F82EE92CE694D017B0F00FEF1C1708F492
:1015F000AECF4FEF5FEF6C2F8D2FAC14BD0414F006
:101600006D2F8C2F0E94EB09EF18E7FE02C0D00F60
:10161000E90CCF5FEBCF01E0E9CFCF92DF92EF9201
:10162000FF920F931F93CF93DF93D82FF62EC42FE3
:10163000E22E21E00E94620A6FEF6E0D6F0D21E035
:101640004C2F8D2F0E94620A2E2D41E06F2D8D2F81
:101650000E94620A8FEF8C0F2E2D41E06F2D8D0FAF
:101660000E94620ADF91CF911F910F91FF90EF903E
:10167000DF90CF9008955F926F927F928F929F92AA
:10168000AF92BF92CF92DF92EF92FF920F931F9390
:10169000CF93DF937C01D5E0F70101917F01002317
:1016A00009F454C080918605909187050E94010A33
:1016B0000D0280011124D12CC12C0B541E4F5C2C27
:1016C000F801EC0DFD1DE491612CAE2EB12CC09102
:1016D000D5047090D904E0FF0EC08090D60490909D
:1016E000D7046091D804C130E1F4660DA401852DC2
:1016F000870D0E94EB096394F501F595E795F8E0F5
:101700006F12E3CF8FEFC81AD80AE5E0CE16D104E6
:10171000B1F68C2F880FC80FCC0FC70DC093D9041A
:10172000BBCFC69D600D11242C2F4C2F872DC59D3E
:10173000800D11240E94BA09CC9FB00111246115BB
:101740007105C9F2C4010E949309D5CFDF91CF91F1
:101750001F910F91FF90EF90DF90CF90BF90AF90CF
:101760009F908F907F906F905F9008950E943B0BA9
:101770001092D9048091D804885F8093D80408958A
:101780006F927F928F929F92AF92BF92CF92DF9291
:10179000EF92FF920F931F93CF93DF93882E162F14
:1017A0005A01922E80918605909187050E94010A28
:1017B000C92DD0E0279683E0D595C7958A95E1F7A6
:1017C000612E600ED12CC12C712C161501F100E098
:1017D0000915C9F0802F8770770C81110AC0E02F9E
:1017E000E695E695E695EC0DFD2DF11DEA0DFB1D48
:1017F000749077FE06C0A701612F802F880D0E948C
:10180000EB090F5FE5CF1F5FCC0EDD1EDECFDF9152
:10181000CF911F910F91FF90EF90DF90CF90BF90ED
:10182000AF909F908F907F906F90089586B190E0D9
:101830009595879580959095817008952FB7F89428
:101840006091820470918304809184049091850456
:101850002FBF08958F929F92AF92BF92CF92DF9247
:10186000EF92FF920F934B015C0169017A01002313
:10187000C1F06091820470918304809184049091FE
:101880008504C80CD91CEA1CFB1CC814D904EA0442
:10189000FB0450F4681579058A059B05B0F0E0E07B
:1018A00009C00E941E0CEDCFE1E06C157D058E0590
:1018B0009F05A8F38E2F0F91FF90EF90DF90CF90B0
:1018C000BF90AF909F908F900895A7019601285DDB
:1018D0003E4F4F4F5F4FE1E0621773078407950754
:1018E00048F7DDCF8F929F92AF92BF92CF92DF9257
:1018F000EF92FF926B017C010E941E0C4B015C0178
:10190000C80CD91CEA1CFB1CC814D904EA04FB044B
:1019100068F40E941E0C681579058A059B05C8F7B6
:1019200089E2C80E81E0D81EE11CF11C0E941E0C49
:101930006C157D058E059F05C8F3FF90EF90DF9035
:10194000CF90BF90AF909F908F900895EF92FF92AD
:101950000F931F93CF93DF93BC016F5F7F4FFC0109
:101960001491115008F442C0FB0104917B01F2E094
:10197000EF0EF11CFB013196D491CD2FCF778091E2
:101980008605909187050E94010A60E08091DC0441
:101990000E9434040EBD0DB407FEFDCF61E08091BE
:1019A000DC040E94340490E080E08C1750F4F701CE
:1019B000E80FF91FE491EEBD0DB407FEFDCF0196CF
:1019C000F4CFB7016C0F711DD7FFCBCFEB01219680
:1019D000FB01649170E06F3F710511F464EF71E0F9
:1019E00090E080E00E94720CBE01BBCFDF91CF91EE
:1019F0001F910F91FF90EF9008950F931F93CF9336
:101A0000DF931F92CDB7DEB7419864E670E080E0C7
:101A100090E00E94720C81E18093DC043B9A61E0CB
:101A20008091DC040E9434041FB7F8948091B202C4
:101A300081111EC0E8E3F1E08491E4E2F1E09491C9
:101A4000E82FF0E0EE0FFF1FE05FFE4FA591B4918D
:101A5000EC91E92321F461E08AE00E943404229AA7
:101A60008CB580618CBD8CB580648CBD259A239A21
:101A70008091B2028F5F8093B2021FBF80E5809396
:101A8000860581E0809387058AE791E00E94A60C95
:101A90008DE691E00E94A60C82E491E00E94A60CE3
:101AA00010EC1983CE0101960E94040A1983CE011D
:101AB00001960E94040A80E68983CE0101960E9465
:101AC000040A10E000E020E840EA60E080E00E94C4
:101AD000240A0F90DF91CF911F910F910895CF931A
:101AE000DF938091C203813071F50E94160C811141
:101AF00002C00E94FD0CCAE2D1E0EE81FF81309766
:101B000011F080E00995289681E0CA34D807A9F73A
:101B10008FEF9FEF909307018093060180930A0156
:101B20008093090180930801E0916F0488E0E89FA9
:101B3000F0011124E65DFE4F0190F081E02D83E07D
:101B400009951092C203DF91CF9108956FB7F89471
:101B500050910D0140910C0130910B012091DB045B
:101B60009091DA046FBF823089F038F4813059F0F7
:101B7000852F90E08053984F0895833049F084304A
:101B8000B9F7892F01C0842F90E00895832FFCCFEF
:101B9000822FFACFCF93DF93CDB7DEB72C970FB656
:101BA000F894DEBF0FBECDBF8CE0EEE0F1E0DE01C9
:101BB000119601900D928A95E1F780910C01823087
:101BC00011F520910D0130E02053384FC901837089
:101BD0009927892B39F4C90164E670E00E94C62E6A
:101BE000892BC1F4C90160E971E00E94C62E892BDE
:101BF00089F08CE12C960FB6F894DEBF0FBECDBFF6
:101C0000DF91CF910895E0910C01EC0FFD2FF11DB4
:101C10008081F0CF8DE1EECF8091B0029091B10242
:101C2000892B91F08091820490918304A091840487
:101C3000B09185042091B0023091B102821B930BC8
:101C40009093AF028093AE028091820490918304BE
:101C5000A0918404B09185049093B1028093B00266
:101C600008958F929F92AF92BF92DF92EF92FF9270
:101C70000F931F93CF93DF937C018EE880937A00BC
:101C800010E4D0E0C0E0DD24DA940E941E0C4B0189
:101C90005C01D092A80280917A00806480937A00DF
:101CA0008091A8028F3F69F400E02AE030E040E034
:101CB00050E0C501B4010E942A0C882389F380E01A
:101CC00014C08091A802C80FD11D1150F1F61092D6
:101CD0007A0085E0D695C7958A95E1F7F701D1831B
:101CE000C083138281E0CD2B51F3DF91CF911F91FF
:101CF0000F91FF90EF90DF90BF90AF909F908F90EB
:101D00000895CF93DF9300D000D0CDB7DEB719820E
:101D10001A821B821C82CE0101960E94310E8823FA
:101D200001F129813A81243A81E03807C0F4273350
:101D300081E03807B0F044E6429FC001439F900D18
:101D40001124885199476EE670E00E94C62E862FB6
:101D50000F900F900F900F90DF91CF91089584E630
:101D6000F7CF80E0F5CFCF92DF92EF92FF926B0139
:101D70007C012091020130E0A8EEB3E00E942F2FF9
:101D8000C616D706E806F90688F44091000150E02F
:101D900070E060E081E0C416D506E606F70608F4B8
:101DA00080E0FF90EF90DF90CF90089582E0F9CF30
:101DB0000F931F93CF93DF938C01EB010E94942E1E
:101DC0008883C80101960E94942E8983CE01DF91F9
:101DD000CF911F910F910895CF93DF9300D0CDB78E
:101DE000DEB71A821982BE016F5F7F4F85E090E0F7
:101DF0000E94D80E89819A81019621F48FEB95E09B
:101E00009A83898389819A810F900F90DF91CF9176
:101E10000895CF93DF9300D0CDB7DEB71A82198231
:101E2000BE016F5F7F4F83E090E00E94D80E8981F2
:101E30009A81019621F487E595E19A8389838981C6
:101E40009A810F900F90DF91CF910895CF92DF92FA
:101E5000EF92FF920F931F93CF93DF93EB017B01E0
:101E600024E0E20EF11C8B016C01C61AD70AC601F0
:101E7000800F911F0E94942EF80181938F01EE151F
:101E8000FF05A9F7CE01DF91CF911F910F91FF9030
:101E9000EF90DF90CF900895CF93DF93EB010E94F6
:101EA000942E8883CE01DF91CF910895CF93DF9355
:101EB0001F92CDB7DEB7BE016F5F7F4F82E090E02B
:101EC0000E944C0F898181508E3110F08DE0898302
:101ED00089810F90DF91CF910895CF93DF931F9267
:101EE000CDB7DEB7BE016F5F7F4F81E090E00E940B
:101EF0004C0F89818253853610F084E6898389816D
:101F00000F90DF91CF910895CF93DF931F92CDB7BC
:101F1000DEB760E071E08FE090E00E944C0F62E07D
:101F200071E080E190E00E944C0F809100018150AF
:101F30008E3F18F084E68093000180910201815069
:101F40008E3F18F081E0809302011982BE016F5F1D
:101F50007F4F81E190E00E944C0F898181508E3F3C
:101F600010F084EB898389818093F8020F90DF91D0
:101F7000CF9108954F925F926F927F928F929F922E
:101F8000AF92BF92CF92DF92EF92FF92CF93CFB7F3
:101F9000F894C0908204D0908304E0908404F09080
:101FA000850480913D0390913E03A0913F03B09141
:101FB0004003892B8A2B8B2BC9F020913D03309154
:101FC0003E0340913F0350914003CFBFCA01B90186
:101FD000CF91FF90EF90DF90CF90BF90AF909F9008
:101FE0008F907F906F905F904F90089590E080E089
:101FF00020E030E0A901F0E0E0E0DC01AA0FBB1F27
:10200000AA0FBB1FA35FBC4F8D909D90AD90BC905D
:10201000280D391D4A1D5B1DDC01AF5FBC4F6C9163
:10202000E60FF11D283231054105510580F483305A
:1020300031F4220F331F441F551FEE0FFF1F01966F
:102040008C309105D1F620E030E0A901BECFA0E5AB
:10205000B6E40E943E2F2B013C019F01A8EEB3E0A5
:102060000E942F2F4B015C01C701B60128EE33E01F
:1020700040E050E00E94EE2EA5019401260F371F8C
:10208000481F591FC301B2010E94EE2E20933D0349
:1020900030933E0340933F035093400396CF4F92BB
:1020A0005F926F927F928F929F92AF92BF92CF92E8
:1020B000DF92EF92FF920F93CF93DF9300D000D087
:1020C000CDB7DEB780910D0390910E03A0910F0361
:1020D000B0911003892B8A2B8B2B29F4809103015B
:1020E0008B3F09F4ADC080910D0390910E03A09138
:1020F0000F03B09110030196A11DB11D80930D0334
:1021000090930E03A0930F03B093100380910301EB
:102110008A3F58F48091030191E0980F9093030156
:10212000823318F08AEF8093030181E08093C1032A
:102130006091FD027091FE028091FF029091000378
:1021400001E020ED37E040E050E00E942A0C8823B7
:1021500009F476C08091820490918304A091840454
:10216000B09185048093FD029093FE02A093FF023C
:10217000B09300038091FD029091FE02A091FF02B6
:10218000B091000389839A83AB83BC838091010360
:10219000882309F455C020910D0330910E0340911E
:1021A0000F0350911003E09101036091020188EE4A
:1021B00093E0689F6001699FD00C1124F12CE12C01
:1021C000A0E5B6E40E943E2F2B013C012E2F30E00B
:1021D000A8EEB3E00E942F2F4B015C0169817A8148
:1021E0008B819C8128EE33E040E050E00E94EE2E8F
:1021F000A5019401260F371F481F591FC301B201C3
:102200000E94EE2E2C153D054E055F05C8F080910D
:10221000C2038823A9F00F900F900F900F90DF91C9
:10222000CF910F91FF90EF90DF90CF90BF90AF9044
:102230009F908F907F906F905F904F900C946F0D58
:102240000F900F900F900F90DF91CF910F91FF9013
:10225000EF90DF90CF90BF90AF909F908F907F9046
:102260006F905F904F900895CF92DF92EF92FF9220
:102270000F93CF9391E09093B10495E79093D3049B
:102280001092B2041092D404682F8AE795E00E945D
:10229000430680E00E94D7038091B0048111FCCFF7
:1022A00081E08093B0041092AF049FEF9093AE044E
:1022B0001092AD041092AC0480938B0480918B0437
:1022C0008A6E80938B0480918A048130F1F510929C
:1022D0008A0480918B048093BB008091BC0083FDB5
:1022E000F8CF85EC8093BC008091B0048130E1F39D
:1022F0008091AD0481112BC08091AD04ACE8B4E0B5
:10230000E4E5F3E0C0E0C81324C01092C003C0931A
:10231000BF030E941E0C6B017C01C1111EC000E0B6
:1023200022E330E040E050E0C701B6010E942A0CF1
:102330008823A9F381E00E94D7038C2FCF910F91BE
:10234000FF90EF90DF90CF90089585EECBCF81E0A6
:10235000D5CF9D919193CF5FD6CF8AE795E00E942C
:10236000FC05C82FE7CFE7EBF2E084E0DF011D9228
:102370008A95E9F70895FF920F931F93CF93DF9308
:10238000EC01F62E08811981C8010E94942EF816DE
:1023900021F06F2DC8010E949C2ECE01DF91CF91BC
:1023A0001F910F91FF900895AF92BF92CF92DF924D
:1023B000EF92FF920F931F93CF93DF9300D0CDB78F
:1023C000DEB78B016B0124E0C20ED11C7B015C01E6
:1023D000A61AB70AC5018E0D9F1D9A838983F7013E
:1023E00061917F01CE0101960E94BB11EC14FD04A6
:1023F00089F7C8010F900F90DF91CF911F910F9136
:10240000FF90EF90DF90CF90BF90AF9008950F9323
:102410001F93CF93DF93CDB7DEB728970FB6F8940D
:10242000DEBF0FBECDBF6D837E838F8398878FEF16
:102430009FEFDC0189839A83AB83BC830EE913E0B1
:10244000BE016F5F7F4FC8010E94D411BE016F5F54
:102450007F4FC80104960E94D411085F1F4F063FAA
:1024600083E0180769F7BE016B5F7F4F86E993E051
:102470000E94D41119821A821B821C82BE016F5FD6
:102480007F4F8AE993E00E94D41128960FB6F89402
:10249000DEBF0FBECDBFDF91CF911F910F91089589
:1024A0002F923F924F925F926F927F928F929F9264
:1024B000AF92BF92CF92DF92EF92FF920F931F9352
:1024C000CF93DF93CDB7DEB76A970FB6F894DEBF30
:1024D0000FBECDBF8091650490916604A091670402
:1024E000B0916804892B8A2B8B2B51F40E949A039C
:1024F0006093650470936604809367049093680406
:102500000E94BA0F2B013C01411451046104710473
:1025100009F47DC10E949A036B017C0180914E03F6
:1025200090914F03A0915003B0915103C816D90662
:10253000EA06FB0609F42BC1C114D104E104F1043D
:1025400009F4D0C08C259D25AE25BF25AC01BD0169
:102550004427587F452B462B472B09F4C6C10E94C0
:102560008A082091410330914203409143035091E6
:102570004403298B3A8B4B8B5C8B232B242B252BF1
:1025800009F4A8C0D701C6018827992789879A87A7
:10259000AB87BC871D821E821F82188606E913E066
:1025A000912CBE016B5F7F4FC8010E94260F4D81A9
:1025B0005E816F81788589859A85AB85BC85481752
:1025C00059076A077B0719F4092D10E050C093944E
:1025D000085F1F4F3CE09312E4CFBE016B5F7F4F5B
:1025E00086E993E00E94260F0D811E812F81388598
:1025F0000F3F4FEF14072407340761F069857A8590
:102600008B859C85601771078207930718F40E94D9
:1026100007122BC019821A821B821C82BE016F5FB7
:102620007F4F86E993E00E94260F89819A81AB81D2
:10263000BC8108E010E0992493948F3F9F4FAF4FE7
:10264000BF4F09F023C1BE01675F7F4F86E993E06A
:102650000E94D4111D821E821F821886BE016B5FEC
:102660007F4F8AE993E00E94D41110E000E01982C4
:102670001A821B821C8283E0000F111F8A95E1F7EA
:1026800006561C4FBE016F5F7F4FC8010E94260F88
:1026900049815A816B817C814F3FAFEF5A076A07AE
:1026A0007A07C1F089899A89AB89BC89840F951F03
:1026B000A61FB71F481759076A077B0708F011C103
:1026C00089839A83AB83BC83BE016F5F7F4FC80150
:1026D0000E94D411109241031092420310924303BE
:1026E00010924403C0924E03D0924F03E0925003E5
:1026F000F0925103209046033090470380904803A6
:1027000090904903B0914A03A0914B03F0914C0380
:10271000E0914D039201A30160E070E080E090E061
:1027200051016401EB2EFA2E0F2F1E2F0E94003054
:102730002D87398B4D8B5E8B6F8B788F898F9A8F1E
:102740009101A4016B2F7A2F8F2F9E2FAD84B98812
:10275000CD88DE88EF88F88C098D1A8D0E940930AB
:1027600008F0CCC0A0924603B0924703C092480341
:10277000D0924903E0924A03F0924B0300934C033A
:1027800010934D03809145038F5F80934503009123
:10279000690410916A0420916B0430916C04C901A2
:1027A000B801640D751D861D971D061717072807AC
:1027B000390768F56093690470936A0480936B0429
:1027C00090936C0420916D042F5F20936D0430E092
:1027D00050E040E00E94EE2E8091C9039091CA0320
:1027E000A091CB03B091CC03C090C503D090C60399
:1027F000E090C703F090C8032C153D054E055F051A
:1028000009F08EC0892B8A2B8B2B09F48DC06A9618
:102810000FB6F894DEBF0FBECDBFDF91CF911F91F1
:102820000F91FF90EF90DF90CF90BF90AF909F906F
:102830008F907F906F905F904F903F902F90089572
:1028400069857A858B859C852D853E854F85588940
:10285000621773078407950708F4D9CE49815A8116
:102860006B817C818D859E85AF85B8894817590716
:102870006A077B0718F589839A83AB83BC8393949B
:10288000085F1F4F9CE0991609F4DDCE58018AE6D7
:10289000A81A8CEFB80ABE016B5F7F4FC5010E947A
:1028A000260F2D813E814F8158852D873E874F878A
:1028B000588B2F3F3F4F4F4F5F4F11F6BE01675F61
:1028C0007F4FC5010E94D4111D821E821F8218866F
:1028D000BE016B5F7F4FC80186569C4F0E94D4118A
:1028E00073CE8FEF9FEFDC01EBCE807C892B8A2BA0
:1028F0008B2B09F4F7CE0E948A08F4CE8FEF8093D9
:102900004603809347038093480380934903809351
:102910004A0380934B0380934C0380934D0337CF3E
:10292000892B8A2B8B2B81F480916504909166040E
:10293000A0916704B09168048093C9039093CA037F
:10294000A093CB03B093CC032093C5033093C6036D
:102950004093C7035093C80381E08093C40357CFCB
:102960001F93CF93DF9300D000D0CDB7DEB71FB752
:10297000F894823009F483C008F057C0813009F41C
:1029800064C0605D60930D011FBF2091DA04309137
:10299000DB0440910B0150910C0180910D0190E0FE
:1029A000805D9740092E000CAA0BBB0B64E0880FDA
:1029B000991FAA1FBB1F6A95D1F7850F911DA11DF5
:1029C000B11D75E0880F991FAA1FBB1F7A95D1F71B
:1029D000840F911DA11DB11DE5E0880F991FAA1F4D
:1029E000BB1FEA95D1F7830F911DA11DB11DF6E024
:1029F000880F991FAA1FBB1FFA95D1F7820F911D4F
:102A0000A11DB11D89839A83AB83BC83BE016F5F17
:102A10007F4F86E190E00E94D4110F900F900F90AD
:102A20000F90DF91CF911F9108958330B1F18430E1
:102A300009F0A7CF6093DA048091DA048C3308F4AC
:102A4000A3CF8BE38093DA049FCF60930C01909126
:102A50000C019D3020F08CE080930C0104C090911B
:102A60000C019923C9F30E94CA0D90910B0189179B
:102A700008F08ACF0E94CA0D80930B0185CF609326
:102A80000B010E94CA0D90910B01891798F3809158
:102A90000B01811179CF81E0EFCF6093DB0480914E
:102AA000DB04883108F470CF87E18093DB046CCFBE
:102AB000EF92FF920F931F93CF93DF9300D0CDB788
:102AC000DEB78C017B019A838983FB016081CE0193
:102AD00001960E94BB110F5F1F4F1A830983F701F4
:102AE0006181CE0101960E94BB11C7010F900F902A
:102AF000DF91CF911F910F91FF90EF9008951F9359
:102B0000CF93DF93CDB7DEB728970FB6F894DEBF2B
:102B10000FBECDBF182F8091FB029FEF910F923017
:102B200008F0C3C0811124C0909101019F3F09F4B6
:102B30007CC083E0123009F081E0981B8CE39C3369
:102B400008F4C1C0909301010E94560F682F809134
:102B500001010E94BE061092FA0281E028960FB68B
:102B6000F894DEBF0FBECDBFDF91CF911F910895C6
:102B70008130B9F4909101019F3F09F456C01230A1
:102B800009F483E0981720F481E08093010103C0E9
:102B9000981B90930101109101010E946D0F612F0C
:102BA000D8CF8230D1F4909101019F3FF1F10E9482
:102BB000090F24E130E0123011F025E030E0821BF3
:102BC000930B98878F83BE01695F7F4F83E090E00E
:102BD0000E9458150E94AE06BECF8330B1F490918A
:102BE00001019F3F11F10E94EC0E24E130E0123010
:102BF00011F025E030E0821B930B9E838D83BE0194
:102C00006B5F7F4F85E090E0E3CF843071F490916B
:102C100001019F3F51F08091B100882319F00E947B
:102C20009A0699CF0E94A50696CF98EF980F9330F9
:102C300070F4909101019F3F69F18AE0123009F030
:102C400081E0981790F481E08093010184CF853072
:102C500091F4909101019F3F01F18091F90283303D
:102C600041F4123031F4891770F7981B90930101E9
:102C700072CF81E0F8CF863069F4909101019F3FD7
:102C800061F085E0123009F081E0891770F310924D
:102C9000010161CF882309F4BAC08150873019F04F
:102CA0008093FB025ACF86E0FBCF811111C0909137
:102CB00001019F3F09F44EC083E0143009F081E028
:102CC000890F833818F4809301013ECF82E8FBCF4F
:102CD000813069F4909101019F3FE1F1143009F4D2
:102CE00083E0890F8F3108F450CF8EE14ECF8230D0
:102CF000A1F4909101019F3F69F10E94090F24E125
:102D000030E0143011F025E030E0820F931F9C83F7
:102D10008B83BE016D5F7F4F59CF8330A1F49091BB
:102D200001019F3FB9F00E94EC0E24E130E0143025
:102D300011F025E030E0820F931F9A838983BE0152
:102D40006F5F7F4F5FCF843029F4909101019F3FE7
:102D500009F061CF98EF980F933078F490910101CA
:102D60009F3F09F44CC08AE0143009F081E0890FDC
:102D7000813F08F469CF80EF67CF853011F59091DE
:102D800001019F3FF1F18091F902833069F4143021
:102D900059F413E0190F10930101823039F48CE0DB
:102DA0001D3008F051CFD7CE11E0F4CF833009F0B9
:102DB000D2CE0E94CA0D811708F0CDCE0E94CA0D56
:102DC00043CF8630E1F4909101019F3FD1F085E03F
:102DD000143009F081E0890F809301019091F9028C
:102DE000943029F4873108F4B6CE87E12DCF9530A1
:102DF00009F0B1CE8B3308F4AECE8BE325CF8A3009
:102E000031F08F5F873009F04BCF88E049CF80E009
:102E1000A5CE0F931F93CF93DF9300D0CDB7DEB72E
:102E20008B019A838983FB016081CE0101960E9408
:102E3000BB11C8010F900F90DF91CF911F910F919F
:102E40000895CF93DF9300D000D000D01F92CDB76C
:102E5000DEB78091FB0281111EC0809101018F3F7E
:102E600081F40E946D0F809301011092FA0281E0BB
:102E700027960FB6F894DEBF0FBECDBFDF91CF917E
:102E800008958F83BE01695F7F4F81E090E00E94CB
:102E900009178FEFE8CF813071F4809101018F3FE6
:102EA00019F40E94560FDFCF8E83BE016A5F7F4FF9
:102EB00082E090E0ECCF9EEF980F933030F4809159
:102EC00001018F3F31F781E0CECF98EF980F92301C
:102ED00090F5909101019F3F41F4883019F4809161
:102EE0000001C1CF80910201BECF8830A9F480914A
:102EF00002019D838C83BE016B5F7F4F8FE090E06A
:102F00000E940917BE016C5F7F4F80E190E00E9434
:102F100009170E94840FBDCF809100018B839A8393
:102F2000BE016D5F7F4F8FE090E00E940917BE01E8
:102F30006E5F7F4FEACF8A3071F4809101018F3F3D
:102F400019F48091F8028FCF8983BE016F5F7F4FA4
:102F500081E190E0DCCF853069F5609101016F3F40
:102F600041F481E08093F90280E00E94A60D805D2B
:102F70007ACF8091F90270E0813061F46053784F2C
:102F800080E00E94B01482E08093F90281E00E9408
:102F9000A60D69CF823041F481E00E94B01483E035
:102FA0008093F90282E0F3CF82E00E94B014109285
:102FB000F9026FCF863009F058CF609101016F3F61
:102FC00029F484E08093F90283E0E1CF70E08091FE
:102FD000F902843041F483E00E94B01485E08093CC
:102FE000F90284E0D4CF84E0E0CF1F93CF93DF9346
:102FF000CDB7DEB728970FB6F894DEBF0FBECDBFB2
:103000001A82198261E0CE0101960E94BB1114E67A
:103010001D83BE016B5F7F4F81E090E00E94091726
:103020008DE08E83BE016A5F7F4F82E090E00E9458
:10303000091787E595E19A838983BE016F5F7F4F0A
:1030400083E090E00E9458158FEB95E09C838B8382
:10305000BE016D5F7F4F85E090E00E945815188794
:1030600081E08F83BE01685F7F4F8FE090E00E9418
:103070000917BE01695F7F4F80E190E00E94091748
:1030800028960FB6F894DEBF0FBECDBFDF91CF916B
:103090001F9108950F931F93CF93DF93CDB7DEB7A2
:1030A0002A970FB6F894DEBF0FBECDBFCB018E01BD
:1030B0000F5F1F4F2AE0F80111922A95E9F74AE0C5
:1030C000B8010E945F2EC8010E943B0B2A960FB6E2
:1030D000F894DEBF0FBECDBFDF91CF911F910F914E
:1030E0000895BC0190E080E00C944A18FF920F9381
:1030F0001F93CF93DF93F82EC62F682F660F660FAE
:10310000660F6E5E80E58093D9046093D80410E06A
:1031100000E028E040E50E94240ACC2309F10E9447
:10312000090FEC018091FB028F111DC080910101FC
:103130008F3FC9F080EE9FEF9093D7048093D60421
:103140008EE791E00E943B0BCE010E9471188EE445
:1031500092E0DF91CF911F910F91FF900C943B0B68
:103160000E94EC0EDECF8FEF9FEF9093D7048093F9
:10317000D604CE01DF91CF911F910F91FF900C9457
:103180007118CF92DF92EF92FF92CF93DF93C42F0B
:10319000D091D904683E23E072078105910548F576
:1031A00023E0411101C021E02093D504CB010E940E
:1031B00071188091D804CC23A9F092E09093D504A3
:1031C000885F9091D904905F9093D9048093D8043C
:1031D00080E891E0DF91CF91FF90EF90DF90CF906A
:1031E0000C943B0B91E09093D504885FD093D90465
:1031F000EDCF603422E472072FE082079105D8F505
:1032000023E0411101C021E02093D50428EE33E0F2
:1032100040E050E00E94EE2E6B017C01C9010E944B
:10322000711885E891E00E943B0BC701B60124E6C6
:1032300030E040E050E00E94EE2EC9010E9471187B
:103240008091D804CC2371F0885F9091D904905F6D
:103250009093D9048093D80482E08093D50487E8C2
:1032600091E0B8CF91E09093D504885FD093D904D2
:103270008093D804F4CF23E0411101C021E02093D2
:10328000D50420E432E44FE050E00E94EE2E6B01C2
:103290007C01C9010E94711885E891E00E943B0BF6
:1032A000C701B60120EA36E841E050E00E94EE2E68
:1032B000C9010E9471188091D804CC2371F0885FF5
:1032C0009091D904905F9093D9048093D80482E0C0
:1032D0008093D50488E891E07DCF91E09093D50468
:1032E000885FD093D9048093D804F4CFCF92DF9233
:1032F000EF92FF92CF936B017C01C091D90481E0E2
:103300008093D5048CE891E00E943B0B8091D80417
:10331000865FC093D9048093D8048EEFC8168FEFD0
:10332000D806E806F80648F082E991E0CF91FF90D0
:10333000EF90DF90CF900C943B0B81E4C81682E4B1
:10334000D8068FE0E806F10430F1C701B60120E4A9
:1033500032E44FE050E00E94EE2E6B017C01C90187
:103360000E94711885E891E00E943B0BC701B601ED
:1033700020EA36E841E050E00E94EE2EC9010E94AA
:1033800071188091D804865FC093D9048093D804C3
:1033900086EA91E0CBCF89EEC81683E0D806E10437
:1033A000F10430F1C701B60128EE33E040E050E00F
:1033B0000E94EE2E6B017C01C9010E94711885E804
:1033C00091E00E943B0BC701B60124E630E040E0EB
:1033D00050E00E94EE2EC9010E9471188091D8041D
:1033E000865FC093D9048093D8048AEA91E09ECF87
:1033F000C6010E9471188091D804865FC093D904D9
:103400008093D8048FEA91E091CFCF92DF92EF9230
:10341000FF926F3F2FEF72078207920741F48BE90B
:1034200091E0FF90EF90DF90CF900C943B0B6134D4
:1034300022E472072FE08207910510F120E432E4C4
:103440004FE050E00E94EE2E6B017C01C9010E940A
:10345000711885E891E00E943B0BC701B60120EA94
:1034600036E841E050E00E94EE2EC9010E9471183A
:1034700085EA91E0FF90EF90DF90CF900C94B60B2F
:10348000693E23E0720781059105E8F028EE33E0FC
:1034900040E050E00E94EE2E6B017C01C9010E94C9
:1034A000711885E891E00E943B0BC701B60124E644
:1034B00030E040E050E00E94EE2EC9010E947118F9
:1034C00089EA91E0D7CFCB010E9471188EEA91E092
:1034D000D1CF682F70E090E080E00C944A186F9292
:1034E0007F928F929F92AF92BF92CF92DF92EF9294
:1034F000FF920F931F93CF93DF93B82E8FB7F8945B
:10350000E0900D01F12C20E3E21A28EFF20AC090BE
:103510000C01D0900B018090DB049090DA048FBFF7
:103520000E94BA0F0E94B30ED82F0E94810E90E025
:1035300065E070E00E94DA2EA62EC62FC701E3E0F8
:10354000CE9E800D911D1124F5E0DF9E800D911D12
:1035500011242BE0929E800D911D1124E7E08E9E98
:10356000800D911D112420910601309107018217D1
:10357000930709F44CC090930701809306011092C1
:10358000D9041092D80410E000E027E040E660E0A3
:1035900080E00E94240A8FEF9FEF9093D7048093DE
:1035A000D60481E08093D504F9E0F81520F087EB8C
:1035B00091E00E943B0B882D0E94691A29E083EB61
:1035C00091E0291510F486E092E00E943B0B892DD2
:1035D0000E94691A81E492E00E943B0BC7010E949D
:1035E000711889E08C1508F461C086EB91E00E94A7
:1035F0003B0B8C2D0E94691A99E09D1508F459C067
:1036000086EB91E00E943B0B8D2D0E94691A809100
:103610000A018B15C9F1B0920A013AE4832E31E018
:10362000932E44E1742E10E0CC24CA94DC2C662442
:1036300063948FEF9FEFB11202C080EE97E0F40128
:10364000428153817C010181208169E7872D0E949D
:10365000C00B133089F080E1870D8093D90489E78E
:103660008093D804D092D704C092D6046092D50437
:103670008BEB91E00E943B0B1F5FF4E08F0E911CDF
:103680002EE1720E1430A9F680910901C81709F4D1
:103690003FC0A0920901CE3078F4E12C28EFF22E41
:1036A000C63088F0EE24EA94FE2C0DC089EB91E040
:1036B0009ECF89EB91E0A6CF90EEE92E97E0F92E10
:1036C000C33109F44DC0CC2349F0870128E04C2FC9
:1036D00060E08AE80E94620AC33198F484E1D82E3F
:1036E000DC1AC65710E000E028E04D2D60E08C2F7A
:1036F0000E94620A870128E04D2D60E08C2F0E9415
:103700000D0B870124E042E062E08EE90E94240A6A
:1037100080910801D817A9F0D093080180EE97E0B6
:10372000DD2331F080E098EFD13011F480EE9FEF8F
:103730007C0108E028E045ED56E060E083E70E9468
:10374000C00BDF91CF911F910F91FF90EF90DF9011
:10375000CF90BF90AF909F908F907F906F90089583
:10376000C4E1B3CFEF92FF920F931F93CF93DF93F8
:10377000F82EE62EEA01682F660F660F660F6E5E62
:1037800080E58093D9046093D80410E000E028E03D
:1037900040E50E94240A8091FB028F1122C0109103
:1037A00001011F3FF1F080EE9FEF9093D7048093CB
:1037B000D6048EE791E00E943B0B812F0E94691A8C
:1037C00081E492E00E943B0BCE010E943B0B8EE411
:1037D00092E0DF91CF911F910F91FF90EF900C94A9
:1037E0003B0B8FEF9FEF9093D7048093D6048E2DE1
:1037F0000E94691A81E492E00E943B0BCE01E9CF5E
:10380000EF92FF920F931F93CF93DF93C82F0E94E5
:10381000160C882309F46DC11092D90482E18093BB
:10382000D8048FEF9FEF9093D7048093D60481E064
:103830008093D504CC2391F1C13009F062C18AE0B4
:103840008093FB0280EC91E00E94B60B80EC91E04B
:103850000E94B60B8CEC91E00E94B60B89ED91E0D2
:103860000E94B60B86EE91E00E94B60B8DEE91E0C1
:103870000E94B60B86EF91E00E94B60B8FEF91E0AD
:103880000E94B60B88E092E00E94B60B83E192E0C2
:103890000E94B60B8EE192E00E94B60B6091FC0292
:1038A000D091FB026D1330C1C1112EC18091FA027B
:1038B00081111CC10E946D0F4CE252E0682F80E024
:1038C0000E94B21B0E94560F40E352E0682F81E035
:1038D0000E94B21B61E082E00E94761860E083E003
:1038E0000E947618C091B10080E58093D90482E3EC
:1038F0008093D80410E000E028E040E562E380E532
:103900000E94240A8091FB02843009F01FC180913B
:1039100001018F3F09F41AC180EE9FEF9093D70405
:103920008093D6048EE791E00E943B0B8FE592E0F6
:10393000CC2311F08DEB91E00E943B0B8EE492E0E2
:103940000E943B0B42E352E06091000188E00E943C
:10395000B21B45E352E06091020189E00E94B21B74
:103960006091F80248E352E08AE00E94B21B80E5D1
:103970008093D9048AE38093D80410E000E028E023
:1039800040E56AE380E50E94240A8091FB028530CD
:1039900009F010C1C0910101CF3F09F40BC1809122
:1039A000F902813009F0E0C080EE9FEF9093D704D8
:1039B0008093D6048CE392E00E943B0B8C2F0E94F4
:1039C000691A8EE492E00E943B0B8FEF9FEF909379
:1039D000D7048093D60489EB91E00E943B0B809141
:1039E000F902823009F0CCC080EE9FEF9093D704AB
:1039F0008093D6048EE791E00E943B0B80910101F9
:103A00000E94691A8EE492E00E943B0B8FEF9FEFB9
:103A10009093D7048093D60489EB91E00E943B0BEE
:103A20008091F902833009F0B9C080EE9FEF909346
:103A3000D7048093D6048EE791E00E943B0B8091DF
:103A400001010E94691A8EE492E00E943B0B80E51E
:103A50008093D90482E48093D80410E000E028E049
:103A600040E562E480E50E94240A8091FB028630F2
:103A700009F0E7C0C0910101CF3F09F4E2C0809195
:103A8000F902843009F0BDC080EE9FEF9093D70417
:103A90008093D6048EE791E00E943B0B8C2F0E940E
:103AA000691A8EE492E00E943B0B8FEF9FEF909398
:103AB000D7048093D60486E092E00E943B0B80916D
:103AC000F902853009F0B1C080EE9FEF9093D704E2
:103AD0008093D6048EE791E00E943B0B8091010118
:103AE0000E94691A8EE492E00E943B0B81E0809371
:103AF000FA0280E0DF91CF911F910F91FF90EF903C
:103B000008951092FB029ECE660F660F660F6E5EE2
:103B1000F12CE12C08E028E04DEC56E083E00E9417
:103B2000C00B6D2F660F660F660F6E5E80EEE82E7F
:103B3000FF24FA9428E04DEC56E083E00E94C00B8D
:103B4000D093FC02CC2309F4B1CEB4CE8FEF9FEF1B
:103B50009093D7048093D6048FE592E0CC2309F4A8
:103B6000EFCE8DEB91E0ECCE8FEF9FEF9093D704EB
:103B70008093D60480E00E94A60D0E94711825CF84
:103B800081E00E94A60DC82F8A3020F487EB91E0D7
:103B90000E943B0B8C2F0E94691A38CF82E00E9452
:103BA000A60DC82F87EB91E0CA3040F18C2F0E9400
:103BB000691A4DCF8FEF9FEF9093D7048093D6046F
:103BC00080E00E94A60D0E94711881E00E94A60D5F
:103BD000C82F86EB91E0CA3010F089EB91E00E948B
:103BE0003B0B8C2F0E94691A82E00E94A60DC82F01
:103BF00086EB91E0CA3010F089EB91E00E943B0B1C
:103C0000D5CF8FEF9FEF9093D7048093D60483E0B6
:103C10000E94A60DC82F8A3020F487EB91E00E9405
:103C20003B0B8C2F0E94691A40CF84E00E94A60DA6
:103C3000C82F87EB91E0CA3008F18C2F0E94691AD7
:103C400055CF8FEF9FEF9093D7048093D60483E0F6
:103C50000E94A60DC82F8A3020F487EB91E00E94C5
:103C60003B0B8C2F0E94691A84E00E94A60DC82F7E
:103C700083EB91E0CA3010F086E092E00E943B0BAB
:103C8000DCCF2F923F924F925F926F927F928F92F2
:103C90009F92AF92BF92CF92DF92EF92FF920F93DB
:103CA0001F93CF93DF93CDB7DEB760970FB6F8942D
:103CB000DEBF0FBECDBFA82E0E94160C882309F4CC
:103CC000FAC32FEFA21202C01092EF029091EF02FE
:103CD0008EEF890F823008F04EC081E0923009F4F7
:103CE00080E08093EF0210E000E020E740EA68E027
:103CF00080E00E94240AAA24A3948FEF9FEFDC01A6
:103D00008093F4029093F502A093F602B093F70229
:103D10008093F0029093F102A093F202B093F30229
:103D200084E1EBEDF2E0DF01282F1D922A95E9F7FF
:103D3000E7ECF2E0DF011D928A95E9F71092C302E9
:103D40001092C4021092C5021092C6021092BF02D5
:103D50001092C0021092C1021092C2028091EF0232
:103D600081110BC00FEF1FEF21E446E662E382E012
:103D70000E940D0B02C0A110C0CFB090EF02B11095
:103D80009DC20E94BA0F6B017C016091F402709198
:103D9000F5028091F6029091F702C616D706E80662
:103DA000F90671F108E00093D90414E11093D804E6
:103DB0001092D7041092D60441E00E94C118C701A6
:103DC000B6010E94B30E0093D9041093D80488233F
:103DD00009F4C5C0813009F4C5C080E098EF909324
:103DE000D7048093D60441E0C701B6010E94C118F0
:103DF000C092F402D092F502E092F602F092F7023D
:103E00008091C403882309F4A3C11092C40305EC74
:103E1000802E03E0902EF401C12CD12C76018081FC
:103E20009181A281B381C816D906EA06FB0610F477
:103E30006C017D013896B4E0E536FB0781F7C114CB
:103E4000D104E104F10409F4F6C0E2E3CE16D10492
:103E5000E104F10408F4CFC0F1E4CF16F2E4DF0688
:103E6000FFE0EF06F10408F480C0C701B60120EAC4
:103E700036E841E050E00E94EE2E2F5F3F4F4F4F5B
:103E80005F4F60EA76E881E090E00E94AA2E6B0125
:103E90007C018091C3029091C402A091C502B091AF
:103EA000C6028093BF029093C002A093C102B09358
:103EB000C202C092C302D092C402E092C502F09244
:103EC000C60284E1EBEDF2E0A7ECB2E001900D92C6
:103ED0008A95E1F7C701B6012FE330E040E050E0FA
:103EE0000E94EE2E2D873E874F87588B0BED12E0F8
:103EF000BFEE2B2EB2E03B2ED4014D905D906D9025
:103F00007C908D859E85AF85B8890297A105B10506
:103F100008F077C0AFE3B0E0A30192010E943E2F0A
:103F2000A70196010E94EE2ED8012C93D8018C9106
:103F3000EFE3803440F4811107C04114510461045F
:103F4000710411F0E1E0EC93C301B2010E94B30EE1
:103F5000811162C0D8018C9180648C9363C080EE23
:103F600097E03DCF80EE9FEF3ACF21EAC21626E8D8
:103F7000D20621E0E206F10488F0C701B60120E193
:103F800037E240E050E00E94EE2E2F5F3F4F4F4F50
:103F90005F4FA0E1B7E20E943E2F79CF81E1C816C2
:103FA00087E2D806E104F10478F0C701B60128EEF3
:103FB00033E040E050E00E94EE2E2F5F3F4F4F4F26
:103FC0005F4FA8EEB3E0E7CF99EEC91693E0D906AC
:103FD000E104F10408F45DCFC701B60124E630E046
:103FE00040E050E00E94EE2E2F5F3F4F4F4F5F4F5B
:103FF000A4E6B0E0D0CF12E3C12ED12CE12CF12CFD
:1040000048CFC301B2012D853E854F8558890E9456
:10401000EE2EF80120838ACF8130B1F5F80180813E
:1040200080688083B8E08B0E911C0F5F1F4F2016B5
:10403000310609F061CFFBEDEF2EF2E0FF2EA7EC89
:10404000CA2EA2E0DA2EF70181917F01D6019D915F
:104050006D01891751F1182F1F73092F0F7309F480
:104060002BC29827907CB1F0807C40EE57E08034E2
:1040700031F040E058EF803811F440EE5FEF612FEF
:104080008B2D0E94700A08C0823061F6D8018C9195
:10409000806C63CF011744F310173CF461EC610F9F
:1040A00050E040E08B2D0E94700AB394B4E1BB1243
:1040B000CACFC090C302D090C402E090C502F09075
:1040C000C602C114D104E104F10409F441C06091B5
:1040D000BF027091C0028091C1029091C202C616C7
:1040E000D706E806F90611F4AA2091F109E6009333
:1040F000D90414E31093D8041092D7041092D60474
:1041000040E00E94C118C701B6010E94B30E00939F
:10411000D9041093D804882309F47DC0813009F4B0
:104120007DC080E098EF9093D7048093D60440E060
:10413000C701B6010E94C11822E34BE662E387E69D
:104140000E948C0A21E54BE661E587E60E948C0A15
:10415000A0904503A11065C0609141037091420396
:10416000809143039091440326E630E040E050E024
:104170000E94EE2E69017A016091F0027091F102C5
:104180008091F2029091F3026F3FFFEF7F078F075C
:104190009F0729F06C157D058E059F0511F10EE630
:1041A0000093D90415E51093D8041092D704109207
:1041B000D6040E9476190093D9041093D8048FEF87
:1041C0009FEF9093D7048093D604C701B6010E9455
:1041D0007619C092F002D092F102E092F202F092CF
:1041E000F30281E060960FB6F894DEBF0FBECDBF3C
:1041F000DF91CF911F910F91FF90EF90DF90CF90C3
:10420000BF90AF909F908F907F906F905F904F90F6
:104210003F902F90089580EE97E085CF80EE9FEF3E
:1042200082CF0E949A036F73962E09F495CFB12C1A
:10423000C12CD12CE12CF12C00E010E020914603A0
:1042400030914703409148035091490360914A03DC
:1042500070914B0380914C0390914D030E94A32FCA
:10426000ECE3AE2E0E94A32FA92C0E94492F4901F6
:104270005A012F3F3F4F4F4F5F4F61057105810539
:10428000910509F0A0F4009141031091420320919F
:10429000430330914403C901B801680D791D8A1D9B
:1042A0009B1D061717072807390708F45DCF6EEF27
:1042B000C62EDD24DA94ED2CFD2C5ECFAA2009F465
:1042C00090CF1092D9048AE08093D8048FEF9FEFAB
:1042D0009093D7048093D60481E08093D504C12CB9
:1042E000D12C760110E056E6452E512C612C712C14
:1042F000193020F481E492E00E943B0B3324339484
:10430000310E832D0E94691A80E492E00E943B0BDB
:1043100019861A861B861C861D821E821F8218869D
:10432000BE016B5F7F4F86E993E00E94260F8D816F
:104330009E81AF81B8850197A109B1094EE9A42EEC
:1043400043E0B42E01E08E3F9F4FAF4FBF4F80F050
:1043500083E492E00E94B60B132D1C3049F680E5F1
:1043600092E00E943B0BC701B6010E94051A39CFAB
:1043700019821A821B821C82BE016F5F7F4FC501AA
:104380000E94260F89819A81AB81BC818F3FEFEF1C
:104390009E07AE07BE0799F04D815E816F817885DB
:1043A000481759076A077B0758F48D839E83AF83AC
:1043B000B8870F5FF8E0AF0EB11C0C30C9F600E013
:1043C000010F0C3008F00C5028E0029F80011124EE
:1043D000BE016B5F7F4FC8018A569C4F0E94260F1B
:1043E0008D809E80AF80B8848FEF88169806A806CF
:1043F000B80609F4ADCFBE01675F7F4FC80186568E
:104400009C4F0E94260F69857A858B859C856F3F1E
:10441000AFEF7A078A079A0741F0A30192010E9441
:10442000EE2E29873A874B875C87D501C40124E1AA
:10443000B695A795979587952A95D1F78053984F6C
:104440000E94711889EB91E00E943B0B1A2D1F709E
:104450001A3020F487EB91E00E943B0B812F0E94E1
:10446000691A80E192E00E943B0B69857A858B8511
:104470009C850E94051A89859A85AB85BC85009725
:10448000A105B10581F0EFEFCE16DE06EE06FE06C1
:1044900009F462CF8C0D9D1DAE1DBF1DC816D90637
:1044A000EA06FB0628F0CC24CA94DC2C760154CF13
:1044B0006C017D0151CF96CE1111D6CDF6CDCF92A4
:1044C000DF92EF92FF92CF930E941E0C6B017C0152
:1044D0008091A9029091AA02A091AB02B091AC0286
:1044E0008C159D05AE05BF05D8F580916F04882316
:1044F00071F010926F048FEF0E94411EC0916F0403
:104500000E94160C882319F08C2F0E946F1A80EDE0
:10451000C8168AE8D8068FEFE806F80690F08FEF05
:104520009FEFDC018093A9029093AA02A093AB02B3
:10453000B093AC0281E0CF91FF90EF90DF90CF90ED
:10454000089580E3C80E85E7D81EE11CF11CC092D7
:10455000A902D092AA02E092AB02F092AC02EACF9A
:1045600080E0E9CFBF92CF92DF92EF92FF920F935C
:104570001F93CF93DF93B82E0E94160CC82E88236A
:1045800009F4B7C0BB20D1F10FEF1FEF24E142E3E4
:1045900068E284E10E940D0B22E240E567E286E4D6
:1045A0000E948C0A21E440E56CE386E40E948C0AB8
:1045B00021E440E563E280E50E948C0A49E5E42EAF
:1045C00046ECF42E08E028E045EC56E06EE289E285
:1045D0000E94C00BF12CE12C28E04DEB56E06EE27E
:1045E00089E20E94C00B59E5E52E56ECF52E28E035
:1045F00045EB56E06EE288E40E94C00BC091BD021C
:10460000D091BE02D090BC02CD1307C08091BB02F6
:104610008D1103C0BB2009F46CC0D11175C039E500
:10462000E32E36ECF32E08E028E045EB56E06EE290
:1046300088E40E94C00B28E045EC56E06EE289E277
:104640000E94C00BF12CE12C28E04DEB56E06EE20D
:1046500089E20E94C00B10E000E02AE046E660E537
:104660008DE10E94240ADD2041F00FEF1FEF2AE0C8
:1046700046E660E58DE10E940D0B84E68093D90447
:104680008BE28093D80482E08093D5041092D70403
:104690001092D6048EE592E0CC2369F08C2F0E9414
:1046A000691A8091BD02843620F481E492E00E9470
:1046B0003B0B80E392E00E943B0B84E68093D9049D
:1046C0008BE28093D8048FEF9FEF9093D704809371
:1046D000D6048091BE02811170C08EE592E00E94E6
:1046E0003B0B8091BE028093BD028091BC028093FF
:1046F000BB028C2DDF91CF911F910F91FF90EF9016
:10470000DF90CF90BF90089580EEE82EFF24FA94BA
:1047100008E028E045EB56E06EE288E40E94C00B1A
:10472000EE24EA94FE2C28E045EC56E06EE289E2A5
:104730000E94C00B20EEE22E27E0F22E28E04DEB87
:1047400056E06EE289E20E94C00B8091BB02DD2040
:1047500041F1811110C00FEF1FEF2AE046E660E53E
:104760008DE10E940D0B00EE1FEF28E04C2F61E55C
:104770008EE10E94620ACD1758F44D2F4C1B00EEBB
:104780001FEF28E061E58EE18C0F0E94620A75CF71
:104790004C2F4D1B10E000E028E061E58EE18D0F0D
:1047A000F4CF882309F469CF10E000E02AE046E660
:1047B00060E58DE10E94240A60CF0E94691A809111
:1047C000BE02843620F481E492E00E943B0B80E339
:1047D00092E085CFBF92CF92DF92EF92FF920F933C
:1047E0001F93CF93DF9300D000D0CDB7DEB7182F43
:1047F0000E94160CB82E882321F119821A821B827E
:104800001C8219994BC06091B3027091B4028091DF
:10481000B5029091B602611571058105910501F10E
:1048200000E028E833E140E050E00E942A0C8111CA
:1048300017C0CE0101960E94310E81116CC011117A
:104840006AC08B2D0F900F900F900F90DF91CF913A
:104850001F910F91FF90EF90DF90CF90BF90089540
:104860000E941E0C6093B3027093B4028093B50251
:104870009093B602429A64E670E080E090E00E9475
:10488000720C429805E01999D4CF6AE070E080E09C
:1048900090E00E94720C0150B1F7CBCF80917E0462
:1048A00090917F04A0918004B0918104892B8A2B80
:1048B0008B2B69F080917E0490917F04A0918004FD
:1048C000B09181040197A105B10509F0B2CF85E649
:1048D0000E943411282F30E0322F22276901330F34
:1048E000EE08FF0884E60E943411A7019601280F04
:1048F000311D411D511D2F3F8FEF380741055105D7
:1049000031F0211531054105510509F014C1CE01E1
:1049100001960E94310E81E08093D504112309F4A1
:1049200060C18FEF9FEF9093D7048093D60404E18A
:104930000093D9048EE18093D80483E692E00E942C
:104940003B0B0093D90486E28093D8048FE692E073
:104950000E943B0B0093D9048EE28093D8048BE72E
:1049600092E00E943B0B1092D7041092D60484E68A
:104970008093D9048EE18093D8048091B7029091FE
:10498000B80234E6E32EF12CB7010E94C62E862F22
:104990000E94691A8091B7029091B802B7010E94F3
:1049A000C62E0A9708F00BC187E892E00E943B0BE5
:1049B0008091B7029091B80264E670E00E94C62E22
:1049C0000E94691A8AE892E00E943B0B0E94810EC5
:1049D000873408F0F7C08F3108F4F7C08FEF9FEFEE
:1049E0009093D7048093D60484E68093D9048EE113
:1049F0008093D80489819A8124E6E22EF12CB701B4
:104A00000E94C62E862F0E94691A89819A81B70159
:104A10000E94C62E0A9708F0DBC087E892E00E9449
:104A20003B0B89819A8164E670E00E94C62E0E9449
:104A3000691A8AE892E00E943B0B89819A819093DF
:104A4000B8028093B702112309F4D5C01092D7049D
:104A50001092D60484E6E82EE092D90496E2F92E6C
:104A6000F092D8048091B9020AE0602F0E94BA2E19
:104A70000E94691A85E891E00E943B0B8091B9027F
:104A8000602F0E94BA2E892F0E94691A8CE892E04A
:104A90000E943B0B8FEF9FEF9093D7048093D60437
:104AA000E092D904F092D8048B81602F0E94BA2E34
:104AB0000E94691A85E891E00E943B0B8B81602F70
:104AC0000E94BA2E892F0E94691A8CE892E00E94F7
:104AD0003B0B8B818093B902112309F491C0109292
:104AE000D7041092D60484E68093D9048EE2809392
:104AF000D8048091BA02882309F46DC08EE892E050
:104B00000E943B0B8C8120EE37E0811102C020EE29
:104B10003FEF3093D7042093D60494E69093D904C2
:104B2000882309F45BC08EE892E00E943B0B8C81E5
:104B30008093BA0286CEA7EEB8E60E943E2F20E40C
:104B400032E44FE050E00E94EE2E2C5F3E4F3A835D
:104B5000298387E60E943411282F30E0322F222744
:104B60006901330FEE08FF0886E60E943411A701A1
:104B70009601280F311D411D511D211580E8380770
:104B80004105510560F08FEF9FEFA0E0B0E06C01B0
:104B90007D01C21AD30AE40AF50AA70196016BE85F
:104BA00073EF81E090E00E94AA2E20E836E948E900
:104BB00050E00E94EE2E2B8381E08C83ACCE85E802
:104BC00091E0F4CE80EE97E00BCF80E098EF08CF35
:104BD00085E891E024CF86E992E092CF86E992E0E1
:104BE000A4CF29813A818091B7029091B802281709
:104BF000390709F0B8CE9B818091B902981326CF6E
:104C00009C818091BA0298136ACF1BCE1F920F929B
:104C10000FB60F9211242F933F934F935F936F938F
:104C20007F938F939F93AF93BF93EF93FF938DEDFC
:104C300094E00E942C05FF91EF91BF91AF919F915D
:104C40008F917F916F915F914F913F912F910F9035
:104C50000FBE0F901F9018951F920F920FB60F92D4
:104C600011242F938F939F93EF93FF93E091ED0483
:104C7000F091EE048081E091F304F091F40482FD60
:104C80001BC090818091F6048F5F8F732091F70491
:104C9000821741F0E091F604F0E0E352FB4F958F6C
:104CA0008093F604FF91EF919F918F912F910F9038
:104CB0000FBE0F901F9018958081F4CF1F920F9216
:104CC0000FB60F9211242F933F934F935F936F93DF
:104CD0007F938F939F93AF93BF93EF93FF93F0E0F6
:104CE000E0E00995FF91EF91BF91AF919F918F9176
:104CF0007F916F915F914F913F912F910F900FBED8
:104D00000F901F9018951F920F920FB60F921124BB
:104D10002F933F934F935F936F937F938F939F93C3
:104D2000AF93BF93EF93FF93E091B903F091BA0370
:104D30000995FF91EF91BF91AF919F918F917F91D5
:104D40006F915F914F913F912F910F900FBE0F90F8
:104D50001F9018951F920F920FB60F9211242F9348
:104D60003F934F935F936F937F938F939F93AF93F3
:104D7000BF93EF93FF938091B900887F803609F449
:104D80004AC0F0F5883209F4A7C018F5803109F45B
:104D90009BC0B8F4882309F4F9C0883009F494C0A2
:104DA000FF91EF91BF91AF919F918F917F916F9103
:104DB0005F914F913F912F910F900FBE0F901F90D9
:104DC0001895883109F488C0803251F78093AE0479
:104DD00014C0803409F49DC040F48033B9F38833A3
:104DE000F9F68093AE0485ECB0C0803509F485C037
:104DF000883509F496C0883499F60E94BB05D0CF57
:104E0000883909F48CC038F5883729F050F4883691
:104E100011F0803729F683E08093B0041092B60336
:104E200057C0883809F47BC0803919F0803809F000
:104E3000B7CF8091B603803208F071C0E091B6031D
:104E400081E08E0F8093B6038091BB00F0E0EA56BC
:104E5000FC4F80833DC0803B39F0E0F4803A09F498
:104E600079C0883A09F09CCF84E08093B004109216
:104E7000950310929403E091BD03F091BE03099550
:104E80008091940381110FC081E08093940310926C
:104E9000740309C0803C09F4A6CF883C09F4A3CF71
:104EA000883B09F07DCFE091950381E08E0F8093E0
:104EB0009503F0E0EC58FC4F80818093BB0090910B
:104EC00095038091940329C080918B048093BB004B
:104ED00085EC8093BC0064CF9091AD048091AC04CC
:104EE000981758F5E091AD0481E08E0F8093AD04E2
:104EF000F0E0E457FB4F8081E9CFE091AD0481E021
:104F00008E0F8093AD048091BB00F0E0E457FB4F1F
:104F100080839091AD048091AC049817C8F285E825
:104F2000D8CFE091AD0481E08E0F8093AD048091E5
:104F3000BB00F0E0E457FB4F80838091AF04811108
:104F40005CCF81E080938A0484EA8093BC00109255
:104F5000B00426CF85EC8093BC001092B004809101
:104F6000B603803230F4E091B603F0E0EA56FC4F2D
:104F700010826091B60370E0E091BB03F091BC0336
:104F800086E993E009951092B6030ACF1092AE0419
:104F900034CF1F920F920FB60F9211242F933F938D
:104FA0004F935F936F937F938F939F93AF93BF9331
:104FB000EF93FF93189905C080916E0484608093ED
:104FC0006E04199B2FC080917E0490917F04A09164
:104FD0008004B0918104892B8A2B8B2B81F48091E2
:104FE000820490918304A0918404B09185048093FD
:104FF0007E0490937F04A0938004B09381040E9468
:105000000E09FF91EF91BF91AF919F918F917F9189
:105010006F915F914F913F912F910F900FBE0F9025
:105020001F90189510927E0410927F0410928004B5
:1050300010928104E6CF1F920F920FB60F921124A7
:105040002F933F934F935F936F937F938F939F9390
:10505000AF93BF93EF93FF9389B182958170909145
:1050600053039817C9F0809353039091520321E0A2
:1050700092279093520390915203992369F096B12D
:105080009170891789F180916E0480FF25C080910D
:105090006E04806280936E0489B190E0880F892F3E
:1050A000881F990B892B39F480916E048860809356
:1050B0006E040E940E09FF91EF91BF91AF919F91F5
:1050C0008F917F916F915F914F913F912F910F90B1
:1050D0000FBE0F901F90189580916E048160809391
:1050E0006E0480916E04D6CF80916E0481FDCFCF87
:1050F00080916E048260F3CF1F920F920FB60F92D1
:1051000011242F933F934F935F936F937F938F93CC
:105110009F93AF93BF93EF93FF938091B7039091C9
:10512000B803892B29F0E091B703F091B8030995F2
:10513000FF91EF91BF91AF919F918F917F916F916F
:105140005F914F913F912F910F900FBE0F901F9045
:1051500018951F920F920FB60F9211242F933F9321
:105160004F935F936F937F938F939F93AF93BF936F
:10517000EF93FF93CF93DF9300D000D0CDB7DEB78E
:105180008091820490918304A0918404B09185045D
:105190000196A11DB11D8093820490938304A09376
:1051A0008404B09385048091820490918304A0913B
:1051B0008404B0918504892B8A2B8B2BE1F488E23F
:1051C00091E0A0E0B0E08093820490938304A093E8
:1051D0008404B09385041092A9021092AA0210923E
:1051E000AB021092AC021092FD021092FE021092DD
:1051F000FF021092000360918204709183048091F9
:1052000084049091850428EE33E040E050E00E9451
:10521000EE2E672B682B692B09F02AC18091AD0215
:105220008F5F8093AD028091AD028C3338F0109285
:10523000AD028091DA048F5F8093DA048091DA0402
:105240008C3338F01092DA048091DB048F5F809306
:10525000DB048091DB04883138F01092DB0480910C
:105260000B018F5F80930B010E94CA0D90910B017F
:10527000891740F481E080930B0180910C018F5FCE
:1052800080930C0180910C018D3040F081E080937F
:105290000C0180910D018F5F80930D018091AD0213
:1052A00081114CC08091DA04811148C02091DA0448
:1052B0003091DB0440910B0150910C0180910D0164
:1052C00090E0805D9740092E000CAA0BBB0B64E0B8
:1052D000880F991FAA1FBB1F6A95D1F7850F911DD3
:1052E000A11DB11D75E0880F991FAA1FBB1F7A95DC
:1052F000D1F7840F911DA11DB11DE5E0880F991F05
:10530000AA1FBB1FEA95D1F7830F911DA11DB11DE7
:10531000F6E0880F991FAA1FBB1FFA95D1F7820FDD
:10532000911DA11DB11D89839A83AB83BC83BE01EE
:105330006F5F7F4F86E190E00E94D4118091AD02B3
:1053400010923D0310923E0310923F0310924003CF
:10535000809101038F5F80930103809101038F315E
:1053600088F480910D0390910E03A0910F03B091EA
:10537000100385369105A105B10598F180910103CF
:10538000833078F18AE090E09C012F5F3F4FFC0171
:10539000EE0FFF1FEE0FFF1FE35FFC4F40815181B7
:1053A00062817381F901EE0FFF1FEE0FFF1FE35FB4
:1053B000FC4F4083518362837383FC01EF5FFC4F9A
:1053C00040812F5F3C4FF90140830197E8F610922E
:1053D0000D0310920E0310920F03109210031092FF
:1053E0000103809103018A3F48F0809104018111FB
:1053F00058C081E0809304010E94A5068091AD020F
:1054000081112CC0409182045091830460918404E6
:10541000709185048091FD029091FE02A091FF029F
:10542000B0910003E091F802481B590B6A0B7B0B0B
:1054300028EE33E0E29FC001E39F900D1124092E76
:10544000000CAA0BBB0B84179507A607B70730F40F
:1054500084E00E94450884E00E9495078091AD0297
:1054600065E00E94BA2E82E0911181E08093C3032F
:105470000E941A070F900F900F900F90DF91CF911D
:10548000FF91EF91BF91AF919F918F917F916F911C
:105490005F914F913F912F910F900FBE0F901F90F2
:1054A000189580910401813039F40E949A06109277
:1054B000030110920401A2CF8091040181508093D6
:1054C00004019CCF1F920F920FB60F9211245F938D
:1054D0006F937F938F939F93AF93BF936091790066
:1054E0006150770B71F41092A802BF91AF919F9118
:1054F0008F917F916F915F910F900FBE0F901F90D2
:10550000189589EC96E30E94C62E6093A802EDCF11
:10551000EDEDF4E01382128288EE93E0A0E0B0E0BB
:1055200084839583A683B7832EE531E0318320837E
:1055300025EC30E03587248724EC30E03787268758
:1055400020EC30E0318B208B21EC30E0338B228B50
:1055500022EC30E0358B248B26EC30E0378B268B29
:10556000118E128E138E148EEAE7F5E013821282EA
:1055700084839583A683B78380E791E091838083BA
:10558000E6E8F5E080E5808381E081830895CF93AC
:10559000DF9300D000D0CDB7DEB7F89482E88093D7
:1055A0007A0083E084BD85BD81E0809380009BE02C
:1055B000909381008093B00084E08093B1001092BA
:1055C000C1007894E091ED04F091EE0482E08083D4
:1055D000E091E904F091EA041082E091EB04F0918B
:1055E000EC0487E680831092F504E091F104F091D9
:1055F000F20486E08083E091EF04F091F004808172
:1056000080618083E091EF04F091F00480818860F4
:105610008083E091EF04F091F004808180688083C2
:10562000E091EF04F091F00480818F7D80831982F6
:105630001A821B821C82BE016F5F7F4F86E190E061
:105640000E94260F89819A81AB81BC81AC01BD018A
:1056500041505109610971094E3F5F4F6F4F7F4FB4
:1056600050F5282F2F732093DA04AC01BD01E6E03A
:105670007695679557954795EA95D1F74F71409381
:10568000DB04AC01BD01FBE0769567955795479526
:10569000FA95D1F74F7140930B012A2F2F70209369
:1056A0000C0114E1B695A795979587951A95D1F7B2
:1056B000805380930D0193E094BD8BE085BD8CE712
:1056C00087BD80916E00826080936E002CE03EE08A
:1056D0003093B8032093B7032FB7F89488E18093F1
:1056E000600090936000809160008064809360000F
:1056F0002FBF0E946D0890E080E00E94942E8130C0
:1057000011F00E94F51752985A9A8FE490E1909305
:10571000BA038093B903809169008C708260809392
:105720006900E89A0E946D0854985C9A3898409AEB
:105730002098289A57985F9A65E070E080E090E0A2
:105740000E94720C85E08093680080916D008069F2
:1057500080936D0080916B00836080936B00399A19
:10576000419A68EE73E080E090E00E94720C0E9423
:10577000160C811102C00E94FD0C8FEF80936F0404
:105780000E94840F3A9A429821982998199B0AC03E
:105790000E941E0C60937E0470937F0480938004AB
:1057A000909381041092C0031092BF031092B20430
:1057B0001092D4041092B00411E01093AF04109230
:1057C0008A04449A459A8091B9008E7F8093B900EB
:1057D0008091B9008D7F8093B90080E28093B800FA
:1057E00085E48093BC008CEA94E09093BE038093A0
:1057F000BD038DEA94E09093BC038093BB038CE0DF
:105800008093B80010927A008EE680937C00539AC1
:1058100060E083E00E9434041093B0000E949A0676
:105820000E94560F182F0E946D0F612F0E9475065F
:105830000E94A50649E050E06AE972E08DED94E02F
:105840000E94AE0442E050E064EA72E08DED94E024
:105850000E94AE0425ECA22E23E0B22E30E0C32E2F
:1058600030E0D32E412C512C320143948091C1035E
:10587000882399F01092C1030E94BA0F0E94B30EC0
:10588000823009F0ECC00E945F22882331F083E06F
:105890000E94450883E00E94950780916E0483FF73
:1058A0002DC09091C20380916E04877F80936E0417
:1058B0009111E6C0419A439864E670E080E090E080
:1058C0000E94720C10927E0410927F041092800449
:1058D0001092810480E00E94D80687E794E00E943D
:1058E000090780E794E00E94090760E086E00E94D3
:1058F00034040E94BD0781E08093C203F090C2038C
:10590000F110B7C16091860470918704809188047A
:105910009091890400E028EE33E040E050E00E94DE
:105920002A0C882351F00E941E0C60938604709309
:105930008704809388049093890480917E049091D9
:105940007F04A0918004B0918104892B8A2B8B2B3A
:1059500061F4199B0AC00E941E0C60937E04709330
:105960007F04809380049093810480917E049091C1
:105970007F04A0918004B0918104892B8A2B8B2B0A
:10598000B1F080917E0490917F04A0918004B09149
:1059900081040197A105B10551F0199974C01092C5
:1059A0007E0410927F0410928004109281048091F2
:1059B0007D04882359F02FB7F89480917B0490914F
:1059C0007C042FBF892B11F40E94C90780917604B3
:1059D000882359F02FB7F89480917404909175043E
:1059E0002FBF892B11F40E9441070E94160C8823B7
:1059F00009F4C1C080916F048F3F21F410926F04AD
:105A000093E0F92E8FB7F89490916E0490FF5EC0EA
:105A100090916E0495FF52C090916E049F7D90937B
:105A20006E048FBF12E0E0916F0488E0E89FF00100
:105A30001124E65DFE4F0280F381E02D309709F0DE
:105A400024C1F0906F041150123008F027C1F110FA
:105A500021C183E080936F04FF24F39450C0813010
:105A600051F40E945F22882309F417CF82E00E943C
:105A7000450882E010CF81E00E94450881E00BCF0D
:105A80000E946F0D3BCF60917E0470917F048091E6
:105A900080049091810400E028E532E040E050E08D
:105AA0000E942A0C882309F482CF40927E045092EF
:105AB0007F04609280047092810479CF90916E048B
:105AC0009E7F90936E048FBF11E0ADCF90916E04D6
:105AD00091FF14C090916E0495FF08C090916E04E0
