:100000000C946E030C94501D0C942B1D0C94961E96
:100010000C94EC1E0C94031F0C9496030C94960302
:100020000C9496030C9496030C9496030C949603EC
:100030000C9496030C9496030C94431F0C94960313
:100040000C94D41C0C9496030C94A21C0C947C1C51
:100050000C9496030C94B6200C9496030C9496037F
:100060000C94771D0C9496030300C8001027F4012C
:100070001027C80010270B005802F4012C01F401CE
:100080005802F4012C01F4015802F4012C01F4018E
:100090005802F4012C01F4015802F4012C01F4017E
:1000A0005802F40105002C01F4016400F4012C0154
:1000B000F4016400F4012C01F4010100F401C80012
:1000C00001000100102705000100E8030000E8031B
:1000D0000100E8030000E8030100E8030500010057
:1000E000640000006400010064000000640001007E
:1000F00064000100010064003C5A81DBDB815A3C52
:100100000000FE8383FE0000000307FFFF070300DB
:1001100000000000240027002A000102040810202B
:100120004080010204081020010204081020040489
:10013000040404040404020202020202030303038F
:100140000303EF03038002CF0300C130ED04640317
:100150001281E803850078CB05392C003402F701C1
:1001600020EA020000C00123C10110C5023E28C7D9
:1001700001863601483701003A0155B1020018B630
:1001800003088227F20100260101E00F0F312B0C3A
:100190000E084EF1370710030E0900E10F000E1490
:1001A00003110731C148080F0C31360F1180298027
:1001B0000000000000003E5B4F5B3E3E6B4F6B3E1D
:1001C0001C3E7C3E1C183C7E3C181C577D571C1C5A
:1001D0005E7F5E1C00183C1800FFE7C3E7FF0018B5
:1001E000241800FFE7DBE7FF30483A060E2629799E
:1001F0002926407F050507407F05253F5A3CE73CFF
:100200005A7F3E1C1C08081C1C3E7F14227F2214AF
:100210005F5F005F5F06097F017F006689956A6006
:100220006060606094A2FFA29408047E040810201D
:100230007E201008082A1C08081C2A08081E101016
:1002400010100C1E0C1E0C30383E3830060E3E0EC0
:1002500006000000000000005F000000070007002B
:10026000147F147F14242A7F2A1223130864623611
:10027000495620500008070300001C22410000419D
:10028000221C002A1C7F1C2A08083E0808008070D7
:10029000300008080808080000606000201008040A
:1002A000023E5149453E00427F400072494949465D
:1002B0002141494D331814127F1027454545393CDB
:1002C0004A494931412111090736494949364649C8
:1002D00049291E00001400000040340000000814EA
:1002E0002241141414141400412214080201590963
:1002F000063E415D594E7C1211127C7F49494936B8
:100300003E414141227F4141413E7F494949417F30
:10031000090909013E414151737F0808087F0041E6
:100320007F41002040413F017F081422417F40402F
:1003300040407F021C027F7F0408107F3E41414104
:100340003E7F090909063E4151215E7F0919294670
:10035000264949493203017F01033F4040403F1F86
:100360002040201F3F4038403F63140814630304BB
:100370007804036159494D43007F4141410204081B
:100380001020004141417F040201020440404040EE
:1003900040000307080020545478407F2844443824
:1003A0003844444428384444287F3854545418006E
:1003B000087E090218A4A49C787F080404780044ED
:1003C0007D40002040403D007F1028440000417FD8
:1003D00040007C047804787C080404783844444461
:1003E00038FC1824241818242418FC7C0804040859
:1003F000485454542404043F44243C4040207C1C72
:100400002040201C3C4030403C44281028444C9064
:1004100090907C4464544C440008364100000077BE
:100420000000004136080002010204023C26232697
:100430003C1EA1A161123A4040207A3854545559CB
:100440002155557941225454784221555478402001
:10045000545579400C1E527212395555555939541C
:1004600054545939555454580000457C41000245B4
:100470007D420001457C407D1211127DF028252827
:10048000F07C545545002054547C547C0A097F4923
:1004900032494949323A4444443A324A4848303A67
:1004A0004141217A3A42402078009DA0A07D3D4202
:1004B00042423D3D4040403D3C24FF2424487E498B
:1004C00043662B2FFC2F2BFF0929F620C0887E09BD
:1004D0000320545479410000447D413048484A3259
:1004E000384040227A007A0A0A727D0D19317D2641
:1004F00029292F28262929292630484D4020380827
:1005000008080808080808382F10C8ACBA2F1028A7
:1005100034FA00007B000008142A142222142A1442
:10052000085500550055AA55AA55AAFF55FF55FF75
:10053000000000FF00101010FF00141414FF001042
:1005400010FF00FF1010F010F0141414FC0014142D
:10055000F700FF0000FF00FF1414F404FC1414174C
:10056000101F10101F101F1414141F00101010F073
:10057000000000001F101010101F10101010F010BD
:10058000000000FF101010101010101010FF1000CD
:100590000000FF140000FF00FF00001F1017000004
:1005A000FC04F414141710171414F404F40000FFDE
:1005B00000F714141414141414F700F71414141777
:1005C0001410101F101F141414F4141010F010F055
:1005D00000001F101F0000001F14000000FC14008A
:1005E00000F010F01010FF10FF141414FF1410107E
:1005F000101F00000000F010FFFFFFFFFFF0F0F001
:10060000F0F0FFFFFF0000000000FFFF0F0F0F0FD3
:100610000F3844443844FC4A4A4A347E02020606F3
:10062000027E027E0263554941633844443C0440E3
:100630007E201E2006027E020299A5E7A5991C2AAB
:10064000492A1C4C7201724C304A4D4D303048786A
:100650004830BC625A463D3E494949007E0101018D
:100660007E2A2A2A2A2A44445F444440514A44406C
:1006700040444A51400000FF0103E080FF000008B1
:10068000086B6B083612362436060F090F06000079
:1006900018180000001010003040FF0101001F0179
:1006A000011E00191D1712003C3C3C3C00000000DC
:1006B00000030F3FFFFF3F0F030000183C3C1800F2
:1006C000003C7EE7C3C3E77E3C080C0EFFFF0E0C28
:1006D000087E3C3C187EFFE7C300DC2011241FBECF
:1006E000CFEFD8E0DEBFCDBF12E0A0E0B1E0E4E2A2
:1006F000FCE402C005900D92A235B107D9F725E0C0
:10070000A2E5B2E001C01D92A631B207E1F713E005
:10071000CEE6D3E004C02197FE010E940A26CD3622
:10072000D107C9F70E941B210C9410260C940000DD
:10073000982F2091630481E0213208F043C080911A
:100740003F048111FCCF8091620432E030933F047A
:1007500090933E049FEF90933D0410923C042093AD
:100760003B04A2E4B4E0EBE1F4E090E0291331C0F3
:1007700010921A0490911A04880F892B80931A04FE
:1007800080911904813049F51092190480911A045E
:100790008093BB008091BC0083FDF8CF85EC8093F3
:1007A000BC0080913F048230E1F380913D048F3F93
:1007B000B1F080913D048032A1F080913D048033FE
:1007C00091F084E01092410410926304109240046E
:1007D00008953D9131939F5FC9CF85EEE0CF80E0D2
:1007E000F1CF82E0EFCF83E0EDCF482FE62F282F27
:1007F00030E0863009F459C000F58330E1F18530EE
:1008000009F44FC04830E0F14E3010F1443108F0A7
:1008100063C02E50310981E090E0A0E0B0E004C058
:10082000880F991FAA1FBB1F2A95D2F728B1EE2364
:1008300009F44FC0822B88B908958A30C9F18B30F2
:10084000D9F18930F9F6809180008F77809380000C
:100850002850310981E090E0A0E0B0E004C0880FAA
:10086000991FAA1FBB1F2A95D2F7E1112EC025B1EF
:10087000809582232CC09091B0009F7D9093B00012
:1008800081E090E0A0E0B0E004C0880F991FAA1FAB
:10089000BB1F4A95D2F72BB1EE23A1F0822B8BB967
:1008A000089594B59F7D94BDEBCF94B59F77FBCF12
:1008B000809180008F7DCACF8091B0008F77809328
:1008C000B000C6CF80958223EACF25B1822B85B9AF
:1008D000089580958223AFCF089508950895AF922B
:1008E000BF92CF92DF92EF92FF920F931F93CF931D
:1008F000DF936C017B018B01040F151FEB015E017F
:10090000AE18BF08C017D10759F06991D601ED9113
:10091000FC910190F081E02DC6010995892B79F7B2
:10092000C501DF91CF911F910F91FF90EF90DF9064
:10093000CF90BF90AF900895FC01538D448D252F2B
:1009400030E0842F90E0821B930B541710F0CF9669
:10095000089501970895FC01918D828D981761F09B
:10096000A28DAE0FBF2FB11D5D968C91928D9F5FB2
:100970009F73928F90E008958FEF9FEF0895FC0191
:10098000918D828D981731F0828DE80FF11D858D44
:1009900090E008958FEF9FEF0895FC01918D228DD7
:1009A000892F90E0805C9F4F821B91098F7399275C
:1009B00008958BE694E00E94CD0421E0892B09F490
:1009C00020E0822F089580E090E0892B29F00E949A
:1009D000D90481110C9400000895FC01A48DA80F86
:1009E000B92FB11DA35ABF4F2C91848D90E0019671
:1009F0008F739927848FA689B7892C93A089B18991
:100A00008C91837080648C93938D848D981306C031
:100A10000288F389E02D80818F7D80830895EF9295
:100A2000FF920F931F93CF93DF93EC0181E0888FA8
:100A30009B8D8C8D98131AC0E889F989808185FF78
:100A400015C09FB7F894EE89FF896083E889F9891A
:100A500080818370806480839FBF81E090E0DF911C
:100A6000CF911F910F91FF90EF900895F62E0B8D6F
:100A700010E00F5F1F4F0F731127E02E8C8D8E112A
:100A80000CC00FB607FCFACFE889F989808185FF91
:100A9000F5CFCE010E94ED04F1CFEB8DEC0FFD2FD1
:100AA000F11DE35AFF4FF0829FB7F8940B8FEA894C
:100AB000FB8980818062CFCFCF93DF93EC01888D5B
:100AC0008823B9F0AA89BB89E889F9898C9185FDC9
:100AD00003C0808186FD0DC00FB607FCF7CF8C9157
:100AE00085FFF2CF808185FFEDCFCE010E94ED041E
:100AF000E9CFDF91CF91089585ED8093BC0080917F
:100B0000BC0084FDFCCF10923F0408952091210386
:100B1000260F3327331F21323105ECF420913F0497
:100B2000FC0190E080E0243069F082E00895A0911B
:100B300021032191AC014F5F5C4FA40FB52FB11D74
:100B40002C930196861798F380912103680F609388
:100B5000210380E0089581E008950895E091540311
:100B600080915303E81730F4F0E0EF51FD4F80819E
:100B700090E008958FEF9FEF089590915403809136
:100B800053032FEF3FEF981748F4E92FF0E0EF51B0
:100B9000FD4F208130E09F5F90935403C901089579
:100BA0008091530390915403891B990B0895CF9220
:100BB000DF92EF92FF920F931F93CF93DF937C010D
:100BC000CB018A0120914004222389F0EB016B01C3
:100BD000C40ED51ECC15DD0569F06991D701ED91E4
:100BE000FC910190F081E02DC7010995F3CF642FAE
:100BF0000E948605C801DF91CF911F910F91FF9050
:100C0000EF90DF90CF900895CF93DF931F92CDB7F1
:100C1000DEB76983209140042223F9F02091630418
:100C2000203258F021E030E0FC013383228390E051
:100C300080E00F90DF91CF91089580914104E82FDB
:100C4000F0E0EE5BFB4F998190838F5F80934104CE
:100C50008093630481E090E0ECCF61E0CE010196E7
:100C60000E948605F7CF90E080E00895E0EBF0E089
:100C700080818F7D80831092B10060E083E00C94CE
:100C8000F503E0EBF0E080818062808389E080936F
:100C9000B1000895CF93DF93C82FD62F81E08093C2
:100CA0000801109207010E9436062C2F30E050E018
:100CB00040E060EA7FE080E090E00E94D125A3EB75
:100CC000B0E02C93E4EBF0E080818C918D9FC0012B
:100CD000112464E670E00E949B25608380810E945D
:100CE000410685E0809308018AEF80930701DF9138
:100CF000CF910895CF93DF93DC0116968C911697D0
:100D0000882399F08D919C91119713969C938E93C3
:100D1000129781E090E015969C938E931497149609
:100D20008D919C911597892BD1F713961C921E9249
:100D30001297862F90E081509048880F991F840F5A
:100D4000951FEC01E881F9818591949111969C930E
:100D50008E9315961C921E92149716966C9381E0B2
:100D6000DF91CF910895CF93C82F811109C060E022
:100D700085E00E94F50384B58F7D84BDCF910895F1
:100D8000843640F084B58F7D84BD61E085E0CF91ED
:100D90000C94F50360E085E00E94F50384B58F7D37
:100DA00084BD87B58C9FC001112464E670E00E9469
:100DB0009B2568BD88B5882309F398B587B5981732
:100DC00020F784B58062D9CF80911004882379F010
:100DD00080910E0490910F04892B49F080910E04AC
:100DE00090910F04019790930F0480930E048091CB
:100DF0000904882379F08091070490910804892BD5
:100E000049F0809107049091080401979093080499
:100E1000809307040895809105049091060401963B
:100E200090930604809305042091050430910604F4
:100E300080910304909104048217930738F460E0D2
:100E400086E00E94F503109209040895A091090418
:100E50008091050490910604A150BB0BAA0FBB1F03
:100E6000AB5DBE4F880F991F880F991FED91FC91C4
:100E7000E80FF91F859194919093080480930704DB
:100E8000A0910904E0910504F0910604A150BB0B68
:100E9000AA0FBB1FAB5DBE4FEE0FFF1FEE0FFF1F74
:100EA000CF010297ED91FC91E80FF91F8591949184
:100EB00061E0892B09F460E086E00C94F5039091E1
:100EC0000904981750F4682F45E251E083E094E05C
:100ED0000E947A0681110C940B070895E0E8F0E077
:100EE00080818F7D808360E08AE00E94F50310920C
:100EF00081000895CF93DF9380910C0490910D04AD
:100F0000019690930D0480930C0420910C04309171
:100F10000D0480910A0490910B048217930738F412
:100F20000E946E0710921004DF91CF910895A09156
:100F3000100480910C0490910D04A150BB0BAA0FDA
:100F4000BB1FA35EBE4F880F991F880F991FED919D
:100F5000FC91E80FF91F8591949190930F04809371
:100F60000E04A0911004E0910C04F0910D04A15026
:100F7000BB0BAA0FBB1FA35EBE4FEE0FFF1FEE0FF2
:100F8000FF1FCF010297ED91FC91E80FF91FC5916A
:100F9000D4910E946E07209709F4C6CF9E0150E0BD
:100FA00040E069E07DE380E090E00E94D12530934D
:100FB0008900209388002091880030918900AEE15B
:100FC000B0E00E94F02524E630E040E050E00E94CE
:100FD000AF2530938B0020938A008091800080623F
:100FE0008093800084E1809381009ECF90911004D3
:100FF000981750F4682F4DE151E08AE094E00E9488
:101000007A0681110C947A070895229A60E08AE0AA
:101010000E94F503569A60E086E00E94F503559A17
:1010200060E085E00E94F50383E0809380001092E9
:101030008100109289001092880010928B0010920B
:101040008A0008958091670291E089278093670262
:1010500090916602911107C0882329F082E3809362
:1010600066020E94B3060895CF93C0916702CC2315
:1010700049F0823051F08130D1F08430D1F08330AA
:1010800031F1C0E08C2FCF9108958CEE90916602E3
:10109000482F552741950CF4509594171506CCF41C
:1010A00010926602809166020E94B306EBCF86EF33
:1010B000EDCF84E190916602492F480F5527551FC7
:1010C0004536510534F084E680936602EBCF8AE022
:1010D000F1CF890FF9CF6150710948F09EBD0DB471
:1010E00007FEFDCF8EBD0DB407FEFDCFF4CF0895F2
:1010F00008958EBD00000DB407FEFDCF8EB5089596
:10110000CF93DF93D82FC0915B0260E08C2F0E94B9
:10111000F5038D2F0E94790861E08C2FDF91CF912C
:101120000C94F5030F931F93CF93DF93082F162F83
:10113000C22F4150D42FD80F8AE20E94800880E04D
:101140000E947908802F0E94790880E00E94790827
:101150008D2F0E947908C150C10F8BE20E94800838
:1011600080E00E947908812F0E94790880E00E9427
:1011700079088C2F0E9479088CE2DF91CF911F9122
:101180000F910C948008CF93DF93803A78F467FD39
:101190000DC0EA0121E041E00E9492088D2F0E94DB
:1011A00079088C2FDF91CF910C947908DF91CF9142
:1011B0000895FF920F931F93CF93DF93D82FF62EAE
:1011C000172F042FC0915B0260E08C2F0E94F50363
:1011D0008D2F0E94790861E08C2F0E94F503CF2D9E
:1011E000D12F0C0F1D2F111DC017D10721F0899190
:1011F0000E947908F9CFDF91CF911F910F91FF9055
:1012000008958CBD9DBD0895EF92FF920F931F939B
:10121000CF93DF93F82EE62EC42FD22F282F240F42
:101220003327331F213A310514F0C0EACF192E2D90
:101230002D0F3327331F2138310514F0D0E8DE1984
:1012400080911405909115050E9401092D2F4C2FB6
:101250006E2D8F2D0E949208CD9FB0011124611533
:10126000710549F0C801DF91CF911F910F91FF9057
:10127000EF900C946B08DF91CF911F910F91FF902D
:10128000EF9008950F931F939FEF940F903A28F4D7
:101290009FEF920F97FF0E9404091F910F910895ED
:1012A0000F931F936623A9F08A01262F43E150E094
:1012B000481B5109842F880F880F840F8D5F62E7C8
:1012C000621B45E012161CF0219545E063E30E9485
:1012D00042091F910F9108959F92AF92BF92CF92B2
:1012E000DF92EF92FF920F931F93CF93DF93C82F5C
:1012F000D62F142F022F841316C021E0200F261B97
:101300000FEF1FEF41E06D2F8C2F0E944209DF91FC
:10131000CF911F910F91FF90EF90DF90CF90BF90F2
:10132000AF909F900895621307C041E0410F481BA2
:101330000FEF1FEF21E0E7CF809114059091150585
:101340000E940109202F2D1B330B690137FF03C0B9
:10135000D194C194D108812F8C1B990B5C0197FF0C
:1013600003C0B194A194B108AC14BD0434F4812F2E
:10137000102F082F8C2FCD2FD82F1C1730F48D2F26
:10138000D02F082F8C2FC12F182F912E9C1A202F71
:101390002D1B330BC90137FF03C09195819591092E
:1013A000F82EE92CE694D017B0F00FEF1C1708F4D4
:1013B000AECF4FEF5FEF6C2F8D2FAC14BD0414F048
:1013C0006D2F8C2F0E94C308EF18E7FE02C0D00FCC
:1013D000E90CCF5FEBCF01E0E9CFCF92DF92EF9244
:1013E000FF920F931F93CF93DF93D82FF62EC42F26
:1013F000E22E21E00E9442096FEF6E0D6F0D21E099
:101400004C2F8D2F0E9442092E2D41E06F2D8D2FE4
:101410000E9442098FEF8C0F2E2D41E06F2D8D0F12
:101420000E944209DF91CF911F910F91FF90EF90A1
:10143000DF90CF9008955F926F927F928F929F92EC
:10144000AF92BF92CF92DF92EF92FF920F931F93D2
:10145000CF93DF937C01D5E0F70101917F01002359
:1014600009F454C080911405909115050E9401095A
:101470000D0280011124D12CC12C0F541E4F5C2C65
:10148000F801EC0DFD1DE491612CAE2EB12CC09144
:10149000660470906A04E0FF0EC08090670490902C
:1014A000680460916904C130E1F4660DA401852DE2
:1014B000870D0E94C3086394F501F595E795F8E060
:1014C0006F12E3CF8FEFC81AD80AE5E0CE16D10429
:1014D000B1F68C2F880FC80FCC0FC70DC0936A04CC
:1014E000BBCFC69D600D11242C2F4C2F872DC59D81
:1014F000800D11240E949208CC9FB0011124611527
:101500007105C9F2C4010E946B08D5CFDF91CF915C
:101510001F910F91FF90EF90DF90CF90BF90AF9011
:101520009F908F907F906F905F9008950E941B0A0C
:1015300010926A0480916904885F80936904089519
:101540006F927F928F929F92AF92BF92CF92DF92D3
:10155000EF92FF920F931F93CF93DF93882E162F56
:101560005A01922E80911405909115050E9401094F
:10157000C92DD0E0279683E0D595C7958A95E1F7E8
:10158000612E600ED12CC12C712C161501F100E0DA
:101590000915C9F0802F8770770C81110AC0E02FE0
:1015A000E695E695E695EC0DFD2DF11DEA0DFB1D8A
:1015B000749077FE06C0A701612F802F880D0E94CE
:1015C000C3080F5FE5CF1F5FCC0EDD1EDECFDF91BE
:1015D000CF911F910F91FF90EF90DF90CF90BF9030
:1015E000AF909F908F907F906F90089586B190E01C
:1015F0009595879580959095817008952FB7F8946B
:10160000609111047091120480911304909114045C
:101610002FBF08958F929F92AF92BF92CF92DF9289
:10162000EF92FF920F934B015C0169017A01002355
:10163000C1F0609111047091120480911304909193
:101640001404C80CD91CEA1CFB1CC814D904EA04F5
:10165000FB0450F4681579058A059B05B0F0E0E0BD
:1016600009C00E94FE0AEDCFE1E06C157D058E05F4
:101670009F05A8F38E2F0F91FF90EF90DF90CF90F2
:10168000BF90AF909F908F900895A7019601285D1D
:101690003E4F4F4F5F4FE1E0621773078407950796
:1016A00048F7DDCF8F929F92AF92BF92CF92DF9299
:1016B000EF92FF926B017C010E94FE0A4B015C01DC
:1016C000C80CD91CEA1CFB1CC814D904EA04FB048E
:1016D00068F40E94FE0A681579058A059B05C8F71B
:1016E00089E2C80E81E0D81EE11CF11C0E94FE0AAE
:1016F0006C157D058E059F05C8F3FF90EF90DF9078
:10170000CF90BF90AF909F908F9008950F931F93AD
:10171000CF93DF930E94F60A811170C0419864E66E
:1017200070E080E090E00E94520B81E180935B02C8
:101730003B9A61E080915B020E94F503CFB7F89479
:1017400080915A0281111EC0E8E3F1E08491E4E245
:10175000F1E09491E82FF0E0EE0FFF1FE05FFE4F05
:10176000A591B491EC91E92321F461E08AE00E9413
:10177000F503229A8CB580618CBD8CB580648CBDDC
:10178000259A239A80915A028F5F80935A02CFBF85
:1017900080E58093140581E08093150540E070E0BA
:1017A00060E00E94D90866E970E080E090E00E9465
:1017B000520BC2E4D1E09E012F5F3F4FFE018491A6
:1017C0008823A1F02296F9011491012F0F77402F61
:1017D000BE010E94D908C00FD11D17FFECCF66E9EA
:1017E00070E080E090E00E94520BE5CF10E000E056
:1017F00020E840EA60E080E00E940409DF91CF9198
:101800001F910F9108956FB7F89450910B0140917B
:101810000A013091090120916504909164046FBF21
:10182000823089F038F4813059F0852F90E0805370
:10183000984F0895833049F08430B9F7892F01C05B
:10184000842F90E00895832FFCCF822FFACFCF937F
:10185000DF93CDB7DEB72C970FB6F894DEBF0FBE7F
:10186000CDBF8CE0E1E1F1E0DE01119601900D9237
:101870008A95E1F780910A01823011F520910B01E0
:1018800030E02053384FC90183709927892B39F4F0
:10189000C90164E670E00E948725892BC1F4C90163
:1018A00060E971E00E948725892B89F08CE12C96F4
:1018B0000FB6F894DEBF0FBECDBFDF91CF91089574
:1018C000E0910A01EC0FFD2FF11D8081F0CF8DE139
:1018D000EECF8F929F92AF92BF92DF92EF92FF92E4
:1018E0000F931F93CF93DF937C018EE880937A0050
:1018F00010E4D0E0C0E0DD24DA940E94FE0A4B013F
:101900005C01D092540280917A00806480937A00C6
:10191000809154028F3F69F400E02AE030E040E01B
:1019200050E0C501B4010E940A0B882389F380E0CE
:1019300014C080915402C80FD11D1150F1F61092BD
:101940007A0085E0D695C7958A95E1F7F701D183AE
:10195000C083138281E0CD2B51F3DF91CF911F9192
:101960000F91FF90EF90DF90BF90AF909F908F907E
:101970000895CF93DF9300D000D0CDB7DEB71982A2
:101980001A821B821C82CE0101960E94690C882358
:1019900001F129813A81243A81E03807C0F42733E4
:1019A00081E03807B0F044E6429FC001439F900DAC
:1019B0001124885199476EE670E00E948725862F92
:1019C0000F900F900F900F90DF91CF91089584E6C4
:1019D000F7CF80E0F5CFCF92DF92EF92FF926B01CD
:1019E0007C012091060130E0A8EEB3E00E94F025D2
:1019F000C616D706E806F90688F44091040150E0BF
:101A000070E060E081E0C416D506E606F70608F44B
:101A100080E0FF90EF90DF90CF90089582E0F9CFC3
:101A20004F925F926F927F928F929F92AF92BF92EE
:101A3000CF92DF92EF92FF92CF93CFB7F894C090FE
:101A40001104D0901204E0901304F09014048091DB
:101A5000DD029091DE02A091DF02B091E002892BBD
:101A60008A2B8B2BC9F02091DD023091DE02409150
:101A7000DF025091E002CFBFCA01B901CF91FF90C0
:101A8000EF90DF90CF90BF90AF909F908F907F901E
:101A90006F905F904F90089590E080E020E030E0FC
:101AA000A901F0E0E0E0DC01AA0FBB1FAA0FBB1FF9
:101AB000A355BD4F8D909D90AD90BC90280D391DC4
:101AC0004A1D5B1DDC01AF55BD4F6C91E60FF11D4A
:101AD000283231054105510580F4833031F4220F5D
:101AE000331F441F551FEE0FFF1F01968C309105C9
:101AF000D1F620E030E0A901BECFA0E5B6E40E9417
:101B0000FF252B013C019F01A8EEB3E00E94F025C8
:101B10004B015C01C701B60128EE33E040E050E024
:101B20000E94AF25A5019401260F371F481F591F9A
:101B3000C301B2010E94AF252093DD023093DE0283
:101B40004093DF025093E00296CF4F925F926F92E4
:101B50007F928F929F92AF92BF92CF92DF92EF923D
:101B6000FF920F93CF93DF9300D000D0CDB7DEB7B5
:101B70008091AD029091AE02A091AF02B091B002FF
:101B8000892B8A2B8B2B29F4809107018B3F09F439
:101B9000ADC08091AD029091AE02A091AF02B09124
:101BA000B0020196A11DB11D8093AD029093AE02CB
:101BB000A093AF02B093B002809107018A3F58F41E
:101BC0008091070191E0980F90930701823318F0FC
:101BD0008AEF8093070181E08093550360919D0215
:101BE00070919E0280919F029091A00201E020EDF1
:101BF00037E040E050E00E940A0B882309F476C0E9
:101C00008091110490911204A0911304B0911404D6
:101C100080939D0290939E02A0939F02B093A00296
:101C200080919D0290919E02A0919F02B091A0028E
:101C300089839A83AB83BC838091A102882309F4B2
:101C400055C02091AD023091AE024091AF0250914B
:101C5000B002E091A1026091060188EE93E0689FD6
:101C60006001699FD00C1124F12CE12CA0E5B6E4B1
:101C70000E94FF252B013C012E2F30E0A8EEB3E09F
:101C80000E94F0254B015C0169817A818B819C81E6
:101C900028EE33E040E050E00E94AF25A50194011A
:101CA000260F371F481F591FC301B2010E94AF25DD
:101CB0002C153D054E055F05C8F00E94F60A8111FE
:101CC00015C00F900F900F900F90DF91CF910F9153
:101CD000FF90EF90DF90CF90BF90AF909F908F904C
:101CE0007F906F905F904F900C94860B0F900F90A9
:101CF0000F900F90DF91CF910F91FF90EF90DF90B9
:101D0000CF90BF90AF909F908F907F906F905F909B
:101D10004F900895CF92DF92EF92FF920F93CF935F
:101D200091E09093400495E79093620410924104EF
:101D300010926304682F88E095E00E94040680E01A
:101D40000E94980380913F048111FCCF81E0809331
:101D50003F0410923E049FEF90933D0410923C0488
:101D600010923B0480931A0480911A048A6E809327
:101D70001A04809119048130F1F5109219048091B0
:101D80001A048093BB008091BC0083FDF8CF85ECE2
:101D90008093BC0080913F048130E1F380913C044A
:101DA00081112BC080913C04ABE1B4E0E1EEF2E0A4
:101DB000C0E0C81324C010925403C09353030E9480
:101DC000FE0A6B017C01C1111EC000E022E330E07D
:101DD00040E050E0C701B6010E940A0B8823A9F336
:101DE00081E00E9498038C2FCF910F91FF90EF908C
:101DF000DF90CF90089585EECBCF81E0D5CF9D9138
:101E00009193CF5FD6CF88E095E00E94BD05C82FA3
:101E1000E7CFCF93DF93EB010E9455258883CE0156
:101E2000DF91CF910895CF93DF931F92CDB7DEB7A7
:101E3000BE016F5F7F4F82E090E00E94090F8981B1
:101E400081508E3110F08DE0898389810F90DF9170
:101E5000CF910895CF93DF931F92CDB7DEB7BE0128
:101E60006F5F7F4F81E090E00E94090F898182536C
:101E7000853610F084E6898389810F90DF91CF91B8
:101E80000895CF9390919C022FEF280F223008F0F5
:101E90008AC0911118C0209105012F3FE1F18230D5
:101EA00081F483E0281B8CE32C3308F488C0209352
:101EB00005010E94130F682F809105010E944A06B8
:101EC00024C081E0EFCF9130A1F4209105012F3F94
:101ED00011F1823009F493E081E0291708F486C0FB
:101EE000291B20930501C09105010E942A0F6C2F28
:101EF000E5CF923081F4209105012F3F61F0809170
:101F0000B100882329F00E94360610929A0244C03C
:101F10000E944106FACF2AEF290F233078F420914E
:101F200005012F3F89F1823039F48AE0281750F5F6
:101F300081E080930501E9CF81E0F8CF933091F4FF
:101F4000209105012F3F19F190919B02933041F4AC
:101F5000823031F4921760F7291B20930501D5CF09
:101F600091E0F8CF943081F4209105012F3F79F072
:101F7000823031F485E0821728F010920501C5CF38
:101F800081E0F9CF281BE9CF992309F499C091503A
:101F9000953029F090939C0281E0CF91089584E0E0
:101FA00080939C02F9CF911111C0209105012F3F20
:101FB00039F1843039F483E0820F833828F4809338
:101FC000050177CF81E0F8CF82E8F9CF913089F42D
:101FD000209105012F3FA1F0843009F493E0920F86
:101FE0008EE19F3118F4909305017DCF8093050118
:101FF0007ACF923029F4209105012F3F09F07FCF4D
:102000002AEF290F233080F4209105012F3F09F496
:102010004FC0843039F48AE0820F813F08F489CFC1
:1020200080EF87CF81E0F8CF933019F5C09105019B
:10203000CF3F09F43FC090919B02933069F4843004
:1020400059F483E0C80FC0930501923039F48CE055
:10205000CD3008F06ECF59CF81E0F4CF933009F046
:1020600054CF0E94270C8C1708F04FCF0E94270CEA
:1020700060CF9430E9F4209105012F3FD9F08430EE
:1020800069F485E0820F8093050190919B02943062
:1020900039F4873108F439CF87E14BCF81E0F2CFB3
:1020A000953009F032CF8B3308F42FCF8BE341CF3B
:1020B000983031F09F5F953009F06CCF86E070CF9B
:1020C00080E06BCFCF93DF931F92CDB7DEB764E094
:1020D00071E08FE090E00E94090F66E071E080E11E
:1020E00090E00E94090F8091040181508E3F18F00A
:1020F00084E6809304018091060181508E3F18F0A0
:1021000081E0809306011982BE016F5F7F4F81E1FC
:1021100090E00E94090F898181508E3F10F084EB7E
:1021200089838981809399020F90DF91CF910895DF
:10213000FF920F931F93CF93DF93EC01F62E08814C
:102140001981C8010E945525F81621F06F2DC8018C
:102150000E945D25CE01DF91CF911F910F91FF90DD
:1021600008950F931F93CF93DF9300D0CDB7DEB7C1
:102170008B019A838983FB016081CE0101960E94C5
:102180009810C8010F900F90DF91CF911F910F9180
:102190000895EF92FF920F931F93CF93DF9300D098
:1021A00000D000D0CDB7DEB78451990B092E000CBA
:1021B000AA0BBB0B34E0880F991FAA1FBB1F3A95CF
:1021C000D1F7860F911DA11DB11D55E0880F991FF4
:1021D000AA1FBB1F5A95D1F7840F911DA11DB11DD8
:1021E00065E0880F991FAA1FBB1F6A95D1F7820F60
:1021F000911DA11DB11D76E0880F991FAA1FBB1F5D
:102200007A95D1F7800F911DA11DB11D89839A8305
:10221000AB83BC83CE0101967C0106E110E01E83F6
:102220000D83F70161917F01CE0105960E94981000
:102230000F5F1F4F0A31110591F726960FB6F894DC
:10224000DEBF0FBECDBFDF91CF911F910F91FF90E9
:10225000EF9008950F930FB7F8948230E1F1A0F456
:10226000813001F1605D60930B010FBF0091640448
:10227000209165044091090160910A0180910B0150
:102280000E94C9100F910895833099F1843051F75D
:1022900060936404809164048C3338F38BE38093FF
:1022A0006404E3CF60930A0190910A019D3020F00D
:1022B0008CE080930A0104C090910A019923C9F32C
:1022C0000E94270C90910901891778F60E94270C2B
:1022D00080930901CACF609309010E94270C909155
:1022E0000901891798F3809109018111BECF81E01E
:1022F000EFCF6093650480916504883108F4B5CF11
:1023000087E180936504B1CF1F93CF93DF9300D013
:1023100000D000D01F92CDB7DEB710919C021111F2
:102320001FC0809105018F3F89F40E942A0F80937E
:10233000050110929A0281E027960FB6F894DEBF4D
:102340000FBECDBFDF91CF911F9108958F83BE0146
:10235000695F7F4F81E090E00E94B1108FEFE7CF7F
:10236000113071F4809105018F3F19F40E94130F11
:10237000DECF8E83BE016A5F7F4F82E090E0ECCFBC
:10238000123031F4809105018F3F41F781E0CFCFCA
:102390008AEF810F823088F5809105018F3F39F4F3
:1023A00080910401163019F280910601C0CF1630D9
:1023B000A9F4909106018D839C83BE016B5F7F4FD2
:1023C0008FE090E00E94B110BE016C5F7F4F80E112
:1023D00090E00E94B1100E946210C0CF9091040161
:1023E0009B838A83BE016D5F7F4F8FE090E00E94E8
:1023F000B110BE016E5F7F4FEACF183071F480914B
:1024000005018F3F19F48091990291CF8983BE0114
:102410006F5F7F4F81E190E0DCCF133061F5609119
:1024200005016F3F41F481E080939B0280E00E94B0
:10243000030C805D7CCF80919B0270E0813061F461
:102440006053784F80E00E942A1182E080939B02C3
:1024500081E00E94030C6BCF823039F481E00E944E
:102460002A1110939B0282E0F4CF82E00E942A118D
:1024700010929B0273CF143009F05BCF609105017D
:102480006F3F21F410939B0283E0E3CF70E08091D3
:102490009B02843041F483E00E942A1185E08093FE
:1024A0009B0284E0D6CF84E0E1CF0F931F93CF93BC
:1024B000DF93CDB7DEB72A970FB6F894DEBF0FBE15
:1024C000CDBFCB018E010F5F1F4F2AE0F8011192A3
:1024D0002A95E9F74AE0B8010E942025C8010E9428
:1024E0001B0A2A960FB6F894DEBF0FBECDBFDF9150
:1024F000CF911F910F910895BC0190E080E00C9462
:102500005512CF92DF92EF92FF92CF93DF93C42FB9
:10251000D0916A04683E23E072078105910548F571
:1025200023E0411101C021E020936604CB010E9409
:102530007C1280916904CC23A9F092E09093660408
:10254000885F90916A04905F90936A048093690415
:1025500089E791E0DF91CF91FF90EF90DF90CF90EE
:102560000C941B0A91E090936604885FD0936A04F0
:10257000EDCF603422E472072FE082079105D8F591
:1025800023E0411101C021E02093660428EE33E0EE
:1025900040E050E00E94AF256B017C01C9010E9420
:1025A0007C128EE791E00E941B0AC701B60124E667
:1025B00030E040E050E00E94AF25C9010E947C124B
:1025C00080916904CC2371F0885F90916A04905FD8
:1025D00090936A048093690482E08093660480E8A3
:1025E00091E0B8CF91E090936604885FD0936A043D
:1025F00080936904F4CF23E0411101C021E02093CE
:10260000660420E432E44FE050E00E94AF256B0105
:102610007C01C9010E947C128EE791E00E941B0A96
:10262000C701B60120EA36E841E050E00E94AF253C
:10263000C9010E947C1280916904CC2371F0885FEB
:1026400090916A04905F90936A048093690482E099
:102650008093660481E891E07DCF91E090936604D9
:10266000885FD0936A0480936904F4CF2F923F92DD
:102670004F925F926F927F928F929F92AF92BF9292
:10268000CF92DF92EF92FF920F931F93CF93DF933E
:10269000782E0E94F60A882309F4C5C1772089F1B3
:1026A0008FEF9FEFDC018093000190930101A093D5
:1026B0000201B09303010FEF1FEF21E446E662E34E
:1026C00082E00E94ED0984E1E4E8F2E0DF01282FD6
:1026D0001D922A95E9F7E0E7F2E0DF011D928A9565
:1026E000E9F710926C0210926D0210926E02109235
:1026F0006F02109268021092690210926A021092A0
:102700006B020E94100D6B017C01609100017091C1
:1027100001018091020190910301C616D706E806D7
:10272000F90671F1DAE0D0936A04C4E1C093690458
:10273000109268041092670441E00E948112C70160
:10274000B6010E94EB0CD0936A04C09369048823FD
:1027500009F426C1813009F026C180EE9FEF9093E5
:1027600068048093670441E0C701B6010E948112AA
:10277000C0920001D0920101E0920201F0920301A7
:1027800080915703882309F4F7C01092570308E596
:1027900013E028EF33E0F801C12CD12C76018081C1
:1027A0009181A281B381C816D906EA06FB0610F40E
:1027B0006C017D0138962E173F0789F7C114D104AB
:1027C000E104F10409F45BC080916C0290916D0208
:1027D000A0916E02B0916F0280936802909369029B
:1027E000A0936A02B0936B02C0926C02D0926D0209
:1027F000E0926E02F0926F0284E1E4E8F2E0A0E77A
:10280000B2E001900D928A95E1F7C701B6012FE37E
:1028100030E040E050E00E94AF2519012A01C4E8F1
:10282000D2E09FE3692EF80180809180A280B3807E
:10283000F2E02F1631044104510408F0B7C0AFE3B1
:10284000B0E0A50194010E94FF25A70196010E9416
:10285000AF2528838881803408F4ADC06882C50123
:10286000B4010E94EB0C8111B1C08881806488831F
:10287000085F1F4F219682E0C839D807A1F684E887
:10288000E82E82E0F82E00E712E0D0E0D7018D912B
:102890007D01F80191918F018917E1F0C82FCF7365
:1028A000F92FFF73DF2E9827907C09F49AC0807C63
:1028B00040EE57E0803431F040EE5FEF803811F0A9
:1028C00040E058EF6C2F8D2F0E94500961EC6C0F87
:1028D000CD119DC0DF5FD431C9F6C0906C02D0909D
:1028E0006D02E0906E02F0906F02C114D104E10419
:1028F000F10409F441C0609168027091690280910D
:102900006A0290916B02C616D706E806F90611F422
:10291000772091F1D9E6D0936A04C4E3C0936904A7
:10292000109268041092670440E00E948112C7016F
:10293000B6010E94EB0CD0936A04C093690488230B
:1029400009F46BC0813009F06BC080EE9FEF90936B
:1029500068048093670440E0C701B6010E948112B9
:1029600022E34BE662E387E60E946C0921E54BE631
:1029700061E587E60E946C0981E0DF91CF911F91AC
:102980000F91FF90EF90DF90CF90BF90AF909F900E
:102990008F907F906F905F904F903F902F90089511
:1029A00080EE97E0DCCE80E098EFD9CEC501B4018F
:1029B000A20191014CCF811152CF81149104A10445
:1029C000B10409F44CCF21E0288349CF813019F4B8
:1029D000888180684CCF823009F04ACF8881806C32
:1029E00046CFFC1778F4807C40EE57E0803431F01D
:1029F00040EE5FEF803811F040E058EF6C2F8D2FE4
:102A00000E945009CD1508F065CF6C2F6D1950E06C
:102A100040E08D2F0E9450095DCF80EE97E097CF68
:102A200080E098EF94CFA9CF682F70E090E080E02D
:102A30000C9455126F927F928F929F92AF92BF9299
:102A4000CF92DF92EF92FF920F931F93CF93DF937A
:102A5000B82E8FB7F894E0900B01F12C20E3E21A26
:102A600028EFF20AC0900A01D09009018090650415
:102A7000909064048FBF0E94100D0E94EB0CD82F21
:102A80000E94B90C90E065E070E00E949B25A62EA4
:102A9000C62FC701E3E0CE9E800D911D1124F5E005
:102AA000DF9E800D911D11242BE0929E800D911DC3
:102AB0001124E7E08E9E800D911D112420910C01C0
:102AC00030910D018217930709F44CC090930D01CA
:102AD00080930C0110926A041092690410E000E0E7
:102AE00027E040E660E080E00E9404098FEF9FEF5E
:102AF000909368048093670481E080936604F9E012
:102B0000F81520F089E891E00E941B0A882D0E94A8
:102B1000141529E085E891E0291510F48EEC91E078
:102B20000E941B0A892D0E94141589ED91E00E94D4
:102B30001B0AC7010E947C1289E08C1508F461C051
:102B400088E891E00E941B0A8C2D0E94141599E0E0
:102B50009D1508F459C088E891E00E941B0A8D2D4C
:102B60000E941415809110018B15C9F1B0921001CB
:102B700035E4832E31E0932E44E1742E10E0CC2412
:102B8000CA94DC2C662463948FEF9FEFB11202C0CD
:102B900080EE97E0F401428153817C010181208124
:102BA00069E7872D0E94A00A133089F080E1870D24
:102BB00080936A0489E780936904D0926804C09284
:102BC0006704609266048DE891E00E941B0A1F5F13
:102BD000F4E08F0E911C2EE1720E1430A9F6809154
:102BE0000F01C81709F43FC0A0920F01CE3078F44E
:102BF000E12C28EFF22EC63088F0EE24EA94FE2C69
:102C00000DC08BE891E09ECF8BE891E0A6CF90EECF
:102C1000E92E97E0F92EC33109F44DC0CC2349F0D9
:102C2000870128E04C2F60E08AE80E944209C33106
:102C300098F484E1D82EDC1AC65710E000E028E0B2
:102C40004D2D60E08C2F0E944209870128E04D2D18
:102C500060E08C2F0E94ED09870124E042E062E0F1
:102C60008EE90E94040980910E01D817A9F0D09333
:102C70000E0180EE97E0DD2331F080E098EFD13057
:102C800011F480EE9FEF7C0108E028E041ED56E072
:102C900060E083E70E94A00ADF91CF911F910F911E
:102CA000FF90EF90DF90CF90BF90AF909F908F906C
:102CB0007F906F900895C4E1B3CFCF92DF92EF92EF
:102CC000FF92CF930E94FE0A6B017C018091550216
:102CD00090915602A0915702B09158028C159D0513
:102CE000AE05BF05D8F580910204882371F01092DB
:102CF000020483E00E943613C09102040E94F60A87
:102D0000882319F08C2F0E941A1580EDC8168AE8C6
:102D1000D8068FEFE806F80690F08FEF9FEFDC0102
:102D20008093550290935602A0935702B093580295
:102D300081E0CF91FF90EF90DF90CF90089580E3F6
:102D4000C80E85E7D81EE11CF11CC0925502D09236
:102D50005602E0925702F0925802EACF80E0E9CFA3
:102D6000EF92FF920F931F93CF93DF93F82EE62EEF
:102D7000EA01682F660F660F660F6E5E80E580932E
:102D80006A046093690410E000E028E040E50E94D6
:102D9000040980919C028F1122C0109105011F3FF0
:102DA000F1F080EE9FEF90936804809367048FE8C2
:102DB00091E00E941B0A812F0E94141589ED91E079
:102DC0000E941B0ACE010E941B0A81E991E0DF915B
:102DD000CF911F910F91FF90EF900C941B0A8FEFF2
:102DE0009FEF90936804809367048E2D0E941415C2
:102DF00089ED91E00E941B0ACE01E9CFEF92FF928C
:102E00000F931F93CF93DF93C82F0E94F60A882356
:102E100009F45DC110926A0482E1809369048FEF26
:102E20009FEF909368048093670481E08093660429
:102E3000CC2351F1C13009F052C188E080939C024B
:102E400086E991E00E94960A82EA91E00E94960A41
:102E50008EEA91E00E94960A85EB91E00E94960A24
:102E60008EEB91E00E94960A87EC91E00E94960A10
:102E700080ED91E00E94960A8BED91E00E94960A07
:102E800086EE91E00E94960A60919802D0919C0291
:102E90006D1328C1C11126C180919A02811114C1FC
:102EA0000E942A0F44EF51E0682F80E00E94B01684
:102EB0000E94130F48EF51E0682F81E00E94B01686
:102EC000C091B10080E580936A0482E28093690436
:102ED00010E000E028E040E562E280E50E9404099D
:102EE00080919C02823009F01FC1809105018F3FC3
:102EF00009F41AC180EE9FEF9093680480936704F1
:102F00008FE891E00E941B0A89E092E0CC2311F047
:102F100083E991E00E941B0A81E991E00E941B0A6B
:102F20004AEF51E06091040186E00E94B0164DEF37
:102F300051E06091060187E00E94B016609199020D
:102F400040E052E088E00E94B01680E580936A0479
:102F50008AE28093690410E000E028E040E56AE23C
:102F600080E50E94040980919C02833009F010C121
:102F7000C0910501CF3F09F40BC180919B028130C4
:102F800009F0E0C080EE9FEF90936804809367049F
:102F900084E092E00E941B0A8C2F0E94141581E9A4
:102FA00091E00E941B0A8FEF9FEF9093680480933B
:102FB00067048BE891E00E941B0A80919B0282309B
:102FC00009F0CCC080EE9FEF909368048093670473
:102FD0008FE891E00E941B0A809105010E94141560
:102FE00081E991E00E941B0A8FEF9FEF90936804A4
:102FF000809367048BE891E00E941B0A80919B02FA
:10300000833009F0B9C080EE9FEF909368048093FD
:1030100067048FE891E00E941B0A809105010E94DD
:10302000141581E991E00E941B0A80E580936A04EF
:1030300082E38093690410E000E028E040E562E369
:1030400080E50E94040980919C02843009F0E7C069
:10305000C0910501CF3F09F4E2C080919B0284300A
:1030600009F0BDC080EE9FEF9093680480936704E1
:103070008FE891E00E941B0A8C2F0E94141581E9B1
:1030800091E00E941B0A8FEF9FEF9093680480935A
:1030900067048EEC91E00E941B0A80919B028530B0
:1030A00009F0B1C080EE9FEF9093680480936704AD
:1030B0008FE891E00E941B0A809105010E9414157F
:1030C00081E991E00E941B0A81E080939A0280E0EE
:1030D000DF91CF911F910F91FF90EF900895109283
:1030E0009C02AECE660F660F660F6E5EF12CE12C71
:1030F00008E028E049EC56E083E00E94A00A6D2F2A
:10310000660F660F660F6E5E80EEE82EFF24FA945F
:1031100028E049EC56E083E00E94A00AD093980290
:10312000CC2309F4B9CEBCCE8FEF9FEF9093680407
:103130008093670489E092E0CC2309F4EFCE83E921
:1031400091E0ECCE8FEF9FEF90936804809367043B
:1031500080E00E94030C0E947C1225CF81E00E9437
:10316000030CC82F8A3020F489E891E00E941B0AE2
:103170008C2F0E94141538CF82E00E94030CC82FB8
:1031800089E891E0CA3040F18C2F0E9414154DCF90
:103190008FEF9FEF909368048093670480E00E9414
:1031A000030C0E947C1281E00E94030CC82F88E867
:1031B00091E0CA3010F08BE891E00E941B0A8C2F3E
:1031C0000E94141582E00E94030CC82F88E891E049
:1031D000CA3010F08BE891E00E941B0AD5CF8FEF28
:1031E0009FEF909368048093670483E00E94030C30
:1031F000C82F8A3020F489E891E00E941B0A8C2FA6
:103200000E94141540CF84E00E94030CC82F89E867
:1032100091E0CA3008F18C2F0E94141555CF8FEF22
:103220009FEF909368048093670483E00E94030CEF
:10323000C82F8A3020F489E891E00E941B0A8C2F65
:103240000E94141584E00E94030CC82F85E891E0C9
:10325000CA3010F08EEC91E00E941B0ADCCFBF92C6
:10326000CF92DF92EF92FF920F931F93CF93DF9352
:10327000B82E0E94F60AC82E882309F4B7C0BB20D6
:10328000D1F10FEF1FEF24E142E368E284E10E94F5
:10329000ED0922E240E567E286E40E946C0921E440
:1032A00040E56CE386E40E946C0921E440E563E2BA
:1032B00080E50E946C0949E5E42E46ECF42E08E016
:1032C00028E041EC56E06EE289E20E94A00AF12C6F
:1032D000E12C28E049EB56E06EE289E20E94A00A68
:1032E00059E5E52E56ECF52E28E041EB56E06EE26E
:1032F00088E40E94A00AC0916502D0916602D09035
:103300006702CD1307C0809164028D1103C0BB20FA
:1033100009F46CC0D11175C039E5E32E36ECF32EFB
:1033200008E028E041EB56E06EE288E40E94A00A43
:1033300028E041EC56E06EE289E20E94A00AF12CFE
:10334000E12C28E049EB56E06EE289E20E94A00AF7
:1033500010E000E02AE046E660E58DE10E94040905
:10336000DD2041F00FEF1FEF2AE046E660E58DE13A
:103370000E94ED0984E680936A048BE280936904DD
:1033800082E080936604109268041092670488E0DB
:1033900092E0CC2369F08C2F0E9414158091650275
:1033A000843620F489ED91E00E941B0A88EF91E0B9
:1033B0000E941B0A84E680936A048BE2809369046E
:1033C0008FEF9FEF9093680480936704809166026B
:1033D000811170C088E092E00E941B0A8091660211
:1033E0008093650280916702809364028C2DDF9147
:1033F000CF911F910F91FF90EF90DF90CF90BF90F2
:10340000089580EEE82EFF24FA9408E028E041EBCE
:1034100056E06EE288E40E94A00AEE24EA94FE2CB4
:1034200028E041EC56E06EE289E20E94A00A20EE1C
:10343000E22E27E0F22E28E049EB56E06EE289E228
:103440000E94A00A80916402DD2041F1811110C028
:103450000FEF1FEF2AE046E660E58DE10E94ED09DF
:1034600000EE1FEF28E04C2F61E58EE10E9442093B
:10347000CD1758F44D2F4C1B00EE1FEF28E061E5EF
:103480008EE18C0F0E94420975CF4C2F4D1B10E02E
:1034900000E028E061E58EE18D0FF4CF882309F488
:1034A00069CF10E000E02AE046E660E58DE10E9489
:1034B000040960CF0E94141580916602843620F4BE
:1034C00089ED91E00E941B0A88EF91E085CFBF92C1
:1034D000CF92DF92EF92FF920F931F93CF93DF93E0
:1034E00000D000D0CDB7DEB7182F0E94F60AB82E54
:1034F000882321F119821A821B821C8219994BC0E0
:1035000060915C0270915D0280915E0290915F0219
:10351000611571058105910501F100E028E833E1AD
:1035200040E050E00E940A0B811117C0CE010196C5
:103530000E94690C81116CC011116AC08B2D0F9013
:103540000F900F900F90DF91CF911F910F91FF90EF
:10355000EF90DF90CF90BF9008950E94FE0A609395
:103560005C0270935D0280935E0290935F02429AC8
:1035700064E670E080E090E00E94520B429805E023
:103580001999D4CF6AE070E080E090E00E94520B7D
:103590000150B1F7CBCF8091150490911604A09102
:1035A0001704B0911804892B8A2B8B2B69F080911A
:1035B000150490911604A0911704B0911804019776
:1035C000A105B10509F0B2CF85E60E948A0E282F29
:1035D00030E0322F22276901330FEE08FF0884E61E
:1035E0000E948A0EA7019601280F311D411D511D11
:1035F0002F3F8FEF38074105510531F02115310577
:103600004105510509F011C1CE0101960E94690CD6
:1036100081E080936604E0906002F09061021123E3
:1036200009F459C18FEF9FEF90936804809367046A
:1036300004E100936A048EE1809369048DE092E0D6
:103640000E941B0A00936A0486E28093690489E160
:1036500092E00E941B0A00936A048EE28093690440
:1036600085E292E00E941B0A10926804109267049F
:1036700084E680936A048EE18093690434E6C32E65
:10368000D12CC701B6010E948725862F0E941415F0
:103690008091600290916102B6010E9487257C01B1
:1036A0008AE0E816F10408F004C181E392E00E9488
:1036B0001B0A8E2D0E94141584E392E00E941B0ABF
:1036C0000E94B90C873408F0F7C08F3108F4F7C0B6
:1036D0008FEF9FEF909368048093670484E6809354
:1036E0006A048EE18093690489819A8124E6E22E3E
:1036F000F12CB7010E948725862F0E94141589811D
:103700009A81B7010E9487250A9708F0DBC081E300
:1037100092E00E941B0A89819A8164E670E00E940F
:1037200087250E94141584E392E00E941B0A898178
:103730009A819093610280936002112309F4D1C0B1
:10374000109268041092670484E6E82EE0926A04FE
:1037500096E2F92EF0926904809162020AE0602FED
:103760000E947B250E9414158EE791E00E941B0A9F
:1037700080916202602F0E947B25892F0E94141580
:1037800086E392E00E941B0A8FEF9FEF90936804FC
:1037900080936704E0926A04F09269048B81602F41
:1037A0000E947B250E9414158EE791E00E941B0A5F
:1037B0008B81602F0E947B25892F0E94141586E340
:1037C00092E00E941B0A8B8180936202112309F40C
:1037D0008DC0109268041092670484E680936A0496
:1037E0008EE28093690480916302882309F46DC09E
:1037F00088E392E00E941B0A8C8120EE37E0811161
:1038000002C020EE3FEF309368042093670494E6F3
:1038100090936A04882309F45BC088E392E00E94D5
:103820001B0A8C818093630289CEA7EEB8E60E94C2
:10383000FF2520E432E44FE050E00E94AF252C5FEA
:103840003E4F3A83298387E60E948A0E282F30E074
:10385000322F22276901330FEE08FF0886E60E9407
:103860008A0EA7019601280F311D411D511D2115FA
:1038700080E838074105510560F08FEF9FEFA0E029
:10388000B0E06C017D01C21AD30AE40AF50AA7016F
:1038900096016BE873EF81E090E00E946B2520E8D1
:1038A00036E948E950E00E94AF252B8381E08C8304
:1038B000AFCE8EE791E0FBCE80EE97E00BCF80E0BD
:1038C00098EF08CF8EE791E024CF80E492E092CF8A
:1038D00080E492E0A4CF89819A818E159F0509F03A
:1038E000C3CE9B818091620298132ACF9C818091E4
:1038F000630298136ECF22CE1F920F920FB60F92D3
:1039000011242F933F934F935F936F937F938F93E4
:103910009F93AF93BF93EF93FF938BE694E00E9446
:10392000ED04FF91EF91BF91AF919F918F917F91A6
:103930006F915F914F913F912F910F900FBE0F901C
:103940001F9018951F920F920FB60F9211242F936C
:103950008F939F93EF93FF93E0917B04F0917C040E
:103960008081E0918104F091820482FD1BC09081EE
:10397000809184048F5F8F7320918504821741F0BA
:10398000E0918404F0E0E559FB4F958F8093840427
:10399000FF91EF919F918F912F910F900FBE0F90FC
:1039A0001F9018958081F4CF1F920F920FB60F923F
:1039B00011248F939F93AF93BF938091490390916C
:1039C0004A03A0914B03B0914C030296A11DB11D77
:1039D0008093490390934A03A0934B03B0934C0305
:1039E0008091480396E0980F9D37F0F49093480338
:1039F0008091440390914503A0914603B091470301
:103A00000196A11DB11D8093440390934503A0939B
:103A10004603B0934703BF91AF919F918F910F9051
:103A20000FBE0F901F901895875780934803809181
:103A3000490390914A03A0914B03B0914C03019626
:103A4000A11DB11D8093490390934A03A0934B039A
:103A5000B0934C03CDCF1F920F920FB60F9211244B
:103A60002F933F934F935F936F937F938F939F9386
:103A7000AF93BF93EF93FF93F0E0E0E00995FF91E0
:103A8000EF91BF91AF919F918F917F916F915F91D6
:103A90004F913F912F910F900FBE0F901F9018954F
:103AA0001F920F920FB60F9211242F933F934F93B3
:103AB0005F936F937F938F939F93AF93BF93EF9396
:103AC000FF93E0914D03F0914E030995FF91EF9123
:103AD000BF91AF919F918F917F916F915F914F9126
:103AE0003F912F910F900FBE0F901F9018951F922E
:103AF0000F920FB60F9211242F933F934F935F9322
:103B00006F937F938F939F93AF93BF93EF93FF93A5
:103B10008091B900887F803609F44AC0F0F5883278
:103B200009F4A7C018F5803109F49BC0B8F48823C4
:103B300009F4F9C0883009F494C0FF91EF91BF9166
:103B4000AF919F918F917F916F915F914F913F9135
:103B50002F910F900FBE0F901F901895883109F488
:103B600088C0803251F780933D0414C0803409F43A
:103B70009DC040F48033B9F38833F9F680933D0457
:103B800085ECB0C0803509F485C0883509F496C04D
:103B9000883499F60E947C05D0CF883909F48CC00E
:103BA00038F5883729F050F4883611F0803729F637
:103BB00083E080933F041092430357C0883809F490
:103BC0007BC0803919F0803809F0B7CF809143036A
:103BD000803208F071C0E091430381E08E0F809342
:103BE00043038091BB00F0E0ED5DFC4F80833DC05E
:103BF000803B39F0E0F4803A09F479C0883A09F062
:103C00009CCF84E080933F04109222031092210302
:103C1000E0915103F09152030995809121038111A4
:103C20000FC081E0809321031092010309C0803C02
:103C300009F4A6CF883C09F4A3CF883B09F07DCFD7
:103C4000E091220381E08E0F80932203F0E0EF5F8A
:103C5000FC4F80818093BB009091220380912103CF
:103C600029C080911A048093BB0085EC8093BC002E
:103C700064CF90913C0480913B04981758F5E091F3
:103C80003C0481E08E0F80933C04F0E0E55EFB4F46
:103C90008081E9CFE0913C0481E08E0F80933C0469
:103CA0008091BB00F0E0E55EFB4F808390913C0487
:103CB00080913B049817C8F285E8D8CFE0913C0486
:103CC00081E08E0F80933C048091BB00F0E0E55EC4
:103CD000FB4F808380913E0481115CCF81E0809313
:103CE000190484EA8093BC0010923F0426CF85EC2F
:103CF0008093BC0010923F0480914303803230F4E3
:103D0000E0914303F0E0ED5DFC4F108260914303CE
:103D100070E0E0914F03F091500383E293E0099546
:103D2000109243030ACF10923D0434CF1F920F929A
:103D30000FB60F9211242F933F934F935F936F937E
:103D40007F938F939F93AF93BF93EF93FF931899B4
:103D500005C080910104846080930104199B33C0E5
:103D60008091150490911604A0911704B091180445
:103D7000892B8A2B8B2B81F4809111049091120452
:103D8000A0911304B0911404809315049093160429
:103D9000A0931704B09318040E94F60A811102C080
:103DA0000E94860BFF91EF91BF91AF919F918F91F0
:103DB0007F916F915F914F913F912F910F900FBE27
:103DC0000F901F90189510921504109216041092DF
:103DD000170410921804E6CF1F920F920FB60F929D
:103DE00011248F93309B09C08091010482608093DD
:103DF000010480910104809301048F910F900FBE04
:103E00000F901F9018951F920F920FB60F921124CA
:103E10002F933F934F935F936F937F938F939F93D2
:103E2000AF93BF93EF93FF934C9B09C08091010424
:103E3000816080930104809101048093010489B121
:103E400090E0880F892F881F990B892B59F4809156
:103E500001048860809301040E94F60A811102C067
:103E60000E94860BFF91EF91BF91AF919F918F912F
:103E70007F916F915F914F913F912F910F900FBE66
:103E80000F901F9018951F920F920FB60F9211244A
:103E90000F932F933F934F935F936F937F938F93E2
:103EA0009F93AF93BF93EF93FF93809111049091F1
:103EB0001204A0911304B09114040196A11DB11D28
:103EC0008093110490931204A0931304B0931404EC
:103ED0008091110490911204A0911304B0911404E4
:103EE000892B8A2B8B2BE1F488E291E0A0E0B0E0F3
:103EF0008093110490931204A0931304B0931404BC
:103F000010925502109256021092570210925802C7
:103F100010929D0210929E0210929F021092A00297
:103F20006091110470911204809113049091140413
:103F300028EE33E040E050E00E94AF25672B682B6D
:103F4000692B09F0EEC0809159028F5F809359026E
:103F5000809159028C3338F0109259028091640498
:103F60008F5F80936404809164048C3338F01092E6
:103F70006404809165048F5F80936504809165047B
:103F8000883138F010926504809109018F5F809329
:103F900009010E94270C90910901891740F481E0E2
:103FA0008093090180910A018F5F80930A018091BB
:103FB0000A018D3040F081E080930A0180910B016D
:103FC0008F5F80930B0180915902811110C0809105
:103FD000640481110CC00091640420916504409137
:103FE000090160910A0180910B010E94C910809122
:103FF00059021092DD021092DE021092DF0210923E
:10400000E0028091A1028F5F8093A1028091A102C2
:104010008F3188F48091AD029091AE02A091AF02F1
:10402000B091B00285369105A105B10598F1809156
:10403000A102833078F18AE090E09C012F5F3F4F2E
:10404000FC01EE0FFF1FEE0FFF1FE355FD4F4081F8
:10405000518162817381F901EE0FFF1FEE0FFF1F87
:10406000E355FD4F4083518362837383FC01EF5519
:10407000FD4F40812F553D4FF90140830197E8F6F0
:104080001092AD021092AE021092AF021092B002E6
:104090001092A102809107018A3F48F080910801A7
:1040A000811153C081E0809308010E9441068091F4
:1040B000590281112CC04091110450911204609159
:1040C00013047091140480919D0290919E02A0911E
:1040D0009F02B091A002E0919902481B590B6A0B14
:1040E0007B0B28EE33E0E29FC001E39F900D11248B
:1040F000092E000CAA0BBB0B84179507A607B70760
:1041000030F484E00E94F60784E00E945F0780910B
:10411000590265E00E947B2582E0911181E0809345
:1041200056030E94E406FF91EF91BF91AF919F91DA
:104130008F917F916F915F914F913F912F910F914F
:104140000F900FBE0F901F9018958091080181303D
:1041500039F40E9436061092070110920801A7CF89
:1041600080910801815080930801A1CF1F920F9286
:104170000FB60F9211245F936F937F938F939F934A
:10418000AF93BF93609179006150770B71F41092F7
:104190005402BF91AF919F918F917F916F915F91E9
:1041A0000F900FBE0F901F90189589EC96E30E9418
:1041B000872560935402EDCFEBE6F4E01382128280
:1041C00088EE93E0A0E0B0E084839583A683B78374
:1041D00029E531E03183208325EC30E035872487E1
:1041E00024EC30E03787268720EC30E0318B208BC1
:1041F00021EC30E0338B228B22EC30E0358B248BAA
:1042000026EC30E0378B268B118E128E138E148E97
:10421000E8E0F5E01382128284839583A683B78356
:104220008BE691E091838083E4E1F5E080E5808393
:1042300081E081830895CF93DF9300D000D000D038
:104240001F92CDB7DEB7F89482E880937A0083E0BE
:1042500084BD85BD80916E00816080936E0081E099
:10426000809380009BE0909381008093B00084E075
:104270008093B1001092C1007894E0917B04F0919A
:104280007C0482E08083E0917704F09178041082CE
:10429000E0917904F0917A0487E680831092830498
:1042A000E0917F04F091800486E08083E0917D04BA
:1042B000F0917E04808180618083E0917D04F091A3
:1042C0007E04808188608083E0917D04F0917E048B
:1042D000808180688083E0917D04F0917E048081FC
:1042E0008F7D808386E190E00E945525898387E158
:1042F00090E00E9455258A8388E190E00E94552530
:104300008B8389E190E00E9455258C8389819A8175
:10431000AB81BC81AC01BD014150510961097109FA
:104320004E3F5F4F6F4F7F4F50F5282F2F732093D5
:104330006404AC01BD0106E07695679557954795F5
:104340000A95D1F74F7140936504AC01BD012BE094
:1043500076956795579547952A95D1F74F71409374
:1043600009012A2F2F7020930A0134E1B695A795F1
:10437000979587953A95D1F78C5E80930B0183E0F2
:1043800084BD8BE085BD8CE787BD80916E00826027
:1043900080936E000E94050890E080E00E94552501
:1043A0008F3F51F51A82198261E0CE0101960E9479
:1043B000981014E61983BE016F5F7F4F81E090E093
:1043C0000E94B1108DE08D83BE016B5F7F4F82E054
:1043D00090E00E94B1101F8381E08E83BE01695F6F
:1043E0007F4F8FE090E00E94B110BE016A5F7F4F67
:1043F00080E190E00E94B11052985A9A85EA9DE0BF
:1044000090934E0380934D03809169008C7082607D
:1044100080936900E89A539A60E083E00E94F50374
:1044200081E08093B0000E9436060E94130F182F7F
:104430000E942A0F282F30E050E040E060EA7FE041
:1044400080E090E00E94D1252093B3008091B400D9
:104450008091B300819FC001112464E670E00E9446
:104460009B256093B4008091B4000E9441060E9495
:10447000050854985C9A3898409A2098289A57983A
:104480005F9A65E070E080E090E00E94520B87E068
:104490008093680080916D00806980936D008091A9
:1044A0006C00816080936C0080916B0083608093CE
:1044B0006B00399A419A68EE73E080E090E00E94C8
:1044C000520B0E94860B8FEF809302040E946210B1
:1044D0003A9A429821982998199B0AC00E94FE0A8C
:1044E0006093150470931604809317049093180436
:1044F00010925403109253031092410410926304DB
:1045000010923F0481E080933E0410921904449A73
:10451000459A8091B9008E7F8093B9008091B9004F
:104520008D7F8093B90080E28093B80085E480930A
:10453000BC008DE694E090935203809351038EE685
:1045400094E09093500380934F038CE08093B800E5
:1045500010927A008EE680937C0049E050E064E49B
:1045600072E08BE694E00E946F0442E050E06EE45B
:1045700072E08BE694E00E946F04F0E5CF2EF3E04A
:10458000DF2EA6E0BA2EB0E0EB2EB0E0FB2E412CE1
:10459000512C3201439480915503882391F010925D
:1045A00055030E94100D0E94EB0C823089F50E9489
:1045B0005D16882331F083E00E94F60783E00E94B5
:1045C0005F078091010483FF35C080910104877FDC
:1045D000809301040E94F60A882351F1419A43987E
:1045E00064E670E080E090E00E94520B10921504A7
:1045F000109216041092170410921804E114F1049A
:1046000051F20E94D904882331F20E940000C3CFE6
:10461000813049F40E945D16882399F282E00E945D
:10462000F60782E0CCCF81E00E94F60781E0C7CF99
:104630000E94860B0E94F60A882301F380911504DC
:1046400090911604A0911704B0911804892B8A2B1D
:104650008B2B61F4199B0AC00E94FE0A609315041B
:104660007093160480931704909318048091150496
:1046700090911604A0911704B0911804892B8A2BED
:104680008B2BB1F08091150490911604A091170422
:10469000B09118040197A105B10551F0199960C0B6
:1046A0001092150410921604109217041092180418
:1046B00080911004882359F02FB7F89480910E044C
:1046C00090910F042FBF892B11F40E947A078091DB
:1046D0000904882359F02FB7F8948091070490912A
:1046E00008042FBF892B11F40E940B070E94F60AC1
:1046F000882309F4ABC080910204A12C8F3F21F4E0
:1047000010920204E3E0AE2E8FB7F894909101046A
:1047100090FF49C09091010495FF3DC09091010424
:104720009F7D909301048FBF12E0E0910204BE9E32
:10473000F0011124E35DFE4F0280F381E02D3097FC
:1047400009F069C1A09002041150123008F06CC148
:10475000A11066C183E080930204AA24A3943CC004
:1047600060911504709116048091170490911804BB
:1047700000E028E532E040E050E00E940A0B882388
:1047800009F496CF409215045092160460921704D3
:10479000709218048DCF909101049E7F9093010434
:1047A0008FBF11E0C2CF9091010491FF14C090918E
:1047B000010495FF08C0909101049F7D909301042E
:1047C0008FBF14E0B2CF909101049D7F90930104BC
:1047D0008FBF13E0AACF8FBF8091010482FF13C067
:1047E000E0910204809101048B7F80930104BE9EBE
:1047F000F0011124E35DFE4F0480F581E02D309738
:1048000011F080E00995AA2061F00E94F60A882341
:1048100041F010E000E020E740EA68E080E00E941C
:104820000409E0910204BE9EF0011124E35DFE4FF5
:104830000190F081E02D8A2D0995109102040E94CB
:10484000F60A882319F0812F0E941A159FB7F89451
:1048500080915603109256039FBF882309F4D4C059
:10486000823009F055C020910004222309F450C081
:1048700030E050E040E06091FC037091FD038091D6
:10488000FE039091FF030E94AF25E8EEF3E08081E4
:104890009181A281B38180879187A287B387848128
:1048A0009581A681B78184879587A687B787389732
:1048B000CE16DF0661F78091F8039091F903A0917D
:1048C000FA03B091FB0380935C0390935D03A09384
:1048D0005E03B0935F0320935803309359034093D2
:1048E0005A0350935B0381E0809357031092FC03BB
:1048F0001092FD031092FE031092FF031092000429
:104900001092F8031092F9031092FA031092FB032D
:104910008091F8039091F903A091FA03B091FB0301
:10492000892B8A2B8B2B09F048C02FB7F8948091E4
:104930000B0190E08454984F092E000CAA0BBB0B7E
:1049400034E0880F991FAA1FBB1F3A95D1F7309109
:104950000A01830F911DA11DB11D45E0880F991F0C
:10496000AA1FBB1F4A95D1F730910901830F911DF2
:10497000A11DB11D55E0880F991FAA1FBB1F5A9595
:10498000D1F730916504830F911DA11DB11D66E023
:10499000880F991FAA1FBB1F6A95D1F73091640435
:1049A0002FBF830F911DA11DB11D8093F80390931C
:1049B000F903A093FA03B093FB030E94100D611555
:1049C00071058105910501F10091FC031091FD0332
:1049D0002091FE033091FF03DC01CB01800F911F7A
:1049E000A21FB31F081719072A073B0768F4809313
:1049F000FC039093FD03A093FE03B093FF0380910B
:104A000000048F5F8093000465E070E080E090E038
:104A10000E94520BF3CD812F09958111DDCE92CEEC
:104A2000AA94A092020499CE83E0A81203C0109227
:104A30000204D2CEA394A092020473E0A72ECCCE9F
:104A4000BB274A3031F4992322F4BDE29095819539
:104A50009F4F0C942C25BB27FB015527AA27880FB5
:104A6000991FAA1FA41710F0A41B83955051B9F7E2
:104A7000A05DAA3308F0A95DA193009779F7B11161
:104A8000B1931192CB010C944525DC01FC01672FF9
:104A900071917723E1F7329704C07C916D93708315
:104AA0006291AE17BF07C8F30895F999FECF92BD82
:104AB00081BDF89A992780B50895262FF999FECFE0
:104AC0001FBA92BD81BD20BD0FB6F894FA9AF99A2B
:104AD0000FBE01960895DB018F939F930E94FF25DF
:104AE000BF91AF91A29F800D911DA39F900DB29F8A
:104AF000900D11240895991B79E004C0991F961711
:104B000008F0961B881F7A95C9F780950895AA1B0F
:104B1000BB1B51E107C0AA1FBB1FA617B70710F0A8
:104B2000A61BB70B881F991F5A95A9F780959095DA
:104B3000BC01CD01089597FB072E16F4009407D011
:104B400077FD09D00E94872507FC05D03EF490959B
:104B500081959F4F0895709561957F4F0895A1E2CB
:104B60001A2EAA1BBB1BFD010DC0AA1FBB1FEE1FE7
:104B7000FF1FA217B307E407F50720F0A21BB30B32
:104B8000E40BF50B661F771F881F991F1A9469F7AE
:104B900060957095809590959B01AC01BD01CF010A
:104BA0000895052E97FB1EF400940E94E82557FDFA
:104BB00007D00E94AF2507FC03D04EF40C94E825E3
:104BC00050954095309521953F4F4F4F5F4F089539
:104BD00090958095709561957F4F8F4F9F4F089569
:104BE000A29FB001B39FC001A39F700D811D11242E
:104BF000911DB29F700D811D1124911D08950E9479
:104C0000F025A59F900DB49F900DA49F800D911D40
:104C100011240895EE0FFF1F0590F491E02D0994E3
:044C2000F894FFCF36
:104C2400FFFFFFFFFFFFFFFB0A070C16FFFFFFFF5D
:104C3400FF1F1C1F1E1F1E1F1F1E1F1E1FBA00A4A6
:104C44000076006800F200DC00C600C000361300E5
:104C54000000002F1934082208671A00000000FE23
:104C640016410F84110808D1060808080108080035
:104C7400010808F800000000000F056F049C045CA4
:104C840005CD04AB04BF04000000000406D70533BF
:104C940006AD05D005BD05AE0575522F68002E0082
:104CA4006D522F68003A30002D30002D007C003CFE
:104CB400003E004F4E002020555620667265713A22
:104CC40020002020555620647574793A2000202055
:104CD40055563A20002020446174653A2000202073
:104CE40054696D653A200020416C61726D733A001D
:104CF40020204C6576656C313A200020204C657686
:104D0400656C323A200020204E6F20496D70756C1E
:104D1400733A20004B487A0025007552006D52000A
:104D2400736563003C323000204F46460056626192
:104D34007420202020203D2000496368617267654B
:104D440072203D2000536F757263652020203D2042
:104D5400002E30005600410043686172676572009E
:104D640041444300496E697420646F6E65000D0A06
:024D740000003D
:00000001FF
