:100000000C946E030C94511D0C942C1D0C94971E93
:100010000C94ED1E0C94041F0C9496030C94960300
:100020000C9496030C9496030C9496030C949603EC
:100030000C9496030C9496030C94441F0C94960312
:100040000C9496030C9496030C94FA1C0C94D41CF8
:100050000C9496030C94B4200C9496030C94960381
:100060000C94781D0C9496030300C8001027F4012B
:100070001027C80010270B005802F4012C01F401CE
:100080005802F4012C01F4015802F4012C01F4018E
:100090005802F4012C01F4015802F4012C01F4017E
:1000A0005802F40105002C01F4016400F4012C0154
:1000B000F4016400F4012C01F4010100F401C80012
:1000C00001000100102705000100E8030000E8031B
:1000D0000100E8030000E8030100E8030500010057
:1000E000640000006400010064000000640001007E
:1000F00064000100010064003C5A81DBDB815A3C52
:100100000000FE8383FE0000000307FFFF070300DB
:1001100000000000240027002A000102040810202B
:100120004080010204081020010204081020040489
:10013000040404040404020202020202030303038F
:100140000303EF03038002CF0300C130ED04640317
:100150001281E803850078CB05392C003402F701C1
:1001600020EA020000C00123C10110C5023E28C7D9
:1001700001863601483701003A0155B1020018B630
:1001800003088227F20100260101E00F0F312B0C3A
:100190000E084EF1370710030E0900E10F000E1490
:1001A00003110731C148080F0C31360F1180298027
:1001B0000000000000003E5B4F5B3E3E6B4F6B3E1D
:1001C0001C3E7C3E1C183C7E3C181C577D571C1C5A
:1001D0005E7F5E1C00183C1800FFE7C3E7FF0018B5
:1001E000241800FFE7DBE7FF30483A060E2629799E
:1001F0002926407F050507407F05253F5A3CE73CFF
:100200005A7F3E1C1C08081C1C3E7F14227F2214AF
:100210005F5F005F5F06097F017F006689956A6006
:100220006060606094A2FFA29408047E040810201D
:100230007E201008082A1C08081C2A08081E101016
:1002400010100C1E0C1E0C30383E3830060E3E0EC0
:1002500006000000000000005F000000070007002B
:10026000147F147F14242A7F2A1223130864623611
:10027000495620500008070300001C22410000419D
:10028000221C002A1C7F1C2A08083E0808008070D7
:10029000300008080808080000606000201008040A
:1002A000023E5149453E00427F400072494949465D
:1002B0002141494D331814127F1027454545393CDB
:1002C0004A494931412111090736494949364649C8
:1002D00049291E00001400000040340000000814EA
:1002E0002241141414141400412214080201590963
:1002F000063E415D594E7C1211127C7F49494936B8
:100300003E414141227F4141413E7F494949417F30
:10031000090909013E414151737F0808087F0041E6
:100320007F41002040413F017F081422417F40402F
:1003300040407F021C027F7F0408107F3E41414104
:100340003E7F090909063E4151215E7F0919294670
:10035000264949493203017F01033F4040403F1F86
:100360002040201F3F4038403F63140814630304BB
:100370007804036159494D43007F4141410204081B
:100380001020004141417F040201020440404040EE
:1003900040000307080020545478407F2844443824
:1003A0003844444428384444287F3854545418006E
:1003B000087E090218A4A49C787F080404780044ED
:1003C0007D40002040403D007F1028440000417FD8
:1003D00040007C047804787C080404783844444461
:1003E00038FC1824241818242418FC7C0804040859
:1003F000485454542404043F44243C4040207C1C72
:100400002040201C3C4030403C44281028444C9064
:1004100090907C4464544C440008364100000077BE
:100420000000004136080002010204023C26232697
:100430003C1EA1A161123A4040207A3854545559CB
:100440002155557941225454784221555478402001
:10045000545579400C1E527212395555555939541C
:1004600054545939555454580000457C41000245B4
:100470007D420001457C407D1211127DF028252827
:10048000F07C545545002054547C547C0A097F4923
:1004900032494949323A4444443A324A4848303A67
:1004A0004141217A3A42402078009DA0A07D3D4202
:1004B00042423D3D4040403D3C24FF2424487E498B
:1004C00043662B2FFC2F2BFF0929F620C0887E09BD
:1004D0000320545479410000447D413048484A3259
:1004E000384040227A007A0A0A727D0D19317D2641
:1004F00029292F28262929292630484D4020380827
:1005000008080808080808382F10C8ACBA2F1028A7
:1005100034FA00007B000008142A142222142A1442
:10052000085500550055AA55AA55AAFF55FF55FF75
:10053000000000FF00101010FF00141414FF001042
:1005400010FF00FF1010F010F0141414FC0014142D
:10055000F700FF0000FF00FF1414F404FC1414174C
:10056000101F10101F101F1414141F00101010F073
:10057000000000001F101010101F10101010F010BD
:10058000000000FF101010101010101010FF1000CD
:100590000000FF140000FF00FF00001F1017000004
:1005A000FC04F414141710171414F404F40000FFDE
:1005B00000F714141414141414F700F71414141777
:1005C0001410101F101F141414F4141010F010F055
:1005D00000001F101F0000001F14000000FC14008A
:1005E00000F010F01010FF10FF141414FF1410107E
:1005F000101F00000000F010FFFFFFFFFFF0F0F001
:10060000F0F0FFFFFF0000000000FFFF0F0F0F0FD3
:100610000F3844443844FC4A4A4A347E02020606F3
:10062000027E027E0263554941633844443C0440E3
:100630007E201E2006027E020299A5E7A5991C2AAB
:10064000492A1C4C7201724C304A4D4D303048786A
:100650004830BC625A463D3E494949007E0101018D
:100660007E2A2A2A2A2A44445F444440514A44406C
:1006700040444A51400000FF0103E080FF000008B1
:10068000086B6B083612362436060F090F06000079
:1006900018180000001010003040FF0101001F0179
:1006A000011E00191D1712003C3C3C3C00000000DC
:1006B00000030F3FFFFF3F0F030000183C3C1800F2
:1006C000003C7EE7C3C3E77E3C080C0EFFFF0E0C28
:1006D000087E3C3C187EFFE7C300DA2011241FBED1
:1006E000CFEFD8E0DEBFCDBF12E0A0E0B1E0E2E1A5
:1006F000FCE402C005900D92A235B107D9F725E0C0
:10070000A2E5B2E001C01D92AD30B207E1F713E0FF
:10071000CEE6D3E004C02197FE010E940126CD362B
:10072000D107C9F70E9419210C9407260C940000E8
:10073000982F20915A0481E0213208F043C0809123
:1007400036048111FCCF8091590432E03093360495
:10075000909335049FEF90933404109233042093C8
:100760003204A9E3B4E0E2E1F4E090E0291331C0FF
:100770001092110490911104880F892B8093110419
:1007800080911004813049F5109210048091110479
:100790008093BB008091BC0083FDF8CF85EC8093F3
:1007A000BC00809136048230E1F3809134048F3FA5
:1007B000B1F0809134048032A1F080913404803310
:1007C00091F084E01092380410925A041092370489
:1007D00008953D9131939F5FC9CF85EEE0CF80E0D2
:1007E000F1CF82E0EFCF83E0EDCF482FE62F282F27
:1007F00030E0863009F459C000F58330E1F18530EE
:1008000009F44FC04830E0F14E3010F1443108F0A7
:1008100063C02E50310981E090E0A0E0B0E004C058
:10082000880F991FAA1FBB1F2A95D2F728B1EE2364
:1008300009F44FC0822B88B908958A30C9F18B30F2
:10084000D9F18930F9F6809180008F77809380000C
:100850002850310981E090E0A0E0B0E004C0880FAA
:10086000991FAA1FBB1F2A95D2F7E1112EC025B1EF
:10087000809582232CC09091B0009F7D9093B00012
:1008800081E090E0A0E0B0E004C0880F991FAA1FAB
:10089000BB1F4A95D2F72BB1EE23A1F0822B8BB967
:1008A000089594B59F7D94BDEBCF94B59F77FBCF12
:1008B000809180008F7DCACF8091B0008F77809328
:1008C000B000C6CF80958223EACF25B1822B85B9AF
:1008D000089580958223AFCF089508950895AF922B
:1008E000BF92CF92DF92EF92FF920F931F93CF931D
:1008F000DF936C017B018B01040F151FEB015E017F
:10090000AE18BF08C017D10759F06991D601ED9113
:10091000FC910190F081E02DC6010995892B79F7B2
:10092000C501DF91CF911F910F91FF90EF90DF9064
:10093000CF90BF90AF900895FC01538D448D252F2B
:1009400030E0842F90E0821B930B541710F0CF9669
:10095000089501970895FC01918D828D981761F09B
:10096000A28DAE0FBF2FB11D5D968C91928D9F5FB2
:100970009F73928F90E008958FEF9FEF0895FC0191
:10098000918D828D981731F0828DE80FF11D858D44
:1009900090E008958FEF9FEF0895FC01918D228DD7
:1009A000892F90E0805C9F4F821B91098F7399275C
:1009B000089582E694E00E94CD0421E0892B09F499
:1009C00020E0822F089580E090E0892B29F00E949A
:1009D000D90481110C9400000895FC01A48DA80F86
:1009E000B92FB11DA35ABF4F2C91848D90E0019671
:1009F0008F739927848FA689B7892C93A089B18991
:100A00008C91837080648C93938D848D981306C031
:100A10000288F389E02D80818F7D80830895EF9295
:100A2000FF920F931F93CF93DF93EC0181E0888FA8
:100A30009B8D8C8D98131AC0E889F989808185FF78
:100A400015C09FB7F894EE89FF896083E889F9891A
:100A500080818370806480839FBF81E090E0DF911C
:100A6000CF911F910F91FF90EF900895F62E0B8D6F
:100A700010E00F5F1F4F0F731127E02E8C8D8E112A
:100A80000CC00FB607FCFACFE889F989808185FF91
:100A9000F5CFCE010E94ED04F1CFEB8DEC0FFD2FD1
:100AA000F11DE35AFF4FF0829FB7F8940B8FEA894C
:100AB000FB8980818062CFCFCF93DF93EC01888D5B
:100AC0008823B9F0AA89BB89E889F9898C9185FDC9
:100AD00003C0808186FD0DC00FB607FCF7CF8C9157
:100AE00085FFF2CF808185FFEDCFCE010E94ED041E
:100AF000E9CFDF91CF91089585ED8093BC0080917F
:100B0000BC0084FDFCCF109236040895209121038F
:100B1000260F3327331F21323105ECF420913604A0
:100B2000FC0190E080E0243069F082E00895A0911B
:100B300021032191AC014F5F5C4FA40FB52FB11D74
:100B40002C930196861798F380912103680F609388
:100B5000210380E0089581E008950895E0914B031A
:100B600080914A03E81730F4F0E0EF51FD4F8081A7
:100B700090E008958FEF9FEF089590914B0380913F
:100B80004A032FEF3FEF981748F4E92FF0E0EF51B9
:100B9000FD4F208130E09F5F90934B03C901089582
:100BA00080914A0390914B03891B990B0895CF9232
:100BB000DF92EF92FF920F931F93CF93DF937C010D
:100BC000CB018A0120913704222389F0EB016B01CC
:100BD000C40ED51ECC15DD0569F06991D701ED91E4
:100BE000FC910190F081E02DC7010995F3CF642FAE
:100BF0000E948605C801DF91CF911F910F91FF9050
:100C0000EF90DF90CF900895CF93DF931F92CDB7F1
:100C1000DEB76983209137042223F9F020915A042A
:100C2000203258F021E030E0FC013383228390E051
:100C300080E00F90DF91CF91089580913804E82FE4
:100C4000F0E0E75CFB4F998190838F5F80933804DD
:100C500080935A0481E090E0ECCF61E0CE010196F0
:100C60000E948605F7CF90E080E00895E0EBF0E089
:100C700080818F7D80831092B10060E083E00C94CE
:100C8000F503CF93DF93C82FD62F81E0809308011F
:100C9000109207010E9436062C2F30E050E040E011
:100CA00060EA7FE080E090E00E94C825A3EBB0E01E
:100CB0002C93E4EBF0E080818C918D9FC001112496
:100CC00064E670E00E9492256083808185E08093D5
:100CD00008018AEF80930701DF91CF910895CF93A8
:100CE000DF93DC0116968C911697882399F08D91ED
:100CF0009C91119713969C938E93129781E090E0AC
:100D000015969C938E93149714968D919C9115979C
:100D1000892BD1F713961C921E921297862F90E082
:100D200081509048880F991F840F951FEC01E8812E
:100D3000F9818591949111969C938E9315961C92AE
:100D40001E92149716966C9381E0DF91CF910895CF
:100D5000CF93C82F811109C060E085E00E94F503A0
:100D600084B58F7D84BDCF910895843640F084B5DD
:100D70008F7D84BD61E085E0CF910C94F50360E048
:100D800085E00E94F50384B58F7D84BD87B58C9F77
:100D9000C001112464E670E00E94922568BD88B508
:100DA000882309F398B587B5981720F784B5806232
:100DB000D9CF80910704882379F080910504909120
:100DC0000604892B49F0809105049091060401974F
:100DD000909306048093050480910004882379F0A1
:100DE0008091FE039091FF03892B49F08091FE03CF
:100DF0009091FF0301979093FF038093FE03089562
:100E00008091FC039091FD0301969093FD038093E4
:100E1000FC032091FC033091FD038091FA03909133
:100E2000FB038217930738F460E086E00E94F50325
:100E3000109200040895A09100048091FC03909109
:100E4000FD03A150BB0BAA0FBB1FAB5DBE4F880FAC
:100E5000991F880F991FED91FC91E80FF91F85915B
:100E600094919093FF038093FE03A0910004E0917E
:100E7000FC03F091FD03A150BB0BAA0FBB1FAB5DA0
:100E8000BE4FEE0FFF1FEE0FFF1FCF010297ED9138
:100E9000FC91E80FF91F8591949161E0892B09F489
:100EA00060E086E00C94F50390910004981750F4EC
:100EB000682F45E251E08AEF93E00E946F068111AE
:100EC0000C9400070895E0E8F0E080818F7D808336
:100ED00060E08AE00E94F503109281000895CF93AC
:100EE000DF9380910304909104040196909304048D
:100EF0008093030420910304309104048091010441
:100F0000909102048217930738F40E9463071092AD
:100F10000704DF91CF910895A09107048091030405
:100F200090910404A150BB0BAA0FBB1FA35EBE4F40
:100F3000880F991F880F991FED91FC91E80FF91FF9
:100F4000859194919093060480930504A0910704E1
:100F5000E0910304F0910404A150BB0BAA0FBB1F46
:100F6000A35EBE4FEE0FFF1FEE0FFF1FCF010297D4
:100F7000ED91FC91E80FF91FC591D4910E94630790
:100F8000209709F4C6CF9E0150E040E069E07DE380
:100F900080E090E00E94C82530938900209388006B
:100FA0002091880030918900AEE1B0E00E94E725F1
:100FB00024E630E040E050E00E94A62530938B000C
:100FC00020938A008091800080628093800084E179
:100FD000809381009ECF90910704981750F4682F5A
:100FE0004DE151E081E094E00E946F0681110C9484
:100FF0006F070895229A60E08AE00E94F503569AEE
:1010000060E086E00E94F503559A60E085E00E946A
:10101000F50383E080938000109281001092890094
:101020001092880010928B0010928A00089580918F
:10103000670291E08927809367029091660291117F
:1010400007C0882329F082E3809366020E94A806E5
:101050000895CF93C0916702CC2349F0823051F0BC
:101060008130D1F08430D1F0833031F1C0E08C2F69
:10107000CF9108958CEE90916602482F55274195A7
:101080000CF4509594171506CCF4109266028091DA
:1010900066020E94A806EBCF86EFEDCF84E1909127
:1010A0006602492F480F5527551F4536510534F024
:1010B00084E680936602EBCF8AE0F1CF890FF9CF07
:1010C0006150710948F09EBD0DB407FEFDCF8EBD85
:1010D0000DB407FEFDCFF4CF089508958EBD000036
:1010E0000DB407FEFDCF8EB50895CF93DF93D82FB3
:1010F000C0915B0260E08C2F0E94F5038D2F0E944F
:101100006E0861E08C2FDF91CF910C94F5030F9363
:101110001F93CF93DF93082F162FC22F4150D42F48
:10112000D80F8AE20E94750880E00E946E08802F26
:101130000E946E0880E00E946E088D2F0E946E084B
:10114000C150C10F8BE20E94750880E00E946E08BA
:10115000812F0E946E0880E00E946E088C2F0E94F2
:101160006E088CE2DF91CF911F910F910C9475085E
:10117000CF93DF93803A78F467FD0DC0EA0121E058
:1011800041E00E9487088D2F0E946E088C2FDF910E
:10119000CF910C946E08DF91CF9108958CBD9DBDC9
:1011A0000895EF92FF920F931F93CF93DF93F82E42
:1011B000E62EC42FD22F282F240F3327331F213A96
:1011C000310514F0C0EACF192E2D2D0F3327331F10
:1011D0002138310514F0D0E8DE1980910B0590918B
:1011E0000C050E94CE082D2F4C2F6E2D8F2D0E94A6
:1011F0008708CD9FB00111246115710549F0C80120
:10120000DF91CF911F910F91FF90EF900C946008A8
:10121000DF91CF911F910F91FF90EF9008950F9361
:101220001F939FEF940F903A28F49FEF920F97FF30
:101230000E94D1081F910F9108950F931F93662369
:10124000A9F08A01262F43E150E0481B5109842F61
:10125000880F880F840F8D5F62E7621B45E01216CE
:101260001CF0219545E063E30E940F091F910F9147
:1012700008959F92AF92BF92CF92DF92EF92FF922A
:101280000F931F93CF93DF93C82FD62F142F022FC6
:10129000841316C021E0200F261B0FEF1FEF41E043
:1012A0006D2F8C2F0E940F09DF91CF911F910F910D
:1012B000FF90EF90DF90CF90BF90AF909F900895F8
:1012C000621307C041E0410F481B0FEF1FEF21E001
:1012D000E7CF80910B0590910C050E94CE08202F3E
:1012E0002D1B330B690137FF03C0D194C194D10882
:1012F000812F8C1B990B5C0197FF03C0B194A194C3
:10130000B108AC14BD0434F4812F102F082F8C2F9A
:10131000CD2FD82F1C1730F48D2FD02F082F8C2FC6
:10132000C12F182F912E9C1A202F2D1B330BC90172
:1013300037FF03C0919581959109F82EE92CE69429
:10134000D017B0F00FEF1C1708F4AECF4FEF5FEFE0
:101350006C2F8D2FAC14BD0414F06D2F8C2F0E94B8
:10136000B808EF18E7FE02C0D00FE90CCF5FEBCF53
:1013700001E0E9CFCF92DF92EF92FF920F931F939C
:10138000CF93DF93D82FF62EC42FE22E21E00E94B8
:101390000F096FEF6E0D6F0D21E04C2F8D2F0E9406
:1013A0000F092E2D41E06F2D8D2F0E940F098FEF19
:1013B0008C0F2E2D41E06F2D8D0F0E940F09DF91B4
:1013C000CF911F910F91FF90EF90DF90CF900895F4
:1013D0005F926F927F928F929F92AF92BF92CF92C5
:1013E000DF92EF92FF920F931F93CF93DF937C01D5
:1013F000D5E0F70101917F01002309F454C08091E9
:101400000B0590910C050E94CE080D02800111245D
:10141000D12CC12C0F541E4F5C2CF801EC0DFD1D7E
:10142000E491612CAE2EB12CC0915D0470906104EA
:10143000E0FF0EC080905E0490905F0460916004B5
:10144000C130E1F4660DA401852D870D0E94B80816
:101450006394F501F595E795F8E06F12E3CF8FEF10
:10146000C81AD80AE5E0CE16D104B1F68C2F880F41
:10147000C80FCC0FC70DC0936104BBCFC69D600DD4
:1014800011242C2F4C2F872DC59D800D11240E94D7
:101490008708CC9FB001112461157105C9F2C40100
:1014A0000E946008D5CFDF91CF911F910F91FF90DF
:1014B000EF90DF90CF90BF90AF909F908F907F90F4
:1014C0006F905F9008950E94E809109261048091E6
:1014D0006004885F8093600408956F927F928F927A
:1014E0009F92AF92BF92CF92DF92EF92FF920F93B3
:1014F0001F93CF93DF93882E162F5A01922E80913F
:101500000B0590910C050E94CE08C92DD0E02796BE
:1015100083E0D595C7958A95E1F7612E600ED12CB1
:10152000C12C712C161501F100E00915C9F0802FAE
:101530008770770C81110AC0E02FE695E695E69555
:10154000EC0DFD2DF11DEA0DFB1D749077FE06C01C
:10155000A701612F802F880D0E94B8080F5FE5CF8B
:101560001F5FCC0EDD1EDECFDF91CF911F910F915B
:10157000FF90EF90DF90CF90BF90AF909F908F90B3
:101580007F906F9008950F931F93CF93DF93082F51
:10159000C62F172FD42F80910B0590910C050E9418
:1015A000CE0860E080915B020E94F5030EBD0DB491
:1015B00007FEFDCF61E080915B020E94F5038C2F56
:1015C000EC2FF12F9E2F981B9D1730F491919EBD0B
:1015D0000DB407FEFDCFF6CFDF91CF911F910F9194
:1015E000089586B190E09595879580959095817046
:1015F00008952FB7F89460910804709109048091C0
:101600000A0490910B042FBF08958F929F92AF927E
:10161000BF92CF92DF92EF92FF920F934B015C014A
:1016200069017A010023C1F06091080470910904F6
:1016300080910A0490910B04C80CD91CEA1CFB1C75
:10164000C814D904EA04FB0450F4681579058A0526
:101650009B05B0F0E0E009C00E94F90AEDCFE1E09F
:101660006C157D058E059F05A8F38E2F0F91FF90B9
:10167000EF90DF90CF90BF90AF909F908F900895A4
:10168000A7019601285D3E4F4F4F5F4FE1E0621783
:1016900073078407950748F7DDCF8F929F92AF922B
:1016A000BF92CF92DF92EF92FF926B017C010E947A
:1016B000F90A4B015C01C80CD91CEA1CFB1CC814BC
:1016C000D904EA04FB0468F40E94F90A6815790554
:1016D0008A059B05C8F789E2C80E81E0D81EE11C87
:1016E000F11C0E94F90A6C157D058E059F05C8F353
:1016F000FF90EF90DF90CF90BF90AF909F908F9032
:1017000008950F931F93CF93DF930E94F10A8111E5
:1017100070C0419864E670E080E090E00E944D0B5C
:1017200081E180935B023B9A61E080915B020E94C1
:10173000F503CFB7F89480915A0281111EC0E8E3F7
:10174000F1E08491E4E2F1E09491E82FF0E0EE0F13
:10175000FF1FE05FFE4FA591B491EC91E92321F4C6
:1017600061E08AE00E94F503229A8CB580618CBD0D
:101770008CB580648CBD259A239A80915A028F5F24
:1017800080935A02CFBF80E580930B0581E0809360
:101790000C0540E070E060E00E94C30A66E970E07A
:1017A00080E090E00E944D0BC2E4D1E09E012F5FEB
:1017B0003F4FFE0184918823A1F02296F9011491F4
:1017C000012F0F77402FBE010E94C30AC00FD11D09
:1017D00017FFECCF66E970E080E090E00E944D0BCF
:1017E000E5CF10E000E020E840EA60E080E00E9401
:1017F000D108DF91CF911F910F9108956FB7F894A1
:1018000050910B0140910A013091090120915C0433
:1018100090915B046FBF823089F038F4813059F0C9
:10182000852F90E08053984F0895833049F084309D
:10183000B9F7892F01C0842F90E00895832FFCCF42
:10184000822FFACFCF93DF93CDB7DEB72C970FB6A9
:10185000F894DEBF0FBECDBF8CE0E1E1F1E0DE0128
:10186000119601900D928A95E1F780910A018230DC
:1018700011F520910B0130E02053384FC9018370DE
:101880009927892B39F4C90164E670E00E947E250E
:10189000892BC1F4C90160E971E00E947E25892B82
:1018A00089F08CE12C960FB6F894DEBF0FBECDBF49
:1018B000DF91CF910895E0910A01EC0FFD2FF11D0A
:1018C0008081F0CF8DE1EECF8F929F92AF92BF9249
:1018D000DF92EF92FF920F931F93CF93DF937C01E0
:1018E0008EE880937A0010E4D0E0C0E0DD24DA9442
:1018F0000E94F90A4B015C01D092540280917A0057
:10190000806480937A00809154028F3F69F400E0F4
:101910002AE030E040E050E0C501B4010E94050B30
:10192000882389F380E014C080915402C80FD11D30
:101930001150F1F610927A0085E0D695C7958A95F8
:10194000E1F7F701D183C083138281E0CD2B51F3FE
:10195000DF91CF911F910F91FF90EF90DF90BF909B
:10196000AF909F908F900895CF93DF9300D000D0D9
:10197000CDB7DEB719821A821B821C82CE01019676
:101980000E94640C882301F129813A81243A81E084
:101990003807C0F4273381E03807B0F044E6429FAF
:1019A000C001439F900D1124885199476EE670E065
:1019B0000E947E25862F0F900F900F900F90DF9141
:1019C000CF91089584E6F7CF80E0F5CFCF92DF92F4
:1019D000EF92FF926B017C012091060130E0A8EEAE
:1019E000B3E00E94E725C616D706E806F90688F494
:1019F0004091040150E070E060E081E0C416D5063B
:101A0000E606F70608F480E0FF90EF90DF90CF90B5
:101A1000089582E0F9CF4F925F926F927F928F92FA
:101A20009F92AF92BF92CF92DF92EF92FF92CF93AD
:101A3000CFB7F894C0900804D0900904E0900A044D
:101A4000F0900B048091DD029091DE02A091DF0204
:101A5000B091E002892B8A2B8B2BC9F02091DD02FB
:101A60003091DE024091DF025091E002CFBFCA0107
:101A7000B901CF91FF90EF90DF90CF90BF90AF90E2
:101A80009F908F907F906F905F904F90089590E01F
:101A900080E020E030E0A901F0E0E0E0DC01AA0F06
:101AA000BB1FAA0FBB1FA355BD4F8D909D90AD903E
:101AB000BC90280D391D4A1D5B1DDC01AF55BD4F83
:101AC0006C91E60FF11D283231054105510580F476
:101AD000833031F4220F331F441F551FEE0FFF1FB9
:101AE00001968C309105D1F620E030E0A901BECFFF
:101AF000A0E5B6E40E94F6252B013C019F01A8EE6B
:101B0000B3E00E94E7254B015C01C701B60128EE56
:101B100033E040E050E00E94A625A5019401260F85
:101B2000371F481F591FC301B2010E94A6252093E9
:101B3000DD023093DE024093DF025093E00296CF45
:101B40004F925F926F927F928F929F92AF92BF92CD
:101B5000CF92DF92EF92FF920F93CF93DF9300D05B
:101B600000D0CDB7DEB78091AD029091AE02A091CA
:101B7000AF02B091B002892B8A2B8B2B29F4809174
:101B800007018B3F09F4ADC08091AD029091AE0288
:101B9000A091AF02B091B0020196A11DB11D80933A
:101BA000AD029093AE02A093AF02B093B0028091C9
:101BB00007018A3F58F48091070191E0980F9093B4
:101BC0000701823318F08AEF8093070181E0809348
:101BD0004C0360919D0270919E0280919F029091B2
:101BE000A00201E020ED37E040E050E00E94050B4C
:101BF000882309F476C08091080490910904A0918B
:101C00000A04B0910B0480939D0290939E02A093CE
:101C10009F02B093A00280919D0290919E02A0919C
:101C20009F02B091A00289839A83AB83BC83809189
:101C3000A102882309F455C02091AD023091AE0273
:101C40004091AF025091B002E091A1026091060173
:101C500088EE93E0689F6001699FD00C1124F12CFD
:101C6000E12CA0E5B6E40E94F6252B013C012E2FC5
:101C700030E0A8EEB3E00E94E7254B015C016981EA
:101C80007A818B819C8128EE33E040E050E00E9415
:101C9000A625A5019401260F371F481F591FC30110
:101CA000B2010E94A6252C153D054E055F05C8F022
:101CB0000E94F10A811115C00F900F900F900F90A4
:101CC000DF91CF910F91FF90EF90DF90CF90BF9079
:101CD000AF909F908F907F906F905F904F900C94FB
:101CE000810B0F900F900F900F90DF91CF910F917C
:101CF000FF90EF90DF90CF90BF90AF909F908F902C
:101D00007F906F905F904F900895CF92DF92EF9207
:101D1000FF920F93CF9391E09093370495E79093C0
:101D200059041092380410925A04682F8FEF94E0EF
:101D30000E94040680E00E9498038091360481117D
:101D4000FCCF81E080933604109235049FEF90938E
:101D50003404109233041092320480931104809161
:101D600011048A6E80931104809110048130F1F582
:101D700010921004809111048093BB008091BC00EC
:101D800083FDF8CF85EC8093BC00809136048130D0
:101D9000E1F38091330481112BC080913304A2E1DF
:101DA000B4E0E1EEF2E0C0E0C81324C010924B03AF
:101DB000C0934A030E94F90A6B017C01C1111EC045
:101DC00000E022E330E040E050E0C701B6010E94AD
:101DD000050B8823A9F381E00E9498038C2FCF91F3
:101DE0000F91FF90EF90DF90CF90089585EECBCFCD
:101DF00081E0D5CF9D919193CF5FD6CF8FEF94E0C7
:101E00000E94BD05C82FE7CFCF93DF93EB010E945F
:101E10004C258883CE01DF91CF910895CF93DF9336
:101E20001F92CDB7DEB7BE016F5F7F4F82E090E0BB
:101E30000E94040F898181508E3110F08DE08983DA
:101E400089810F90DF91CF910895CF93DF931F92F7
:101E5000CDB7DEB7BE016F5F7F4F81E090E00E949B
:101E6000040F89818253853610F084E68983898145
:101E70000F90DF91CF910895CF9390919C022FEF17
:101E8000280F223008F086C0911118C0209105015A
:101E90002F3FC1F1823081F483E0281B8CE32C3387
:101EA00008F484C0209305010E940E0F682F8091D2
:101EB00005010E94410623C081E0EFCF9130A1F4DB
:101EC000209105012F3FF1F0823009F493E081E089
:101ED000291708F482C0291B20930501C091050130
:101EE0000E94250F6C2FE5CF923061F420910501FF
:101EF0002F3F41F08091B10081110E94360610926F
:101F00009A0241C02AEF290F233078F4209105016D
:101F10002F3F89F1823039F48AE0281750F581E0AB
:101F200080930501ECCF81E0F8CF933091F42091BC
:101F300005012F3F19F190919B02933041F48230BB
:101F400031F4921760F7291B20930501D8CF91E057
:101F5000F8CF943081F4209105012F3F79F0823041
:101F600031F485E0821728F010920501C8CF81E096
:101F7000F9CF281BE9CF992309F499C091509530E6
:101F800029F090939C0281E0CF91089584E08093A2
:101F90009C02F9CF911111C0209105012F3F39F119
:101FA000843039F483E0820F833828F4809305016C
:101FB0007BCF81E0F8CF82E8F9CF913089F420918E
:101FC00005012F3FA1F0843009F493E0920F8EE1D8
:101FD0009F3118F49093050181CF809305017ECF46
:101FE000923029F4209105012F3F09F083CF2AEF89
:101FF000290F233080F4209105012F3F09F44FC0B1
:10200000843039F48AE0820F813F08F489CF80EF71
:1020100087CF81E0F8CF933019F5C0910501CF3F0C
:1020200009F43FC090919B02933069F4843059F4D5
:1020300083E0C80FC0930501923039F4CD3008F425
:102040005ECF8CE06DCF81E0F4CF933009F057CFB5
:102050000E94220C8C1708F052CF0E94220C60CFF5
:102060009430E9F4209105012F3FD9F0843069F4D0
:1020700085E0820F8093050190919B02943039F4A2
:10208000873108F43CCF87E14BCF81E0F2CF953028
:1020900009F035CF8B3308F432CF8BE341CF983042
:1020A00031F09F5F953009F06CCF86E070CF80E013
:1020B0006BCFCF93DF931F92CDB7DEB764E071E0B3
:1020C0008FE090E00E94040F66E071E080E190E014
:1020D0000E94040F8091040181508E3F18F084E625
:1020E000809304018091060181508E3F18F081E0B9
:1020F000809306011982BE016F5F7F4F81E190E0FE
:102100000E94040F898181508E3F10F084EB8983F7
:102110008981809399020F90DF91CF910895FF926A
:102120000F931F93CF93DF93EC01F62E0881198153
:10213000C8010E944C25F81621F06F2DC8010E949D
:102140005425CE01DF91CF911F910F91FF900895FB
:102150000F931F93CF93DF9300D0CDB7DEB78B01E2
:102160009A838983FB016081CE0101960E948F10C2
:10217000C8010F900F90DF91CF911F910F9108959B
:10218000EF92FF920F931F93CF93DF9300D000D075
:1021900000D0CDB7DEB78451990B092E000CAA0BE5
:1021A000BB0B34E0880F991FAA1FBB1F3A95D1F7CC
:1021B000860F911DA11DB11D55E0880F991FAA1F03
:1021C000BB1F5A95D1F7840F911DA11DB11D65E06C
:1021D000880F991FAA1FBB1F6A95D1F7820F911D07
:1021E000A11DB11D76E0880F991FAA1FBB1F7A950C
:1021F000D1F7800F911DA11DB11D89839A83AB83F7
:10220000BC83CE0101967C0106E110E01E830D83A4
:10221000F70161917F01CE0105960E948F100F5F3B
:102220001F4F0A31110591F726960FB6F894DEBFBD
:102230000FBECDBFDF91CF911F910F91FF90EF9017
:1022400008950F930FB7F8948230E1F1A0F4813034
:1022500001F1605D60930B010FBF00915B04209161
:102260005C044091090160910A0180910B010E9478
:10227000C0100F910895833099F1843051F7609325
:102280005B0480915B048C3338F38BE380935B04B5
:10229000E3CF60930A0190910A019D3020F08CE019
:1022A00080930A0104C090910A019923C9F30E9406
:1022B000220C90910901891778F60E94220C8093D4
:1022C0000901CACF609309010E94220C9091090173
:1022D000891798F3809109018111BECF81E0EFCF7A
:1022E00060935C0480915C04883108F4B5CF87E189
:1022F00080935C04B1CF1F93CF93DF9300D000D0C5
:1023000000D01F92CDB7DEB710919C0211111FC0F3
:10231000809105018F3F89F40E94250F809305016C
:1023200010929A0281E027960FB6F894DEBF0FBE96
:10233000CDBFDF91CF911F9108958F83BE01695F5B
:102340007F4F81E090E00E94A8108FEFE7CF11301F
:1023500071F4809105018F3F19F40E940E0FDECFBA
:102360008E83BE016A5F7F4F82E090E0ECCF123037
:1023700031F4809105018F3F41F781E0CFCF8AEFA3
:10238000810F823088F5809105018F3F39F480916B
:102390000401163019F280910601C0CF1630A9F45D
:1023A000909106018D839C83BE016B5F7F4F8FE010
:1023B00090E00E94A810BE016C5F7F4F80E190E02A
:1023C0000E94A8100E945910C0CF909104019B83D5
:1023D0008A83BE016D5F7F4F8FE090E00E94A8105E
:1023E000BE016E5F7F4FEACF183071F48091050116
:1023F0008F3F19F48091990291CF8983BE016F5F5D
:102400007F4F81E190E0DCCF133061F560910501F1
:102410006F3F41F481E080939B0280E00E94FE0BBD
:10242000805D7CCF80919B0270E0813061F46053CD
:10243000784F80E00E94211182E080939B0281E02E
:102440000E94FE0B6BCF823039F481E00E94211193
:1024500010939B0282E0F4CF82E00E94211110923F
:102460009B0273CF143009F05BCF609105016F3F81
:1024700021F410939B0283E0E3CF70E080919B02F4
:10248000843041F483E00E94211185E080939B0217
:1024900084E0D6CF84E0E1CF0F931F93CF93DF93F7
:1024A000CDB7DEB72A970FB6F894DEBF0FBECDBF0B
:1024B000CB018E010F5F1F4F2AE0F80111922A9580
:1024C000E9F74AE0B8010E941725C8010E94E8090F
:1024D0002A960FB6F894DEBF0FBECDBFDF91CF9125
:1024E0001F910F910895BC0190E080E00C944C1274
:1024F000CF92DF92EF92FF92CF93DF93C42FD091D0
:102500006104683E23E072078105910548F523E0E8
:10251000411101C021E020935D04CB010E947312A0
:1025200080916004CC23A9F092E090935D04885FD1
:1025300090916104905F909361048093600489E7B7
:1025400091E0DF91CF91FF90EF90DF90CF900C94CE
:10255000E80991E090935D04885FD0936104EDCF2A
:10256000603422E472072FE082079105D8F523E05A
:10257000411101C021E020935D0428EE33E040E0EA
:1025800050E00E94A6256B017C01C9010E947312D4
:102590008EE791E00E94E809C701B60124E630E029
:1025A00040E050E00E94A625C9010E94731280916C
:1025B0006004CC2371F0885F90916104905F9093E8
:1025C00061048093600482E080935D0480E891E080
:1025D000B8CF91E090935D04885FD09361048093BD
:1025E0006004F4CF23E0411101C021E020935D0499
:1025F00020E432E44FE050E00E94A6256B017C010C
:10260000C9010E9473128EE791E00E94E809C70198
:10261000B60120EA36E841E050E00E94A625C90153
:102620000E94731280916004CC2371F0885F9091B6
:102630006104905F909361048093600482E08093D2
:102640005D0481E891E07DCF91E090935D04885F27
:10265000D093610480936004F4CF2F923F924F9205
:102660005F926F927F928F929F92AF92BF92CF9222
:10267000DF92EF92FF920F931F93CF93DF93782E09
:102680000E94F10A882309F423C2772089F18FEF91
:102690009FEFDC018093000190930101A093020160
:1026A000B09303010FEF1FEF21E446E662E382E0FF
:1026B0000E94BA0984E1E4E8F2E0DF01282F1D92CC
:1026C0002A95E9F7E0E7F2E0DF011D928A95E9F744
:1026D00010926C0210926D0210926E0210926F02B4
:1026E000109268021092690210926A0210926B02B4
:1026F0000E940B0D6B017C01609100017091010142
:102700008091020190910301C616D706E806F906EA
:1027100071F1DAE0D0936104C4E1C09360041092D7
:102720005F0410925E0441E00E947812C701B60176
:102730000E94E60CD0936104C0936004882309F4DE
:10274000E3C0813009F4E3C080E098EF90935F0428
:1027500080935E0441E0C701B6010E947812C092E6
:102760000001D0920101E0920201F09203018091F8
:102770004E03882309F492C110924E030FE413E034
:10278000F801C12CD12C760180819181A281B38185
:10279000C816D906EA06FB0610F46C017D013896CE
:1027A000B3E0EF3EFB0781F7C114D104E104F1046B
:1027B00009F47FC0E2E3CE16D104E104F10408F489
:1027C000EFC0F1E4CF16F2E4DF06FFE0EF06F1041C
:1027D00008F4A0C0C701B60120EA36E841E050E0A5
:1027E0000E94A6252F5F3F4F4F4F5F4F60EA76E86C
:1027F00081E090E00E9462256B017C0180916C0277
:1028000090916D02A0916E02B0916F028093680268
:1028100090936902A0936A02B0936B02C0926C021B
:10282000D0926D02E0926E02F0926F0284E1E4E8D1
:10283000F2E0A0E7B2E001900D928A95E1F7C701BE
:10284000B6012FE330E040E050E00E94A6251901D8
:102850002A01C4E8D2E09FE3692ED8018D909D90B3
:10286000AD90BC90B2E02B1631044104510408F045
:102870009DC0AFE3B0E0A50194010E94F625A70139
:1028800096010E94A62528838881803408F493C08D
:102890006882C501B4010E94E60C811197C088814D
:1028A00080648883085F1F4F2196F2E0C839DF07F4
:1028B000A1F684E8E82E82E0F82E00E712E0D0E0EE
:1028C000D7018D917D01F80191918F01891709F44C
:1028D00094C0C82FCF73F92FFF73DF2E09F4F9C00E
:1028E0009827907C09F47DC0807C40EE57E08034CE
:1028F00031F040E058EF803811F440EE5FEF6C2F7C
:102900008D2F0E941D0970C080EE97E01FCF80EED2
:102910009FEF1CCF21EAC21626E8D20621E0E2068C
:10292000F10488F0C701B60120E137E240E050E051
:102930000E94A6252F5F3F4F4F4F5F4FA0E1B7E2A8
:102940000E94F62559CF81E1C81687E2D806E10436
:10295000F10478F0C701B60128EE33E040E050E022
:102960000E94A6252F5F3F4F4F4F5F4FA8EEB3E069
:10297000E7CF99EEC91693E0D906E104F10408F413
:102980003DCFC701B60124E630E040E050E00E94B0
:10299000A6252F5F3F4F4F4F5F4FA4E6B0E0D0CF4B
:1029A00022E3C22ED12CE12CF12C28CFC501B40199
:1029B000A201910166CF81116CCF81149104A10411
:1029C000B10409F466CFE1E0E88363CF813019F404
:1029D0008881806866CF823009F064CF8881806CFE
:1029E00060CFFC170CF480CFCD153CF461EC6C0F7C
:1029F00050E040E08D2F0E941D09DF5FD43109F0C7
:102A00005FCFC0906C02D0906D02E0906E02F090AB
:102A10006F02C114D104E104F10409F43FC06091D4
:102A200068027091690280916A0290916B02C616E9
:102A3000D706E806F90611F4772081F1D9E6D0939C
:102A40006104C4E3C093600410925F0410925E04BA
:102A500040E00E947812C701B6010E94E60CD093B4
:102A60006104C0936004882369F1813071F180E0D2
:102A700098EF90935F0480935E0440E0C701B60135
:102A80000E94781222E34BE662E387E60E9439094E
:102A900021E54BE661E587E60E94390981E0DF9197
:102AA000CF911F910F91FF90EF90DF90CF90BF904B
:102AB000AF909F908F907F906F905F904F903F90DE
:102AC0002F90089580EE97E0D4CF80EE9FEFD1CF86
:102AD000E6CFC11109CF91CF682F70E090E080E080
:102AE0000C944C126F927F928F929F92AF92BF92F2
:102AF000CF92DF92EF92FF920F931F93CF93DF93CA
:102B0000B82E8FB7F894E0900B01F12C20E3E21A75
:102B100028EFF20AC0900A01D090090180905C046D
:102B200090905B048FBF0E940B0D0E94E60CD82F83
:102B30000E94B40C90E065E070E00E949225A62E01
:102B4000C62FC701E3E0CE9E800D911D1124F5E054
:102B5000DF9E800D911D11242BE0929E800D911D12
:102B60001124E7E08E9E800D911D112420910C010F
:102B700030910D018217930709F44CC090930D0119
:102B800080930C01109261041092600410E000E048
:102B900027E040E660E080E00E94D1088FEF9FEFE1
:102BA00090935F0480935E0481E080935D04F9E07C
:102BB000F81520F089E891E00E94E809882D0E942C
:102BC0006C1529E085E891E0291510F48EEC91E070
:102BD0000E94E809892D0E946C1589ED91E00E9400
:102BE000E809C7010E94731289E08C1508F461C0DE
:102BF00088E891E00E94E8098C2D0E946C1599E00C
:102C00009D1508F459C088E891E00E94E8098D2DCF
:102C10000E946C15809110018B15C9F1B0921001C2
:102C200035E4832E31E0932E44E1742E10E0CC2461
:102C3000CA94DC2C662463948FEF9FEFB11202C01C
:102C400080EE97E0F401428153817C010181208173
:102C500069E7872D0E946D0A133089F080E1870DA6
:102C60008093610489E780936004D0925F04C092EE
:102C70005E0460925D048DE891E00E94E8091F5FA8
:102C8000F4E08F0E911C2EE1720E1430A9F68091A3
:102C90000F01C81709F43FC0A0920F01CE3078F49D
:102CA000E12C28EFF22EC63088F0EE24EA94FE2CB8
:102CB0000DC08BE891E09ECF8BE891E0A6CF90EE1F
:102CC000E92E97E0F92EC33109F44DC0CC2349F029
:102CD000870128E04C2F60E08AE80E940F09C33189
:102CE00098F484E1D82EDC1AC65710E000E028E002
:102CF0004D2D60E08C2F0E940F09870128E04D2D9B
:102D000060E08C2F0E94BA09870124E042E062E073
:102D10008EE90E94D10880910E01D817A9F0D093B6
:102D20000E0180EE97E0DD2331F080E098EFD130A6
:102D300011F480EE9FEF7C0108E028E041ED56E0C1
:102D400060E083E70E946D0ADF91CF911F910F91A0
:102D5000FF90EF90DF90CF90BF90AF909F908F90BB
:102D60007F906F900895C4E1B3CFCF92DF92EF923E
:102D7000FF92CF930E94F90A6B017C01809155026A
:102D800090915602A0915702B09158028C159D0562
:102D9000AE05BF05D8F58091F903882371F0109234
:102DA000F90383E00E942D13C091F9030E94F10AF8
:102DB000882319F08C2F0E94721580EDC8168AE8BE
:102DC000D8068FEFE806F80690F08FEF9FEFDC0152
:102DD0008093550290935602A0935702B0935802E5
:102DE00081E0CF91FF90EF90DF90CF90089580E346
:102DF000C80E85E7D81EE11CF11CC0925502D09286
:102E00005602E0925702F0925802EACF80E0E9CFF2
:102E1000EF92FF920F931F93CF93DF93F82EE62E3E
:102E2000EA01682F660F660F660F6E5E80E580937D
:102E300061046093600410E000E028E040E50E9437
:102E4000D10880919C028F1122C0109105011F3F73
:102E5000F1F080EE9FEF90935F0480935E048FE823
:102E600091E00E94E809812F0E946C1589ED91E0A4
:102E70000E94E809CE010E94E80981E991E0DF9112
:102E8000CF911F910F91FF90EF900C94E8098FEF75
:102E90009FEF90935F0480935E048E2D0E946C15CB
:102EA00089ED91E00E94E809CE01E9CFEF92FF920F
:102EB0000F931F93CF93DF93C82F0E94F10A8823AB
:102EC00009F45DC11092610482E1809360048FEF88
:102ED0009FEF90935F0480935E0481E080935D0494
:102EE000CC2351F1C13009F052C188E080939C029B
:102EF00086E991E00E94630A82EA91E00E94630AF7
:102F00008EEA91E00E94630A85EB91E00E94630AD9
:102F10008EEB91E00E94630A87EC91E00E94630AC5
:102F200080ED91E00E94630A8BED91E00E94630ABC
:102F300086EE91E00E94630A60919802D0919C0213
:102F40006D1328C1C11126C180919A02811114C14B
:102F50000E94250F44EF51E0682F80E00E9408177F
:102F60000E940E0F48EF51E0682F81E00E94081781
:102F7000C091B10080E58093610482E28093600497
:102F800010E000E028E040E562E280E50E94D10820
:102F900080919C02823009F01FC1809105018F3F12
:102FA00009F41AC180EE9FEF90935F0480935E0452
:102FB0008FE891E00E94E80989E092E0CC2311F0CB
:102FC00083E991E00E94E80981E991E00E94E80923
:102FD0004AEF51E06091040186E00E9408174DEF2E
:102FE00051E06091060187E00E9408176091990204
:102FF00040E052E088E00E94081780E58093610479
:103000008AE28093600410E000E028E040E56AE294
:1030100080E50E94D10880919C02833009F010C1A4
:10302000C0910501CF3F09F40BC180919B02813013
:1030300009F0E0C080EE9FEF90935F0480935E0400
:1030400084E092E00E94E8098C2F0E946C1581E9CF
:1030500091E00E94E8098FEF9FEF90935F048093C7
:103060005E048BE891E00E94E80980919B02823027
:1030700009F0CCC080EE9FEF90935F0480935E04D4
:103080008FE891E00E94E809809105010E946C158B
:1030900081E991E00E94E8098FEF9FEF90935F0430
:1030A00080935E048BE891E00E94E80980919B0286
:1030B000833009F0B9C080EE9FEF90935F04809356
:1030C0005E048FE891E00E94E809809105010E946A
:1030D0006C1581E991E00E94E80980E58093610424
:1030E00082E38093600410E000E028E040E562E3C2
:1030F00080E50E94D10880919C02843009F0E7C0ED
:10310000C0910501CF3F09F4E2C080919B02843059
:1031100009F0BDC080EE9FEF90935F0480935E0442
:103120008FE891E00E94E8098C2F0E946C1581E9DC
:1031300091E00E94E8098FEF9FEF90935F048093E6
:103140005E048EEC91E00E94E80980919B0285303C
:1031500009F0B1C080EE9FEF90935F0480935E040E
:103160008FE891E00E94E809809105010E946C15AA
:1031700081E991E00E94E80981E080939A0280E071
:10318000DF91CF911F910F91FF90EF9008951092D2
:103190009C02AECE660F660F660F6E5EF12CE12CC0
:1031A00008E028E049EC56E083E00E946D0A6D2FAC
:1031B000660F660F660F6E5E80EEE82EFF24FA94AF
:1031C00028E049EC56E083E00E946D0AD093980213
:1031D000CC2309F4B9CEBCCE8FEF9FEF90935F0460
:1031E00080935E0489E092E0CC2309F4EFCE83E97A
:1031F00091E0ECCE8FEF9FEF90935F0480935E049D
:1032000080E00E94FE0B0E94731225CF81E00E9495
:10321000FE0BC82F8A3020F489E891E00E94E8096B
:103220008C2F0E946C1538CF82E00E94FE0BC82FB5
:1032300089E891E0CA3040F18C2F0E946C154DCF87
:103240008FEF9FEF90935F0480935E0480E00E9475
:10325000FE0B0E94731281E00E94FE0BC82F88E8CB
:1032600091E0CA3010F08BE891E00E94E8098C2FC1
:103270000E946C1582E00E94FE0BC82F88E891E046
:10328000CA3010F08BE891E00E94E809D5CF8FEFAB
:103290009FEF90935F0480935E0483E00E94FE0B97
:1032A000C82F8A3020F489E891E00E94E8098C2F29
:1032B0000E946C1540CF84E00E94FE0BC82F89E865
:1032C00091E0CA3008F18C2F0E946C1555CF8FEF1A
:1032D0009FEF90935F0480935E0483E00E94FE0B57
:1032E000C82F8A3020F489E891E00E94E8098C2FE9
:1032F0000E946C1584E00E94FE0BC82F85E891E0C7
:10330000CA3010F08EEC91E00E94E809DCCFBF9249
:10331000CF92DF92EF92FF920F931F93CF93DF93A1
:10332000B82E0E94F10AC82E882309F4B7C0BB202A
:10333000D1F10FEF1FEF24E142E368E284E10E9444
:10334000BA0922E240E567E286E40E94390921E4F5
:1033500040E56CE386E40E94390921E440E563E23C
:1033600080E50E94390949E5E42E46ECF42E08E098
:1033700028E041EC56E06EE289E20E946D0AF12CF1
:10338000E12C28E049EB56E06EE289E20E946D0AEA
:1033900059E5E52E56ECF52E28E041EB56E06EE2BD
:1033A00088E40E946D0AC0916502D0916602D090B7
:1033B0006702CD1307C0809164028D1103C0BB204A
:1033C00009F46CC0D11175C039E5E32E36ECF32E4B
:1033D00008E028E041EB56E06EE288E40E946D0AC6
:1033E00028E041EC56E06EE289E20E946D0AF12C81
:1033F000E12C28E049EB56E06EE289E20E946D0A7A
:1034000010E000E02AE046E660E58DE10E94D10888
:10341000DD2041F00FEF1FEF2AE046E660E58DE189
:103420000E94BA0984E6809361048BE28093600471
:1034300082E080935D0410925F0410925E0488E045
:1034400092E0CC2369F08C2F0E946C15809165026C
:10345000843620F489ED91E00E94E80988EF91E03C
:103460000E94E80984E6809361048BE28093600403
:103470008FEF9FEF90935F0480935E0480916602CC
:10348000811170C088E092E00E94E8098091660294
:103490008093650280916702809364028C2DDF9196
:1034A000CF911F910F91FF90EF90DF90CF90BF9041
:1034B000089580EEE82EFF24FA9408E028E041EB1E
:1034C00056E06EE288E40E946D0AEE24EA94FE2C37
:1034D00028E041EC56E06EE289E20E946D0A20EE9F
:1034E000E22E27E0F22E28E049EB56E06EE289E278
:1034F0000E946D0A80916402DD2041F1811110C0AB
:103500000FEF1FEF2AE046E660E58DE10E94BA0961
:1035100000EE1FEF28E04C2F61E58EE10E940F09BD
:10352000CD1758F44D2F4C1B00EE1FEF28E061E53E
:103530008EE18C0F0E940F0975CF4C2F4D1B10E0B0
:1035400000E028E061E58EE18D0FF4CF882309F4D7
:1035500069CF10E000E02AE046E660E58DE10E94D8
:10356000D10860CF0E946C1580916602843620F4E9
:1035700089ED91E00E94E80988EF91E085CFBF9244
:10358000CF92DF92EF92FF920F931F93CF93DF932F
:1035900000D000D0CDB7DEB7182F0E94F10AB82EA8
:1035A000882321F119821A821B821C8219994BC02F
:1035B00060915C0270915D0280915E0290915F0269
:1035C000611571058105910501F100E028E833E1FD
:1035D00040E050E00E94050B811117C0CE0101961A
:1035E0000E94640C81116CC011116AC08B2D0F9068
:1035F0000F900F900F90DF91CF911F910F91FF903F
:10360000EF90DF90CF90BF9008950E94F90A6093E9
:103610005C0270935D0280935E0290935F02429A17
:1036200064E670E080E090E00E944D0B429805E077
:103630001999D4CF6AE070E080E090E00E944D0BD1
:103640000150B1F7CBCF80910C0490910D04A09163
:103650000E04B0910F04892B8A2B8B2B69F080917B
:103660000C0490910D04A0910E04B0910F040197E9
:10367000A105B10509F0B2CF85E60E94850E282F7D
:1036800030E0322F22276901330FEE08FF0884E66D
:103690000E94850EA7019601280F311D411D511D65
:1036A0002F3F8FEF38074105510531F021153105C6
:1036B0004105510509F011C1CE0101960E94640C2B
:1036C00081E080935D04E0906002F090610211233C
:1036D00009F459C18FEF9FEF90935F0480935E04CC
:1036E00004E1009361048EE1809360048DE092E038
:1036F0000E94E8090093610486E28093600489E1F6
:1037000092E00E94E809009361048EE280936004D5
:1037100085E292E00E94E80910925F0410925E0434
:1037200084E6809361048EE18093600434E6C32EC6
:10373000D12CC701B6010E947E25862F0E946C15F0
:103740008091600290916102B6010E947E257C0109
:103750008AE0E816F10408F004C181E392E00E94D7
:10376000E8098E2D0E946C1584E392E00E94E8091E
:103770000E94B40C873408F0F7C08F3108F4F7C00A
:103780008FEF9FEF90935F0480935E0484E68093B5
:1037900061048EE18093600489819A8124E6E22E9F
:1037A000F12CB7010E947E25862F0E946C1589811D
:1037B0009A81B7010E947E250A9708F0DBC081E359
:1037C00092E00E94E80989819A8164E670E00E9493
:1037D0007E250E946C1584E392E00E94E8098981AD
:1037E0009A819093610280936002112309F4D1C001
:1037F00010925F0410925E0484E6E82EE092610469
:1038000096E2F92EF0926004809162020AE0602F45
:103810000E9472250E946C158EE791E00E94E809D3
:1038200080916202602F0E947225892F0E946C1580
:1038300086E392E00E94E8098FEF9FEF90935F0488
:1038400080935E04E0926104F09260048B81602FAB
:103850000E9472250E946C158EE791E00E94E80993
:103860008B81602F0E947225892F0E946C1586E340
:1038700092E00E94E8098B8180936202112309F48F
:103880008DC010925F0410925E0484E68093610400
:103890008EE28093600480916302882309F46DC0F6
:1038A00088E392E00E94E8098C8120EE37E08111E4
:1038B00002C020EE3FEF30935F0420935E0494E655
:1038C00090936104882309F45BC088E392E00E942E
:1038D000E8098C818093630289CEA7EEB8E60E9446
:1038E000F62520E432E44FE050E00E94A6252C5F4C
:1038F0003E4F3A83298387E60E94850E282F30E0C9
:10390000322F22276901330FEE08FF0886E60E9456
:10391000850EA7019601280F311D411D511D21154E
:1039200080E838074105510560F08FEF9FEFA0E078
:10393000B0E06C017D01C21AD30AE40AF50AA701BE
:1039400096016BE873EF81E090E00E94622520E829
:1039500036E948E950E00E94A6252B8381E08C835C
:10396000AFCE8EE791E0FBCE80EE97E00BCF80E00C
:1039700098EF08CF8EE791E024CF80E492E092CFD9
:1039800080E492E0A4CF89819A818E159F0509F089
:10399000C3CE9B818091620298132ACF9C81809133
:1039A000630298136ECF22CE1F920F920FB60F9222
:1039B00011242F933F934F935F936F937F938F9334
:1039C0009F93AF93BF93EF93FF9382E694E00E949F
:1039D000ED04FF91EF91BF91AF919F918F917F91F6
:1039E0006F915F914F913F912F910F900FBE0F906C
:1039F0001F9018951F920F920FB60F9211242F93BC
:103A00008F939F93EF93FF93E0917204F09173046F
:103A10008081E0917804F091790482FD1BC090814F
:103A200080917B048F5F8F7320917C04821741F01B
:103A3000E0917B04F0E0EE59FB4F958F80937B047F
:103A4000FF91EF919F918F912F910F900FBE0F904B
:103A50001F9018958081F4CF1F920F920FB60F928E
:103A600011242F933F934F935F936F937F938F9383
:103A70009F93AF93BF93EF93FF93F0E0E0E009953E
:103A8000FF91EF91BF91AF919F918F917F916F9136
:103A90005F914F913F912F910F900FBE0F901F900C
:103AA00018951F920F920FB60F9211242F933F93E8
:103AB0004F935F936F937F938F939F93AF93BF9336
:103AC000EF93FF93E0914403F09145030995FF9133
:103AD000EF91BF91AF919F918F917F916F915F9186
:103AE0004F913F912F910F900FBE0F901F901895FF
:103AF0001F920F920FB60F9211242F933F934F9363
:103B00005F936F937F938F939F93AF93BF93EF9345
:103B1000FF938091B900887F803609F44AC0F0F5A0
:103B2000883209F4A7C018F5803109F49BC0B8F4B5
:103B3000882309F4F9C0883009F494C0FF91EF910B
:103B4000BF91AF919F918F917F916F915F914F91B5
:103B50003F912F910F900FBE0F901F9018958831B5
:103B600009F488C0803251F78093340414C0803443
:103B700009F49DC040F48033B9F38833F9F680939B
:103B8000340485ECB0C0803509F485C0883509F46B
:103B900096C0883499F60E947C05D0CF883909F404
:103BA0008CC038F5883729F050F4883611F080370A
:103BB00029F683E0809336041092430357C0883877
:103BC00009F47BC0803919F0803809F0B7CF8091B3
:103BD0004303803208F071C0E091430381E08E0F0F
:103BE000809343038091BB00F0E0ED5DFC4F808348
:103BF0003DC0803B39F0E0F4803A09F479C0883A5E
:103C000009F09CCF84E08093360410922203109236
:103C10002103E0914803F091490309958091210324
:103C200081110FC081E0809321031092010309C02C
:103C3000803C09F4A6CF883C09F4A3CF883B09F067
:103C40007DCFE091220381E08E0F80932203F0E08C
:103C5000EF5FFC4F80818093BB00909122038091A5
:103C6000210329C0809111048093BB0085EC8093CF
:103C7000BC0064CF9091330480913204981758F5BA
:103C8000E091330481E08E0F80933304F0E0EE5E28
:103C9000FB4F8081E9CFE091330481E08E0F809368
:103CA00033048091BB00F0E0EE5EFB4F8083909187
:103CB0003304809132049817C8F285E8D8CFE09198
:103CC000330481E08E0F809333048091BB00F0E0D9
:103CD000EE5EFB4F80838091350481115CCF81E0E3
:103CE0008093100484EA8093BC001092360426CF9F
:103CF00085EC8093BC00109236048091430380329F
:103D000030F4E0914303F0E0ED5DFC4F10826091F0
:103D1000430370E0E0914603F091470383E293E0B0
:103D20000995109243030ACF1092340434CF1F92A6
:103D30000F920FB60F9211242F933F934F935F93DF
:103D40006F937F938F939F93AF93BF93EF93FF9363
:103D5000189905C08091F80384608093F803199B3B
:103D600033C080910C0490910D04A0910E04B09189
:103D70000F04892B8A2B8B2B81F48091080490915E
:103D80000904A0910A04B0910B0480930C04909351
:103D90000D04A0930E04B0930F040E94F10A811148
:103DA00002C00E94810BFF91EF91BF91AF919F9153
:103DB0008F917F916F915F914F913F912F910F90D4
:103DC0000FBE0F901F90189510920C0410920D04C6
:103DD00010920E0410920F04E6CF1F920F920FB6AE
:103DE0000F9211248F93309B09C08091F803826059
:103DF0008093F8038091F8038093F8038F910F90DC
:103E00000FBE0F901F9018951F920F920FB60F9232
:103E100011242F933F934F935F936F937F938F93CF
:103E20009F93AF93BF93EF93FF934C9B09C08091F7
:103E3000F80381608093F8038091F8038093F8037E
:103E400089B190E0880F892F881F990B892B59F42D
:103E50008091F80388608093F8030E94F10A811131
:103E600002C00E94810BFF91EF91BF91AF919F9192
:103E70008F917F916F915F914F913F912F910F9013
:103E80000FBE0F901F9018951F920F920FB60F92B2
:103E900011240F932F933F934F935F936F937F93CF
:103EA0008F939F93AF93BF93EF93FF9380910804F9
:103EB00090910904A0910A04B0910B040196A11DF0
:103EC000B11D8093080490930904A0930A04B09351
:103ED0000B048091080490910904A0910A04B09108
:103EE0000B04892B8A2B8B2BE1F488E291E0A0E074
:103EF000B0E08093080490930904A0930A04B0935F
:103F00000B04109255021092560210925702109212
:103F1000580210929D0210929E0210929F021092DF
:103F2000A002609108047091090480910A049091A4
:103F30000B0428EE33E040E050E00E94A625672BFA
:103F4000682B692B09F0F8C0809159028F5F80932C
:103F50005902809159028C3338F0109259028091A5
:103F60005B048F5F80935B0480915B048C3338F03B
:103F700010925B0480915C048F5F80935C0480915D
:103F80005C04883138F010925C04809109018F5FE5
:103F9000809309010E94220C90910901891740F435
:103FA00081E08093090180910A018F5F80930A016B
:103FB00080910A018D3040F081E080930A01809168
:103FC0000B018F5F80930B0180915902811110C00A
:103FD00080915B0481110CC000915B0420915C0412
:103FE0004091090160910A0180910B010E94C0106B
:103FF000809159021092DD021092DE021092DF02CF
:104000001092E0028091A1028F5F8093A1028091C3
:10401000A1028F3188F48091AD029091AE02A091FF
:10402000AF02B091B00285369105A105B10598F1B6
:104030008091A102833078F18AE090E09C012F5FAB
:104040003F4FFC01EE0FFF1FEE0FFF1FE355FD4F2B
:104050004081518162817381F901EE0FFF1FEE0FE4
:10406000FF1FE355FD4F4083518362837383FC013F
:10407000EF55FD4F40812F553D4FF901408301978A
:10408000E8F61092AD021092AE021092AF021092BA
:10409000B0021092A102809107018A3F98F08091AE
:1040A0000801811104C081E0809308010BC0809158
:1040B0000801813009F054C00E94360610920701B1
:1040C000109208018091590281112CC0409108047E
:1040D0005091090460910A0470910B0480919D0233
:1040E00090919E02A0919F02B091A002E09199024E
:1040F000481B590B6A0B7B0B28EE33E0E29FC00193
:10410000E39F900D1124092E000CAA0BBB0B841702
:104110009507A607B70730F484E00E94EB0784E018
:104120000E9454078091590265E00E94722582E046
:10413000911181E080934D030E94D906FF91EF9188
:10414000BF91AF919F918F917F916F915F914F91AF
:104150003F912F910F910F900FBE0F901F901895C8
:10416000809108018150A0CF1F920F920FB60F923D
:1041700011245F936F937F938F939F93AF93BF931C
:10418000609179006150770B71F410925402BF91E5
:10419000AF919F918F917F916F915F910F900FBE23
:1041A0000F901F90189589EC96E30E947E256093EE
:1041B0005402EDCFE2E6F4E01382128288EE93E03F
:1041C000A0E0B0E084839583A683B78329E531E03E
:1041D0003183208325EC30E03587248724EC30E0E0
:1041E0003787268720EC30E0318B208B21EC30E0C4
:1041F000338B228B22EC30E0358B248B26EC30E0A5
:10420000378B268B118E128E138E148EEFEFF4E007
:104210001382128284839583A683B7838BE691E011
:1042200091838083EBE0F5E080E5808381E081830A
:104230000895CF93DF9300D000D000D01F92CDB768
:10424000DEB7F89482E880937A0083E084BD85BD70
:1042500081E0809380009BE0909381008093B00088
:1042600084E08093B1001092C1007894E0917204D0
:10427000F091730482E08083E0916E04F0916F040A
:104280001082E0917004F091710487E680831092AF
:104290007A04E0917604F091770486E08083E091DF
:1042A0007404F0917504808180618083E0917404CE
:1042B000F0917504808188608083E0917404F091AE
:1042C0007504808180688083E0917404F0917504A6
:1042D00080818F7D808386E190E00E944C258983D8
:1042E00087E190E00E944C258A8388E190E00E945B
:1042F0004C258B8389E190E00E944C258C83898139
:104300009A81AB81BC81AC01BD0141505109610969
:1043100071094E3F5F4F6F4F7F4F50F5282F2F731E
:1043200020935B04AC01BD0106E076956795579537
:1043300047950A95D1F74F7140935C04AC01BD01DC
:104340002BE076956795579547952A95D1F74F714C
:10435000409309012A2F2F7020930A0134E1B6956A
:10436000A795979587953A95D1F78C5E80930B0129
:1043700083E084BD8BE085BD8CE787BD80916E00B6
:10438000826080936E000E94FA0790E080E00E94B5
:104390004C258F3F51F51A82198261E0CE010196BA
:1043A0000E948F1014E61983BE016F5F7F4F81E07A
:1043B00090E00E94A8108DE08D83BE016B5F7F4F5F
:1043C00082E090E00E94A8101F8381E08E83BE01EE
:1043D000695F7F4F8FE090E00E94A810BE016A5F86
:1043E0007F4F80E190E00E94A81052985A9A80EA8C
:1043F0009DE09093450380934403809169008C7005
:10440000826080936900E89A539A60E083E00E949A
:10441000F50381E08093B0000E9436060E940E0FE3
:10442000182F0E94250F282F30E050E040E060EA6E
:104430007FE080E090E00E94C8252093B300809147
:10444000B4008091B300819FC001112464E670E044
:104450000E9492256093B4008091B4000E94FA07F4
:1044600054985C9A3898409A2098289A57985F9A5E
:1044700065E070E080E090E00E944D0B87E0809363
:10448000680080916D00806980936D0080916C0060
:10449000816080936C0080916B00836080936B00DF
:1044A000399A419A68EE73E080E090E00E944D0BEB
:1044B0000E94810B8FEF8093F9030E9459103A9A62
:1044C000429821982998199B0AC00E94F90A609382
:1044D0000C0470930D0480930E0490930F041092BB
:1044E0004B0310924A031092380410925A0410920F
:1044F000360481E08093350410921004449A459A62
:104500008091B9008E7F8093B9008091B9008D7F32
:104510008093B90080E28093B80085E48093BC006A
:104520008DE694E090934903809348038EE694E0EF
:1045300090934703809346038CE08093B8001092D9
:104540007A008EE680937C0049E050E064E472E0FB
:1045500082E694E00E946F0442E050E06EE472E074
:1045600082E694E00E946F04F7E4CF2EF3E0DF2EA2
:10457000A6E0BA2EB0E0EB2EB0E0FB2E412C512C81
:104580003201439480914C03882391F010924C03A4
:104590000E940B0D0E94E60C823089F50E94B51630
:1045A000882331F083E00E94EB0783E00E945407E8
:1045B0008091F80383FF35C08091F803877F809353
:1045C000F8030E94F10A882351F1419A439864E666
:1045D00070E080E090E00E944D0B10920C0410926D
:1045E0000D0410920E0410920F04E114F10451F224
:1045F0000E94D904882331F20E940000C3CF813089
:1046000049F40E94B516882399F282E00E94EB07D4
:1046100082E0CCCF81E00E94EB0781E0C7CF0E940F
:10462000810B0E94F10A882301F380910C04909180
:104630000D04A0910E04B0910F04892B8A2B8B2BB3
:1046400061F4199B0AC00E94F90A60930C047093EC
:104650000D0480930E0490930F0480910C049091AC
:104660000D04A0910E04B0910F04892B8A2B8B2B83
:10467000B1F080910C0490910D04A0910E04B091C2
:104680000F040197A105B10551F0199960C010926E
:104690000C0410920D0410920E0410920F048091DD
:1046A0000704882359F02FB7F8948091050490915E
:1046B00006042FBF892B11F40E946F07809100041C
:1046C000882359F02FB7F8948091FE039091FF034F
:1046D0002FBF892B11F40E9400070E94F10A882342
:1046E00009F4ABC08091F903A12C8F3F21F4109203
:1046F000F903E3E0AE2E8FB7F8949091F80390FFA2
:1047000049C09091F80395FF3DC09091F8039F7DBB
:104710009093F8038FBF12E0E091F903BE9EF00181
:104720001124E35DFE4F0280F381E02D309709F004
:1047300069C1A090F9031150123008F06CC1A110AA
:1047400066C183E08093F903AA24A3943CC06091DE
:104750000C0470910D0480910E0490910F0400E000
:1047600028E532E040E050E00E94050B882309F480
:1047700096CF40920C0450920D0460920E047092F9
:104780000F048DCF9091F8039E7F9093F8038FBF15
:1047900011E0C2CF9091F80391FF14C09091F803FB
:1047A00095FF08C09091F8039F7D9093F8038FBF09
:1047B00014E0B2CF9091F8039D7F9093F8038FBFE0
:1047C00013E0AACF8FBF8091F80382FF13C0E0915E
:1047D000F9038091F8038B7F8093F803BE9EF0016C
:1047E0001124E35DFE4F0480F581E02D309711F038
:1047F00080E00995AA2061F00E94F10A882341F027
:1048000010E000E020E740EA68E080E00E94D10884
:10481000E091F903BE9EF0011124E35DFE4F01908B
:10482000F081E02D8A2D09951091F9030E94F10A7B
:10483000882319F0812F0E9472159FB7F8948091F8
:104840004D0310924D039FBF882309F4D4C08230DA
:1048500009F055C02091F703222309F450C030E03D
:1048600050E040E06091F3037091F4038091F50310
:104870009091F6030E94A625EFEDF3E080819181EF
:10488000A281B38180879187A287B3878481958134
:10489000A681B78184879587A687B7873897CE1674
:1048A000DF0661F78091EF039091F003A091F1038F
:1048B000B091F2038093530390935403A093550354
:1048C000B093560320934F0330935003409351030A
:1048D0005093520381E080934E031092F3031092A1
:1048E000F4031092F5031092F6031092F70310925E
:1048F000EF031092F0031092F1031092F2038091F3
:10490000EF039091F003A091F103B091F203892B92
:104910008A2B8B2B09F048C02FB7F89480910B019C
:1049200090E08454984F092E000CAA0BBB0B34E086
:10493000880F991FAA1FBB1F3A95D1F730910A0122
:10494000830F911DA11DB11D45E0880F991FAA1F5E
:10495000BB1F4A95D1F730910901830F911DA11D0D
:10496000B11D55E0880F991FAA1FBB1F5A95D1F79B
:1049700030915C04830F911DA11DB11D66E0880F6D
:10498000991FAA1FBB1F6A95D1F730915B042FBFF7
:10499000830F911DA11DB11D8093EF039093F00330
:1049A000A093F103B093F2030E940B0D6115710502
:1049B0008105910501F10091F3031091F403209119
:1049C000F5033091F603DC01CB01800F911FA21F8C
:1049D000B31F081719072A073B0768F48093F303EE
:1049E0009093F403A093F503B093F6038091F7033B
:1049F0008F5F8093F70365E070E080E090E00E94B5
:104A00004D0BF3CD812F09958111DDCE92CEAA9465
:104A1000A092F90399CE83E0A81203C01092F90383
:104A2000D2CEA394A092F90373E0A72ECCCEBB27DD
:104A30004A3031F4992322F4BDE2909581959F4F3D
:104A40000C942325BB27FB015527AA27880F991F04
:104A5000AA1FA41710F0A41B83955051B9F7A05DAD
:104A6000AA3308F0A95DA193009779F7B111B1932A
:104A70001192CB010C943C25DC01FC01672F719154
:104A80007723E1F7329704C07C916D937083629134
:104A9000AE17BF07C8F30895F999FECF92BD81BD47
:104AA000F89A992780B50895262FF999FECF1FBA55
:104AB00092BD81BD20BD0FB6F894FA9AF99A0FBE47
:104AC00001960895DB018F939F930E94F625BF9175
:104AD000AF91A29F800D911DA39F900DB29F900D4D
:104AE00011240895991B79E004C0991F961708F0C6
:104AF000961B881F7A95C9F780950895AA1BBB1B42
:104B000051E107C0AA1FBB1FA617B70710F0A61BCD
:104B1000B70B881F991F5A95A9F780959095BC01EE
:104B2000CD01089597FB072E16F4009407D077FD6A
:104B300009D00E947E2507FC05D03EF49095819512
:104B40009F4F0895709561957F4F0895A1E21A2EA9
:104B5000AA1BBB1BFD010DC0AA1FBB1FEE1FFF1F21
:104B6000A217B307E407F50720F0A21BB30BE40B71
:104B7000F50B661F771F881F991F1A9469F76095B8
:104B80007095809590959B01AC01BD01CF01089572
:104B9000052E97FB1EF400940E94DF2557FD07D0D9
:104BA0000E94A62507FC03D04EF40C94DF255095F7
:104BB0004095309521953F4F4F4F5F4F0895909509
:104BC0008095709561957F4F8F4F9F4F0895A29F5D
:104BD000B001B39FC001A39F700D811D1124911DD1
:104BE000B29F700D811D1124911D08950E94E7252B
:104BF000A59F900DB49F900DA49F800D911D112431
:104C00000895EE0FFF1F0590F491E02D0994F8949C
:024C1000FFCFD4
:104C1200FFFFFFFFFFFFFFFB0A070C16FFFFFFFF6F
:104C2200FF1F1C1F1E1F1E1F1F1E1F1E1FBA00A4B8
:104C32000076006800F200DC00C600C0002D130000
:104C4200000000871929081708BF1A000000005643
:104C5200173C0F7B110808D1060808080108080054
:104C6200010808F800000000000F056F049C045CB6
:104C720005CD04AB04BF04000000000406D70533D1
:104C820006AD05D005BD05AE0575522F68002E0094
:104C92006D522F68003A30002D30002D007C003C10
:104CA200003E004F4E002020555620667265713A34
:104CB20020002020555620647574793A2000202067
:104CC20055563A20002020446174653A2000202085
:104CD20054696D653A200020416C61726D733A002F
:104CE20020204C6576656C313A200020204C657698
:104CF200656C323A200020204E6F20496D70756C31
:104D0200733A20004B487A0025007552006D52001C
:104D1200736563003C323000204F464600566261A4
:104D22007420202020203D2000496368617267655D
:104D320072203D2000536F757263652020203D2054
:104D4200002E3000560041004368617267657200B0
:104D520041444300496E697420646F6E65000D0A18
:024D620000004F
:00000001FF
